{
  "contractName": "SignMeUp",
  "abi": [
    {
      "inputs": [],
      "stateMutability": "nonpayable",
      "type": "constructor"
    },
    {
      "anonymous": false,
      "inputs": [
        {
          "indexed": true,
          "internalType": "address",
          "name": "owner",
          "type": "address"
        },
        {
          "indexed": true,
          "internalType": "address",
          "name": "spender",
          "type": "address"
        },
        {
          "indexed": false,
          "internalType": "uint256",
          "name": "value",
          "type": "uint256"
        }
      ],
      "name": "Approval",
      "type": "event"
    },
    {
      "anonymous": false,
      "inputs": [
        {
          "indexed": true,
          "internalType": "address",
          "name": "previousOwner",
          "type": "address"
        },
        {
          "indexed": true,
          "internalType": "address",
          "name": "newOwner",
          "type": "address"
        }
      ],
      "name": "OwnershipTransferred",
      "type": "event"
    },
    {
      "anonymous": false,
      "inputs": [
        {
          "indexed": false,
          "internalType": "uint256",
          "name": "id",
          "type": "uint256"
        }
      ],
      "name": "SignMeUpEntryCreated",
      "type": "event"
    },
    {
      "anonymous": false,
      "inputs": [
        {
          "indexed": true,
          "internalType": "address",
          "name": "from",
          "type": "address"
        },
        {
          "indexed": true,
          "internalType": "address",
          "name": "to",
          "type": "address"
        },
        {
          "indexed": false,
          "internalType": "uint256",
          "name": "value",
          "type": "uint256"
        }
      ],
      "name": "Transfer",
      "type": "event"
    },
    {
      "inputs": [
        {
          "internalType": "address",
          "name": "owner",
          "type": "address"
        },
        {
          "internalType": "address",
          "name": "spender",
          "type": "address"
        }
      ],
      "name": "allowance",
      "outputs": [
        {
          "internalType": "uint256",
          "name": "",
          "type": "uint256"
        }
      ],
      "stateMutability": "view",
      "type": "function",
      "constant": true
    },
    {
      "inputs": [
        {
          "internalType": "address",
          "name": "spender",
          "type": "address"
        },
        {
          "internalType": "uint256",
          "name": "amount",
          "type": "uint256"
        }
      ],
      "name": "approve",
      "outputs": [
        {
          "internalType": "bool",
          "name": "",
          "type": "bool"
        }
      ],
      "stateMutability": "nonpayable",
      "type": "function"
    },
    {
      "inputs": [
        {
          "internalType": "address",
          "name": "account",
          "type": "address"
        }
      ],
      "name": "balanceOf",
      "outputs": [
        {
          "internalType": "uint256",
          "name": "",
          "type": "uint256"
        }
      ],
      "stateMutability": "view",
      "type": "function",
      "constant": true
    },
    {
      "inputs": [],
      "name": "decimals",
      "outputs": [
        {
          "internalType": "uint8",
          "name": "",
          "type": "uint8"
        }
      ],
      "stateMutability": "view",
      "type": "function",
      "constant": true
    },
    {
      "inputs": [
        {
          "internalType": "address",
          "name": "spender",
          "type": "address"
        },
        {
          "internalType": "uint256",
          "name": "subtractedValue",
          "type": "uint256"
        }
      ],
      "name": "decreaseAllowance",
      "outputs": [
        {
          "internalType": "bool",
          "name": "",
          "type": "bool"
        }
      ],
      "stateMutability": "nonpayable",
      "type": "function"
    },
    {
      "inputs": [
        {
          "internalType": "uint256",
          "name": "",
          "type": "uint256"
        }
      ],
      "name": "entries",
      "outputs": [
        {
          "internalType": "uint256",
          "name": "id",
          "type": "uint256"
        },
        {
          "internalType": "address",
          "name": "organizer",
          "type": "address"
        },
        {
          "internalType": "string",
          "name": "title",
          "type": "string"
        },
        {
          "internalType": "uint256",
          "name": "spots",
          "type": "uint256"
        },
        {
          "internalType": "uint256",
          "name": "registrationDueDate",
          "type": "uint256"
        },
        {
          "internalType": "uint256",
          "name": "eventDate",
          "type": "uint256"
        },
        {
          "internalType": "enum SignMeUp.State",
          "name": "state",
          "type": "uint8"
        }
      ],
      "stateMutability": "view",
      "type": "function",
      "constant": true
    },
    {
      "inputs": [
        {
          "internalType": "address",
          "name": "spender",
          "type": "address"
        },
        {
          "internalType": "uint256",
          "name": "addedValue",
          "type": "uint256"
        }
      ],
      "name": "increaseAllowance",
      "outputs": [
        {
          "internalType": "bool",
          "name": "",
          "type": "bool"
        }
      ],
      "stateMutability": "nonpayable",
      "type": "function"
    },
    {
      "inputs": [],
      "name": "name",
      "outputs": [
        {
          "internalType": "string",
          "name": "",
          "type": "string"
        }
      ],
      "stateMutability": "view",
      "type": "function",
      "constant": true
    },
    {
      "inputs": [],
      "name": "owner",
      "outputs": [
        {
          "internalType": "address",
          "name": "",
          "type": "address"
        }
      ],
      "stateMutability": "view",
      "type": "function",
      "constant": true
    },
    {
      "inputs": [],
      "name": "renounceOwnership",
      "outputs": [],
      "stateMutability": "nonpayable",
      "type": "function"
    },
    {
      "inputs": [],
      "name": "symbol",
      "outputs": [
        {
          "internalType": "string",
          "name": "",
          "type": "string"
        }
      ],
      "stateMutability": "view",
      "type": "function",
      "constant": true
    },
    {
      "inputs": [],
      "name": "totalSupply",
      "outputs": [
        {
          "internalType": "uint256",
          "name": "",
          "type": "uint256"
        }
      ],
      "stateMutability": "view",
      "type": "function",
      "constant": true
    },
    {
      "inputs": [
        {
          "internalType": "address",
          "name": "recipient",
          "type": "address"
        },
        {
          "internalType": "uint256",
          "name": "amount",
          "type": "uint256"
        }
      ],
      "name": "transfer",
      "outputs": [
        {
          "internalType": "bool",
          "name": "",
          "type": "bool"
        }
      ],
      "stateMutability": "nonpayable",
      "type": "function"
    },
    {
      "inputs": [
        {
          "internalType": "address",
          "name": "sender",
          "type": "address"
        },
        {
          "internalType": "address",
          "name": "recipient",
          "type": "address"
        },
        {
          "internalType": "uint256",
          "name": "amount",
          "type": "uint256"
        }
      ],
      "name": "transferFrom",
      "outputs": [
        {
          "internalType": "bool",
          "name": "",
          "type": "bool"
        }
      ],
      "stateMutability": "nonpayable",
      "type": "function"
    },
    {
      "inputs": [
        {
          "internalType": "address",
          "name": "newOwner",
          "type": "address"
        }
      ],
      "name": "transferOwnership",
      "outputs": [],
      "stateMutability": "nonpayable",
      "type": "function"
    },
    {
      "inputs": [],
      "name": "getEntriesCount",
      "outputs": [
        {
          "internalType": "uint256",
          "name": "",
          "type": "uint256"
        }
      ],
      "stateMutability": "view",
      "type": "function",
      "constant": true
    },
    {
      "inputs": [
        {
          "internalType": "string",
          "name": "_title",
          "type": "string"
        },
        {
          "internalType": "uint256",
          "name": "_spots",
          "type": "uint256"
        },
        {
          "internalType": "uint256",
          "name": "_registrationDueDate",
          "type": "uint256"
        },
        {
          "internalType": "uint256",
          "name": "_eventDate",
          "type": "uint256"
        }
      ],
      "name": "createNewSignUpEntry",
      "outputs": [
        {
          "internalType": "uint256",
          "name": "",
          "type": "uint256"
        }
      ],
      "stateMutability": "nonpayable",
      "type": "function"
    }
  ],
  "bytecode": "0x60806040523480156200001157600080fd5b506040518060400160405280600881526020017f5369676e4d6555700000000000000000000000000000000000000000000000008152506040518060400160405280600381526020017f534d55000000000000000000000000000000000000000000000000000000000081525081600390805190602001906200009692919062000443565b508060049080519060200190620000af92919062000443565b505050620000d2620000c6620001ca60201b60201c565b620001d260201b60201c565b620001206040518060400160405280600781526020017f4576656e74203100000000000000000000000000000000000000000000000000815250600a612710614e206200029860201b60201c565b50620001716040518060400160405280600781526020017f4576656e74203200000000000000000000000000000000000000000000000000815250600c620186a062030d406200029860201b60201c565b50620001c36040518060400160405280600781526020017f4576656e742033000000000000000000000000000000000000000000000000008152506017629896806301312d006200029860201b60201c565b50620005bf565b600033905090565b6000600560009054906101000a900473ffffffffffffffffffffffffffffffffffffffff16905081600560006101000a81548173ffffffffffffffffffffffffffffffffffffffff021916908373ffffffffffffffffffffffffffffffffffffffff1602179055508173ffffffffffffffffffffffffffffffffffffffff168173ffffffffffffffffffffffffffffffffffffffff167f8be0079c531659141344cd1fd0a4f28419497f9722a3daafe3b4186f6b6457e060405160405180910390a35050565b600080600680549050905060006040518060e001604052808381526020013373ffffffffffffffffffffffffffffffffffffffff16815260200188815260200187815260200186815260200185815260200160006001811115620003015762000300620004f3565b5b815250905060068190806001815401808255809150506001900390600052602060002090600702016000909190919091506000820151816000015560208201518160010160006101000a81548173ffffffffffffffffffffffffffffffffffffffff021916908373ffffffffffffffffffffffffffffffffffffffff1602179055506040820151816002019080519060200190620003a192919062000443565b50606082015181600301556080820151816004015560a0820151816005015560c08201518160060160006101000a81548160ff02191690836001811115620003ee57620003ed620004f3565b5b021790555050507f63fbb601c5f46806528e8a39b19accc635c3678db83a34bb09c765f99ad6c29781600001516040516200042a91906200053d565b60405180910390a1806000015192505050949350505050565b828054620004519062000589565b90600052602060002090601f016020900481019282620004755760008555620004c1565b82601f106200049057805160ff1916838001178555620004c1565b82800160010185558215620004c1579182015b82811115620004c0578251825591602001919060010190620004a3565b5b509050620004d09190620004d4565b5090565b5b80821115620004ef576000816000905550600101620004d5565b5090565b7f4e487b7100000000000000000000000000000000000000000000000000000000600052602160045260246000fd5b6000819050919050565b620005378162000522565b82525050565b60006020820190506200055460008301846200052c565b92915050565b7f4e487b7100000000000000000000000000000000000000000000000000000000600052602260045260246000fd5b60006002820490506001821680620005a257607f821691505b60208210811415620005b957620005b86200055a565b5b50919050565b611ea580620005cf6000396000f3fe608060405234801561001057600080fd5b506004361061010b5760003560e01c8063715018a6116100a2578063a9059cbb11610071578063a9059cbb146102d0578063b30906d414610300578063d09685b014610336578063dd62ed3e14610354578063f2fde38b146103845761010b565b8063715018a61461025a5780638da5cb5b1461026457806395d89b4114610282578063a457c2d7146102a05761010b565b806323b872dd116100de57806323b872dd146101ac578063313ce567146101dc57806339509351146101fa57806370a082311461022a5761010b565b8063010cd7cc1461011057806306fdde0314610140578063095ea7b31461015e57806318160ddd1461018e575b600080fd5b61012a60048036038101906101259190611427565b6103a0565b60405161013791906114b9565b60405180910390f35b610148610541565b604051610155919061155c565b60405180910390f35b610178600480360381019061017391906115dc565b6105d3565b6040516101859190611637565b60405180910390f35b6101966105f1565b6040516101a391906114b9565b60405180910390f35b6101c660048036038101906101c19190611652565b6105fb565b6040516101d39190611637565b60405180910390f35b6101e46106f3565b6040516101f191906116c1565b60405180910390f35b610214600480360381019061020f91906115dc565b6106fc565b6040516102219190611637565b60405180910390f35b610244600480360381019061023f91906116dc565b6107a8565b60405161025191906114b9565b60405180910390f35b6102626107f0565b005b61026c610878565b6040516102799190611718565b60405180910390f35b61028a6108a2565b604051610297919061155c565b60405180910390f35b6102ba60048036038101906102b591906115dc565b610934565b6040516102c79190611637565b60405180910390f35b6102ea60048036038101906102e591906115dc565b610a1f565b6040516102f79190611637565b60405180910390f35b61031a60048036038101906103159190611733565b610a3d565b60405161032d97969594939291906117d7565b60405180910390f35b61033e610b44565b60405161034b91906114b9565b60405180910390f35b61036e6004803603810190610369919061184d565b610b51565b60405161037b91906114b9565b60405180910390f35b61039e600480360381019061039991906116dc565b610bd8565b005b600080600680549050905060006040518060e001604052808381526020013373ffffffffffffffffffffffffffffffffffffffff1681526020018881526020018781526020018681526020018581526020016000600181111561040657610405611760565b5b815250905060068190806001815401808255809150506001900390600052602060002090600702016000909190919091506000820151816000015560208201518160010160006101000a81548173ffffffffffffffffffffffffffffffffffffffff021916908373ffffffffffffffffffffffffffffffffffffffff16021790555060408201518160020190805190602001906104a49291906111f4565b50606082015181600301556080820151816004015560a0820151816005015560c08201518160060160006101000a81548160ff021916908360018111156104ee576104ed611760565b5b021790555050507f63fbb601c5f46806528e8a39b19accc635c3678db83a34bb09c765f99ad6c297816000015160405161052891906114b9565b60405180910390a1806000015192505050949350505050565b606060038054610550906118bc565b80601f016020809104026020016040519081016040528092919081815260200182805461057c906118bc565b80156105c95780601f1061059e576101008083540402835291602001916105c9565b820191906000526020600020905b8154815290600101906020018083116105ac57829003601f168201915b5050505050905090565b60006105e76105e0610cd0565b8484610cd8565b6001905092915050565b6000600254905090565b6000610608848484610ea3565b6000600160008673ffffffffffffffffffffffffffffffffffffffff1673ffffffffffffffffffffffffffffffffffffffff1681526020019081526020016000206000610653610cd0565b73ffffffffffffffffffffffffffffffffffffffff1673ffffffffffffffffffffffffffffffffffffffff168152602001908152602001600020549050828110156106d3576040517f08c379a00000000000000000000000000000000000000000000000000000000081526004016106ca90611960565b60405180910390fd5b6106e7856106df610cd0565b858403610cd8565b60019150509392505050565b60006012905090565b600061079e610709610cd0565b848460016000610717610cd0565b73ffffffffffffffffffffffffffffffffffffffff1673ffffffffffffffffffffffffffffffffffffffff16815260200190815260200160002060008873ffffffffffffffffffffffffffffffffffffffff1673ffffffffffffffffffffffffffffffffffffffff1681526020019081526020016000205461079991906119af565b610cd8565b6001905092915050565b60008060008373ffffffffffffffffffffffffffffffffffffffff1673ffffffffffffffffffffffffffffffffffffffff168152602001908152602001600020549050919050565b6107f8610cd0565b73ffffffffffffffffffffffffffffffffffffffff16610816610878565b73ffffffffffffffffffffffffffffffffffffffff161461086c576040517f08c379a000000000000000000000000000000000000000000000000000000000815260040161086390611a51565b60405180910390fd5b6108766000611124565b565b6000600560009054906101000a900473ffffffffffffffffffffffffffffffffffffffff16905090565b6060600480546108b1906118bc565b80601f01602080910402602001604051908101604052809291908181526020018280546108dd906118bc565b801561092a5780601f106108ff5761010080835404028352916020019161092a565b820191906000526020600020905b81548152906001019060200180831161090d57829003601f168201915b5050505050905090565b60008060016000610943610cd0565b73ffffffffffffffffffffffffffffffffffffffff1673ffffffffffffffffffffffffffffffffffffffff16815260200190815260200160002060008573ffffffffffffffffffffffffffffffffffffffff1673ffffffffffffffffffffffffffffffffffffffff16815260200190815260200160002054905082811015610a00576040517f08c379a00000000000000000000000000000000000000000000000000000000081526004016109f790611ae3565b60405180910390fd5b610a14610a0b610cd0565b85858403610cd8565b600191505092915050565b6000610a33610a2c610cd0565b8484610ea3565b6001905092915050565b60068181548110610a4d57600080fd5b90600052602060002090600702016000915090508060000154908060010160009054906101000a900473ffffffffffffffffffffffffffffffffffffffff1690806002018054610a9c906118bc565b80601f0160208091040260200160405190810160405280929190818152602001828054610ac8906118bc565b8015610b155780601f10610aea57610100808354040283529160200191610b15565b820191906000526020600020905b815481529060010190602001808311610af857829003601f168201915b5050505050908060030154908060040154908060050154908060060160009054906101000a900460ff16905087565b6000600680549050905090565b6000600160008473ffffffffffffffffffffffffffffffffffffffff1673ffffffffffffffffffffffffffffffffffffffff16815260200190815260200160002060008373ffffffffffffffffffffffffffffffffffffffff1673ffffffffffffffffffffffffffffffffffffffff16815260200190815260200160002054905092915050565b610be0610cd0565b73ffffffffffffffffffffffffffffffffffffffff16610bfe610878565b73ffffffffffffffffffffffffffffffffffffffff1614610c54576040517f08c379a0000000000000000000000000000000000000000000000000000000008152600401610c4b90611a51565b60405180910390fd5b600073ffffffffffffffffffffffffffffffffffffffff168173ffffffffffffffffffffffffffffffffffffffff161415610cc4576040517f08c379a0000000000000000000000000000000000000000000000000000000008152600401610cbb90611b75565b60405180910390fd5b610ccd81611124565b50565b600033905090565b600073ffffffffffffffffffffffffffffffffffffffff168373ffffffffffffffffffffffffffffffffffffffff161415610d48576040517f08c379a0000000000000000000000000000000000000000000000000000000008152600401610d3f90611c07565b60405180910390fd5b600073ffffffffffffffffffffffffffffffffffffffff168273ffffffffffffffffffffffffffffffffffffffff161415610db8576040517f08c379a0000000000000000000000000000000000000000000000000000000008152600401610daf90611c99565b60405180910390fd5b80600160008573ffffffffffffffffffffffffffffffffffffffff1673ffffffffffffffffffffffffffffffffffffffff16815260200190815260200160002060008473ffffffffffffffffffffffffffffffffffffffff1673ffffffffffffffffffffffffffffffffffffffff168152602001908152602001600020819055508173ffffffffffffffffffffffffffffffffffffffff168373ffffffffffffffffffffffffffffffffffffffff167f8c5be1e5ebec7d5bd14f71427d1e84f3dd0314c0f7b2291e5b200ac8c7c3b92583604051610e9691906114b9565b60405180910390a3505050565b600073ffffffffffffffffffffffffffffffffffffffff168373ffffffffffffffffffffffffffffffffffffffff161415610f13576040517f08c379a0000000000000000000000000000000000000000000000000000000008152600401610f0a90611d2b565b60405180910390fd5b600073ffffffffffffffffffffffffffffffffffffffff168273ffffffffffffffffffffffffffffffffffffffff161415610f83576040517f08c379a0000000000000000000000000000000000000000000000000000000008152600401610f7a90611dbd565b60405180910390fd5b610f8e8383836111ea565b60008060008573ffffffffffffffffffffffffffffffffffffffff1673ffffffffffffffffffffffffffffffffffffffff16815260200190815260200160002054905081811015611014576040517f08c379a000000000000000000000000000000000000000000000000000000000815260040161100b90611e4f565b60405180910390fd5b8181036000808673ffffffffffffffffffffffffffffffffffffffff1673ffffffffffffffffffffffffffffffffffffffff16815260200190815260200160002081905550816000808573ffffffffffffffffffffffffffffffffffffffff1673ffffffffffffffffffffffffffffffffffffffff16815260200190815260200160002060008282546110a791906119af565b925050819055508273ffffffffffffffffffffffffffffffffffffffff168473ffffffffffffffffffffffffffffffffffffffff167fddf252ad1be2c89b69c2b068fc378daa952ba7f163c4a11628f55a4df523b3ef8460405161110b91906114b9565b60405180910390a361111e8484846111ef565b50505050565b6000600560009054906101000a900473ffffffffffffffffffffffffffffffffffffffff16905081600560006101000a81548173ffffffffffffffffffffffffffffffffffffffff021916908373ffffffffffffffffffffffffffffffffffffffff1602179055508173ffffffffffffffffffffffffffffffffffffffff168173ffffffffffffffffffffffffffffffffffffffff167f8be0079c531659141344cd1fd0a4f28419497f9722a3daafe3b4186f6b6457e060405160405180910390a35050565b505050565b505050565b828054611200906118bc565b90600052602060002090601f0160209004810192826112225760008555611269565b82601f1061123b57805160ff1916838001178555611269565b82800160010185558215611269579182015b8281111561126857825182559160200191906001019061124d565b5b509050611276919061127a565b5090565b5b8082111561129357600081600090555060010161127b565b5090565b6000604051905090565b600080fd5b600080fd5b600080fd5b600080fd5b6000601f19601f8301169050919050565b7f4e487b7100000000000000000000000000000000000000000000000000000000600052604160045260246000fd5b6112fe826112b5565b810181811067ffffffffffffffff8211171561131d5761131c6112c6565b5b80604052505050565b6000611330611297565b905061133c82826112f5565b919050565b600067ffffffffffffffff82111561135c5761135b6112c6565b5b611365826112b5565b9050602081019050919050565b82818337600083830152505050565b600061139461138f84611341565b611326565b9050828152602081018484840111156113b0576113af6112b0565b5b6113bb848285611372565b509392505050565b600082601f8301126113d8576113d76112ab565b5b81356113e8848260208601611381565b91505092915050565b6000819050919050565b611404816113f1565b811461140f57600080fd5b50565b600081359050611421816113fb565b92915050565b60008060008060808587031215611441576114406112a1565b5b600085013567ffffffffffffffff81111561145f5761145e6112a6565b5b61146b878288016113c3565b945050602061147c87828801611412565b935050604061148d87828801611412565b925050606061149e87828801611412565b91505092959194509250565b6114b3816113f1565b82525050565b60006020820190506114ce60008301846114aa565b92915050565b600081519050919050565b600082825260208201905092915050565b60005b8381101561150e5780820151818401526020810190506114f3565b8381111561151d576000848401525b50505050565b600061152e826114d4565b61153881856114df565b93506115488185602086016114f0565b611551816112b5565b840191505092915050565b600060208201905081810360008301526115768184611523565b905092915050565b600073ffffffffffffffffffffffffffffffffffffffff82169050919050565b60006115a98261157e565b9050919050565b6115b98161159e565b81146115c457600080fd5b50565b6000813590506115d6816115b0565b92915050565b600080604083850312156115f3576115f26112a1565b5b6000611601858286016115c7565b925050602061161285828601611412565b9150509250929050565b60008115159050919050565b6116318161161c565b82525050565b600060208201905061164c6000830184611628565b92915050565b60008060006060848603121561166b5761166a6112a1565b5b6000611679868287016115c7565b935050602061168a868287016115c7565b925050604061169b86828701611412565b9150509250925092565b600060ff82169050919050565b6116bb816116a5565b82525050565b60006020820190506116d660008301846116b2565b92915050565b6000602082840312156116f2576116f16112a1565b5b6000611700848285016115c7565b91505092915050565b6117128161159e565b82525050565b600060208201905061172d6000830184611709565b92915050565b600060208284031215611749576117486112a1565b5b600061175784828501611412565b91505092915050565b7f4e487b7100000000000000000000000000000000000000000000000000000000600052602160045260246000fd5b600281106117a05761179f611760565b5b50565b60008190506117b18261178f565b919050565b60006117c1826117a3565b9050919050565b6117d1816117b6565b82525050565b600060e0820190506117ec600083018a6114aa565b6117f96020830189611709565b818103604083015261180b8188611523565b905061181a60608301876114aa565b61182760808301866114aa565b61183460a08301856114aa565b61184160c08301846117c8565b98975050505050505050565b60008060408385031215611864576118636112a1565b5b6000611872858286016115c7565b9250506020611883858286016115c7565b9150509250929050565b7f4e487b7100000000000000000000000000000000000000000000000000000000600052602260045260246000fd5b600060028204905060018216806118d457607f821691505b602082108114156118e8576118e761188d565b5b50919050565b7f45524332303a207472616e7366657220616d6f756e742065786365656473206160008201527f6c6c6f77616e6365000000000000000000000000000000000000000000000000602082015250565b600061194a6028836114df565b9150611955826118ee565b604082019050919050565b600060208201905081810360008301526119798161193d565b9050919050565b7f4e487b7100000000000000000000000000000000000000000000000000000000600052601160045260246000fd5b60006119ba826113f1565b91506119c5836113f1565b9250827fffffffffffffffffffffffffffffffffffffffffffffffffffffffffffffffff038211156119fa576119f9611980565b5b828201905092915050565b7f4f776e61626c653a2063616c6c6572206973206e6f7420746865206f776e6572600082015250565b6000611a3b6020836114df565b9150611a4682611a05565b602082019050919050565b60006020820190508181036000830152611a6a81611a2e565b9050919050565b7f45524332303a2064656372656173656420616c6c6f77616e63652062656c6f7760008201527f207a65726f000000000000000000000000000000000000000000000000000000602082015250565b6000611acd6025836114df565b9150611ad882611a71565b604082019050919050565b60006020820190508181036000830152611afc81611ac0565b9050919050565b7f4f776e61626c653a206e6577206f776e657220697320746865207a65726f206160008201527f6464726573730000000000000000000000000000000000000000000000000000602082015250565b6000611b5f6026836114df565b9150611b6a82611b03565b604082019050919050565b60006020820190508181036000830152611b8e81611b52565b9050919050565b7f45524332303a20617070726f76652066726f6d20746865207a65726f2061646460008201527f7265737300000000000000000000000000000000000000000000000000000000602082015250565b6000611bf16024836114df565b9150611bfc82611b95565b604082019050919050565b60006020820190508181036000830152611c2081611be4565b9050919050565b7f45524332303a20617070726f766520746f20746865207a65726f20616464726560008201527f7373000000000000000000000000000000000000000000000000000000000000602082015250565b6000611c836022836114df565b9150611c8e82611c27565b604082019050919050565b60006020820190508181036000830152611cb281611c76565b9050919050565b7f45524332303a207472616e736665722066726f6d20746865207a65726f20616460008201527f6472657373000000000000000000000000000000000000000000000000000000602082015250565b6000611d156025836114df565b9150611d2082611cb9565b604082019050919050565b60006020820190508181036000830152611d4481611d08565b9050919050565b7f45524332303a207472616e7366657220746f20746865207a65726f206164647260008201527f6573730000000000000000000000000000000000000000000000000000000000602082015250565b6000611da76023836114df565b9150611db282611d4b565b604082019050919050565b60006020820190508181036000830152611dd681611d9a565b9050919050565b7f45524332303a207472616e7366657220616d6f756e742065786365656473206260008201527f616c616e63650000000000000000000000000000000000000000000000000000602082015250565b6000611e396026836114df565b9150611e4482611ddd565b604082019050919050565b60006020820190508181036000830152611e6881611e2c565b905091905056fea26469706673582212208ee88061cdf4f84bfa188ad7eecd93b475c4f9e42f92c5ab34ccae474e72e5ba64736f6c634300080a0033",
  "immutableReferences": {},
  "source": "// SPDX-License-Identifier: MIT\r\npragma solidity ^0.8.0;\r\n\r\nimport \"@openzeppelin/contracts/token/ERC20/ERC20.sol\";\r\nimport \"@openzeppelin/contracts/access/Ownable.sol\";\r\n\r\ncontract SignMeUp is ERC20, Ownable {\r\n\r\n  SignUpEntry[] public entries;\r\n\r\n  /**\r\n   * State enums\r\n   */\r\n  enum State {Active, Closed}\r\n\r\n  /**\r\n   * Events\r\n   */\r\n  event SignMeUpEntryCreated(uint256 id);\r\n\r\n  struct SignUpEntry {\r\n    uint256 id;\r\n    address organizer;\r\n    string title;\r\n    uint spots;\r\n    uint registrationDueDate;\r\n    uint eventDate;\r\n    // address[] registrants;\r\n    // address[] participants;\r\n    State state;\r\n  }\r\n\r\n  constructor() ERC20(\"SignMeUp\", \"SMU\") {\r\n    // Test entries\r\n    createNewSignUpEntry(\"Event 1\", 10, 10000, 20000);\r\n    createNewSignUpEntry(\"Event 2\", 12, 100000, 200000);\r\n    createNewSignUpEntry(\"Event 3\", 23, 10000000, 20000000);\r\n  }\r\n\r\n  function getEntriesCount() public view returns(uint256) {\r\n    return entries.length;\r\n  }\r\n\r\n  function createNewSignUpEntry(string memory _title, uint _spots, uint _registrationDueDate, uint _eventDate)\r\n    public\r\n    returns (uint256) {\r\n\r\n      uint256 nextId = entries.length;\r\n\r\n      SignUpEntry memory entry = SignUpEntry({\r\n        id: nextId,\r\n        organizer: msg.sender,\r\n        title: _title,\r\n        spots: _spots,\r\n        registrationDueDate: _registrationDueDate,\r\n        eventDate: _eventDate,\r\n        state: State.Active\r\n      });\r\n\r\n      entries.push(entry);\r\n\r\n      emit SignMeUpEntryCreated(entry.id);\r\n      return entry.id;\r\n  }\r\n\r\n\r\n  // ### Utils ###\r\n  // #############\r\n\r\n  function nonSecureRandom() private view returns (uint256) {\r\n    return uint256(keccak256(\r\n      abi.encodePacked(block.timestamp, block.difficulty)\r\n    ));\r\n  }\r\n  // ### Utils - end ###\r\n}\r\n",
  "sourcePath": "/mnt/c/Dev/workspace/consensys/final/blockchain-developer-bootcamp-final-project/contracts/SignMeUp.sol",
  "compiler": {
    "name": "solc",
    "version": "0.8.10+commit.fc410830.Emscripten.clang"
  },
  "schemaVersion": "3.4.3",
  "updatedAt": "2021-11-11T15:48:43.953Z",
  "networkType": "ethereum",
  "devdoc": {
    "kind": "dev",
    "methods": {
      "allowance(address,address)": {
        "details": "See {IERC20-allowance}."
      },
      "approve(address,uint256)": {
        "details": "See {IERC20-approve}. Requirements: - `spender` cannot be the zero address."
      },
      "balanceOf(address)": {
        "details": "See {IERC20-balanceOf}."
      },
      "decimals()": {
        "details": "Returns the number of decimals used to get its user representation. For example, if `decimals` equals `2`, a balance of `505` tokens should be displayed to a user as `5.05` (`505 / 10 ** 2`). Tokens usually opt for a value of 18, imitating the relationship between Ether and Wei. This is the value {ERC20} uses, unless this function is overridden; NOTE: This information is only used for _display_ purposes: it in no way affects any of the arithmetic of the contract, including {IERC20-balanceOf} and {IERC20-transfer}."
      },
      "decreaseAllowance(address,uint256)": {
        "details": "Atomically decreases the allowance granted to `spender` by the caller. This is an alternative to {approve} that can be used as a mitigation for problems described in {IERC20-approve}. Emits an {Approval} event indicating the updated allowance. Requirements: - `spender` cannot be the zero address. - `spender` must have allowance for the caller of at least `subtractedValue`."
      },
      "increaseAllowance(address,uint256)": {
        "details": "Atomically increases the allowance granted to `spender` by the caller. This is an alternative to {approve} that can be used as a mitigation for problems described in {IERC20-approve}. Emits an {Approval} event indicating the updated allowance. Requirements: - `spender` cannot be the zero address."
      },
      "name()": {
        "details": "Returns the name of the token."
      },
      "owner()": {
        "details": "Returns the address of the current owner."
      },
      "renounceOwnership()": {
        "details": "Leaves the contract without owner. It will not be possible to call `onlyOwner` functions anymore. Can only be called by the current owner. NOTE: Renouncing ownership will leave the contract without an owner, thereby removing any functionality that is only available to the owner."
      },
      "symbol()": {
        "details": "Returns the symbol of the token, usually a shorter version of the name."
      },
      "totalSupply()": {
        "details": "See {IERC20-totalSupply}."
      },
      "transfer(address,uint256)": {
        "details": "See {IERC20-transfer}. Requirements: - `recipient` cannot be the zero address. - the caller must have a balance of at least `amount`."
      },
      "transferFrom(address,address,uint256)": {
        "details": "See {IERC20-transferFrom}. Emits an {Approval} event indicating the updated allowance. This is not required by the EIP. See the note at the beginning of {ERC20}. Requirements: - `sender` and `recipient` cannot be the zero address. - `sender` must have a balance of at least `amount`. - the caller must have allowance for ``sender``'s tokens of at least `amount`."
      },
      "transferOwnership(address)": {
        "details": "Transfers ownership of the contract to a new account (`newOwner`). Can only be called by the current owner."
      }
    },
    "version": 1
  },
  "userdoc": {
    "events": {
      "SignMeUpEntryCreated(uint256)": {
        "notice": "Events"
      }
    },
    "kind": "user",
    "methods": {},
    "version": 1
  }
}