{
  "contractName": "SignMeUp",
  "abi": [
    {
      "inputs": [],
      "stateMutability": "nonpayable",
      "type": "constructor"
    },
    {
      "anonymous": false,
      "inputs": [
        {
          "indexed": true,
          "internalType": "address",
          "name": "owner",
          "type": "address"
        },
        {
          "indexed": true,
          "internalType": "address",
          "name": "approved",
          "type": "address"
        },
        {
          "indexed": true,
          "internalType": "uint256",
          "name": "tokenId",
          "type": "uint256"
        }
      ],
      "name": "Approval",
      "type": "event"
    },
    {
      "anonymous": false,
      "inputs": [
        {
          "indexed": true,
          "internalType": "address",
          "name": "owner",
          "type": "address"
        },
        {
          "indexed": true,
          "internalType": "address",
          "name": "operator",
          "type": "address"
        },
        {
          "indexed": false,
          "internalType": "bool",
          "name": "approved",
          "type": "bool"
        }
      ],
      "name": "ApprovalForAll",
      "type": "event"
    },
    {
      "anonymous": false,
      "inputs": [
        {
          "indexed": false,
          "internalType": "uint256",
          "name": "id",
          "type": "uint256"
        },
        {
          "indexed": false,
          "internalType": "address[]",
          "name": "participants",
          "type": "address[]"
        }
      ],
      "name": "LogEntryClosed",
      "type": "event"
    },
    {
      "anonymous": false,
      "inputs": [
        {
          "indexed": false,
          "internalType": "uint256",
          "name": "id",
          "type": "uint256"
        },
        {
          "indexed": false,
          "internalType": "address",
          "name": "organizer",
          "type": "address"
        }
      ],
      "name": "LogEntryCreated",
      "type": "event"
    },
    {
      "anonymous": false,
      "inputs": [
        {
          "indexed": false,
          "internalType": "uint256",
          "name": "oldPrice",
          "type": "uint256"
        },
        {
          "indexed": false,
          "internalType": "uint256",
          "name": "newPrice",
          "type": "uint256"
        }
      ],
      "name": "LogPriceChanged",
      "type": "event"
    },
    {
      "anonymous": false,
      "inputs": [
        {
          "indexed": false,
          "internalType": "uint256",
          "name": "id",
          "type": "uint256"
        },
        {
          "indexed": false,
          "internalType": "address",
          "name": "who",
          "type": "address"
        },
        {
          "indexed": false,
          "internalType": "uint256",
          "name": "when",
          "type": "uint256"
        }
      ],
      "name": "LogRegistered",
      "type": "event"
    },
    {
      "anonymous": false,
      "inputs": [
        {
          "indexed": true,
          "internalType": "address",
          "name": "previousOwner",
          "type": "address"
        },
        {
          "indexed": true,
          "internalType": "address",
          "name": "newOwner",
          "type": "address"
        }
      ],
      "name": "OwnershipTransferred",
      "type": "event"
    },
    {
      "anonymous": false,
      "inputs": [
        {
          "indexed": true,
          "internalType": "address",
          "name": "from",
          "type": "address"
        },
        {
          "indexed": true,
          "internalType": "address",
          "name": "to",
          "type": "address"
        },
        {
          "indexed": true,
          "internalType": "uint256",
          "name": "tokenId",
          "type": "uint256"
        }
      ],
      "name": "Transfer",
      "type": "event"
    },
    {
      "inputs": [
        {
          "internalType": "address",
          "name": "to",
          "type": "address"
        },
        {
          "internalType": "uint256",
          "name": "tokenId",
          "type": "uint256"
        }
      ],
      "name": "approve",
      "outputs": [],
      "stateMutability": "nonpayable",
      "type": "function"
    },
    {
      "inputs": [
        {
          "internalType": "address",
          "name": "owner",
          "type": "address"
        }
      ],
      "name": "balanceOf",
      "outputs": [
        {
          "internalType": "uint256",
          "name": "",
          "type": "uint256"
        }
      ],
      "stateMutability": "view",
      "type": "function",
      "constant": true
    },
    {
      "inputs": [
        {
          "internalType": "uint256",
          "name": "",
          "type": "uint256"
        }
      ],
      "name": "entries",
      "outputs": [
        {
          "internalType": "uint256",
          "name": "id",
          "type": "uint256"
        },
        {
          "internalType": "address",
          "name": "organizer",
          "type": "address"
        },
        {
          "internalType": "string",
          "name": "title",
          "type": "string"
        },
        {
          "internalType": "uint256",
          "name": "spots",
          "type": "uint256"
        },
        {
          "internalType": "uint64",
          "name": "registrationDueDate",
          "type": "uint64"
        },
        {
          "internalType": "uint64",
          "name": "eventDate",
          "type": "uint64"
        }
      ],
      "stateMutability": "view",
      "type": "function",
      "constant": true
    },
    {
      "inputs": [
        {
          "internalType": "uint256",
          "name": "",
          "type": "uint256"
        }
      ],
      "name": "entryOrganizer",
      "outputs": [
        {
          "internalType": "address",
          "name": "",
          "type": "address"
        }
      ],
      "stateMutability": "view",
      "type": "function",
      "constant": true
    },
    {
      "inputs": [],
      "name": "entryPriceWei",
      "outputs": [
        {
          "internalType": "uint256",
          "name": "",
          "type": "uint256"
        }
      ],
      "stateMutability": "view",
      "type": "function",
      "constant": true
    },
    {
      "inputs": [
        {
          "internalType": "uint256",
          "name": "tokenId",
          "type": "uint256"
        }
      ],
      "name": "getApproved",
      "outputs": [
        {
          "internalType": "address",
          "name": "",
          "type": "address"
        }
      ],
      "stateMutability": "view",
      "type": "function",
      "constant": true
    },
    {
      "inputs": [
        {
          "internalType": "address",
          "name": "owner",
          "type": "address"
        },
        {
          "internalType": "address",
          "name": "operator",
          "type": "address"
        }
      ],
      "name": "isApprovedForAll",
      "outputs": [
        {
          "internalType": "bool",
          "name": "",
          "type": "bool"
        }
      ],
      "stateMutability": "view",
      "type": "function",
      "constant": true
    },
    {
      "inputs": [],
      "name": "name",
      "outputs": [
        {
          "internalType": "string",
          "name": "",
          "type": "string"
        }
      ],
      "stateMutability": "view",
      "type": "function",
      "constant": true
    },
    {
      "inputs": [],
      "name": "owner",
      "outputs": [
        {
          "internalType": "address",
          "name": "",
          "type": "address"
        }
      ],
      "stateMutability": "view",
      "type": "function",
      "constant": true
    },
    {
      "inputs": [
        {
          "internalType": "uint256",
          "name": "tokenId",
          "type": "uint256"
        }
      ],
      "name": "ownerOf",
      "outputs": [
        {
          "internalType": "address",
          "name": "",
          "type": "address"
        }
      ],
      "stateMutability": "view",
      "type": "function",
      "constant": true
    },
    {
      "inputs": [],
      "name": "renounceOwnership",
      "outputs": [],
      "stateMutability": "nonpayable",
      "type": "function"
    },
    {
      "inputs": [
        {
          "internalType": "address",
          "name": "from",
          "type": "address"
        },
        {
          "internalType": "address",
          "name": "to",
          "type": "address"
        },
        {
          "internalType": "uint256",
          "name": "tokenId",
          "type": "uint256"
        }
      ],
      "name": "safeTransferFrom",
      "outputs": [],
      "stateMutability": "nonpayable",
      "type": "function"
    },
    {
      "inputs": [
        {
          "internalType": "address",
          "name": "from",
          "type": "address"
        },
        {
          "internalType": "address",
          "name": "to",
          "type": "address"
        },
        {
          "internalType": "uint256",
          "name": "tokenId",
          "type": "uint256"
        },
        {
          "internalType": "bytes",
          "name": "_data",
          "type": "bytes"
        }
      ],
      "name": "safeTransferFrom",
      "outputs": [],
      "stateMutability": "nonpayable",
      "type": "function"
    },
    {
      "inputs": [
        {
          "internalType": "address",
          "name": "operator",
          "type": "address"
        },
        {
          "internalType": "bool",
          "name": "approved",
          "type": "bool"
        }
      ],
      "name": "setApprovalForAll",
      "outputs": [],
      "stateMutability": "nonpayable",
      "type": "function"
    },
    {
      "inputs": [
        {
          "internalType": "bytes4",
          "name": "interfaceId",
          "type": "bytes4"
        }
      ],
      "name": "supportsInterface",
      "outputs": [
        {
          "internalType": "bool",
          "name": "",
          "type": "bool"
        }
      ],
      "stateMutability": "view",
      "type": "function",
      "constant": true
    },
    {
      "inputs": [],
      "name": "symbol",
      "outputs": [
        {
          "internalType": "string",
          "name": "",
          "type": "string"
        }
      ],
      "stateMutability": "view",
      "type": "function",
      "constant": true
    },
    {
      "inputs": [
        {
          "internalType": "uint256",
          "name": "tokenId",
          "type": "uint256"
        }
      ],
      "name": "tokenURI",
      "outputs": [
        {
          "internalType": "string",
          "name": "",
          "type": "string"
        }
      ],
      "stateMutability": "view",
      "type": "function",
      "constant": true
    },
    {
      "inputs": [
        {
          "internalType": "address",
          "name": "from",
          "type": "address"
        },
        {
          "internalType": "address",
          "name": "to",
          "type": "address"
        },
        {
          "internalType": "uint256",
          "name": "tokenId",
          "type": "uint256"
        }
      ],
      "name": "transferFrom",
      "outputs": [],
      "stateMutability": "nonpayable",
      "type": "function"
    },
    {
      "inputs": [
        {
          "internalType": "address",
          "name": "newOwner",
          "type": "address"
        }
      ],
      "name": "transferOwnership",
      "outputs": [],
      "stateMutability": "nonpayable",
      "type": "function"
    },
    {
      "inputs": [
        {
          "internalType": "uint256",
          "name": "price",
          "type": "uint256"
        }
      ],
      "name": "setPrice",
      "outputs": [],
      "stateMutability": "nonpayable",
      "type": "function"
    },
    {
      "inputs": [],
      "name": "getEntriesCount",
      "outputs": [
        {
          "internalType": "uint256",
          "name": "",
          "type": "uint256"
        }
      ],
      "stateMutability": "view",
      "type": "function",
      "constant": true
    },
    {
      "inputs": [
        {
          "internalType": "string",
          "name": "title",
          "type": "string"
        },
        {
          "internalType": "uint256",
          "name": "spots",
          "type": "uint256"
        },
        {
          "internalType": "uint64",
          "name": "registrationDueDate",
          "type": "uint64"
        },
        {
          "internalType": "uint64",
          "name": "eventDate",
          "type": "uint64"
        }
      ],
      "name": "createNewSignUpEventEntry",
      "outputs": [],
      "stateMutability": "payable",
      "type": "function",
      "payable": true
    },
    {
      "inputs": [],
      "name": "getOrganizerEntriesCount",
      "outputs": [
        {
          "internalType": "uint256",
          "name": "",
          "type": "uint256"
        }
      ],
      "stateMutability": "view",
      "type": "function",
      "constant": true
    },
    {
      "inputs": [],
      "name": "getOrganizerEntries",
      "outputs": [
        {
          "components": [
            {
              "internalType": "uint256",
              "name": "id",
              "type": "uint256"
            },
            {
              "internalType": "address",
              "name": "organizer",
              "type": "address"
            },
            {
              "internalType": "string",
              "name": "title",
              "type": "string"
            },
            {
              "internalType": "uint256",
              "name": "spots",
              "type": "uint256"
            },
            {
              "internalType": "uint64",
              "name": "registrationDueDate",
              "type": "uint64"
            },
            {
              "internalType": "uint64",
              "name": "eventDate",
              "type": "uint64"
            }
          ],
          "internalType": "struct SignMeUp.SignUpEventEntry[]",
          "name": "",
          "type": "tuple[]"
        }
      ],
      "stateMutability": "view",
      "type": "function",
      "constant": true
    },
    {
      "inputs": [
        {
          "internalType": "uint256",
          "name": "eventId",
          "type": "uint256"
        }
      ],
      "name": "randomlyChooseEventParticipants",
      "outputs": [],
      "stateMutability": "nonpayable",
      "type": "function"
    },
    {
      "inputs": [
        {
          "internalType": "uint256",
          "name": "eventId",
          "type": "uint256"
        }
      ],
      "name": "registerForEvent",
      "outputs": [],
      "stateMutability": "nonpayable",
      "type": "function"
    },
    {
      "inputs": [],
      "name": "getEntriesUserRegisteredFor",
      "outputs": [
        {
          "internalType": "uint256[]",
          "name": "",
          "type": "uint256[]"
        }
      ],
      "stateMutability": "view",
      "type": "function",
      "constant": true
    },
    {
      "inputs": [
        {
          "internalType": "uint256",
          "name": "eventId",
          "type": "uint256"
        }
      ],
      "name": "isRegisteredForEntry",
      "outputs": [
        {
          "internalType": "bool",
          "name": "",
          "type": "bool"
        }
      ],
      "stateMutability": "view",
      "type": "function",
      "constant": true
    },
    {
      "inputs": [],
      "name": "getEntriesUserSelectedFor",
      "outputs": [
        {
          "internalType": "uint256[]",
          "name": "",
          "type": "uint256[]"
        }
      ],
      "stateMutability": "view",
      "type": "function",
      "constant": true
    },
    {
      "inputs": [
        {
          "internalType": "uint256",
          "name": "eventId",
          "type": "uint256"
        }
      ],
      "name": "getNumberOfRegisteredUsersForEvent",
      "outputs": [
        {
          "internalType": "uint256",
          "name": "",
          "type": "uint256"
        }
      ],
      "stateMutability": "view",
      "type": "function",
      "constant": true
    }
  ],
  "bytecode": "0x60806040523480156200001157600080fd5b506040518060400160405280600881526020017f5369676e4d6555700000000000000000000000000000000000000000000000008152506040518060400160405280600381526020017f534d550000000000000000000000000000000000000000000000000000000000815250816000908051906020019062000096929190620001bb565b508060019080519060200190620000af929190620001bb565b505050620000d2620000c6620000ed60201b60201c565b620000f560201b60201c565b6001600781905550652d79883d2000600981905550620002d0565b600033905090565b6000600660009054906101000a900473ffffffffffffffffffffffffffffffffffffffff16905081600660006101000a81548173ffffffffffffffffffffffffffffffffffffffff021916908373ffffffffffffffffffffffffffffffffffffffff1602179055508173ffffffffffffffffffffffffffffffffffffffff168173ffffffffffffffffffffffffffffffffffffffff167f8be0079c531659141344cd1fd0a4f28419497f9722a3daafe3b4186f6b6457e060405160405180910390a35050565b828054620001c9906200029a565b90600052602060002090601f016020900481019282620001ed576000855562000239565b82601f106200020857805160ff191683800117855562000239565b8280016001018555821562000239579182015b82811115620002385782518255916020019190600101906200021b565b5b5090506200024891906200024c565b5090565b5b80821115620002675760008160009055506001016200024d565b5090565b7f4e487b7100000000000000000000000000000000000000000000000000000000600052602260045260246000fd5b60006002820490506001821680620002b357607f821691505b60208210811415620002ca57620002c96200026b565b5b50919050565b61597e80620002e06000396000f3fe6080604052600436106101cc5760003560e01c806391b7f5ed116100f7578063c87b56dd11610095578063e2f6833011610064578063e2f68330146106b2578063e985e9c5146106dd578063ebacab381461071a578063f2fde38b14610736576101cc565b8063c87b56dd146105e2578063ca54ad851461061f578063d09685b01461064a578063db8a703814610675576101cc565b80639c571402116100d15780639c57140214610525578063a22cb4651461054e578063b30906d414610577578063b88d4fde146105b9576101cc565b806391b7f5ed146104a6578063942aa7e1146104cf57806395d89b41146104fa576101cc565b80632ffe24f81161016f57806370a082311161013e57806370a08231146103fc578063715018a614610439578063772a6fce146104505780638da5cb5b1461047b576101cc565b80632ffe24f814610330578063406db8431461036d57806342842e0e146103965780636352211e146103bf576101cc565b8063081812fc116101ab578063081812fc14610276578063095ea7b3146102b357806322d9b428146102dc57806323b872dd14610307576101cc565b8062648543146101d157806301ffc9a71461020e57806306fdde031461024b575b600080fd5b3480156101dd57600080fd5b506101f860048036038101906101f39190613950565b61075f565b6040516102059190613998565b60405180910390f35b34801561021a57600080fd5b5061023560048036038101906102309190613a0b565b6107bb565b6040516102429190613998565b60405180910390f35b34801561025757600080fd5b5061026061089d565b60405161026d9190613ad1565b60405180910390f35b34801561028257600080fd5b5061029d60048036038101906102989190613950565b61092f565b6040516102aa9190613b34565b60405180910390f35b3480156102bf57600080fd5b506102da60048036038101906102d59190613b7b565b6109b4565b005b3480156102e857600080fd5b506102f1610acc565b6040516102fe9190613bca565b60405180910390f35b34801561031357600080fd5b5061032e60048036038101906103299190613be5565b610b13565b005b34801561033c57600080fd5b5061035760048036038101906103529190613950565b610b73565b6040516103649190613bca565b60405180910390f35b34801561037957600080fd5b50610394600480360381019061038f9190613950565b610c36565b005b3480156103a257600080fd5b506103bd60048036038101906103b89190613be5565b611128565b005b3480156103cb57600080fd5b506103e660048036038101906103e19190613950565b611148565b6040516103f39190613b34565b60405180910390f35b34801561040857600080fd5b50610423600480360381019061041e9190613c38565b6111fa565b6040516104309190613bca565b60405180910390f35b34801561044557600080fd5b5061044e6112b2565b005b34801561045c57600080fd5b5061046561133a565b6040516104729190613d23565b60405180910390f35b34801561048757600080fd5b506104906113cf565b60405161049d9190613b34565b60405180910390f35b3480156104b257600080fd5b506104cd60048036038101906104c89190613950565b6113f9565b005b3480156104db57600080fd5b506104e4611522565b6040516104f19190613d23565b60405180910390f35b34801561050657600080fd5b5061050f6115b7565b60405161051c9190613ad1565b60405180910390f35b34801561053157600080fd5b5061054c60048036038101906105479190613950565b611649565b005b34801561055a57600080fd5b5061057560048036038101906105709190613d71565b611b5e565b005b34801561058357600080fd5b5061059e60048036038101906105999190613950565b611cdf565b6040516105b096959493929190613dd4565b60405180910390f35b3480156105c557600080fd5b506105e060048036038101906105db9190613f71565b611dfb565b005b3480156105ee57600080fd5b5061060960048036038101906106049190613950565b611e5d565b6040516106169190613ad1565b60405180910390f35b34801561062b57600080fd5b50610634611f04565b60405161064191906141a7565b60405180910390f35b34801561065657600080fd5b5061065f612201565b60405161066c9190613bca565b60405180910390f35b34801561068157600080fd5b5061069c60048036038101906106979190613950565b61220e565b6040516106a99190613b34565b60405180910390f35b3480156106be57600080fd5b506106c7612241565b6040516106d49190613bca565b60405180910390f35b3480156106e957600080fd5b5061070460048036038101906106ff91906141c9565b612247565b6040516107119190613998565b60405180910390f35b610734600480360381019061072f91906142d6565b6122db565b005b34801561074257600080fd5b5061075d60048036038101906107589190613c38565b612403565b005b600080600b600084815260200190815260200160002060003373ffffffffffffffffffffffffffffffffffffffff1673ffffffffffffffffffffffffffffffffffffffff16815260200190815260200160002054119050919050565b60007f80ac58cd000000000000000000000000000000000000000000000000000000007bffffffffffffffffffffffffffffffffffffffffffffffffffffffff1916827bffffffffffffffffffffffffffffffffffffffffffffffffffffffff1916148061088657507f5b5e139f000000000000000000000000000000000000000000000000000000007bffffffffffffffffffffffffffffffffffffffffffffffffffffffff1916827bffffffffffffffffffffffffffffffffffffffffffffffffffffffff1916145b806108965750610895826124fb565b5b9050919050565b6060600080546108ac90614388565b80601f01602080910402602001604051908101604052809291908181526020018280546108d890614388565b80156109255780601f106108fa57610100808354040283529160200191610925565b820191906000526020600020905b81548152906001019060200180831161090857829003601f168201915b5050505050905090565b600061093a82612565565b610979576040517f08c379a00000000000000000000000000000000000000000000000000000000081526004016109709061442c565b60405180910390fd5b6004600083815260200190815260200160002060009054906101000a900473ffffffffffffffffffffffffffffffffffffffff169050919050565b60006109bf82611148565b90508073ffffffffffffffffffffffffffffffffffffffff168373ffffffffffffffffffffffffffffffffffffffff161415610a30576040517f08c379a0000000000000000000000000000000000000000000000000000000008152600401610a27906144be565b60405180910390fd5b8073ffffffffffffffffffffffffffffffffffffffff16610a4f6125d1565b73ffffffffffffffffffffffffffffffffffffffff161480610a7e5750610a7d81610a786125d1565b612247565b5b610abd576040517f08c379a0000000000000000000000000000000000000000000000000000000008152600401610ab490614550565b60405180910390fd5b610ac783836125d9565b505050565b6000601060003373ffffffffffffffffffffffffffffffffffffffff1673ffffffffffffffffffffffffffffffffffffffff16815260200190815260200160002054905090565b610b24610b1e6125d1565b82612692565b610b63576040517f08c379a0000000000000000000000000000000000000000000000000000000008152600401610b5a906145e2565b60405180910390fd5b610b6e838383612770565b505050565b6000813373ffffffffffffffffffffffffffffffffffffffff166011600083815260200190815260200160002060009054906101000a900473ffffffffffffffffffffffffffffffffffffffff1673ffffffffffffffffffffffffffffffffffffffff1614610c17576040517f08c379a0000000000000000000000000000000000000000000000000000000008152600401610c0e90614674565b60405180910390fd5b600e600084815260200190815260200160002080549050915050919050565b806000600a8281548110610c4d57610c4c614694565b5b90600052602060002090600502016040518060c0016040529081600082015481526020016001820160009054906101000a900473ffffffffffffffffffffffffffffffffffffffff1673ffffffffffffffffffffffffffffffffffffffff1673ffffffffffffffffffffffffffffffffffffffff168152602001600282018054610cd690614388565b80601f0160208091040260200160405190810160405280929190818152602001828054610d0290614388565b8015610d4f5780601f10610d2457610100808354040283529160200191610d4f565b820191906000526020600020905b815481529060010190602001808311610d3257829003601f168201915b50505050508152602001600382015481526020016004820160009054906101000a900467ffffffffffffffff1667ffffffffffffffff1667ffffffffffffffff1681526020016004820160089054906101000a900467ffffffffffffffff1667ffffffffffffffff1667ffffffffffffffff16815250509050806080015167ffffffffffffffff164210610e18576040517f08c379a0000000000000000000000000000000000000000000000000000000008152600401610e0f9061470f565b60405180910390fd5b826000600b6000838152602001908152602001600020905060008160003373ffffffffffffffffffffffffffffffffffffffff1673ffffffffffffffffffffffffffffffffffffffff1681526020019081526020016000205414610eb1576040517f08c379a0000000000000000000000000000000000000000000000000000000008152600401610ea8906147a1565b60405180910390fd5b843373ffffffffffffffffffffffffffffffffffffffff166011600083815260200190815260200160002060009054906101000a900473ffffffffffffffffffffffffffffffffffffffff1673ffffffffffffffffffffffffffffffffffffffff161415610f54576040517f08c379a0000000000000000000000000000000000000000000000000000000008152600401610f4b90614833565b60405180910390fd5b60026007541415610f9a576040517f08c379a0000000000000000000000000000000000000000000000000000000008152600401610f919061489f565b60405180910390fd5b600260078190555060004290506000600b60008981526020019081526020016000209050818160003373ffffffffffffffffffffffffffffffffffffffff1673ffffffffffffffffffffffffffffffffffffffff16815260200190815260200160002081905550600c60003373ffffffffffffffffffffffffffffffffffffffff1673ffffffffffffffffffffffffffffffffffffffff168152602001908152602001600020889080600181540180825580915050600190039060005260206000200160009091909190915055600e6000898152602001908152602001600020339080600181540180825580915050600190039060005260206000200160009091909190916101000a81548173ffffffffffffffffffffffffffffffffffffffff021916908373ffffffffffffffffffffffffffffffffffffffff1602179055507f16c02eafd4a170f62c09971fefa1b5aeaaffab6305564bb18a72a6150daa764e88338460405161110e939291906148bf565b60405180910390a150506001600781905550505050505050565b61114383838360405180602001604052806000815250611dfb565b505050565b6000806002600084815260200190815260200160002060009054906101000a900473ffffffffffffffffffffffffffffffffffffffff169050600073ffffffffffffffffffffffffffffffffffffffff168173ffffffffffffffffffffffffffffffffffffffff1614156111f1576040517f08c379a00000000000000000000000000000000000000000000000000000000081526004016111e890614968565b60405180910390fd5b80915050919050565b60008073ffffffffffffffffffffffffffffffffffffffff168273ffffffffffffffffffffffffffffffffffffffff16141561126b576040517f08c379a0000000000000000000000000000000000000000000000000000000008152600401611262906149fa565b60405180910390fd5b600360008373ffffffffffffffffffffffffffffffffffffffff1673ffffffffffffffffffffffffffffffffffffffff168152602001908152602001600020549050919050565b6112ba6125d1565b73ffffffffffffffffffffffffffffffffffffffff166112d86113cf565b73ffffffffffffffffffffffffffffffffffffffff161461132e576040517f08c379a000000000000000000000000000000000000000000000000000000000815260040161132590614a66565b60405180910390fd5b61133860006129cc565b565b6060600d60003373ffffffffffffffffffffffffffffffffffffffff1673ffffffffffffffffffffffffffffffffffffffff1681526020019081526020016000208054806020026020016040519081016040528092919081815260200182805480156113c557602002820191906000526020600020905b8154815260200190600101908083116113b1575b5050505050905090565b6000600660009054906101000a900473ffffffffffffffffffffffffffffffffffffffff16905090565b6114016125d1565b73ffffffffffffffffffffffffffffffffffffffff1661141f6113cf565b73ffffffffffffffffffffffffffffffffffffffff1614611475576040517f08c379a000000000000000000000000000000000000000000000000000000000815260040161146c90614a66565b60405180910390fd5b600260075414156114bb576040517f08c379a00000000000000000000000000000000000000000000000000000000081526004016114b29061489f565b60405180910390fd5b600260078190555080600954146115175760006009549050816009819055507fc3ae4d05a23526d863c1db9f30859dec463447da15d77d1345daec3ed995d3c18160095460405161150d929190614a86565b60405180910390a1505b600160078190555050565b6060600c60003373ffffffffffffffffffffffffffffffffffffffff1673ffffffffffffffffffffffffffffffffffffffff1681526020019081526020016000208054806020026020016040519081016040528092919081815260200182805480156115ad57602002820191906000526020600020905b815481526020019060010190808311611599575b5050505050905090565b6060600180546115c690614388565b80601f01602080910402602001604051908101604052809291908181526020018280546115f290614388565b801561163f5780601f106116145761010080835404028352916020019161163f565b820191906000526020600020905b81548152906001019060200180831161162257829003601f168201915b5050505050905090565b803373ffffffffffffffffffffffffffffffffffffffff166011600083815260200190815260200160002060009054906101000a900473ffffffffffffffffffffffffffffffffffffffff1673ffffffffffffffffffffffffffffffffffffffff16146116eb576040517f08c379a00000000000000000000000000000000000000000000000000000000081526004016116e290614674565b60405180910390fd5b816000600a828154811061170257611701614694565b5b90600052602060002090600502016040518060c0016040529081600082015481526020016001820160009054906101000a900473ffffffffffffffffffffffffffffffffffffffff1673ffffffffffffffffffffffffffffffffffffffff1673ffffffffffffffffffffffffffffffffffffffff16815260200160028201805461178b90614388565b80601f01602080910402602001604051908101604052809291908181526020018280546117b790614388565b80156118045780601f106117d957610100808354040283529160200191611804565b820191906000526020600020905b8154815290600101906020018083116117e757829003601f168201915b50505050508152602001600382015481526020016004820160009054906101000a900467ffffffffffffffff1667ffffffffffffffff1667ffffffffffffffff1681526020016004820160089054906101000a900467ffffffffffffffff1667ffffffffffffffff1667ffffffffffffffff168152505090506000600f6000848152602001908152602001600020805490501480156118b257506000816080015167ffffffffffffffff1614155b80156118cc5750806080015167ffffffffffffffff164210155b61190b576040517f08c379a000000000000000000000000000000000000000000000000000000000815260040161190290614b21565b60405180910390fd5b60026007541415611951576040517f08c379a00000000000000000000000000000000000000000000000000000000081526004016119489061489f565b60405180910390fd5b60026007819055506000600e60008681526020019081526020016000208054806020026020016040519081016040528092919081815260200182805480156119ee57602002820191906000526020600020905b8160009054906101000a900473ffffffffffffffffffffffffffffffffffffffff1673ffffffffffffffffffffffffffffffffffffffff16815260200190600101908083116119a4575b505050505090506060600082511115611b1557611a3a82611a358451600a8a81548110611a1e57611a1d614694565b5b906000526020600020906005020160030154612a92565b612aab565b905080600f60008881526020019081526020016000209080519060200190611a63929190613779565b5060005b8151811015611b13576000828281518110611a8557611a84614694565b5b60200260200101519050600d60008273ffffffffffffffffffffffffffffffffffffffff1673ffffffffffffffffffffffffffffffffffffffff168152602001908152602001600020889080600181540180825580915050600190039060005260206000200160009091909190915055611aff8882612c01565b508080611b0b90614b70565b915050611a67565b505b7f8869306e622784f945949ca35d9495e3b75dcbdfc41d776da82fa27213bd82de8682604051611b46929190614c68565b60405180910390a15050600160078190555050505050565b611b666125d1565b73ffffffffffffffffffffffffffffffffffffffff168273ffffffffffffffffffffffffffffffffffffffff161415611bd4576040517f08c379a0000000000000000000000000000000000000000000000000000000008152600401611bcb90614ce4565b60405180910390fd5b8060056000611be16125d1565b73ffffffffffffffffffffffffffffffffffffffff1673ffffffffffffffffffffffffffffffffffffffff16815260200190815260200160002060008473ffffffffffffffffffffffffffffffffffffffff1673ffffffffffffffffffffffffffffffffffffffff16815260200190815260200160002060006101000a81548160ff0219169083151502179055508173ffffffffffffffffffffffffffffffffffffffff16611c8e6125d1565b73ffffffffffffffffffffffffffffffffffffffff167f17307eab39ab6107e8899845ad3d59bd9653f200f220920489ca2b5937696c3183604051611cd39190613998565b60405180910390a35050565b600a8181548110611cef57600080fd5b90600052602060002090600502016000915090508060000154908060010160009054906101000a900473ffffffffffffffffffffffffffffffffffffffff1690806002018054611d3e90614388565b80601f0160208091040260200160405190810160405280929190818152602001828054611d6a90614388565b8015611db75780601f10611d8c57610100808354040283529160200191611db7565b820191906000526020600020905b815481529060010190602001808311611d9a57829003601f168201915b5050505050908060030154908060040160009054906101000a900467ffffffffffffffff16908060040160089054906101000a900467ffffffffffffffff16905086565b611e0c611e066125d1565b83612692565b611e4b576040517f08c379a0000000000000000000000000000000000000000000000000000000008152600401611e42906145e2565b60405180910390fd5b611e5784848484612e99565b50505050565b6060611e6882612565565b611ea7576040517f08c379a0000000000000000000000000000000000000000000000000000000008152600401611e9e90614d76565b60405180910390fd5b6000611eb1612ef5565b90506000815111611ed15760405180602001604052806000815250611efc565b80611edb84612f0c565b604051602001611eec929190614dd2565b6040516020818303038152906040525b915050919050565b606060003390506000601060008373ffffffffffffffffffffffffffffffffffffffff1673ffffffffffffffffffffffffffffffffffffffff1681526020019081526020016000205467ffffffffffffffff811115611f6657611f65613e46565b5b604051908082528060200260200182016040528015611f9f57816020015b611f8c613803565b815260200190600190039081611f845790505b5090506000805b600a805490508110156121f7578373ffffffffffffffffffffffffffffffffffffffff16600a8281548110611fde57611fdd614694565b5b906000526020600020906005020160010160009054906101000a900473ffffffffffffffffffffffffffffffffffffffff1673ffffffffffffffffffffffffffffffffffffffff1614156121e457600a81815481106120405761203f614694565b5b90600052602060002090600502016040518060c0016040529081600082015481526020016001820160009054906101000a900473ffffffffffffffffffffffffffffffffffffffff1673ffffffffffffffffffffffffffffffffffffffff1673ffffffffffffffffffffffffffffffffffffffff1681526020016002820180546120c990614388565b80601f01602080910402602001604051908101604052809291908181526020018280546120f590614388565b80156121425780601f1061211757610100808354040283529160200191612142565b820191906000526020600020905b81548152906001019060200180831161212557829003601f168201915b50505050508152602001600382015481526020016004820160009054906101000a900467ffffffffffffffff1667ffffffffffffffff1667ffffffffffffffff1681526020016004820160089054906101000a900467ffffffffffffffff1667ffffffffffffffff1667ffffffffffffffff16815250508383806121c590614b70565b9450815181106121d8576121d7614694565b5b60200260200101819052505b80806121ef90614b70565b915050611fa6565b5081935050505090565b6000600a80549050905090565b60116020528060005260406000206000915054906101000a900473ffffffffffffffffffffffffffffffffffffffff1681565b60095481565b6000600560008473ffffffffffffffffffffffffffffffffffffffff1673ffffffffffffffffffffffffffffffffffffffff16815260200190815260200160002060008373ffffffffffffffffffffffffffffffffffffffff1673ffffffffffffffffffffffffffffffffffffffff16815260200190815260200160002060009054906101000a900460ff16905092915050565b6009543410156122ec600954612f0c565b6122f534612f0c565b604051602001612306929190614e8e565b60405160208183030381529060405290612356576040517f08c379a000000000000000000000000000000000000000000000000000000000815260040161234d9190613ad1565b60405180910390fd5b5060006123658585858561306d565b905060006123716113cf565b90508073ffffffffffffffffffffffffffffffffffffffff166108fc349081150290604051600060405180830381858888f193505050501580156123b9573d6000803e3d6000fd5b507f0a63f1d05e5ef7a076666610741aeec38a557d32f3344efe6d0476a329c9970a826000015183602001516040516123f3929190614ec8565b60405180910390a1505050505050565b61240b6125d1565b73ffffffffffffffffffffffffffffffffffffffff166124296113cf565b73ffffffffffffffffffffffffffffffffffffffff161461247f576040517f08c379a000000000000000000000000000000000000000000000000000000000815260040161247690614a66565b60405180910390fd5b600073ffffffffffffffffffffffffffffffffffffffff168173ffffffffffffffffffffffffffffffffffffffff1614156124ef576040517f08c379a00000000000000000000000000000000000000000000000000000000081526004016124e690614f63565b60405180910390fd5b6124f8816129cc565b50565b60007f01ffc9a7000000000000000000000000000000000000000000000000000000007bffffffffffffffffffffffffffffffffffffffffffffffffffffffff1916827bffffffffffffffffffffffffffffffffffffffffffffffffffffffff1916149050919050565b60008073ffffffffffffffffffffffffffffffffffffffff166002600084815260200190815260200160002060009054906101000a900473ffffffffffffffffffffffffffffffffffffffff1673ffffffffffffffffffffffffffffffffffffffff1614159050919050565b600033905090565b816004600083815260200190815260200160002060006101000a81548173ffffffffffffffffffffffffffffffffffffffff021916908373ffffffffffffffffffffffffffffffffffffffff160217905550808273ffffffffffffffffffffffffffffffffffffffff1661264c83611148565b73ffffffffffffffffffffffffffffffffffffffff167f8c5be1e5ebec7d5bd14f71427d1e84f3dd0314c0f7b2291e5b200ac8c7c3b92560405160405180910390a45050565b600061269d82612565565b6126dc576040517f08c379a00000000000000000000000000000000000000000000000000000000081526004016126d390614ff5565b60405180910390fd5b60006126e783611148565b90508073ffffffffffffffffffffffffffffffffffffffff168473ffffffffffffffffffffffffffffffffffffffff16148061275657508373ffffffffffffffffffffffffffffffffffffffff1661273e8461092f565b73ffffffffffffffffffffffffffffffffffffffff16145b8061276757506127668185612247565b5b91505092915050565b8273ffffffffffffffffffffffffffffffffffffffff1661279082611148565b73ffffffffffffffffffffffffffffffffffffffff16146127e6576040517f08c379a00000000000000000000000000000000000000000000000000000000081526004016127dd90615087565b60405180910390fd5b600073ffffffffffffffffffffffffffffffffffffffff168273ffffffffffffffffffffffffffffffffffffffff161415612856576040517f08c379a000000000000000000000000000000000000000000000000000000000815260040161284d90615119565b60405180910390fd5b61286183838361338c565b61286c6000826125d9565b6001600360008573ffffffffffffffffffffffffffffffffffffffff1673ffffffffffffffffffffffffffffffffffffffff16815260200190815260200160002060008282546128bc9190615139565b925050819055506001600360008473ffffffffffffffffffffffffffffffffffffffff1673ffffffffffffffffffffffffffffffffffffffff1681526020019081526020016000206000828254612913919061516d565b92505081905550816002600083815260200190815260200160002060006101000a81548173ffffffffffffffffffffffffffffffffffffffff021916908373ffffffffffffffffffffffffffffffffffffffff160217905550808273ffffffffffffffffffffffffffffffffffffffff168473ffffffffffffffffffffffffffffffffffffffff167fddf252ad1be2c89b69c2b068fc378daa952ba7f163c4a11628f55a4df523b3ef60405160405180910390a4505050565b6000600660009054906101000a900473ffffffffffffffffffffffffffffffffffffffff16905081600660006101000a81548173ffffffffffffffffffffffffffffffffffffffff021916908373ffffffffffffffffffffffffffffffffffffffff1602179055508173ffffffffffffffffffffffffffffffffffffffff168173ffffffffffffffffffffffffffffffffffffffff167f8be0079c531659141344cd1fd0a4f28419497f9722a3daafe3b4186f6b6457e060405160405180910390a35050565b6000818310612aa15781612aa3565b825b905092915050565b60606000424485604051602001612ac493929190615274565b6040516020818303038152906040528051906020012060001c90506000845182612aee91906152dc565b905084518110612b0157612b0061530d565b5b600081905060008567ffffffffffffffff811115612b2257612b21613e46565b5b604051908082528060200260200182016040528015612b505781602001602082028036833780820191505090505b50905060005b8151811015612bf357878380612b6b90614b70565b945081518110612b7e57612b7d614694565b5b6020026020010151828281518110612b9957612b98614694565b5b602002602001019073ffffffffffffffffffffffffffffffffffffffff16908173ffffffffffffffffffffffffffffffffffffffff168152505087518310612be057600092505b8080612beb90614b70565b915050612b56565b508094505050505092915050565b813373ffffffffffffffffffffffffffffffffffffffff166011600083815260200190815260200160002060009054906101000a900473ffffffffffffffffffffffffffffffffffffffff1673ffffffffffffffffffffffffffffffffffffffff1614612ca3576040517f08c379a0000000000000000000000000000000000000000000000000000000008152600401612c9a90614674565b60405180910390fd5b6000600a8481548110612cb957612cb8614694565b5b90600052602060002090600502016040518060c0016040529081600082015481526020016001820160009054906101000a900473ffffffffffffffffffffffffffffffffffffffff1673ffffffffffffffffffffffffffffffffffffffff1673ffffffffffffffffffffffffffffffffffffffff168152602001600282018054612d4290614388565b80601f0160208091040260200160405190810160405280929190818152602001828054612d6e90614388565b8015612dbb5780601f10612d9057610100808354040283529160200191612dbb565b820191906000526020600020905b815481529060010190602001808311612d9e57829003601f168201915b50505050508152602001600382015481526020016004820160009054906101000a900467ffffffffffffffff1667ffffffffffffffff1667ffffffffffffffff1681526020016004820160089054906101000a900467ffffffffffffffff1667ffffffffffffffff1667ffffffffffffffff168152505090506000816040015182600001518360a001518460200151604051602001612e5d94939291906154ea565b60405160208183030381529060405290506000612e7a6008613391565b9050612e86600861339f565b612e918582846133b5565b505050505050565b612ea4848484612770565b612eb084848484613410565b612eef576040517f08c379a0000000000000000000000000000000000000000000000000000000008152600401612ee6906155d2565b60405180910390fd5b50505050565b606060405180602001604052806000815250905090565b60606000821415612f54576040518060400160405280600181526020017f30000000000000000000000000000000000000000000000000000000000000008152509050613068565b600082905060005b60008214612f86578080612f6f90614b70565b915050600a82612f7f91906155f2565b9150612f5c565b60008167ffffffffffffffff811115612fa257612fa1613e46565b5b6040519080825280601f01601f191660200182016040528015612fd45781602001600182028036833780820191505090505b5090505b6000851461306157600182612fed9190615139565b9150600a85612ffc91906152dc565b6030613008919061516d565b60f81b81838151811061301e5761301d614694565b5b60200101907effffffffffffffffffffffffffffffffffffffffffffffffffffffffffffff1916908160001a905350600a8561305a91906155f2565b9450612fd8565b8093505050505b919050565b613075613803565b60008551116130b9576040517f08c379a00000000000000000000000000000000000000000000000000000000081526004016130b09061566f565b60405180910390fd5b600084116130fc576040517f08c379a00000000000000000000000000000000000000000000000000000000081526004016130f3906156db565b60405180910390fd5b8267ffffffffffffffff168267ffffffffffffffff161180156131285750428367ffffffffffffffff16115b613167576040517f08c379a000000000000000000000000000000000000000000000000000000000815260040161315e9061576d565b60405180910390fd5b6000600a805490509050600033905060006040518060c001604052808481526020018373ffffffffffffffffffffffffffffffffffffffff1681526020018981526020018881526020018767ffffffffffffffff1681526020018667ffffffffffffffff168152509050816011600085815260200190815260200160002060006101000a81548173ffffffffffffffffffffffffffffffffffffffff021916908373ffffffffffffffffffffffffffffffffffffffff1602179055506001601060008473ffffffffffffffffffffffffffffffffffffffff1673ffffffffffffffffffffffffffffffffffffffff1681526020019081526020016000206000828254613273919061516d565b92505081905550600a8190806001815401808255809150506001900390600052602060002090600502016000909190919091506000820151816000015560208201518160010160006101000a81548173ffffffffffffffffffffffffffffffffffffffff021916908373ffffffffffffffffffffffffffffffffffffffff1602179055506040820151816002019080519060200190613313929190613863565b506060820151816003015560808201518160040160006101000a81548167ffffffffffffffff021916908367ffffffffffffffff16021790555060a08201518160040160086101000a81548167ffffffffffffffff021916908367ffffffffffffffff1602179055505050809350505050949350505050565b505050565b600081600001549050919050565b6001816000016000828254019250508190555050565b6133bf8383613598565b6133cc6000848484613410565b61340b576040517f08c379a0000000000000000000000000000000000000000000000000000000008152600401613402906155d2565b60405180910390fd5b505050565b60006134318473ffffffffffffffffffffffffffffffffffffffff16613766565b1561358b578373ffffffffffffffffffffffffffffffffffffffff1663150b7a0261345a6125d1565b8786866040518563ffffffff1660e01b815260040161347c94939291906157e2565b6020604051808303816000875af19250505080156134b857506040513d601f19601f820116820180604052508101906134b59190615843565b60015b61353b573d80600081146134e8576040519150601f19603f3d011682016040523d82523d6000602084013e6134ed565b606091505b50600081511415613533576040517f08c379a000000000000000000000000000000000000000000000000000000000815260040161352a906155d2565b60405180910390fd5b805181602001fd5b63150b7a0260e01b7bffffffffffffffffffffffffffffffffffffffffffffffffffffffff1916817bffffffffffffffffffffffffffffffffffffffffffffffffffffffff191614915050613590565b600190505b949350505050565b600073ffffffffffffffffffffffffffffffffffffffff168273ffffffffffffffffffffffffffffffffffffffff161415613608576040517f08c379a00000000000000000000000000000000000000000000000000000000081526004016135ff906158bc565b60405180910390fd5b61361181612565565b15613651576040517f08c379a000000000000000000000000000000000000000000000000000000000815260040161364890615928565b60405180910390fd5b61365d6000838361338c565b6001600360008473ffffffffffffffffffffffffffffffffffffffff1673ffffffffffffffffffffffffffffffffffffffff16815260200190815260200160002060008282546136ad919061516d565b92505081905550816002600083815260200190815260200160002060006101000a81548173ffffffffffffffffffffffffffffffffffffffff021916908373ffffffffffffffffffffffffffffffffffffffff160217905550808273ffffffffffffffffffffffffffffffffffffffff16600073ffffffffffffffffffffffffffffffffffffffff167fddf252ad1be2c89b69c2b068fc378daa952ba7f163c4a11628f55a4df523b3ef60405160405180910390a45050565b600080823b905060008111915050919050565b8280548282559060005260206000209081019282156137f2579160200282015b828111156137f15782518260006101000a81548173ffffffffffffffffffffffffffffffffffffffff021916908373ffffffffffffffffffffffffffffffffffffffff16021790555091602001919060010190613799565b5b5090506137ff91906138e9565b5090565b6040518060c0016040528060008152602001600073ffffffffffffffffffffffffffffffffffffffff1681526020016060815260200160008152602001600067ffffffffffffffff168152602001600067ffffffffffffffff1681525090565b82805461386f90614388565b90600052602060002090601f01602090048101928261389157600085556138d8565b82601f106138aa57805160ff19168380011785556138d8565b828001600101855582156138d8579182015b828111156138d75782518255916020019190600101906138bc565b5b5090506138e591906138e9565b5090565b5b808211156139025760008160009055506001016138ea565b5090565b6000604051905090565b600080fd5b600080fd5b6000819050919050565b61392d8161391a565b811461393857600080fd5b50565b60008135905061394a81613924565b92915050565b60006020828403121561396657613965613910565b5b60006139748482850161393b565b91505092915050565b60008115159050919050565b6139928161397d565b82525050565b60006020820190506139ad6000830184613989565b92915050565b60007fffffffff0000000000000000000000000000000000000000000000000000000082169050919050565b6139e8816139b3565b81146139f357600080fd5b50565b600081359050613a05816139df565b92915050565b600060208284031215613a2157613a20613910565b5b6000613a2f848285016139f6565b91505092915050565b600081519050919050565b600082825260208201905092915050565b60005b83811015613a72578082015181840152602081019050613a57565b83811115613a81576000848401525b50505050565b6000601f19601f8301169050919050565b6000613aa382613a38565b613aad8185613a43565b9350613abd818560208601613a54565b613ac681613a87565b840191505092915050565b60006020820190508181036000830152613aeb8184613a98565b905092915050565b600073ffffffffffffffffffffffffffffffffffffffff82169050919050565b6000613b1e82613af3565b9050919050565b613b2e81613b13565b82525050565b6000602082019050613b496000830184613b25565b92915050565b613b5881613b13565b8114613b6357600080fd5b50565b600081359050613b7581613b4f565b92915050565b60008060408385031215613b9257613b91613910565b5b6000613ba085828601613b66565b9250506020613bb18582860161393b565b9150509250929050565b613bc48161391a565b82525050565b6000602082019050613bdf6000830184613bbb565b92915050565b600080600060608486031215613bfe57613bfd613910565b5b6000613c0c86828701613b66565b9350506020613c1d86828701613b66565b9250506040613c2e8682870161393b565b9150509250925092565b600060208284031215613c4e57613c4d613910565b5b6000613c5c84828501613b66565b91505092915050565b600081519050919050565b600082825260208201905092915050565b6000819050602082019050919050565b613c9a8161391a565b82525050565b6000613cac8383613c91565b60208301905092915050565b6000602082019050919050565b6000613cd082613c65565b613cda8185613c70565b9350613ce583613c81565b8060005b83811015613d16578151613cfd8882613ca0565b9750613d0883613cb8565b925050600181019050613ce9565b5085935050505092915050565b60006020820190508181036000830152613d3d8184613cc5565b905092915050565b613d4e8161397d565b8114613d5957600080fd5b50565b600081359050613d6b81613d45565b92915050565b60008060408385031215613d8857613d87613910565b5b6000613d9685828601613b66565b9250506020613da785828601613d5c565b9150509250929050565b600067ffffffffffffffff82169050919050565b613dce81613db1565b82525050565b600060c082019050613de96000830189613bbb565b613df66020830188613b25565b8181036040830152613e088187613a98565b9050613e176060830186613bbb565b613e246080830185613dc5565b613e3160a0830184613dc5565b979650505050505050565b600080fd5b600080fd5b7f4e487b7100000000000000000000000000000000000000000000000000000000600052604160045260246000fd5b613e7e82613a87565b810181811067ffffffffffffffff82111715613e9d57613e9c613e46565b5b80604052505050565b6000613eb0613906565b9050613ebc8282613e75565b919050565b600067ffffffffffffffff821115613edc57613edb613e46565b5b613ee582613a87565b9050602081019050919050565b82818337600083830152505050565b6000613f14613f0f84613ec1565b613ea6565b905082815260208101848484011115613f3057613f2f613e41565b5b613f3b848285613ef2565b509392505050565b600082601f830112613f5857613f57613e3c565b5b8135613f68848260208601613f01565b91505092915050565b60008060008060808587031215613f8b57613f8a613910565b5b6000613f9987828801613b66565b9450506020613faa87828801613b66565b9350506040613fbb8782880161393b565b925050606085013567ffffffffffffffff811115613fdc57613fdb613915565b5b613fe887828801613f43565b91505092959194509250565b600081519050919050565b600082825260208201905092915050565b6000819050602082019050919050565b61402981613b13565b82525050565b600082825260208201905092915050565b600061404b82613a38565b614055818561402f565b9350614065818560208601613a54565b61406e81613a87565b840191505092915050565b61408281613db1565b82525050565b600060c0830160008301516140a06000860182613c91565b5060208301516140b36020860182614020565b50604083015184820360408601526140cb8282614040565b91505060608301516140e06060860182613c91565b5060808301516140f36080860182614079565b5060a083015161410660a0860182614079565b508091505092915050565b600061411d8383614088565b905092915050565b6000602082019050919050565b600061413d82613ff4565b6141478185613fff565b93508360208202850161415985614010565b8060005b8581101561419557848403895281516141768582614111565b945061418183614125565b925060208a0199505060018101905061415d565b50829750879550505050505092915050565b600060208201905081810360008301526141c18184614132565b905092915050565b600080604083850312156141e0576141df613910565b5b60006141ee85828601613b66565b92505060206141ff85828601613b66565b9150509250929050565b600067ffffffffffffffff82111561422457614223613e46565b5b61422d82613a87565b9050602081019050919050565b600061424d61424884614209565b613ea6565b90508281526020810184848401111561426957614268613e41565b5b614274848285613ef2565b509392505050565b600082601f83011261429157614290613e3c565b5b81356142a184826020860161423a565b91505092915050565b6142b381613db1565b81146142be57600080fd5b50565b6000813590506142d0816142aa565b92915050565b600080600080608085870312156142f0576142ef613910565b5b600085013567ffffffffffffffff81111561430e5761430d613915565b5b61431a8782880161427c565b945050602061432b8782880161393b565b935050604061433c878288016142c1565b925050606061434d878288016142c1565b91505092959194509250565b7f4e487b7100000000000000000000000000000000000000000000000000000000600052602260045260246000fd5b600060028204905060018216806143a057607f821691505b602082108114156143b4576143b3614359565b5b50919050565b7f4552433732313a20617070726f76656420717565727920666f72206e6f6e657860008201527f697374656e7420746f6b656e0000000000000000000000000000000000000000602082015250565b6000614416602c83613a43565b9150614421826143ba565b604082019050919050565b6000602082019050818103600083015261444581614409565b9050919050565b7f4552433732313a20617070726f76616c20746f2063757272656e74206f776e6560008201527f7200000000000000000000000000000000000000000000000000000000000000602082015250565b60006144a8602183613a43565b91506144b38261444c565b604082019050919050565b600060208201905081810360008301526144d78161449b565b9050919050565b7f4552433732313a20617070726f76652063616c6c6572206973206e6f74206f7760008201527f6e6572206e6f7220617070726f76656420666f7220616c6c0000000000000000602082015250565b600061453a603883613a43565b9150614545826144de565b604082019050919050565b600060208201905081810360008301526145698161452d565b9050919050565b7f4552433732313a207472616e736665722063616c6c6572206973206e6f74206f60008201527f776e6572206e6f7220617070726f766564000000000000000000000000000000602082015250565b60006145cc603183613a43565b91506145d782614570565b604082019050919050565b600060208201905081810360008301526145fb816145bf565b9050919050565b7f5472616e73616374696f6e2073656e646572206973206e6f74206f7267616e6960008201527f7a6572206f6620746865206576656e7400000000000000000000000000000000602082015250565b600061465e603083613a43565b915061466982614602565b604082019050919050565b6000602082019050818103600083015261468d81614651565b9050919050565b7f4e487b7100000000000000000000000000000000000000000000000000000000600052603260045260246000fd5b7f416c726561647920616674657220726567697374726174696f6e206461746500600082015250565b60006146f9601f83613a43565b9150614704826146c3565b602082019050919050565b60006020820190508181036000830152614728816146ec565b9050919050565b7f416c726561647920726567697365746572656420666f7220746865206576656e60008201527f7400000000000000000000000000000000000000000000000000000000000000602082015250565b600061478b602183613a43565b91506147968261472f565b604082019050919050565b600060208201905081810360008301526147ba8161477e565b9050919050565b7f5472616e73616374696f6e2073656e6465722063616e6e6f74206265206f726760008201527f616e697a6572206f6620746865206576656e7400000000000000000000000000602082015250565b600061481d603383613a43565b9150614828826147c1565b604082019050919050565b6000602082019050818103600083015261484c81614810565b9050919050565b7f5265656e7472616e637947756172643a207265656e7472616e742063616c6c00600082015250565b6000614889601f83613a43565b915061489482614853565b602082019050919050565b600060208201905081810360008301526148b88161487c565b9050919050565b60006060820190506148d46000830186613bbb565b6148e16020830185613b25565b6148ee6040830184613bbb565b949350505050565b7f4552433732313a206f776e657220717565727920666f72206e6f6e657869737460008201527f656e7420746f6b656e0000000000000000000000000000000000000000000000602082015250565b6000614952602983613a43565b915061495d826148f6565b604082019050919050565b6000602082019050818103600083015261498181614945565b9050919050565b7f4552433732313a2062616c616e636520717565727920666f7220746865207a6560008201527f726f206164647265737300000000000000000000000000000000000000000000602082015250565b60006149e4602a83613a43565b91506149ef82614988565b604082019050919050565b60006020820190508181036000830152614a13816149d7565b9050919050565b7f4f776e61626c653a2063616c6c6572206973206e6f7420746865206f776e6572600082015250565b6000614a50602083613a43565b9150614a5b82614a1a565b602082019050919050565b60006020820190508181036000830152614a7f81614a43565b9050919050565b6000604082019050614a9b6000830185613bbb565b614aa86020830184613bbb565b9392505050565b7f4576656e7420636c6f736564206f72206e6f742061667465722072656769737460008201527f726174696f6e2064617465207965740000000000000000000000000000000000602082015250565b6000614b0b602f83613a43565b9150614b1682614aaf565b604082019050919050565b60006020820190508181036000830152614b3a81614afe565b9050919050565b7f4e487b7100000000000000000000000000000000000000000000000000000000600052601160045260246000fd5b6000614b7b8261391a565b91507fffffffffffffffffffffffffffffffffffffffffffffffffffffffffffffffff821415614bae57614bad614b41565b5b600182019050919050565b600081519050919050565b600082825260208201905092915050565b6000819050602082019050919050565b6000614bf18383614020565b60208301905092915050565b6000602082019050919050565b6000614c1582614bb9565b614c1f8185614bc4565b9350614c2a83614bd5565b8060005b83811015614c5b578151614c428882614be5565b9750614c4d83614bfd565b925050600181019050614c2e565b5085935050505092915050565b6000604082019050614c7d6000830185613bbb565b8181036020830152614c8f8184614c0a565b90509392505050565b7f4552433732313a20617070726f766520746f2063616c6c657200000000000000600082015250565b6000614cce601983613a43565b9150614cd982614c98565b602082019050919050565b60006020820190508181036000830152614cfd81614cc1565b9050919050565b7f4552433732314d657461646174613a2055524920717565727920666f72206e6f60008201527f6e6578697374656e7420746f6b656e0000000000000000000000000000000000602082015250565b6000614d60602f83613a43565b9150614d6b82614d04565b604082019050919050565b60006020820190508181036000830152614d8f81614d53565b9050919050565b600081905092915050565b6000614dac82613a38565b614db68185614d96565b9350614dc6818560208601613a54565b80840191505092915050565b6000614dde8285614da1565b9150614dea8284614da1565b91508190509392505050565b7f45787065637465643a2000000000000000000000000000000000000000000000600082015250565b6000614e2c600a83614d96565b9150614e3782614df6565b600a82019050919050565b7f20676f743a200000000000000000000000000000000000000000000000000000600082015250565b6000614e78600683614d96565b9150614e8382614e42565b600682019050919050565b6000614e9982614e1f565b9150614ea58285614da1565b9150614eb082614e6b565b9150614ebc8284614da1565b91508190509392505050565b6000604082019050614edd6000830185613bbb565b614eea6020830184613b25565b9392505050565b7f4f776e61626c653a206e6577206f776e657220697320746865207a65726f206160008201527f6464726573730000000000000000000000000000000000000000000000000000602082015250565b6000614f4d602683613a43565b9150614f5882614ef1565b604082019050919050565b60006020820190508181036000830152614f7c81614f40565b9050919050565b7f4552433732313a206f70657261746f7220717565727920666f72206e6f6e657860008201527f697374656e7420746f6b656e0000000000000000000000000000000000000000602082015250565b6000614fdf602c83613a43565b9150614fea82614f83565b604082019050919050565b6000602082019050818103600083015261500e81614fd2565b9050919050565b7f4552433732313a207472616e73666572206f6620746f6b656e2074686174206960008201527f73206e6f74206f776e0000000000000000000000000000000000000000000000602082015250565b6000615071602983613a43565b915061507c82615015565b604082019050919050565b600060208201905081810360008301526150a081615064565b9050919050565b7f4552433732313a207472616e7366657220746f20746865207a65726f2061646460008201527f7265737300000000000000000000000000000000000000000000000000000000602082015250565b6000615103602483613a43565b915061510e826150a7565b604082019050919050565b60006020820190508181036000830152615132816150f6565b9050919050565b60006151448261391a565b915061514f8361391a565b92508282101561516257615161614b41565b5b828203905092915050565b60006151788261391a565b91506151838361391a565b9250827fffffffffffffffffffffffffffffffffffffffffffffffffffffffffffffffff038211156151b8576151b7614b41565b5b828201905092915050565b6000819050919050565b6151de6151d98261391a565b6151c3565b82525050565b600081905092915050565b6151f881613b13565b82525050565b600061520a83836151ef565b60208301905092915050565b600061522182614bb9565b61522b81856151e4565b935061523683614bd5565b8060005b8381101561526757815161524e88826151fe565b975061525983614bfd565b92505060018101905061523a565b5085935050505092915050565b600061528082866151cd565b60208201915061529082856151cd565b6020820191506152a08284615216565b9150819050949350505050565b7f4e487b7100000000000000000000000000000000000000000000000000000000600052601260045260246000fd5b60006152e78261391a565b91506152f28361391a565b925082615302576153016152ad565b5b828206905092915050565b7f4e487b7100000000000000000000000000000000000000000000000000000000600052600160045260246000fd5b7f7469746c653a0000000000000000000000000000000000000000000000000000600082015250565b6000615372600683614d96565b915061537d8261533c565b600682019050919050565b7f2c69643a00000000000000000000000000000000000000000000000000000000600082015250565b60006153be600483614d96565b91506153c982615388565b600482019050919050565b7f2c6576656e74446174653a000000000000000000000000000000000000000000600082015250565b600061540a600b83614d96565b9150615415826153d4565b600b82019050919050565b60008160c01b9050919050565b600061543882615420565b9050919050565b61545061544b82613db1565b61542d565b82525050565b7f2c6f7267616e697a65723a000000000000000000000000000000000000000000600082015250565b600061548c600b83614d96565b915061549782615456565b600b82019050919050565b60008160601b9050919050565b60006154ba826154a2565b9050919050565b60006154cc826154af565b9050919050565b6154e46154df82613b13565b6154c1565b82525050565b60006154f582615365565b91506155018287614da1565b915061550c826153b1565b915061551882866151cd565b602082019150615527826153fd565b9150615533828561543f565b6008820191506155428261547f565b915061554e82846154d3565b60148201915081905095945050505050565b7f4552433732313a207472616e7366657220746f206e6f6e20455243373231526560008201527f63656976657220696d706c656d656e7465720000000000000000000000000000602082015250565b60006155bc603283613a43565b91506155c782615560565b604082019050919050565b600060208201905081810360008301526155eb816155af565b9050919050565b60006155fd8261391a565b91506156088361391a565b925082615618576156176152ad565b5b828204905092915050565b7f5469746c652063616e6e6f7420626520656d7074790000000000000000000000600082015250565b6000615659601583613a43565b915061566482615623565b602082019050919050565b600060208201905081810360008301526156888161564c565b9050919050565b7f53706f7473206d75737420626520706f73697469766520696e74656765720000600082015250565b60006156c5601e83613a43565b91506156d08261568f565b602082019050919050565b600060208201905081810360008301526156f4816156b8565b9050919050565b7f6576656e7444617465203e20726567697374726174696f6e447565446174652060008201527f3e206e6f77282900000000000000000000000000000000000000000000000000602082015250565b6000615757602783613a43565b9150615762826156fb565b604082019050919050565b600060208201905081810360008301526157868161574a565b9050919050565b600081519050919050565b600082825260208201905092915050565b60006157b48261578d565b6157be8185615798565b93506157ce818560208601613a54565b6157d781613a87565b840191505092915050565b60006080820190506157f76000830187613b25565b6158046020830186613b25565b6158116040830185613bbb565b818103606083015261582381846157a9565b905095945050505050565b60008151905061583d816139df565b92915050565b60006020828403121561585957615858613910565b5b60006158678482850161582e565b91505092915050565b7f4552433732313a206d696e7420746f20746865207a65726f2061646472657373600082015250565b60006158a6602083613a43565b91506158b182615870565b602082019050919050565b600060208201905081810360008301526158d581615899565b9050919050565b7f4552433732313a20746f6b656e20616c7265616479206d696e74656400000000600082015250565b6000615912601c83613a43565b915061591d826158dc565b602082019050919050565b6000602082019050818103600083015261594181615905565b905091905056fea264697066735822122088620cb1debb2b1345071d18ba1f1bc0f68f4a22eeb195059f0dd35ee55a80c164736f6c634300080a0033",
  "immutableReferences": {},
  "source": "// SPDX-License-Identifier: MIT\r\npragma solidity 0.8.10;\r\n\r\nimport \"@openzeppelin/contracts/access/Ownable.sol\";\r\nimport \"@openzeppelin/contracts/security/ReentrancyGuard.sol\";\r\nimport \"@openzeppelin/contracts/token/ERC721/ERC721.sol\";\r\nimport \"@openzeppelin/contracts/utils/Counters.sol\";\r\nimport \"@openzeppelin/contracts/utils/Strings.sol\";\r\nimport \"@openzeppelin/contracts/utils/math/Math.sol\";\r\n\r\n/// @title SignMeUp\r\n/// @author Mariusz Walania\r\n/// @notice Contract owner gets paid small fee for each SignUpEventEntry created. Users can register to SignUpEventEntry. Once due date passes, SignUpEventEntry organizer can randomly choose selected participants of the event.\r\ncontract SignMeUp is ERC721, Ownable, ReentrancyGuard {\r\n    using Counters for Counters.Counter;\r\n\r\n    Counters.Counter private tokenIdCounter;\r\n\r\n    /// @return wei price paid for newly created SignUpEventEntry\r\n    uint public entryPriceWei;\r\n\r\n    // All event entries\r\n    SignUpEventEntry[] public entries;\r\n\r\n    // Mapping of registered addresses by registration date for given entry\r\n    mapping(uint => mapping(address => uint)) private entryRegistrationTimestamps;\r\n\r\n    // Entries which user registered for\r\n    mapping(address => uint[]) private registrantEntries;\r\n\r\n    // Entries which user was selected for\r\n    mapping(address => uint[]) private participantEntries;\r\n\r\n    // Registrants for given SignUpEventEntry\r\n    mapping(uint => address[]) private entryRegistrants;\r\n\r\n    // Participants for given SignUpEventEntry\r\n    mapping(uint => address[]) private entryParticipants;\r\n\r\n    // Number of entries organized by user\r\n    mapping(address => uint) private organizerEntriesCount;\r\n\r\n    // Organizer of given SignUpEventEntry\r\n    mapping(uint => address) public entryOrganizer;\r\n\r\n    /// @param id id of created SignUpEventEntry\r\n    /// @param organizer address of SignUpEventEntry organizer\r\n    event LogEntryCreated(uint id, address organizer);\r\n\r\n    /// @param id id of SignUpEventEntry someone registered to\r\n    /// @param who address of registrant for the SignUpEventEntry\r\n    /// @param when timestamp when the registration happened\r\n    event LogRegistered(uint id, address who, uint when);\r\n\r\n    /// @param id id SignUpEventEntry that was closed and for which participants were selected\r\n    /// @param participants list of participant addresses selected from registrants list\r\n    event LogEntryClosed(uint id, address[] participants);\r\n\r\n    /// @param oldPrice previous price of created SignUpEventEntry\r\n    /// @param newPrice current price of created SignUpEventEntry\r\n    event LogPriceChanged(uint oldPrice, uint newPrice);\r\n\r\n    /// @notice require the SignUpEventEntry of this id to be before registration date\r\n    /// @param eventId id of SignUpEventEntry\r\n    modifier isBeforeRegistrationDate(uint eventId) {\r\n        SignUpEventEntry memory entry = entries[eventId];\r\n        require(block.timestamp < entry.registrationDueDate, \"Already after registration date\");\r\n        _;\r\n    }\r\n\r\n    /// @notice Requires given SignUpEventEntry to be after registration date and no participants selected yet for this event\r\n    /// @param eventId SignUpEventEntry id\r\n    modifier canSelectParticipants(uint eventId) {\r\n        SignUpEventEntry memory entry = entries[eventId];\r\n        require(\r\n            entryParticipants[eventId].length == 0 &&\r\n                entry.registrationDueDate != 0 &&\r\n                block.timestamp >= entry.registrationDueDate,\r\n            \"Event closed or not after registration date yet\"\r\n        );\r\n        _;\r\n    }\r\n\r\n    /// @notice Requires message sender not to be registered for given SignUpEventEntry\r\n    /// @param eventId SignUpEventEntry id\r\n    modifier isNotRegistered(uint eventId) {\r\n        mapping(address => uint) storage registrationTimestamps = entryRegistrationTimestamps[\r\n            eventId\r\n        ];\r\n        require(registrationTimestamps[msg.sender] == 0, \"Already regisetered for the event\");\r\n        _;\r\n    }\r\n\r\n    /// @notice Requires message sender to be organizer of this SignUpEventEntry\r\n    /// @param eventId SignUpEventEntry id\r\n    modifier isOrganizer(uint eventId) {\r\n        require(\r\n            entryOrganizer[eventId] == msg.sender,\r\n            \"Transaction sender is not organizer of the event\"\r\n        );\r\n        _;\r\n    }\r\n\r\n    /// @notice Requires message sender not to be organizer of given SignUpEventEntry\r\n    /// @param eventId SignUpEventEntry id\r\n    modifier isNotOrganizer(uint eventId) {\r\n        require(\r\n            entryOrganizer[eventId] != msg.sender,\r\n            \"Transaction sender cannot be organizer of the event\"\r\n        );\r\n        _;\r\n    }\r\n\r\n    /// @notice Requires message value to be at least of entryPriceWei\r\n    modifier paidEnough() {\r\n        require(\r\n            msg.value >= entryPriceWei,\r\n            string(\r\n                abi.encodePacked(\r\n                    \"Expected: \",\r\n                    Strings.toString(entryPriceWei),\r\n                    \" got: \",\r\n                    Strings.toString(msg.value)\r\n                )\r\n            )\r\n        );\r\n        _;\r\n    }\r\n\r\n    ////// Structs //////\r\n    struct SignUpEventEntry {\r\n        uint id;\r\n        address organizer;\r\n        string title;\r\n        uint spots;\r\n        uint64 registrationDueDate;\r\n        uint64 eventDate;\r\n    }\r\n\r\n    constructor() ERC721(\"SignMeUp\", \"SMU\") {\r\n        entryPriceWei = 50_000 * 1_000_000_000;\r\n    }\r\n\r\n    ////// Owner functions //////\r\n\r\n    /// @notice Sets price that is paid by sender when creating a new SignUpEventEntry\r\n    /// @param price price to be set\r\n    /// @dev event emitted only when price has actually been change\r\n    function setPrice(uint price) public onlyOwner nonReentrant {\r\n        if (entryPriceWei != price) {\r\n            uint oldPrice = entryPriceWei;\r\n            entryPriceWei = price;\r\n            emit LogPriceChanged(oldPrice, entryPriceWei);\r\n        }\r\n    }\r\n\r\n    ////// Common functions //////\r\n\r\n    /// @return number of SignUpEventEntry objects\r\n    function getEntriesCount() public view returns (uint) {\r\n        return entries.length;\r\n    }\r\n\r\n    /// @notice create new SignUpEventEntry\r\n    /// @param title event title\r\n    /// @param spots number of available spots\r\n    /// @param registrationDueDate epoch time (seconds) until when users can register for the event\r\n    /// @param eventDate epoch time (seconds) of the event\r\n    function createNewSignUpEventEntry(\r\n        string memory title,\r\n        uint spots,\r\n        uint64 registrationDueDate,\r\n        uint64 eventDate\r\n    ) public payable paidEnough {\r\n        SignUpEventEntry memory entry = newSignUpEventEntryOf(\r\n            title,\r\n            spots,\r\n            registrationDueDate,\r\n            eventDate\r\n        );\r\n\r\n        address payable _owner = payable(owner());\r\n        _owner.transfer(msg.value);\r\n\r\n        emit LogEntryCreated(entry.id, entry.organizer);\r\n    }\r\n\r\n    function newSignUpEventEntryOf(\r\n        string memory title,\r\n        uint spots,\r\n        uint64 registrationDueDate,\r\n        uint64 eventDate\r\n    ) private returns (SignUpEventEntry memory) {\r\n        require(bytes(title).length > 0, \"Title cannot be empty\");\r\n        require(spots > 0, \"Spots must be positive integer\");\r\n        require(\r\n            eventDate > registrationDueDate && registrationDueDate > block.timestamp,\r\n            \"eventDate > registrationDueDate > now()\"\r\n        );\r\n\r\n        uint newId = entries.length;\r\n        address organizer = msg.sender;\r\n\r\n        SignUpEventEntry memory entry = SignUpEventEntry({\r\n            id: newId,\r\n            organizer: organizer,\r\n            title: title,\r\n            spots: spots,\r\n            registrationDueDate: registrationDueDate,\r\n            eventDate: eventDate\r\n        });\r\n\r\n        entryOrganizer[newId] = organizer;\r\n        organizerEntriesCount[organizer] += 1;\r\n\r\n        entries.push(entry);\r\n\r\n        return entry;\r\n    }\r\n\r\n    /// @notice Get number of entries created by given message sender\r\n    /// @return number of entries\r\n    function getOrganizerEntriesCount() public view returns (uint) {\r\n        return organizerEntriesCount[msg.sender];\r\n    }\r\n\r\n    /// @notice get entries created by given message sender\r\n    /// @return entries array\r\n    function getOrganizerEntries() public view returns (SignUpEventEntry[] memory) {\r\n        address organizer = msg.sender;\r\n\r\n        SignUpEventEntry[] memory result = new SignUpEventEntry[](\r\n            organizerEntriesCount[organizer]\r\n        );\r\n        uint targetIndex = 0;\r\n        for (uint i = 0; i < entries.length; i++) {\r\n            if (entries[i].organizer == organizer) {\r\n                result[targetIndex++] = entries[i];\r\n            }\r\n        }\r\n\r\n        return result;\r\n    }\r\n\r\n    function safeMint(uint eventId, address to) private isOrganizer(eventId) {\r\n        SignUpEventEntry memory entry = entries[eventId];\r\n\r\n        bytes memory data = abi.encodePacked(\r\n            \"title:\",\r\n            entry.title,\r\n            \",id:\",\r\n            entry.id,\r\n            \",eventDate:\",\r\n            entry.eventDate,\r\n            \",organizer:\",\r\n            entry.organizer\r\n        );\r\n\r\n        uint tokenId = tokenIdCounter.current();\r\n        tokenIdCounter.increment();\r\n\r\n        _safeMint(to, tokenId, data);\r\n    }\r\n\r\n    /// @notice Randomly chooses participants of given SignUpEventEntry from the list of registrants for this event\r\n    /// @param eventId id of SignUpEventEntry\r\n    function randomlyChooseEventParticipants(uint eventId)\r\n        public\r\n        isOrganizer(eventId)\r\n        canSelectParticipants(eventId)\r\n        nonReentrant\r\n    {\r\n        // TODO use some 'random' oracle, choose participants from registeres users and change state to Closed\r\n\r\n        address[] memory registrants = entryRegistrants[eventId];\r\n        address[] memory participants;\r\n        if (registrants.length > 0) {\r\n            participants = pseudoRandomAddresses(\r\n                registrants,\r\n                Math.min(registrants.length, entries[eventId].spots)\r\n            );\r\n            entryParticipants[eventId] = participants;\r\n            for (uint i = 0; i < participants.length; i++) {\r\n                address participant = participants[i];\r\n                participantEntries[participant].push(eventId);\r\n                safeMint(eventId, participant);\r\n            }\r\n        }\r\n\r\n        emit LogEntryClosed(eventId, participants);\r\n    }\r\n\r\n    ////// Registrant functions //////\r\n\r\n    /// @notice register sender of this message for the event\r\n    /// @param eventId SignUpEventEntry id\r\n    function registerForEvent(uint eventId)\r\n        public\r\n        isBeforeRegistrationDate(eventId)\r\n        isNotRegistered(eventId)\r\n        isNotOrganizer(eventId)\r\n        nonReentrant\r\n    {\r\n        uint registrationTimestamp = block.timestamp;\r\n\r\n        mapping(address => uint) storage registrationTimestamps = entryRegistrationTimestamps[\r\n            eventId\r\n        ];\r\n        registrationTimestamps[msg.sender] = registrationTimestamp;\r\n        registrantEntries[msg.sender].push(eventId);\r\n        entryRegistrants[eventId].push(msg.sender);\r\n\r\n        emit LogRegistered(eventId, msg.sender, registrationTimestamp);\r\n    }\r\n\r\n    /// @return array of ids of entries given message sender registered for\r\n    function getEntriesUserRegisteredFor() public view returns (uint[] memory) {\r\n        return registrantEntries[msg.sender];\r\n    }\r\n\r\n    /// @notice Checks if message sender is registered for given event\r\n    /// @param eventId event id\r\n    /// @return true if registered, false otherwise\r\n    function isRegisteredForEntry(uint eventId) public view returns (bool) {\r\n        return entryRegistrationTimestamps[eventId][msg.sender] > 0;\r\n    }\r\n\r\n    /// @return array of ids of entries given message sender has been selected for\r\n    function getEntriesUserSelectedFor() public view returns (uint[] memory) {\r\n        return participantEntries[msg.sender];\r\n    }\r\n\r\n    /// @notice Get number of registrants for given SignUpEventEntry\r\n    /// @param eventId event id\r\n    /// @return number of registrants\r\n    function getNumberOfRegisteredUsersForEvent(uint eventId)\r\n        public\r\n        view\r\n        isOrganizer(eventId)\r\n        returns (uint)\r\n    {\r\n        return entryRegistrants[eventId].length;\r\n    }\r\n\r\n    /// @notice pseudo number way of selecting participants\r\n    /// @param registrants array of registrants addresses\r\n    /// @param targetCount number of addresses that should be selected among registrants\r\n    function pseudoRandomAddresses(address[] memory registrants, uint targetCount)\r\n        private\r\n        view\r\n        returns (address[] memory)\r\n    {\r\n        uint number = uint(\r\n            keccak256(abi.encodePacked(block.timestamp, block.difficulty, registrants))\r\n        );\r\n        uint pseudoNumber = number % registrants.length;\r\n        assert(pseudoNumber < registrants.length);\r\n\r\n        uint registrantIndex = pseudoNumber;\r\n        address[] memory participants = new address[](targetCount);\r\n        for (uint i = 0; i < participants.length; i++) {\r\n            participants[i] = registrants[registrantIndex++];\r\n            if (registrantIndex >= registrants.length) {\r\n                registrantIndex = 0;\r\n            }\r\n        }\r\n\r\n        return participants;\r\n    }\r\n}\r\n",
  "sourcePath": "/mnt/c/Dev/workspace/consensys/final/blockchain-developer-bootcamp-final-project/contracts/SignMeUp.sol",
  "compiler": {
    "name": "solc",
    "version": "0.8.10+commit.fc410830.Emscripten.clang"
  },
  "schemaVersion": "3.4.3",
  "updatedAt": "2021-11-22T20:34:36.494Z",
  "networkType": "ethereum",
  "devdoc": {
    "author": "Mariusz Walania",
    "events": {
      "LogEntryClosed(uint256,address[])": {
        "params": {
          "id": "id SignUpEventEntry that was closed and for which participants were selected",
          "participants": "list of participant addresses selected from registrants list"
        }
      },
      "LogEntryCreated(uint256,address)": {
        "params": {
          "id": "id of created SignUpEventEntry",
          "organizer": "address of SignUpEventEntry organizer"
        }
      },
      "LogPriceChanged(uint256,uint256)": {
        "params": {
          "newPrice": "current price of created SignUpEventEntry",
          "oldPrice": "previous price of created SignUpEventEntry"
        }
      },
      "LogRegistered(uint256,address,uint256)": {
        "params": {
          "id": "id of SignUpEventEntry someone registered to",
          "when": "timestamp when the registration happened",
          "who": "address of registrant for the SignUpEventEntry"
        }
      }
    },
    "kind": "dev",
    "methods": {
      "approve(address,uint256)": {
        "details": "See {IERC721-approve}."
      },
      "balanceOf(address)": {
        "details": "See {IERC721-balanceOf}."
      },
      "createNewSignUpEventEntry(string,uint256,uint64,uint64)": {
        "params": {
          "eventDate": "epoch time (seconds) of the event",
          "registrationDueDate": "epoch time (seconds) until when users can register for the event",
          "spots": "number of available spots",
          "title": "event title"
        }
      },
      "getApproved(uint256)": {
        "details": "See {IERC721-getApproved}."
      },
      "getEntriesCount()": {
        "returns": {
          "_0": "number of SignUpEventEntry objects"
        }
      },
      "getEntriesUserRegisteredFor()": {
        "returns": {
          "_0": "array of ids of entries given message sender registered for"
        }
      },
      "getEntriesUserSelectedFor()": {
        "returns": {
          "_0": "array of ids of entries given message sender has been selected for"
        }
      },
      "getNumberOfRegisteredUsersForEvent(uint256)": {
        "params": {
          "eventId": "event id"
        },
        "returns": {
          "_0": "number of registrants"
        }
      },
      "getOrganizerEntries()": {
        "returns": {
          "_0": "entries array"
        }
      },
      "getOrganizerEntriesCount()": {
        "returns": {
          "_0": "number of entries"
        }
      },
      "isApprovedForAll(address,address)": {
        "details": "See {IERC721-isApprovedForAll}."
      },
      "isRegisteredForEntry(uint256)": {
        "params": {
          "eventId": "event id"
        },
        "returns": {
          "_0": "true if registered, false otherwise"
        }
      },
      "name()": {
        "details": "See {IERC721Metadata-name}."
      },
      "owner()": {
        "details": "Returns the address of the current owner."
      },
      "ownerOf(uint256)": {
        "details": "See {IERC721-ownerOf}."
      },
      "randomlyChooseEventParticipants(uint256)": {
        "params": {
          "eventId": "id of SignUpEventEntry"
        }
      },
      "registerForEvent(uint256)": {
        "params": {
          "eventId": "SignUpEventEntry id"
        }
      },
      "renounceOwnership()": {
        "details": "Leaves the contract without owner. It will not be possible to call `onlyOwner` functions anymore. Can only be called by the current owner. NOTE: Renouncing ownership will leave the contract without an owner, thereby removing any functionality that is only available to the owner."
      },
      "safeTransferFrom(address,address,uint256)": {
        "details": "See {IERC721-safeTransferFrom}."
      },
      "safeTransferFrom(address,address,uint256,bytes)": {
        "details": "See {IERC721-safeTransferFrom}."
      },
      "setApprovalForAll(address,bool)": {
        "details": "See {IERC721-setApprovalForAll}."
      },
      "setPrice(uint256)": {
        "details": "event emitted only when price has actually been change",
        "params": {
          "price": "price to be set"
        }
      },
      "supportsInterface(bytes4)": {
        "details": "See {IERC165-supportsInterface}."
      },
      "symbol()": {
        "details": "See {IERC721Metadata-symbol}."
      },
      "tokenURI(uint256)": {
        "details": "See {IERC721Metadata-tokenURI}."
      },
      "transferFrom(address,address,uint256)": {
        "details": "See {IERC721-transferFrom}."
      },
      "transferOwnership(address)": {
        "details": "Transfers ownership of the contract to a new account (`newOwner`). Can only be called by the current owner."
      }
    },
    "stateVariables": {
      "entryPriceWei": {
        "return": "wei price paid for newly created SignUpEventEntry",
        "returns": {
          "_0": "wei price paid for newly created SignUpEventEntry"
        }
      }
    },
    "title": "SignMeUp",
    "version": 1
  },
  "userdoc": {
    "kind": "user",
    "methods": {
      "createNewSignUpEventEntry(string,uint256,uint64,uint64)": {
        "notice": "create new SignUpEventEntry"
      },
      "getNumberOfRegisteredUsersForEvent(uint256)": {
        "notice": "Get number of registrants for given SignUpEventEntry"
      },
      "getOrganizerEntries()": {
        "notice": "get entries created by given message sender"
      },
      "getOrganizerEntriesCount()": {
        "notice": "Get number of entries created by given message sender"
      },
      "isRegisteredForEntry(uint256)": {
        "notice": "Checks if message sender is registered for given event"
      },
      "randomlyChooseEventParticipants(uint256)": {
        "notice": "Randomly chooses participants of given SignUpEventEntry from the list of registrants for this event"
      },
      "registerForEvent(uint256)": {
        "notice": "register sender of this message for the event"
      },
      "setPrice(uint256)": {
        "notice": "Sets price that is paid by sender when creating a new SignUpEventEntry"
      }
    },
    "notice": "Contract owner gets paid small fee for each SignUpEventEntry created. Users can register to SignUpEventEntry. Once due date passes, SignUpEventEntry organizer can randomly choose selected participants of the event.",
    "version": 1
  }
}