{
  "contractName": "SignMeUp",
  "abi": [
    {
      "inputs": [],
      "stateMutability": "nonpayable",
      "type": "constructor"
    },
    {
      "anonymous": false,
      "inputs": [
        {
          "indexed": true,
          "internalType": "address",
          "name": "owner",
          "type": "address"
        },
        {
          "indexed": true,
          "internalType": "address",
          "name": "spender",
          "type": "address"
        },
        {
          "indexed": false,
          "internalType": "uint256",
          "name": "value",
          "type": "uint256"
        }
      ],
      "name": "Approval",
      "type": "event"
    },
    {
      "anonymous": false,
      "inputs": [
        {
          "indexed": false,
          "internalType": "uint256",
          "name": "id",
          "type": "uint256"
        },
        {
          "indexed": false,
          "internalType": "address[]",
          "name": "participants",
          "type": "address[]"
        }
      ],
      "name": "LogEntryClosed",
      "type": "event"
    },
    {
      "anonymous": false,
      "inputs": [
        {
          "indexed": false,
          "internalType": "uint256",
          "name": "id",
          "type": "uint256"
        },
        {
          "indexed": false,
          "internalType": "address",
          "name": "organizer",
          "type": "address"
        }
      ],
      "name": "LogEntryCreated",
      "type": "event"
    },
    {
      "anonymous": false,
      "inputs": [
        {
          "indexed": false,
          "internalType": "uint256",
          "name": "id",
          "type": "uint256"
        },
        {
          "indexed": false,
          "internalType": "address",
          "name": "who",
          "type": "address"
        },
        {
          "indexed": false,
          "internalType": "uint256",
          "name": "when",
          "type": "uint256"
        }
      ],
      "name": "LogRegistered",
      "type": "event"
    },
    {
      "anonymous": false,
      "inputs": [
        {
          "indexed": true,
          "internalType": "address",
          "name": "previousOwner",
          "type": "address"
        },
        {
          "indexed": true,
          "internalType": "address",
          "name": "newOwner",
          "type": "address"
        }
      ],
      "name": "OwnershipTransferred",
      "type": "event"
    },
    {
      "anonymous": false,
      "inputs": [
        {
          "indexed": true,
          "internalType": "address",
          "name": "from",
          "type": "address"
        },
        {
          "indexed": true,
          "internalType": "address",
          "name": "to",
          "type": "address"
        },
        {
          "indexed": false,
          "internalType": "uint256",
          "name": "value",
          "type": "uint256"
        }
      ],
      "name": "Transfer",
      "type": "event"
    },
    {
      "inputs": [
        {
          "internalType": "address",
          "name": "owner",
          "type": "address"
        },
        {
          "internalType": "address",
          "name": "spender",
          "type": "address"
        }
      ],
      "name": "allowance",
      "outputs": [
        {
          "internalType": "uint256",
          "name": "",
          "type": "uint256"
        }
      ],
      "stateMutability": "view",
      "type": "function",
      "constant": true
    },
    {
      "inputs": [
        {
          "internalType": "address",
          "name": "spender",
          "type": "address"
        },
        {
          "internalType": "uint256",
          "name": "amount",
          "type": "uint256"
        }
      ],
      "name": "approve",
      "outputs": [
        {
          "internalType": "bool",
          "name": "",
          "type": "bool"
        }
      ],
      "stateMutability": "nonpayable",
      "type": "function"
    },
    {
      "inputs": [
        {
          "internalType": "address",
          "name": "account",
          "type": "address"
        }
      ],
      "name": "balanceOf",
      "outputs": [
        {
          "internalType": "uint256",
          "name": "",
          "type": "uint256"
        }
      ],
      "stateMutability": "view",
      "type": "function",
      "constant": true
    },
    {
      "inputs": [],
      "name": "decimals",
      "outputs": [
        {
          "internalType": "uint8",
          "name": "",
          "type": "uint8"
        }
      ],
      "stateMutability": "view",
      "type": "function",
      "constant": true
    },
    {
      "inputs": [
        {
          "internalType": "address",
          "name": "spender",
          "type": "address"
        },
        {
          "internalType": "uint256",
          "name": "subtractedValue",
          "type": "uint256"
        }
      ],
      "name": "decreaseAllowance",
      "outputs": [
        {
          "internalType": "bool",
          "name": "",
          "type": "bool"
        }
      ],
      "stateMutability": "nonpayable",
      "type": "function"
    },
    {
      "inputs": [
        {
          "internalType": "uint256",
          "name": "",
          "type": "uint256"
        }
      ],
      "name": "entries",
      "outputs": [
        {
          "internalType": "uint256",
          "name": "id",
          "type": "uint256"
        },
        {
          "internalType": "address",
          "name": "organizer",
          "type": "address"
        },
        {
          "internalType": "string",
          "name": "title",
          "type": "string"
        },
        {
          "internalType": "uint256",
          "name": "spots",
          "type": "uint256"
        },
        {
          "internalType": "uint64",
          "name": "registrationDueDate",
          "type": "uint64"
        },
        {
          "internalType": "uint64",
          "name": "eventDate",
          "type": "uint64"
        }
      ],
      "stateMutability": "view",
      "type": "function",
      "constant": true
    },
    {
      "inputs": [
        {
          "internalType": "uint256",
          "name": "",
          "type": "uint256"
        }
      ],
      "name": "entryOrganizer",
      "outputs": [
        {
          "internalType": "address",
          "name": "",
          "type": "address"
        }
      ],
      "stateMutability": "view",
      "type": "function",
      "constant": true
    },
    {
      "inputs": [],
      "name": "entryPriceWei",
      "outputs": [
        {
          "internalType": "uint256",
          "name": "",
          "type": "uint256"
        }
      ],
      "stateMutability": "view",
      "type": "function",
      "constant": true
    },
    {
      "inputs": [
        {
          "internalType": "address",
          "name": "spender",
          "type": "address"
        },
        {
          "internalType": "uint256",
          "name": "addedValue",
          "type": "uint256"
        }
      ],
      "name": "increaseAllowance",
      "outputs": [
        {
          "internalType": "bool",
          "name": "",
          "type": "bool"
        }
      ],
      "stateMutability": "nonpayable",
      "type": "function"
    },
    {
      "inputs": [],
      "name": "name",
      "outputs": [
        {
          "internalType": "string",
          "name": "",
          "type": "string"
        }
      ],
      "stateMutability": "view",
      "type": "function",
      "constant": true
    },
    {
      "inputs": [],
      "name": "owner",
      "outputs": [
        {
          "internalType": "address",
          "name": "",
          "type": "address"
        }
      ],
      "stateMutability": "view",
      "type": "function",
      "constant": true
    },
    {
      "inputs": [],
      "name": "renounceOwnership",
      "outputs": [],
      "stateMutability": "nonpayable",
      "type": "function"
    },
    {
      "inputs": [],
      "name": "symbol",
      "outputs": [
        {
          "internalType": "string",
          "name": "",
          "type": "string"
        }
      ],
      "stateMutability": "view",
      "type": "function",
      "constant": true
    },
    {
      "inputs": [],
      "name": "totalSupply",
      "outputs": [
        {
          "internalType": "uint256",
          "name": "",
          "type": "uint256"
        }
      ],
      "stateMutability": "view",
      "type": "function",
      "constant": true
    },
    {
      "inputs": [
        {
          "internalType": "address",
          "name": "recipient",
          "type": "address"
        },
        {
          "internalType": "uint256",
          "name": "amount",
          "type": "uint256"
        }
      ],
      "name": "transfer",
      "outputs": [
        {
          "internalType": "bool",
          "name": "",
          "type": "bool"
        }
      ],
      "stateMutability": "nonpayable",
      "type": "function"
    },
    {
      "inputs": [
        {
          "internalType": "address",
          "name": "sender",
          "type": "address"
        },
        {
          "internalType": "address",
          "name": "recipient",
          "type": "address"
        },
        {
          "internalType": "uint256",
          "name": "amount",
          "type": "uint256"
        }
      ],
      "name": "transferFrom",
      "outputs": [
        {
          "internalType": "bool",
          "name": "",
          "type": "bool"
        }
      ],
      "stateMutability": "nonpayable",
      "type": "function"
    },
    {
      "inputs": [
        {
          "internalType": "address",
          "name": "newOwner",
          "type": "address"
        }
      ],
      "name": "transferOwnership",
      "outputs": [],
      "stateMutability": "nonpayable",
      "type": "function"
    },
    {
      "inputs": [],
      "name": "getEntriesCount",
      "outputs": [
        {
          "internalType": "uint256",
          "name": "",
          "type": "uint256"
        }
      ],
      "stateMutability": "view",
      "type": "function",
      "constant": true
    },
    {
      "inputs": [
        {
          "internalType": "string",
          "name": "_title",
          "type": "string"
        },
        {
          "internalType": "uint256",
          "name": "_spots",
          "type": "uint256"
        },
        {
          "internalType": "uint64",
          "name": "_registrationDueDate",
          "type": "uint64"
        },
        {
          "internalType": "uint64",
          "name": "_eventDate",
          "type": "uint64"
        }
      ],
      "name": "createNewSignUpEventEntry",
      "outputs": [
        {
          "internalType": "uint256",
          "name": "",
          "type": "uint256"
        }
      ],
      "stateMutability": "payable",
      "type": "function",
      "payable": true
    },
    {
      "inputs": [],
      "name": "getOrganizerEntriesCount",
      "outputs": [
        {
          "internalType": "uint256",
          "name": "",
          "type": "uint256"
        }
      ],
      "stateMutability": "view",
      "type": "function",
      "constant": true
    },
    {
      "inputs": [],
      "name": "getOrganizerEntries",
      "outputs": [
        {
          "components": [
            {
              "internalType": "uint256",
              "name": "id",
              "type": "uint256"
            },
            {
              "internalType": "address",
              "name": "organizer",
              "type": "address"
            },
            {
              "internalType": "string",
              "name": "title",
              "type": "string"
            },
            {
              "internalType": "uint256",
              "name": "spots",
              "type": "uint256"
            },
            {
              "internalType": "uint64",
              "name": "registrationDueDate",
              "type": "uint64"
            },
            {
              "internalType": "uint64",
              "name": "eventDate",
              "type": "uint64"
            }
          ],
          "internalType": "struct SignMeUp.SignUpEventEntry[]",
          "name": "",
          "type": "tuple[]"
        }
      ],
      "stateMutability": "view",
      "type": "function",
      "constant": true
    },
    {
      "inputs": [
        {
          "internalType": "uint256",
          "name": "_eventId",
          "type": "uint256"
        }
      ],
      "name": "randomlyChooseEventParticipants",
      "outputs": [],
      "stateMutability": "nonpayable",
      "type": "function"
    },
    {
      "inputs": [
        {
          "internalType": "uint256",
          "name": "_eventId",
          "type": "uint256"
        }
      ],
      "name": "registerForEvent",
      "outputs": [
        {
          "internalType": "uint256",
          "name": "",
          "type": "uint256"
        }
      ],
      "stateMutability": "nonpayable",
      "type": "function"
    },
    {
      "inputs": [],
      "name": "getEntriesUserRegisteredFor",
      "outputs": [
        {
          "internalType": "uint256[]",
          "name": "",
          "type": "uint256[]"
        }
      ],
      "stateMutability": "view",
      "type": "function",
      "constant": true
    },
    {
      "inputs": [],
      "name": "getEntriesUserSelectedFor",
      "outputs": [
        {
          "internalType": "uint256[]",
          "name": "",
          "type": "uint256[]"
        }
      ],
      "stateMutability": "view",
      "type": "function",
      "constant": true
    }
  ],
  "bytecode": "0x60806040523480156200001157600080fd5b506040518060400160405280600881526020017f5369676e4d6555700000000000000000000000000000000000000000000000008152506040518060400160405280600381526020017f534d550000000000000000000000000000000000000000000000000000000000815250816003908051906020019062000096929190620001b5565b508060049080519060200190620000af929190620001b5565b505050620000d2620000c6620000e760201b60201c565b620000ef60201b60201c565b674563918244f40000600681905550620002ca565b600033905090565b6000600560009054906101000a900473ffffffffffffffffffffffffffffffffffffffff16905081600560006101000a81548173ffffffffffffffffffffffffffffffffffffffff021916908373ffffffffffffffffffffffffffffffffffffffff1602179055508173ffffffffffffffffffffffffffffffffffffffff168173ffffffffffffffffffffffffffffffffffffffff167f8be0079c531659141344cd1fd0a4f28419497f9722a3daafe3b4186f6b6457e060405160405180910390a35050565b828054620001c39062000294565b90600052602060002090601f016020900481019282620001e7576000855562000233565b82601f106200020257805160ff191683800117855562000233565b8280016001018555821562000233579182015b828111156200023257825182559160200191906001019062000215565b5b50905062000242919062000246565b5090565b5b808211156200026157600081600090555060010162000247565b5090565b7f4e487b7100000000000000000000000000000000000000000000000000000000600052602260045260246000fd5b60006002820490506001821680620002ad57607f821691505b60208210811415620002c457620002c362000265565b5b50919050565b6134b880620002da6000396000f3fe6080604052600436106101665760003560e01c8063942aa7e1116100d1578063ca54ad851161008a578063dd62ed3e11610064578063dd62ed3e14610583578063e2f68330146105c0578063ebacab38146105eb578063f2fde38b1461061b57610166565b8063ca54ad85146104f0578063d09685b01461051b578063db8a70381461054657610166565b8063942aa7e1146103b557806395d89b41146103e05780639c5714021461040b578063a457c2d714610434578063a9059cbb14610471578063b30906d4146104ae57610166565b806339509351116101235780633950935114610291578063406db843146102ce57806370a082311461030b578063715018a614610348578063772a6fce1461035f5780638da5cb5b1461038a57610166565b806306fdde031461016b578063095ea7b31461019657806318160ddd146101d357806322d9b428146101fe57806323b872dd14610229578063313ce56714610266575b600080fd5b34801561017757600080fd5b50610180610644565b60405161018d919061250d565b60405180910390f35b3480156101a257600080fd5b506101bd60048036038101906101b891906125d7565b6106d6565b6040516101ca9190612632565b60405180910390f35b3480156101df57600080fd5b506101e86106f4565b6040516101f5919061265c565b60405180910390f35b34801561020a57600080fd5b506102136106fe565b604051610220919061265c565b60405180910390f35b34801561023557600080fd5b50610250600480360381019061024b9190612677565b610745565b60405161025d9190612632565b60405180910390f35b34801561027257600080fd5b5061027b61083d565b60405161028891906126e6565b60405180910390f35b34801561029d57600080fd5b506102b860048036038101906102b391906125d7565b610846565b6040516102c59190612632565b60405180910390f35b3480156102da57600080fd5b506102f560048036038101906102f09190612701565b6108f2565b604051610302919061265c565b60405180910390f35b34801561031757600080fd5b50610332600480360381019061032d919061272e565b610cf3565b60405161033f919061265c565b60405180910390f35b34801561035457600080fd5b5061035d610d3b565b005b34801561036b57600080fd5b50610374610dc3565b6040516103819190612819565b60405180910390f35b34801561039657600080fd5b5061039f610e58565b6040516103ac919061284a565b60405180910390f35b3480156103c157600080fd5b506103ca610e82565b6040516103d79190612819565b60405180910390f35b3480156103ec57600080fd5b506103f5610f17565b604051610402919061250d565b60405180910390f35b34801561041757600080fd5b50610432600480360381019061042d9190612701565b610fa9565b005b34801561044057600080fd5b5061045b600480360381019061045691906125d7565b6113da565b6040516104689190612632565b60405180910390f35b34801561047d57600080fd5b50610498600480360381019061049391906125d7565b6114c5565b6040516104a59190612632565b60405180910390f35b3480156104ba57600080fd5b506104d560048036038101906104d09190612701565b6114e3565b6040516104e796959493929190612888565b60405180910390f35b3480156104fc57600080fd5b506105056115ff565b6040516105129190612aa3565b60405180910390f35b34801561052757600080fd5b506105306118fc565b60405161053d919061265c565b60405180910390f35b34801561055257600080fd5b5061056d60048036038101906105689190612701565b611909565b60405161057a919061284a565b60405180910390f35b34801561058f57600080fd5b506105aa60048036038101906105a59190612ac5565b61193c565b6040516105b7919061265c565b60405180910390f35b3480156105cc57600080fd5b506105d56119c3565b6040516105e2919061265c565b60405180910390f35b61060560048036038101906106009190612c66565b6119c9565b604051610612919061265c565b60405180910390f35b34801561062757600080fd5b50610642600480360381019061063d919061272e565b611a8f565b005b60606003805461065390612d18565b80601f016020809104026020016040519081016040528092919081815260200182805461067f90612d18565b80156106cc5780601f106106a1576101008083540402835291602001916106cc565b820191906000526020600020905b8154815290600101906020018083116106af57829003601f168201915b5050505050905090565b60006106ea6106e3611b87565b8484611b8f565b6001905092915050565b6000600254905090565b6000600d60003373ffffffffffffffffffffffffffffffffffffffff1673ffffffffffffffffffffffffffffffffffffffff16815260200190815260200160002054905090565b6000610752848484611d5a565b6000600160008673ffffffffffffffffffffffffffffffffffffffff1673ffffffffffffffffffffffffffffffffffffffff168152602001908152602001600020600061079d611b87565b73ffffffffffffffffffffffffffffffffffffffff1673ffffffffffffffffffffffffffffffffffffffff1681526020019081526020016000205490508281101561081d576040517f08c379a000000000000000000000000000000000000000000000000000000000815260040161081490612dbc565b60405180910390fd5b61083185610829611b87565b858403611b8f565b60019150509392505050565b60006012905090565b60006108e8610853611b87565b848460016000610861611b87565b73ffffffffffffffffffffffffffffffffffffffff1673ffffffffffffffffffffffffffffffffffffffff16815260200190815260200160002060008873ffffffffffffffffffffffffffffffffffffffff1673ffffffffffffffffffffffffffffffffffffffff168152602001908152602001600020546108e39190612e0b565b611b8f565b6001905092915050565b60008160006007828154811061090b5761090a612e61565b5b90600052602060002090600502016040518060c0016040529081600082015481526020016001820160009054906101000a900473ffffffffffffffffffffffffffffffffffffffff1673ffffffffffffffffffffffffffffffffffffffff1673ffffffffffffffffffffffffffffffffffffffff16815260200160028201805461099490612d18565b80601f01602080910402602001604051908101604052809291908181526020018280546109c090612d18565b8015610a0d5780601f106109e257610100808354040283529160200191610a0d565b820191906000526020600020905b8154815290600101906020018083116109f057829003601f168201915b50505050508152602001600382015481526020016004820160009054906101000a900467ffffffffffffffff1667ffffffffffffffff1667ffffffffffffffff1681526020016004820160089054906101000a900467ffffffffffffffff1667ffffffffffffffff1667ffffffffffffffff16815250509050806080015167ffffffffffffffff164210610aa057600080fd5b83600060086000838152602001908152602001600020905060008160003373ffffffffffffffffffffffffffffffffffffffff1673ffffffffffffffffffffffffffffffffffffffff1681526020019081526020016000205414610b0357600080fd5b853373ffffffffffffffffffffffffffffffffffffffff16600e600083815260200190815260200160002060009054906101000a900473ffffffffffffffffffffffffffffffffffffffff1673ffffffffffffffffffffffffffffffffffffffff161415610b7057600080fd5b60004290506000600860008a81526020019081526020016000209050818160003373ffffffffffffffffffffffffffffffffffffffff1673ffffffffffffffffffffffffffffffffffffffff16815260200190815260200160002081905550600960003373ffffffffffffffffffffffffffffffffffffffff1673ffffffffffffffffffffffffffffffffffffffff168152602001908152602001600020899080600181540180825580915050600190039060005260206000200160009091909190915055600b60008a8152602001908152602001600020339080600181540180825580915050600190039060005260206000200160009091909190916101000a81548173ffffffffffffffffffffffffffffffffffffffff021916908373ffffffffffffffffffffffffffffffffffffffff1602179055507f16c02eafd4a170f62c09971fefa1b5aeaaffab6305564bb18a72a6150daa764e893384604051610cdc93929190612e90565b60405180910390a181975050505050505050919050565b60008060008373ffffffffffffffffffffffffffffffffffffffff1673ffffffffffffffffffffffffffffffffffffffff168152602001908152602001600020549050919050565b610d43611b87565b73ffffffffffffffffffffffffffffffffffffffff16610d61610e58565b73ffffffffffffffffffffffffffffffffffffffff1614610db7576040517f08c379a0000000000000000000000000000000000000000000000000000000008152600401610dae90612f13565b60405180910390fd5b610dc16000611fdb565b565b6060600a60003373ffffffffffffffffffffffffffffffffffffffff1673ffffffffffffffffffffffffffffffffffffffff168152602001908152602001600020805480602002602001604051908101604052809291908181526020018280548015610e4e57602002820191906000526020600020905b815481526020019060010190808311610e3a575b5050505050905090565b6000600560009054906101000a900473ffffffffffffffffffffffffffffffffffffffff16905090565b6060600960003373ffffffffffffffffffffffffffffffffffffffff1673ffffffffffffffffffffffffffffffffffffffff168152602001908152602001600020805480602002602001604051908101604052809291908181526020018280548015610f0d57602002820191906000526020600020905b815481526020019060010190808311610ef9575b5050505050905090565b606060048054610f2690612d18565b80601f0160208091040260200160405190810160405280929190818152602001828054610f5290612d18565b8015610f9f5780601f10610f7457610100808354040283529160200191610f9f565b820191906000526020600020905b815481529060010190602001808311610f8257829003601f168201915b5050505050905090565b803373ffffffffffffffffffffffffffffffffffffffff16600e600083815260200190815260200160002060009054906101000a900473ffffffffffffffffffffffffffffffffffffffff1673ffffffffffffffffffffffffffffffffffffffff161461101557600080fd5b8160006007828154811061102c5761102b612e61565b5b90600052602060002090600502016040518060c0016040529081600082015481526020016001820160009054906101000a900473ffffffffffffffffffffffffffffffffffffffff1673ffffffffffffffffffffffffffffffffffffffff1673ffffffffffffffffffffffffffffffffffffffff1681526020016002820180546110b590612d18565b80601f01602080910402602001604051908101604052809291908181526020018280546110e190612d18565b801561112e5780601f106111035761010080835404028352916020019161112e565b820191906000526020600020905b81548152906001019060200180831161111157829003601f168201915b50505050508152602001600382015481526020016004820160009054906101000a900467ffffffffffffffff1667ffffffffffffffff1667ffffffffffffffff1681526020016004820160089054906101000a900467ffffffffffffffff1667ffffffffffffffff1667ffffffffffffffff168152505090506000600c6000848152602001908152602001600020805490501480156111dc57506000816080015167ffffffffffffffff1614155b80156111f65750806080015167ffffffffffffffff164210155b6111ff57600080fd5b6000600b600086815260200190815260200160002080548060200260200160405190810160405280929190818152602001828054801561129457602002820191906000526020600020905b8160009054906101000a900473ffffffffffffffffffffffffffffffffffffffff1673ffffffffffffffffffffffffffffffffffffffff168152602001906001019080831161124a575b505050505090506000815167ffffffffffffffff8111156112b8576112b7612b0f565b5b6040519080825280602002602001820160405280156112e65781602001602082028036833780820191505090505b50905060005b82518110156113705782818151811061130857611307612e61565b5b602002602001015182828151811061132357611322612e61565b5b602002602001019073ffffffffffffffffffffffffffffffffffffffff16908173ffffffffffffffffffffffffffffffffffffffff1681525050808061136890612f33565b9150506112ec565b5080600c600088815260200190815260200160002090805190602001906113989291906122e7565b507f8869306e622784f945949ca35d9495e3b75dcbdfc41d776da82fa27213bd82de86826040516113ca92919061302b565b60405180910390a1505050505050565b600080600160006113e9611b87565b73ffffffffffffffffffffffffffffffffffffffff1673ffffffffffffffffffffffffffffffffffffffff16815260200190815260200160002060008573ffffffffffffffffffffffffffffffffffffffff1673ffffffffffffffffffffffffffffffffffffffff168152602001908152602001600020549050828110156114a6576040517f08c379a000000000000000000000000000000000000000000000000000000000815260040161149d906130cd565b60405180910390fd5b6114ba6114b1611b87565b85858403611b8f565b600191505092915050565b60006114d96114d2611b87565b8484611d5a565b6001905092915050565b600781815481106114f357600080fd5b90600052602060002090600502016000915090508060000154908060010160009054906101000a900473ffffffffffffffffffffffffffffffffffffffff169080600201805461154290612d18565b80601f016020809104026020016040519081016040528092919081815260200182805461156e90612d18565b80156115bb5780601f10611590576101008083540402835291602001916115bb565b820191906000526020600020905b81548152906001019060200180831161159e57829003601f168201915b5050505050908060030154908060040160009054906101000a900467ffffffffffffffff16908060040160089054906101000a900467ffffffffffffffff16905086565b606060003390506000600d60008373ffffffffffffffffffffffffffffffffffffffff1673ffffffffffffffffffffffffffffffffffffffff1681526020019081526020016000205467ffffffffffffffff81111561166157611660612b0f565b5b60405190808252806020026020018201604052801561169a57816020015b611687612371565b81526020019060019003908161167f5790505b5090506000805b6007805490508110156118f2578373ffffffffffffffffffffffffffffffffffffffff16600782815481106116d9576116d8612e61565b5b906000526020600020906005020160010160009054906101000a900473ffffffffffffffffffffffffffffffffffffffff1673ffffffffffffffffffffffffffffffffffffffff1614156118df576007818154811061173b5761173a612e61565b5b90600052602060002090600502016040518060c0016040529081600082015481526020016001820160009054906101000a900473ffffffffffffffffffffffffffffffffffffffff1673ffffffffffffffffffffffffffffffffffffffff1673ffffffffffffffffffffffffffffffffffffffff1681526020016002820180546117c490612d18565b80601f01602080910402602001604051908101604052809291908181526020018280546117f090612d18565b801561183d5780601f106118125761010080835404028352916020019161183d565b820191906000526020600020905b81548152906001019060200180831161182057829003601f168201915b50505050508152602001600382015481526020016004820160009054906101000a900467ffffffffffffffff1667ffffffffffffffff1667ffffffffffffffff1681526020016004820160089054906101000a900467ffffffffffffffff1667ffffffffffffffff1667ffffffffffffffff16815250508383806118c090612f33565b9450815181106118d3576118d2612e61565b5b60200260200101819052505b80806118ea90612f33565b9150506116a1565b5081935050505090565b6000600780549050905090565b600e6020528060005260406000206000915054906101000a900473ffffffffffffffffffffffffffffffffffffffff1681565b6000600160008473ffffffffffffffffffffffffffffffffffffffff1673ffffffffffffffffffffffffffffffffffffffff16815260200190815260200160002060008373ffffffffffffffffffffffffffffffffffffffff1673ffffffffffffffffffffffffffffffffffffffff16815260200190815260200160002054905092915050565b60065481565b60006006543410156119da57600080fd5b60006119e8868686866120a1565b905060006119f4610e58565b90508073ffffffffffffffffffffffffffffffffffffffff166108fc349081150290604051600060405180830381858888f19350505050158015611a3c573d6000803e3d6000fd5b507f0a63f1d05e5ef7a076666610741aeec38a557d32f3344efe6d0476a329c9970a82600001518360200151604051611a769291906130ed565b60405180910390a1816000015192505050949350505050565b611a97611b87565b73ffffffffffffffffffffffffffffffffffffffff16611ab5610e58565b73ffffffffffffffffffffffffffffffffffffffff1614611b0b576040517f08c379a0000000000000000000000000000000000000000000000000000000008152600401611b0290612f13565b60405180910390fd5b600073ffffffffffffffffffffffffffffffffffffffff168173ffffffffffffffffffffffffffffffffffffffff161415611b7b576040517f08c379a0000000000000000000000000000000000000000000000000000000008152600401611b7290613188565b60405180910390fd5b611b8481611fdb565b50565b600033905090565b600073ffffffffffffffffffffffffffffffffffffffff168373ffffffffffffffffffffffffffffffffffffffff161415611bff576040517f08c379a0000000000000000000000000000000000000000000000000000000008152600401611bf69061321a565b60405180910390fd5b600073ffffffffffffffffffffffffffffffffffffffff168273ffffffffffffffffffffffffffffffffffffffff161415611c6f576040517f08c379a0000000000000000000000000000000000000000000000000000000008152600401611c66906132ac565b60405180910390fd5b80600160008573ffffffffffffffffffffffffffffffffffffffff1673ffffffffffffffffffffffffffffffffffffffff16815260200190815260200160002060008473ffffffffffffffffffffffffffffffffffffffff1673ffffffffffffffffffffffffffffffffffffffff168152602001908152602001600020819055508173ffffffffffffffffffffffffffffffffffffffff168373ffffffffffffffffffffffffffffffffffffffff167f8c5be1e5ebec7d5bd14f71427d1e84f3dd0314c0f7b2291e5b200ac8c7c3b92583604051611d4d919061265c565b60405180910390a3505050565b600073ffffffffffffffffffffffffffffffffffffffff168373ffffffffffffffffffffffffffffffffffffffff161415611dca576040517f08c379a0000000000000000000000000000000000000000000000000000000008152600401611dc19061333e565b60405180910390fd5b600073ffffffffffffffffffffffffffffffffffffffff168273ffffffffffffffffffffffffffffffffffffffff161415611e3a576040517f08c379a0000000000000000000000000000000000000000000000000000000008152600401611e31906133d0565b60405180910390fd5b611e458383836122d0565b60008060008573ffffffffffffffffffffffffffffffffffffffff1673ffffffffffffffffffffffffffffffffffffffff16815260200190815260200160002054905081811015611ecb576040517f08c379a0000000000000000000000000000000000000000000000000000000008152600401611ec290613462565b60405180910390fd5b8181036000808673ffffffffffffffffffffffffffffffffffffffff1673ffffffffffffffffffffffffffffffffffffffff16815260200190815260200160002081905550816000808573ffffffffffffffffffffffffffffffffffffffff1673ffffffffffffffffffffffffffffffffffffffff1681526020019081526020016000206000828254611f5e9190612e0b565b925050819055508273ffffffffffffffffffffffffffffffffffffffff168473ffffffffffffffffffffffffffffffffffffffff167fddf252ad1be2c89b69c2b068fc378daa952ba7f163c4a11628f55a4df523b3ef84604051611fc2919061265c565b60405180910390a3611fd58484846122d5565b50505050565b6000600560009054906101000a900473ffffffffffffffffffffffffffffffffffffffff16905081600560006101000a81548173ffffffffffffffffffffffffffffffffffffffff021916908373ffffffffffffffffffffffffffffffffffffffff1602179055508173ffffffffffffffffffffffffffffffffffffffff168173ffffffffffffffffffffffffffffffffffffffff167f8be0079c531659141344cd1fd0a4f28419497f9722a3daafe3b4186f6b6457e060405160405180910390a35050565b6120a9612371565b60006120b36122da565b9050600033905060006040518060c001604052808481526020018373ffffffffffffffffffffffffffffffffffffffff1681526020018981526020018881526020018767ffffffffffffffff1681526020018667ffffffffffffffff16815250905081600e600085815260200190815260200160002060006101000a81548173ffffffffffffffffffffffffffffffffffffffff021916908373ffffffffffffffffffffffffffffffffffffffff1602179055506001600d60008473ffffffffffffffffffffffffffffffffffffffff1673ffffffffffffffffffffffffffffffffffffffff16815260200190815260200160002060008282546121b79190612e0b565b9250508190555060078190806001815401808255809150506001900390600052602060002090600502016000909190919091506000820151816000015560208201518160010160006101000a81548173ffffffffffffffffffffffffffffffffffffffff021916908373ffffffffffffffffffffffffffffffffffffffff16021790555060408201518160020190805190602001906122579291906123d1565b506060820151816003015560808201518160040160006101000a81548167ffffffffffffffff021916908367ffffffffffffffff16021790555060a08201518160040160086101000a81548167ffffffffffffffff021916908367ffffffffffffffff1602179055505050809350505050949350505050565b505050565b505050565b6000600780549050905090565b828054828255906000526020600020908101928215612360579160200282015b8281111561235f5782518260006101000a81548173ffffffffffffffffffffffffffffffffffffffff021916908373ffffffffffffffffffffffffffffffffffffffff16021790555091602001919060010190612307565b5b50905061236d9190612457565b5090565b6040518060c0016040528060008152602001600073ffffffffffffffffffffffffffffffffffffffff1681526020016060815260200160008152602001600067ffffffffffffffff168152602001600067ffffffffffffffff1681525090565b8280546123dd90612d18565b90600052602060002090601f0160209004810192826123ff5760008555612446565b82601f1061241857805160ff1916838001178555612446565b82800160010185558215612446579182015b8281111561244557825182559160200191906001019061242a565b5b5090506124539190612457565b5090565b5b80821115612470576000816000905550600101612458565b5090565b600081519050919050565b600082825260208201905092915050565b60005b838110156124ae578082015181840152602081019050612493565b838111156124bd576000848401525b50505050565b6000601f19601f8301169050919050565b60006124df82612474565b6124e9818561247f565b93506124f9818560208601612490565b612502816124c3565b840191505092915050565b6000602082019050818103600083015261252781846124d4565b905092915050565b6000604051905090565b600080fd5b600080fd5b600073ffffffffffffffffffffffffffffffffffffffff82169050919050565b600061256e82612543565b9050919050565b61257e81612563565b811461258957600080fd5b50565b60008135905061259b81612575565b92915050565b6000819050919050565b6125b4816125a1565b81146125bf57600080fd5b50565b6000813590506125d1816125ab565b92915050565b600080604083850312156125ee576125ed612539565b5b60006125fc8582860161258c565b925050602061260d858286016125c2565b9150509250929050565b60008115159050919050565b61262c81612617565b82525050565b60006020820190506126476000830184612623565b92915050565b612656816125a1565b82525050565b6000602082019050612671600083018461264d565b92915050565b6000806000606084860312156126905761268f612539565b5b600061269e8682870161258c565b93505060206126af8682870161258c565b92505060406126c0868287016125c2565b9150509250925092565b600060ff82169050919050565b6126e0816126ca565b82525050565b60006020820190506126fb60008301846126d7565b92915050565b60006020828403121561271757612716612539565b5b6000612725848285016125c2565b91505092915050565b60006020828403121561274457612743612539565b5b60006127528482850161258c565b91505092915050565b600081519050919050565b600082825260208201905092915050565b6000819050602082019050919050565b612790816125a1565b82525050565b60006127a28383612787565b60208301905092915050565b6000602082019050919050565b60006127c68261275b565b6127d08185612766565b93506127db83612777565b8060005b8381101561280c5781516127f38882612796565b97506127fe836127ae565b9250506001810190506127df565b5085935050505092915050565b6000602082019050818103600083015261283381846127bb565b905092915050565b61284481612563565b82525050565b600060208201905061285f600083018461283b565b92915050565b600067ffffffffffffffff82169050919050565b61288281612865565b82525050565b600060c08201905061289d600083018961264d565b6128aa602083018861283b565b81810360408301526128bc81876124d4565b90506128cb606083018661264d565b6128d86080830185612879565b6128e560a0830184612879565b979650505050505050565b600081519050919050565b600082825260208201905092915050565b6000819050602082019050919050565b61292581612563565b82525050565b600082825260208201905092915050565b600061294782612474565b612951818561292b565b9350612961818560208601612490565b61296a816124c3565b840191505092915050565b61297e81612865565b82525050565b600060c08301600083015161299c6000860182612787565b5060208301516129af602086018261291c565b50604083015184820360408601526129c7828261293c565b91505060608301516129dc6060860182612787565b5060808301516129ef6080860182612975565b5060a0830151612a0260a0860182612975565b508091505092915050565b6000612a198383612984565b905092915050565b6000602082019050919050565b6000612a39826128f0565b612a4381856128fb565b935083602082028501612a558561290c565b8060005b85811015612a915784840389528151612a728582612a0d565b9450612a7d83612a21565b925060208a01995050600181019050612a59565b50829750879550505050505092915050565b60006020820190508181036000830152612abd8184612a2e565b905092915050565b60008060408385031215612adc57612adb612539565b5b6000612aea8582860161258c565b9250506020612afb8582860161258c565b9150509250929050565b600080fd5b600080fd5b7f4e487b7100000000000000000000000000000000000000000000000000000000600052604160045260246000fd5b612b47826124c3565b810181811067ffffffffffffffff82111715612b6657612b65612b0f565b5b80604052505050565b6000612b7961252f565b9050612b858282612b3e565b919050565b600067ffffffffffffffff821115612ba557612ba4612b0f565b5b612bae826124c3565b9050602081019050919050565b82818337600083830152505050565b6000612bdd612bd884612b8a565b612b6f565b905082815260208101848484011115612bf957612bf8612b0a565b5b612c04848285612bbb565b509392505050565b600082601f830112612c2157612c20612b05565b5b8135612c31848260208601612bca565b91505092915050565b612c4381612865565b8114612c4e57600080fd5b50565b600081359050612c6081612c3a565b92915050565b60008060008060808587031215612c8057612c7f612539565b5b600085013567ffffffffffffffff811115612c9e57612c9d61253e565b5b612caa87828801612c0c565b9450506020612cbb878288016125c2565b9350506040612ccc87828801612c51565b9250506060612cdd87828801612c51565b91505092959194509250565b7f4e487b7100000000000000000000000000000000000000000000000000000000600052602260045260246000fd5b60006002820490506001821680612d3057607f821691505b60208210811415612d4457612d43612ce9565b5b50919050565b7f45524332303a207472616e7366657220616d6f756e742065786365656473206160008201527f6c6c6f77616e6365000000000000000000000000000000000000000000000000602082015250565b6000612da660288361247f565b9150612db182612d4a565b604082019050919050565b60006020820190508181036000830152612dd581612d99565b9050919050565b7f4e487b7100000000000000000000000000000000000000000000000000000000600052601160045260246000fd5b6000612e16826125a1565b9150612e21836125a1565b9250827fffffffffffffffffffffffffffffffffffffffffffffffffffffffffffffffff03821115612e5657612e55612ddc565b5b828201905092915050565b7f4e487b7100000000000000000000000000000000000000000000000000000000600052603260045260246000fd5b6000606082019050612ea5600083018661264d565b612eb2602083018561283b565b612ebf604083018461264d565b949350505050565b7f4f776e61626c653a2063616c6c6572206973206e6f7420746865206f776e6572600082015250565b6000612efd60208361247f565b9150612f0882612ec7565b602082019050919050565b60006020820190508181036000830152612f2c81612ef0565b9050919050565b6000612f3e826125a1565b91507fffffffffffffffffffffffffffffffffffffffffffffffffffffffffffffffff821415612f7157612f70612ddc565b5b600182019050919050565b600081519050919050565b600082825260208201905092915050565b6000819050602082019050919050565b6000612fb4838361291c565b60208301905092915050565b6000602082019050919050565b6000612fd882612f7c565b612fe28185612f87565b9350612fed83612f98565b8060005b8381101561301e5781516130058882612fa8565b975061301083612fc0565b925050600181019050612ff1565b5085935050505092915050565b6000604082019050613040600083018561264d565b81810360208301526130528184612fcd565b90509392505050565b7f45524332303a2064656372656173656420616c6c6f77616e63652062656c6f7760008201527f207a65726f000000000000000000000000000000000000000000000000000000602082015250565b60006130b760258361247f565b91506130c28261305b565b604082019050919050565b600060208201905081810360008301526130e6816130aa565b9050919050565b6000604082019050613102600083018561264d565b61310f602083018461283b565b9392505050565b7f4f776e61626c653a206e6577206f776e657220697320746865207a65726f206160008201527f6464726573730000000000000000000000000000000000000000000000000000602082015250565b600061317260268361247f565b915061317d82613116565b604082019050919050565b600060208201905081810360008301526131a181613165565b9050919050565b7f45524332303a20617070726f76652066726f6d20746865207a65726f2061646460008201527f7265737300000000000000000000000000000000000000000000000000000000602082015250565b600061320460248361247f565b915061320f826131a8565b604082019050919050565b60006020820190508181036000830152613233816131f7565b9050919050565b7f45524332303a20617070726f766520746f20746865207a65726f20616464726560008201527f7373000000000000000000000000000000000000000000000000000000000000602082015250565b600061329660228361247f565b91506132a18261323a565b604082019050919050565b600060208201905081810360008301526132c581613289565b9050919050565b7f45524332303a207472616e736665722066726f6d20746865207a65726f20616460008201527f6472657373000000000000000000000000000000000000000000000000000000602082015250565b600061332860258361247f565b9150613333826132cc565b604082019050919050565b600060208201905081810360008301526133578161331b565b9050919050565b7f45524332303a207472616e7366657220746f20746865207a65726f206164647260008201527f6573730000000000000000000000000000000000000000000000000000000000602082015250565b60006133ba60238361247f565b91506133c58261335e565b604082019050919050565b600060208201905081810360008301526133e9816133ad565b9050919050565b7f45524332303a207472616e7366657220616d6f756e742065786365656473206260008201527f616c616e63650000000000000000000000000000000000000000000000000000602082015250565b600061344c60268361247f565b9150613457826133f0565b604082019050919050565b6000602082019050818103600083015261347b8161343f565b905091905056fea264697066735822122048a58bd2cd5e3f738542f4ca5f41fc45b989201834849f3ba81174263448075c64736f6c634300080a0033",
  "immutableReferences": {},
  "source": "// SPDX-License-Identifier: MIT\r\npragma solidity ^0.8.0;\r\n\r\nimport \"@openzeppelin/contracts/token/ERC20/ERC20.sol\";\r\nimport \"@openzeppelin/contracts/access/Ownable.sol\";\r\n\r\ncontract SignMeUp is ERC20, Ownable {\r\n\r\n  uint public entryPriceWei;\r\n\r\n  // All event entries\r\n  SignUpEventEntry[] public entries;\r\n\r\n  // Mapping of registered addresses by registration date for given entry\r\n  mapping (uint => mapping(address => uint)) private entryRegistrationTimestamps;\r\n\r\n  // Entries which user registered for\r\n  mapping (address => uint[]) private registrantEntries;\r\n\r\n  // Entries which user was selected for\r\n  mapping (address => uint[]) private participantEntries;\r\n\r\n  // Registrants for given SignUpEventEntry\r\n  mapping (uint => address[]) private entryRegistrants;\r\n\r\n  // Participants for given SignUpEventEntry\r\n  mapping (uint => address[]) private entryParticipants;\r\n\r\n  // Number of entries organized by user\r\n  mapping (address => uint) private organizerEntriesCount;\r\n\r\n  // Organizer of given SignUpEventEntry\r\n  mapping (uint => address) public entryOrganizer;\r\n\r\n  ////// Events //////\r\n  event LogEntryCreated(uint id, address organizer);\r\n  event LogRegistered(uint id, address who, uint when);\r\n  event LogEntryClosed(uint id, address[] participants);\r\n\r\n  ////// Modifiers //////\r\n  modifier isBeforeRegistrationDate(uint _eventId) {\r\n    SignUpEventEntry memory entry = entries[_eventId];\r\n    require(block.timestamp < entry.registrationDueDate);\r\n    _;\r\n  }\r\n\r\n  modifier canSelectParticipants(uint _eventId) {\r\n    SignUpEventEntry memory entry = entries[_eventId];\r\n    require(entryParticipants[_eventId].length == 0 \r\n      && entry.registrationDueDate != 0 \r\n      && block.timestamp >= entry.registrationDueDate);\r\n    _;\r\n  }\r\n\r\n  modifier isNotRegistered(uint _eventId) {\r\n    mapping(address => uint) storage registrationTimestamps = entryRegistrationTimestamps[_eventId];\r\n    require(registrationTimestamps[msg.sender] == 0);\r\n    _;\r\n  }\r\n\r\n  modifier isOrganizer(uint _eventId) {\r\n    require(entryOrganizer[_eventId] == msg.sender);\r\n    _;\r\n  }\r\n\r\n  modifier isNotOrganizer(uint _eventId) {\r\n    require(entryOrganizer[_eventId] != msg.sender);\r\n    _;\r\n  }\r\n\r\n  modifier paidEnough() {\r\n    require(msg.value >= entryPriceWei);\r\n    _;\r\n  }\r\n\r\n  ////// Structs //////\r\n  struct SignUpEventEntry {\r\n    uint id;\r\n    address organizer;\r\n    string title;\r\n    uint spots;\r\n    uint64 registrationDueDate;\r\n    uint64 eventDate;\r\n  }\r\n\r\n  constructor() ERC20(\"SignMeUp\", \"SMU\") {\r\n    entryPriceWei = 5_000_000_000 * 1_000_000_000;\r\n  }\r\n\r\n  // fallback() external payable {\r\n  //   revert();\r\n  // }\r\n\r\n  ////// Common functions //////\r\n\r\n  function getEntriesCount() public view returns(uint) {\r\n    return entries.length;\r\n  }\r\n\r\n  ////// Organizer functions\r\n  function createNewSignUpEventEntry(\r\n    string memory _title,\r\n    uint _spots,\r\n    uint64 _registrationDueDate,\r\n    uint64 _eventDate\r\n  )\r\n    public\r\n    payable\r\n    paidEnough()\r\n    returns (uint)\r\n  {\r\n    SignUpEventEntry memory entry = newSignUpEventEntryOf(_title, _spots, _registrationDueDate, _eventDate);\r\n\r\n    address payable _owner = payable(owner());\r\n    _owner.transfer(msg.value);\r\n\r\n    emit LogEntryCreated(entry.id, entry.organizer);\r\n\r\n    return entry.id;\r\n  }\r\n\r\n  function newSignUpEventEntryOf(\r\n    string memory _title,\r\n    uint _spots,\r\n    uint64 _registrationDueDate,\r\n    uint64 _eventDate\r\n  )\r\n    private\r\n    returns (SignUpEventEntry memory)\r\n  {\r\n    uint newId = nextEntryId();\r\n    address organizer = msg.sender;\r\n\r\n    SignUpEventEntry memory entry = SignUpEventEntry({\r\n      id: newId,\r\n      organizer: organizer,\r\n      title: _title,\r\n      spots: _spots,\r\n      registrationDueDate: _registrationDueDate,\r\n      eventDate: _eventDate\r\n    });\r\n    \r\n    entryOrganizer[newId] = organizer;\r\n    organizerEntriesCount[organizer] += 1;\r\n\r\n    entries.push(entry);\r\n\r\n    return entry;\r\n  }\r\n\r\n  function nextEntryId() private view returns(uint) {\r\n    return entries.length;\r\n  }\r\n\r\n  function getOrganizerEntriesCount() public view returns(uint) {\r\n    return organizerEntriesCount[msg.sender];\r\n  }\r\n\r\n  function getOrganizerEntries()\r\n    public\r\n    view\r\n    returns(SignUpEventEntry[] memory)\r\n  {\r\n    address organizer = msg.sender;\r\n\r\n    SignUpEventEntry[] memory result = new SignUpEventEntry[](organizerEntriesCount[organizer]);\r\n    uint targetIndex = 0;\r\n    for (uint i = 0; i < entries.length; i++) {\r\n      if (entries[i].organizer == organizer) {\r\n        result[targetIndex++] = entries[i];\r\n      }\r\n    }\r\n\r\n    return result;\r\n  }\r\n\r\n  function randomlyChooseEventParticipants(uint _eventId)\r\n    public\r\n    isOrganizer(_eventId)\r\n    canSelectParticipants(_eventId)\r\n  {\r\n    // TODO use some 'random' oracle, choose participants from registeres users and change state to Closed\r\n    address[] memory registrants = entryRegistrants[_eventId];\r\n    address[] memory participants = new address[](registrants.length);\r\n    for (uint i = 0; i < registrants.length; i++) {\r\n      participants[i] = registrants[i];\r\n    }\r\n    entryParticipants[_eventId] = participants;\r\n    emit LogEntryClosed(_eventId, participants);\r\n  }\r\n\r\n  ////// Registrant functions //////\r\n  function registerForEvent(uint _eventId)\r\n    public\r\n    isBeforeRegistrationDate(_eventId)\r\n    isNotRegistered(_eventId)\r\n    isNotOrganizer(_eventId)\r\n    returns(uint)\r\n  {\r\n    uint registrationTimestamp = block.timestamp;\r\n\r\n    mapping(address => uint) storage registrationTimestamps = entryRegistrationTimestamps[_eventId];\r\n    registrationTimestamps[msg.sender] = registrationTimestamp;\r\n    registrantEntries[msg.sender].push(_eventId);\r\n    entryRegistrants[_eventId].push(msg.sender);\r\n\r\n    emit LogRegistered(_eventId, msg.sender, registrationTimestamp);\r\n\r\n    return registrationTimestamp;\r\n  }\r\n\r\n  function getEntriesUserRegisteredFor() public view returns(uint[] memory) {\r\n    return registrantEntries[msg.sender];\r\n  }\r\n\r\n  function getEntriesUserSelectedFor() public view returns(uint[] memory) {\r\n    return participantEntries[msg.sender];\r\n  }\r\n\r\n  // ### Utils ###\r\n  // #############\r\n\r\n  function nonSecureRandom() private view returns (uint) {\r\n    return uint(keccak256(\r\n      abi.encodePacked(block.timestamp, block.difficulty)\r\n    ));\r\n  }\r\n  // ### Utils - end ###\r\n}\r\n",
  "sourcePath": "/mnt/c/Dev/workspace/consensys/final/blockchain-developer-bootcamp-final-project/contracts/SignMeUp.sol",
  "compiler": {
    "name": "solc",
    "version": "0.8.10+commit.fc410830.Emscripten.clang"
  },
  "schemaVersion": "3.4.3",
  "updatedAt": "2021-11-15T20:51:24.524Z",
  "networkType": "ethereum",
  "devdoc": {
    "kind": "dev",
    "methods": {
      "allowance(address,address)": {
        "details": "See {IERC20-allowance}."
      },
      "approve(address,uint256)": {
        "details": "See {IERC20-approve}. Requirements: - `spender` cannot be the zero address."
      },
      "balanceOf(address)": {
        "details": "See {IERC20-balanceOf}."
      },
      "decimals()": {
        "details": "Returns the number of decimals used to get its user representation. For example, if `decimals` equals `2`, a balance of `505` tokens should be displayed to a user as `5.05` (`505 / 10 ** 2`). Tokens usually opt for a value of 18, imitating the relationship between Ether and Wei. This is the value {ERC20} uses, unless this function is overridden; NOTE: This information is only used for _display_ purposes: it in no way affects any of the arithmetic of the contract, including {IERC20-balanceOf} and {IERC20-transfer}."
      },
      "decreaseAllowance(address,uint256)": {
        "details": "Atomically decreases the allowance granted to `spender` by the caller. This is an alternative to {approve} that can be used as a mitigation for problems described in {IERC20-approve}. Emits an {Approval} event indicating the updated allowance. Requirements: - `spender` cannot be the zero address. - `spender` must have allowance for the caller of at least `subtractedValue`."
      },
      "increaseAllowance(address,uint256)": {
        "details": "Atomically increases the allowance granted to `spender` by the caller. This is an alternative to {approve} that can be used as a mitigation for problems described in {IERC20-approve}. Emits an {Approval} event indicating the updated allowance. Requirements: - `spender` cannot be the zero address."
      },
      "name()": {
        "details": "Returns the name of the token."
      },
      "owner()": {
        "details": "Returns the address of the current owner."
      },
      "renounceOwnership()": {
        "details": "Leaves the contract without owner. It will not be possible to call `onlyOwner` functions anymore. Can only be called by the current owner. NOTE: Renouncing ownership will leave the contract without an owner, thereby removing any functionality that is only available to the owner."
      },
      "symbol()": {
        "details": "Returns the symbol of the token, usually a shorter version of the name."
      },
      "totalSupply()": {
        "details": "See {IERC20-totalSupply}."
      },
      "transfer(address,uint256)": {
        "details": "See {IERC20-transfer}. Requirements: - `recipient` cannot be the zero address. - the caller must have a balance of at least `amount`."
      },
      "transferFrom(address,address,uint256)": {
        "details": "See {IERC20-transferFrom}. Emits an {Approval} event indicating the updated allowance. This is not required by the EIP. See the note at the beginning of {ERC20}. Requirements: - `sender` and `recipient` cannot be the zero address. - `sender` must have a balance of at least `amount`. - the caller must have allowance for ``sender``'s tokens of at least `amount`."
      },
      "transferOwnership(address)": {
        "details": "Transfers ownership of the contract to a new account (`newOwner`). Can only be called by the current owner."
      }
    },
    "version": 1
  },
  "userdoc": {
    "kind": "user",
    "methods": {},
    "version": 1
  }
}