{
  "contractName": "SignMeUp",
  "abi": [
    {
      "inputs": [],
      "stateMutability": "nonpayable",
      "type": "constructor"
    },
    {
      "anonymous": false,
      "inputs": [
        {
          "indexed": true,
          "internalType": "address",
          "name": "owner",
          "type": "address"
        },
        {
          "indexed": true,
          "internalType": "address",
          "name": "spender",
          "type": "address"
        },
        {
          "indexed": false,
          "internalType": "uint256",
          "name": "value",
          "type": "uint256"
        }
      ],
      "name": "Approval",
      "type": "event"
    },
    {
      "anonymous": false,
      "inputs": [
        {
          "indexed": false,
          "internalType": "uint256",
          "name": "id",
          "type": "uint256"
        },
        {
          "indexed": false,
          "internalType": "address[]",
          "name": "participants",
          "type": "address[]"
        }
      ],
      "name": "LogEntryClosed",
      "type": "event"
    },
    {
      "anonymous": false,
      "inputs": [
        {
          "indexed": false,
          "internalType": "uint256",
          "name": "id",
          "type": "uint256"
        },
        {
          "indexed": false,
          "internalType": "address",
          "name": "organizer",
          "type": "address"
        }
      ],
      "name": "LogEntryCreated",
      "type": "event"
    },
    {
      "anonymous": false,
      "inputs": [
        {
          "indexed": false,
          "internalType": "uint256",
          "name": "oldPrice",
          "type": "uint256"
        },
        {
          "indexed": false,
          "internalType": "uint256",
          "name": "newPrice",
          "type": "uint256"
        }
      ],
      "name": "LogPriceChanged",
      "type": "event"
    },
    {
      "anonymous": false,
      "inputs": [
        {
          "indexed": false,
          "internalType": "uint256",
          "name": "id",
          "type": "uint256"
        },
        {
          "indexed": false,
          "internalType": "address",
          "name": "who",
          "type": "address"
        },
        {
          "indexed": false,
          "internalType": "uint256",
          "name": "when",
          "type": "uint256"
        }
      ],
      "name": "LogRegistered",
      "type": "event"
    },
    {
      "anonymous": false,
      "inputs": [
        {
          "indexed": true,
          "internalType": "address",
          "name": "previousOwner",
          "type": "address"
        },
        {
          "indexed": true,
          "internalType": "address",
          "name": "newOwner",
          "type": "address"
        }
      ],
      "name": "OwnershipTransferred",
      "type": "event"
    },
    {
      "anonymous": false,
      "inputs": [
        {
          "indexed": true,
          "internalType": "address",
          "name": "from",
          "type": "address"
        },
        {
          "indexed": true,
          "internalType": "address",
          "name": "to",
          "type": "address"
        },
        {
          "indexed": false,
          "internalType": "uint256",
          "name": "value",
          "type": "uint256"
        }
      ],
      "name": "Transfer",
      "type": "event"
    },
    {
      "inputs": [
        {
          "internalType": "address",
          "name": "owner",
          "type": "address"
        },
        {
          "internalType": "address",
          "name": "spender",
          "type": "address"
        }
      ],
      "name": "allowance",
      "outputs": [
        {
          "internalType": "uint256",
          "name": "",
          "type": "uint256"
        }
      ],
      "stateMutability": "view",
      "type": "function",
      "constant": true
    },
    {
      "inputs": [
        {
          "internalType": "address",
          "name": "spender",
          "type": "address"
        },
        {
          "internalType": "uint256",
          "name": "amount",
          "type": "uint256"
        }
      ],
      "name": "approve",
      "outputs": [
        {
          "internalType": "bool",
          "name": "",
          "type": "bool"
        }
      ],
      "stateMutability": "nonpayable",
      "type": "function"
    },
    {
      "inputs": [
        {
          "internalType": "address",
          "name": "account",
          "type": "address"
        }
      ],
      "name": "balanceOf",
      "outputs": [
        {
          "internalType": "uint256",
          "name": "",
          "type": "uint256"
        }
      ],
      "stateMutability": "view",
      "type": "function",
      "constant": true
    },
    {
      "inputs": [],
      "name": "decimals",
      "outputs": [
        {
          "internalType": "uint8",
          "name": "",
          "type": "uint8"
        }
      ],
      "stateMutability": "view",
      "type": "function",
      "constant": true
    },
    {
      "inputs": [
        {
          "internalType": "address",
          "name": "spender",
          "type": "address"
        },
        {
          "internalType": "uint256",
          "name": "subtractedValue",
          "type": "uint256"
        }
      ],
      "name": "decreaseAllowance",
      "outputs": [
        {
          "internalType": "bool",
          "name": "",
          "type": "bool"
        }
      ],
      "stateMutability": "nonpayable",
      "type": "function"
    },
    {
      "inputs": [
        {
          "internalType": "uint256",
          "name": "",
          "type": "uint256"
        }
      ],
      "name": "entries",
      "outputs": [
        {
          "internalType": "uint256",
          "name": "id",
          "type": "uint256"
        },
        {
          "internalType": "address",
          "name": "organizer",
          "type": "address"
        },
        {
          "internalType": "string",
          "name": "title",
          "type": "string"
        },
        {
          "internalType": "uint256",
          "name": "spots",
          "type": "uint256"
        },
        {
          "internalType": "uint64",
          "name": "registrationDueDate",
          "type": "uint64"
        },
        {
          "internalType": "uint64",
          "name": "eventDate",
          "type": "uint64"
        }
      ],
      "stateMutability": "view",
      "type": "function",
      "constant": true
    },
    {
      "inputs": [
        {
          "internalType": "uint256",
          "name": "",
          "type": "uint256"
        }
      ],
      "name": "entryOrganizer",
      "outputs": [
        {
          "internalType": "address",
          "name": "",
          "type": "address"
        }
      ],
      "stateMutability": "view",
      "type": "function",
      "constant": true
    },
    {
      "inputs": [],
      "name": "entryPriceWei",
      "outputs": [
        {
          "internalType": "uint256",
          "name": "",
          "type": "uint256"
        }
      ],
      "stateMutability": "view",
      "type": "function",
      "constant": true
    },
    {
      "inputs": [
        {
          "internalType": "address",
          "name": "spender",
          "type": "address"
        },
        {
          "internalType": "uint256",
          "name": "addedValue",
          "type": "uint256"
        }
      ],
      "name": "increaseAllowance",
      "outputs": [
        {
          "internalType": "bool",
          "name": "",
          "type": "bool"
        }
      ],
      "stateMutability": "nonpayable",
      "type": "function"
    },
    {
      "inputs": [],
      "name": "name",
      "outputs": [
        {
          "internalType": "string",
          "name": "",
          "type": "string"
        }
      ],
      "stateMutability": "view",
      "type": "function",
      "constant": true
    },
    {
      "inputs": [],
      "name": "owner",
      "outputs": [
        {
          "internalType": "address",
          "name": "",
          "type": "address"
        }
      ],
      "stateMutability": "view",
      "type": "function",
      "constant": true
    },
    {
      "inputs": [],
      "name": "renounceOwnership",
      "outputs": [],
      "stateMutability": "nonpayable",
      "type": "function"
    },
    {
      "inputs": [],
      "name": "symbol",
      "outputs": [
        {
          "internalType": "string",
          "name": "",
          "type": "string"
        }
      ],
      "stateMutability": "view",
      "type": "function",
      "constant": true
    },
    {
      "inputs": [],
      "name": "totalSupply",
      "outputs": [
        {
          "internalType": "uint256",
          "name": "",
          "type": "uint256"
        }
      ],
      "stateMutability": "view",
      "type": "function",
      "constant": true
    },
    {
      "inputs": [
        {
          "internalType": "address",
          "name": "recipient",
          "type": "address"
        },
        {
          "internalType": "uint256",
          "name": "amount",
          "type": "uint256"
        }
      ],
      "name": "transfer",
      "outputs": [
        {
          "internalType": "bool",
          "name": "",
          "type": "bool"
        }
      ],
      "stateMutability": "nonpayable",
      "type": "function"
    },
    {
      "inputs": [
        {
          "internalType": "address",
          "name": "sender",
          "type": "address"
        },
        {
          "internalType": "address",
          "name": "recipient",
          "type": "address"
        },
        {
          "internalType": "uint256",
          "name": "amount",
          "type": "uint256"
        }
      ],
      "name": "transferFrom",
      "outputs": [
        {
          "internalType": "bool",
          "name": "",
          "type": "bool"
        }
      ],
      "stateMutability": "nonpayable",
      "type": "function"
    },
    {
      "inputs": [
        {
          "internalType": "address",
          "name": "newOwner",
          "type": "address"
        }
      ],
      "name": "transferOwnership",
      "outputs": [],
      "stateMutability": "nonpayable",
      "type": "function"
    },
    {
      "inputs": [
        {
          "internalType": "uint256",
          "name": "_price",
          "type": "uint256"
        }
      ],
      "name": "setPrice",
      "outputs": [],
      "stateMutability": "nonpayable",
      "type": "function"
    },
    {
      "inputs": [],
      "name": "getEntriesCount",
      "outputs": [
        {
          "internalType": "uint256",
          "name": "",
          "type": "uint256"
        }
      ],
      "stateMutability": "view",
      "type": "function",
      "constant": true
    },
    {
      "inputs": [
        {
          "internalType": "string",
          "name": "_title",
          "type": "string"
        },
        {
          "internalType": "uint256",
          "name": "_spots",
          "type": "uint256"
        },
        {
          "internalType": "uint64",
          "name": "_registrationDueDate",
          "type": "uint64"
        },
        {
          "internalType": "uint64",
          "name": "_eventDate",
          "type": "uint64"
        }
      ],
      "name": "createNewSignUpEventEntry",
      "outputs": [
        {
          "internalType": "uint256",
          "name": "",
          "type": "uint256"
        }
      ],
      "stateMutability": "payable",
      "type": "function",
      "payable": true
    },
    {
      "inputs": [],
      "name": "getOrganizerEntriesCount",
      "outputs": [
        {
          "internalType": "uint256",
          "name": "",
          "type": "uint256"
        }
      ],
      "stateMutability": "view",
      "type": "function",
      "constant": true
    },
    {
      "inputs": [],
      "name": "getOrganizerEntries",
      "outputs": [
        {
          "components": [
            {
              "internalType": "uint256",
              "name": "id",
              "type": "uint256"
            },
            {
              "internalType": "address",
              "name": "organizer",
              "type": "address"
            },
            {
              "internalType": "string",
              "name": "title",
              "type": "string"
            },
            {
              "internalType": "uint256",
              "name": "spots",
              "type": "uint256"
            },
            {
              "internalType": "uint64",
              "name": "registrationDueDate",
              "type": "uint64"
            },
            {
              "internalType": "uint64",
              "name": "eventDate",
              "type": "uint64"
            }
          ],
          "internalType": "struct SignMeUp.SignUpEventEntry[]",
          "name": "",
          "type": "tuple[]"
        }
      ],
      "stateMutability": "view",
      "type": "function",
      "constant": true
    },
    {
      "inputs": [
        {
          "internalType": "uint256",
          "name": "_eventId",
          "type": "uint256"
        }
      ],
      "name": "randomlyChooseEventParticipants",
      "outputs": [],
      "stateMutability": "nonpayable",
      "type": "function"
    },
    {
      "inputs": [
        {
          "internalType": "uint256",
          "name": "_eventId",
          "type": "uint256"
        }
      ],
      "name": "registerForEvent",
      "outputs": [
        {
          "internalType": "uint256",
          "name": "",
          "type": "uint256"
        }
      ],
      "stateMutability": "nonpayable",
      "type": "function"
    },
    {
      "inputs": [],
      "name": "getEntriesUserRegisteredFor",
      "outputs": [
        {
          "internalType": "uint256[]",
          "name": "",
          "type": "uint256[]"
        }
      ],
      "stateMutability": "view",
      "type": "function",
      "constant": true
    },
    {
      "inputs": [],
      "name": "getEntriesUserSelectedFor",
      "outputs": [
        {
          "internalType": "uint256[]",
          "name": "",
          "type": "uint256[]"
        }
      ],
      "stateMutability": "view",
      "type": "function",
      "constant": true
    }
  ],
  "bytecode": "0x60806040523480156200001157600080fd5b506040518060400160405280600881526020017f5369676e4d6555700000000000000000000000000000000000000000000000008152506040518060400160405280600381526020017f534d550000000000000000000000000000000000000000000000000000000000815250816003908051906020019062000096929190620001b3565b508060049080519060200190620000af929190620001b3565b505050620000d2620000c6620000e560201b60201c565b620000ed60201b60201c565b652d79883d2000600681905550620002c8565b600033905090565b6000600560009054906101000a900473ffffffffffffffffffffffffffffffffffffffff16905081600560006101000a81548173ffffffffffffffffffffffffffffffffffffffff021916908373ffffffffffffffffffffffffffffffffffffffff1602179055508173ffffffffffffffffffffffffffffffffffffffff168173ffffffffffffffffffffffffffffffffffffffff167f8be0079c531659141344cd1fd0a4f28419497f9722a3daafe3b4186f6b6457e060405160405180910390a35050565b828054620001c19062000292565b90600052602060002090601f016020900481019282620001e5576000855562000231565b82601f106200020057805160ff191683800117855562000231565b8280016001018555821562000231579182015b828111156200023057825182559160200191906001019062000213565b5b50905062000240919062000244565b5090565b5b808211156200025f57600081600090555060010162000245565b5090565b7f4e487b7100000000000000000000000000000000000000000000000000000000600052602260045260246000fd5b60006002820490506001821680620002ab57607f821691505b60208210811415620002c257620002c162000263565b5b50919050565b613d5b80620002d86000396000f3fe6080604052600436106101815760003560e01c8063942aa7e1116100d1578063ca54ad851161008a578063dd62ed3e11610064578063dd62ed3e146105c7578063e2f6833014610604578063ebacab381461062f578063f2fde38b1461065f57610181565b8063ca54ad8514610534578063d09685b01461055f578063db8a70381461058a57610181565b8063942aa7e1146103f957806395d89b41146104245780639c5714021461044f578063a457c2d714610478578063a9059cbb146104b5578063b30906d4146104f257610181565b8063395093511161013e578063715018a611610118578063715018a614610363578063772a6fce1461037a5780638da5cb5b146103a557806391b7f5ed146103d057610181565b806339509351146102ac578063406db843146102e957806370a082311461032657610181565b806306fdde0314610186578063095ea7b3146101b157806318160ddd146101ee57806322d9b4281461021957806323b872dd14610244578063313ce56714610281575b600080fd5b34801561019257600080fd5b5061019b610688565b6040516101a89190612900565b60405180910390f35b3480156101bd57600080fd5b506101d860048036038101906101d391906129ca565b61071a565b6040516101e59190612a25565b60405180910390f35b3480156101fa57600080fd5b50610203610738565b6040516102109190612a4f565b60405180910390f35b34801561022557600080fd5b5061022e610742565b60405161023b9190612a4f565b60405180910390f35b34801561025057600080fd5b5061026b60048036038101906102669190612a6a565b610789565b6040516102789190612a25565b60405180910390f35b34801561028d57600080fd5b50610296610881565b6040516102a39190612ad9565b60405180910390f35b3480156102b857600080fd5b506102d360048036038101906102ce91906129ca565b61088a565b6040516102e09190612a25565b60405180910390f35b3480156102f557600080fd5b50610310600480360381019061030b9190612af4565b610936565b60405161031d9190612a4f565b60405180910390f35b34801561033257600080fd5b5061034d60048036038101906103489190612b21565b610dd9565b60405161035a9190612a4f565b60405180910390f35b34801561036f57600080fd5b50610378610e21565b005b34801561038657600080fd5b5061038f610ea9565b60405161039c9190612c0c565b60405180910390f35b3480156103b157600080fd5b506103ba610f3e565b6040516103c79190612c3d565b60405180910390f35b3480156103dc57600080fd5b506103f760048036038101906103f29190612af4565b610f68565b005b34801561040557600080fd5b5061040e61103b565b60405161041b9190612c0c565b60405180910390f35b34801561043057600080fd5b506104396110d0565b6040516104469190612900565b60405180910390f35b34801561045b57600080fd5b5061047660048036038101906104719190612af4565b611162565b005b34801561048457600080fd5b5061049f600480360381019061049a91906129ca565b6115ff565b6040516104ac9190612a25565b60405180910390f35b3480156104c157600080fd5b506104dc60048036038101906104d791906129ca565b6116ea565b6040516104e99190612a25565b60405180910390f35b3480156104fe57600080fd5b5061051960048036038101906105149190612af4565b611708565b60405161052b96959493929190612c7b565b60405180910390f35b34801561054057600080fd5b50610549611824565b6040516105569190612e96565b60405180910390f35b34801561056b57600080fd5b50610574611b21565b6040516105819190612a4f565b60405180910390f35b34801561059657600080fd5b506105b160048036038101906105ac9190612af4565b611b2e565b6040516105be9190612c3d565b60405180910390f35b3480156105d357600080fd5b506105ee60048036038101906105e99190612eb8565b611b61565b6040516105fb9190612a4f565b60405180910390f35b34801561061057600080fd5b50610619611be8565b6040516106269190612a4f565b60405180910390f35b61064960048036038101906106449190613059565b611bee565b6040516106569190612a4f565b60405180910390f35b34801561066b57600080fd5b5061068660048036038101906106819190612b21565b611d21565b005b6060600380546106979061310b565b80601f01602080910402602001604051908101604052809291908181526020018280546106c39061310b565b80156107105780601f106106e557610100808354040283529160200191610710565b820191906000526020600020905b8154815290600101906020018083116106f357829003601f168201915b5050505050905090565b600061072e610727611e19565b8484611e21565b6001905092915050565b6000600254905090565b6000600d60003373ffffffffffffffffffffffffffffffffffffffff1673ffffffffffffffffffffffffffffffffffffffff16815260200190815260200160002054905090565b6000610796848484611fec565b6000600160008673ffffffffffffffffffffffffffffffffffffffff1673ffffffffffffffffffffffffffffffffffffffff16815260200190815260200160002060006107e1611e19565b73ffffffffffffffffffffffffffffffffffffffff1673ffffffffffffffffffffffffffffffffffffffff16815260200190815260200160002054905082811015610861576040517f08c379a0000000000000000000000000000000000000000000000000000000008152600401610858906131af565b60405180910390fd5b6108758561086d611e19565b858403611e21565b60019150509392505050565b60006012905090565b600061092c610897611e19565b8484600160006108a5611e19565b73ffffffffffffffffffffffffffffffffffffffff1673ffffffffffffffffffffffffffffffffffffffff16815260200190815260200160002060008873ffffffffffffffffffffffffffffffffffffffff1673ffffffffffffffffffffffffffffffffffffffff1681526020019081526020016000205461092791906131fe565b611e21565b6001905092915050565b60008160006007828154811061094f5761094e613254565b5b90600052602060002090600502016040518060c0016040529081600082015481526020016001820160009054906101000a900473ffffffffffffffffffffffffffffffffffffffff1673ffffffffffffffffffffffffffffffffffffffff1673ffffffffffffffffffffffffffffffffffffffff1681526020016002820180546109d89061310b565b80601f0160208091040260200160405190810160405280929190818152602001828054610a049061310b565b8015610a515780601f10610a2657610100808354040283529160200191610a51565b820191906000526020600020905b815481529060010190602001808311610a3457829003601f168201915b50505050508152602001600382015481526020016004820160009054906101000a900467ffffffffffffffff1667ffffffffffffffff1667ffffffffffffffff1681526020016004820160089054906101000a900467ffffffffffffffff1667ffffffffffffffff1667ffffffffffffffff16815250509050806080015167ffffffffffffffff164210610b1a576040517f08c379a0000000000000000000000000000000000000000000000000000000008152600401610b11906132cf565b60405180910390fd5b83600060086000838152602001908152602001600020905060008160003373ffffffffffffffffffffffffffffffffffffffff1673ffffffffffffffffffffffffffffffffffffffff1681526020019081526020016000205414610bb3576040517f08c379a0000000000000000000000000000000000000000000000000000000008152600401610baa90613361565b60405180910390fd5b853373ffffffffffffffffffffffffffffffffffffffff16600e600083815260200190815260200160002060009054906101000a900473ffffffffffffffffffffffffffffffffffffffff1673ffffffffffffffffffffffffffffffffffffffff161415610c56576040517f08c379a0000000000000000000000000000000000000000000000000000000008152600401610c4d906133f3565b60405180910390fd5b60004290506000600860008a81526020019081526020016000209050818160003373ffffffffffffffffffffffffffffffffffffffff1673ffffffffffffffffffffffffffffffffffffffff16815260200190815260200160002081905550600960003373ffffffffffffffffffffffffffffffffffffffff1673ffffffffffffffffffffffffffffffffffffffff168152602001908152602001600020899080600181540180825580915050600190039060005260206000200160009091909190915055600b60008a8152602001908152602001600020339080600181540180825580915050600190039060005260206000200160009091909190916101000a81548173ffffffffffffffffffffffffffffffffffffffff021916908373ffffffffffffffffffffffffffffffffffffffff1602179055507f16c02eafd4a170f62c09971fefa1b5aeaaffab6305564bb18a72a6150daa764e893384604051610dc293929190613413565b60405180910390a181975050505050505050919050565b60008060008373ffffffffffffffffffffffffffffffffffffffff1673ffffffffffffffffffffffffffffffffffffffff168152602001908152602001600020549050919050565b610e29611e19565b73ffffffffffffffffffffffffffffffffffffffff16610e47610f3e565b73ffffffffffffffffffffffffffffffffffffffff1614610e9d576040517f08c379a0000000000000000000000000000000000000000000000000000000008152600401610e9490613496565b60405180910390fd5b610ea7600061226d565b565b6060600a60003373ffffffffffffffffffffffffffffffffffffffff1673ffffffffffffffffffffffffffffffffffffffff168152602001908152602001600020805480602002602001604051908101604052809291908181526020018280548015610f3457602002820191906000526020600020905b815481526020019060010190808311610f20575b5050505050905090565b6000600560009054906101000a900473ffffffffffffffffffffffffffffffffffffffff16905090565b610f70611e19565b73ffffffffffffffffffffffffffffffffffffffff16610f8e610f3e565b73ffffffffffffffffffffffffffffffffffffffff1614610fe4576040517f08c379a0000000000000000000000000000000000000000000000000000000008152600401610fdb90613496565b60405180910390fd5b80600654146110385760006006549050816006819055507fc3ae4d05a23526d863c1db9f30859dec463447da15d77d1345daec3ed995d3c18160065460405161102e9291906134b6565b60405180910390a1505b50565b6060600960003373ffffffffffffffffffffffffffffffffffffffff1673ffffffffffffffffffffffffffffffffffffffff1681526020019081526020016000208054806020026020016040519081016040528092919081815260200182805480156110c657602002820191906000526020600020905b8154815260200190600101908083116110b2575b5050505050905090565b6060600480546110df9061310b565b80601f016020809104026020016040519081016040528092919081815260200182805461110b9061310b565b80156111585780601f1061112d57610100808354040283529160200191611158565b820191906000526020600020905b81548152906001019060200180831161113b57829003601f168201915b5050505050905090565b803373ffffffffffffffffffffffffffffffffffffffff16600e600083815260200190815260200160002060009054906101000a900473ffffffffffffffffffffffffffffffffffffffff1673ffffffffffffffffffffffffffffffffffffffff1614611204576040517f08c379a00000000000000000000000000000000000000000000000000000000081526004016111fb90613551565b60405180910390fd5b8160006007828154811061121b5761121a613254565b5b90600052602060002090600502016040518060c0016040529081600082015481526020016001820160009054906101000a900473ffffffffffffffffffffffffffffffffffffffff1673ffffffffffffffffffffffffffffffffffffffff1673ffffffffffffffffffffffffffffffffffffffff1681526020016002820180546112a49061310b565b80601f01602080910402602001604051908101604052809291908181526020018280546112d09061310b565b801561131d5780601f106112f25761010080835404028352916020019161131d565b820191906000526020600020905b81548152906001019060200180831161130057829003601f168201915b50505050508152602001600382015481526020016004820160009054906101000a900467ffffffffffffffff1667ffffffffffffffff1667ffffffffffffffff1681526020016004820160089054906101000a900467ffffffffffffffff1667ffffffffffffffff1667ffffffffffffffff168152505090506000600c6000848152602001908152602001600020805490501480156113cb57506000816080015167ffffffffffffffff1614155b80156113e55750806080015167ffffffffffffffff164210155b611424576040517f08c379a000000000000000000000000000000000000000000000000000000000815260040161141b906135e3565b60405180910390fd5b6000600b60008681526020019081526020016000208054806020026020016040519081016040528092919081815260200182805480156114b957602002820191906000526020600020905b8160009054906101000a900473ffffffffffffffffffffffffffffffffffffffff1673ffffffffffffffffffffffffffffffffffffffff168152602001906001019080831161146f575b505050505090506000815167ffffffffffffffff8111156114dd576114dc612f02565b5b60405190808252806020026020018201604052801561150b5781602001602082028036833780820191505090505b50905060005b82518110156115955782818151811061152d5761152c613254565b5b602002602001015182828151811061154857611547613254565b5b602002602001019073ffffffffffffffffffffffffffffffffffffffff16908173ffffffffffffffffffffffffffffffffffffffff1681525050808061158d90613603565b915050611511565b5080600c600088815260200190815260200160002090805190602001906115bd9291906126da565b507f8869306e622784f945949ca35d9495e3b75dcbdfc41d776da82fa27213bd82de86826040516115ef9291906136fb565b60405180910390a1505050505050565b6000806001600061160e611e19565b73ffffffffffffffffffffffffffffffffffffffff1673ffffffffffffffffffffffffffffffffffffffff16815260200190815260200160002060008573ffffffffffffffffffffffffffffffffffffffff1673ffffffffffffffffffffffffffffffffffffffff168152602001908152602001600020549050828110156116cb576040517f08c379a00000000000000000000000000000000000000000000000000000000081526004016116c29061379d565b60405180910390fd5b6116df6116d6611e19565b85858403611e21565b600191505092915050565b60006116fe6116f7611e19565b8484611fec565b6001905092915050565b6007818154811061171857600080fd5b90600052602060002090600502016000915090508060000154908060010160009054906101000a900473ffffffffffffffffffffffffffffffffffffffff16908060020180546117679061310b565b80601f01602080910402602001604051908101604052809291908181526020018280546117939061310b565b80156117e05780601f106117b5576101008083540402835291602001916117e0565b820191906000526020600020905b8154815290600101906020018083116117c357829003601f168201915b5050505050908060030154908060040160009054906101000a900467ffffffffffffffff16908060040160089054906101000a900467ffffffffffffffff16905086565b606060003390506000600d60008373ffffffffffffffffffffffffffffffffffffffff1673ffffffffffffffffffffffffffffffffffffffff1681526020019081526020016000205467ffffffffffffffff81111561188657611885612f02565b5b6040519080825280602002602001820160405280156118bf57816020015b6118ac612764565b8152602001906001900390816118a45790505b5090506000805b600780549050811015611b17578373ffffffffffffffffffffffffffffffffffffffff16600782815481106118fe576118fd613254565b5b906000526020600020906005020160010160009054906101000a900473ffffffffffffffffffffffffffffffffffffffff1673ffffffffffffffffffffffffffffffffffffffff161415611b0457600781815481106119605761195f613254565b5b90600052602060002090600502016040518060c0016040529081600082015481526020016001820160009054906101000a900473ffffffffffffffffffffffffffffffffffffffff1673ffffffffffffffffffffffffffffffffffffffff1673ffffffffffffffffffffffffffffffffffffffff1681526020016002820180546119e99061310b565b80601f0160208091040260200160405190810160405280929190818152602001828054611a159061310b565b8015611a625780601f10611a3757610100808354040283529160200191611a62565b820191906000526020600020905b815481529060010190602001808311611a4557829003601f168201915b50505050508152602001600382015481526020016004820160009054906101000a900467ffffffffffffffff1667ffffffffffffffff1667ffffffffffffffff1681526020016004820160089054906101000a900467ffffffffffffffff1667ffffffffffffffff1667ffffffffffffffff1681525050838380611ae590613603565b945081518110611af857611af7613254565b5b60200260200101819052505b8080611b0f90613603565b9150506118c6565b5081935050505090565b6000600780549050905090565b600e6020528060005260406000206000915054906101000a900473ffffffffffffffffffffffffffffffffffffffff1681565b6000600160008473ffffffffffffffffffffffffffffffffffffffff1673ffffffffffffffffffffffffffffffffffffffff16815260200190815260200160002060008373ffffffffffffffffffffffffffffffffffffffff1673ffffffffffffffffffffffffffffffffffffffff16815260200190815260200160002054905092915050565b60065481565b6000600654341015611c01600654612333565b611c0a34612333565b604051602001611c1b929190613891565b60405160208183030381529060405290611c6b576040517f08c379a0000000000000000000000000000000000000000000000000000000008152600401611c629190612900565b60405180910390fd5b506000611c7a86868686612494565b90506000611c86610f3e565b90508073ffffffffffffffffffffffffffffffffffffffff166108fc349081150290604051600060405180830381858888f19350505050158015611cce573d6000803e3d6000fd5b507f0a63f1d05e5ef7a076666610741aeec38a557d32f3344efe6d0476a329c9970a82600001518360200151604051611d089291906138cb565b60405180910390a1816000015192505050949350505050565b611d29611e19565b73ffffffffffffffffffffffffffffffffffffffff16611d47610f3e565b73ffffffffffffffffffffffffffffffffffffffff1614611d9d576040517f08c379a0000000000000000000000000000000000000000000000000000000008152600401611d9490613496565b60405180910390fd5b600073ffffffffffffffffffffffffffffffffffffffff168173ffffffffffffffffffffffffffffffffffffffff161415611e0d576040517f08c379a0000000000000000000000000000000000000000000000000000000008152600401611e0490613966565b60405180910390fd5b611e168161226d565b50565b600033905090565b600073ffffffffffffffffffffffffffffffffffffffff168373ffffffffffffffffffffffffffffffffffffffff161415611e91576040517f08c379a0000000000000000000000000000000000000000000000000000000008152600401611e88906139f8565b60405180910390fd5b600073ffffffffffffffffffffffffffffffffffffffff168273ffffffffffffffffffffffffffffffffffffffff161415611f01576040517f08c379a0000000000000000000000000000000000000000000000000000000008152600401611ef890613a8a565b60405180910390fd5b80600160008573ffffffffffffffffffffffffffffffffffffffff1673ffffffffffffffffffffffffffffffffffffffff16815260200190815260200160002060008473ffffffffffffffffffffffffffffffffffffffff1673ffffffffffffffffffffffffffffffffffffffff168152602001908152602001600020819055508173ffffffffffffffffffffffffffffffffffffffff168373ffffffffffffffffffffffffffffffffffffffff167f8c5be1e5ebec7d5bd14f71427d1e84f3dd0314c0f7b2291e5b200ac8c7c3b92583604051611fdf9190612a4f565b60405180910390a3505050565b600073ffffffffffffffffffffffffffffffffffffffff168373ffffffffffffffffffffffffffffffffffffffff16141561205c576040517f08c379a000000000000000000000000000000000000000000000000000000000815260040161205390613b1c565b60405180910390fd5b600073ffffffffffffffffffffffffffffffffffffffff168273ffffffffffffffffffffffffffffffffffffffff1614156120cc576040517f08c379a00000000000000000000000000000000000000000000000000000000081526004016120c390613bae565b60405180910390fd5b6120d78383836126c3565b60008060008573ffffffffffffffffffffffffffffffffffffffff1673ffffffffffffffffffffffffffffffffffffffff1681526020019081526020016000205490508181101561215d576040517f08c379a000000000000000000000000000000000000000000000000000000000815260040161215490613c40565b60405180910390fd5b8181036000808673ffffffffffffffffffffffffffffffffffffffff1673ffffffffffffffffffffffffffffffffffffffff16815260200190815260200160002081905550816000808573ffffffffffffffffffffffffffffffffffffffff1673ffffffffffffffffffffffffffffffffffffffff16815260200190815260200160002060008282546121f091906131fe565b925050819055508273ffffffffffffffffffffffffffffffffffffffff168473ffffffffffffffffffffffffffffffffffffffff167fddf252ad1be2c89b69c2b068fc378daa952ba7f163c4a11628f55a4df523b3ef846040516122549190612a4f565b60405180910390a36122678484846126c8565b50505050565b6000600560009054906101000a900473ffffffffffffffffffffffffffffffffffffffff16905081600560006101000a81548173ffffffffffffffffffffffffffffffffffffffff021916908373ffffffffffffffffffffffffffffffffffffffff1602179055508173ffffffffffffffffffffffffffffffffffffffff168173ffffffffffffffffffffffffffffffffffffffff167f8be0079c531659141344cd1fd0a4f28419497f9722a3daafe3b4186f6b6457e060405160405180910390a35050565b6060600082141561237b576040518060400160405280600181526020017f3000000000000000000000000000000000000000000000000000000000000000815250905061248f565b600082905060005b600082146123ad57808061239690613603565b915050600a826123a69190613c8f565b9150612383565b60008167ffffffffffffffff8111156123c9576123c8612f02565b5b6040519080825280601f01601f1916602001820160405280156123fb5781602001600182028036833780820191505090505b5090505b60008514612488576001826124149190613cc0565b9150600a856124239190613cf4565b603061242f91906131fe565b60f81b81838151811061244557612444613254565b5b60200101907effffffffffffffffffffffffffffffffffffffffffffffffffffffffffffff1916908160001a905350600a856124819190613c8f565b94506123ff565b8093505050505b919050565b61249c612764565b60006124a66126cd565b9050600033905060006040518060c001604052808481526020018373ffffffffffffffffffffffffffffffffffffffff1681526020018981526020018881526020018767ffffffffffffffff1681526020018667ffffffffffffffff16815250905081600e600085815260200190815260200160002060006101000a81548173ffffffffffffffffffffffffffffffffffffffff021916908373ffffffffffffffffffffffffffffffffffffffff1602179055506001600d60008473ffffffffffffffffffffffffffffffffffffffff1673ffffffffffffffffffffffffffffffffffffffff16815260200190815260200160002060008282546125aa91906131fe565b9250508190555060078190806001815401808255809150506001900390600052602060002090600502016000909190919091506000820151816000015560208201518160010160006101000a81548173ffffffffffffffffffffffffffffffffffffffff021916908373ffffffffffffffffffffffffffffffffffffffff160217905550604082015181600201908051906020019061264a9291906127c4565b506060820151816003015560808201518160040160006101000a81548167ffffffffffffffff021916908367ffffffffffffffff16021790555060a08201518160040160086101000a81548167ffffffffffffffff021916908367ffffffffffffffff1602179055505050809350505050949350505050565b505050565b505050565b6000600780549050905090565b828054828255906000526020600020908101928215612753579160200282015b828111156127525782518260006101000a81548173ffffffffffffffffffffffffffffffffffffffff021916908373ffffffffffffffffffffffffffffffffffffffff160217905550916020019190600101906126fa565b5b509050612760919061284a565b5090565b6040518060c0016040528060008152602001600073ffffffffffffffffffffffffffffffffffffffff1681526020016060815260200160008152602001600067ffffffffffffffff168152602001600067ffffffffffffffff1681525090565b8280546127d09061310b565b90600052602060002090601f0160209004810192826127f25760008555612839565b82601f1061280b57805160ff1916838001178555612839565b82800160010185558215612839579182015b8281111561283857825182559160200191906001019061281d565b5b509050612846919061284a565b5090565b5b8082111561286357600081600090555060010161284b565b5090565b600081519050919050565b600082825260208201905092915050565b60005b838110156128a1578082015181840152602081019050612886565b838111156128b0576000848401525b50505050565b6000601f19601f8301169050919050565b60006128d282612867565b6128dc8185612872565b93506128ec818560208601612883565b6128f5816128b6565b840191505092915050565b6000602082019050818103600083015261291a81846128c7565b905092915050565b6000604051905090565b600080fd5b600080fd5b600073ffffffffffffffffffffffffffffffffffffffff82169050919050565b600061296182612936565b9050919050565b61297181612956565b811461297c57600080fd5b50565b60008135905061298e81612968565b92915050565b6000819050919050565b6129a781612994565b81146129b257600080fd5b50565b6000813590506129c48161299e565b92915050565b600080604083850312156129e1576129e061292c565b5b60006129ef8582860161297f565b9250506020612a00858286016129b5565b9150509250929050565b60008115159050919050565b612a1f81612a0a565b82525050565b6000602082019050612a3a6000830184612a16565b92915050565b612a4981612994565b82525050565b6000602082019050612a646000830184612a40565b92915050565b600080600060608486031215612a8357612a8261292c565b5b6000612a918682870161297f565b9350506020612aa28682870161297f565b9250506040612ab3868287016129b5565b9150509250925092565b600060ff82169050919050565b612ad381612abd565b82525050565b6000602082019050612aee6000830184612aca565b92915050565b600060208284031215612b0a57612b0961292c565b5b6000612b18848285016129b5565b91505092915050565b600060208284031215612b3757612b3661292c565b5b6000612b458482850161297f565b91505092915050565b600081519050919050565b600082825260208201905092915050565b6000819050602082019050919050565b612b8381612994565b82525050565b6000612b958383612b7a565b60208301905092915050565b6000602082019050919050565b6000612bb982612b4e565b612bc38185612b59565b9350612bce83612b6a565b8060005b83811015612bff578151612be68882612b89565b9750612bf183612ba1565b925050600181019050612bd2565b5085935050505092915050565b60006020820190508181036000830152612c268184612bae565b905092915050565b612c3781612956565b82525050565b6000602082019050612c526000830184612c2e565b92915050565b600067ffffffffffffffff82169050919050565b612c7581612c58565b82525050565b600060c082019050612c906000830189612a40565b612c9d6020830188612c2e565b8181036040830152612caf81876128c7565b9050612cbe6060830186612a40565b612ccb6080830185612c6c565b612cd860a0830184612c6c565b979650505050505050565b600081519050919050565b600082825260208201905092915050565b6000819050602082019050919050565b612d1881612956565b82525050565b600082825260208201905092915050565b6000612d3a82612867565b612d448185612d1e565b9350612d54818560208601612883565b612d5d816128b6565b840191505092915050565b612d7181612c58565b82525050565b600060c083016000830151612d8f6000860182612b7a565b506020830151612da26020860182612d0f565b5060408301518482036040860152612dba8282612d2f565b9150506060830151612dcf6060860182612b7a565b506080830151612de26080860182612d68565b5060a0830151612df560a0860182612d68565b508091505092915050565b6000612e0c8383612d77565b905092915050565b6000602082019050919050565b6000612e2c82612ce3565b612e368185612cee565b935083602082028501612e4885612cff565b8060005b85811015612e845784840389528151612e658582612e00565b9450612e7083612e14565b925060208a01995050600181019050612e4c565b50829750879550505050505092915050565b60006020820190508181036000830152612eb08184612e21565b905092915050565b60008060408385031215612ecf57612ece61292c565b5b6000612edd8582860161297f565b9250506020612eee8582860161297f565b9150509250929050565b600080fd5b600080fd5b7f4e487b7100000000000000000000000000000000000000000000000000000000600052604160045260246000fd5b612f3a826128b6565b810181811067ffffffffffffffff82111715612f5957612f58612f02565b5b80604052505050565b6000612f6c612922565b9050612f788282612f31565b919050565b600067ffffffffffffffff821115612f9857612f97612f02565b5b612fa1826128b6565b9050602081019050919050565b82818337600083830152505050565b6000612fd0612fcb84612f7d565b612f62565b905082815260208101848484011115612fec57612feb612efd565b5b612ff7848285612fae565b509392505050565b600082601f83011261301457613013612ef8565b5b8135613024848260208601612fbd565b91505092915050565b61303681612c58565b811461304157600080fd5b50565b6000813590506130538161302d565b92915050565b600080600080608085870312156130735761307261292c565b5b600085013567ffffffffffffffff81111561309157613090612931565b5b61309d87828801612fff565b94505060206130ae878288016129b5565b93505060406130bf87828801613044565b92505060606130d087828801613044565b91505092959194509250565b7f4e487b7100000000000000000000000000000000000000000000000000000000600052602260045260246000fd5b6000600282049050600182168061312357607f821691505b60208210811415613137576131366130dc565b5b50919050565b7f45524332303a207472616e7366657220616d6f756e742065786365656473206160008201527f6c6c6f77616e6365000000000000000000000000000000000000000000000000602082015250565b6000613199602883612872565b91506131a48261313d565b604082019050919050565b600060208201905081810360008301526131c88161318c565b9050919050565b7f4e487b7100000000000000000000000000000000000000000000000000000000600052601160045260246000fd5b600061320982612994565b915061321483612994565b9250827fffffffffffffffffffffffffffffffffffffffffffffffffffffffffffffffff03821115613249576132486131cf565b5b828201905092915050565b7f4e487b7100000000000000000000000000000000000000000000000000000000600052603260045260246000fd5b7f416c726561647920616674657220726567697374726174696f6e206461746500600082015250565b60006132b9601f83612872565b91506132c482613283565b602082019050919050565b600060208201905081810360008301526132e8816132ac565b9050919050565b7f416c726561647920726567697365746572656420666f7220746865206576656e60008201527f7400000000000000000000000000000000000000000000000000000000000000602082015250565b600061334b602183612872565b9150613356826132ef565b604082019050919050565b6000602082019050818103600083015261337a8161333e565b9050919050565b7f5472616e73616374696f6e2073656e6465722063616e6e6f74206265206f726760008201527f616e697a6572206f6620746865206576656e7400000000000000000000000000602082015250565b60006133dd603383612872565b91506133e882613381565b604082019050919050565b6000602082019050818103600083015261340c816133d0565b9050919050565b60006060820190506134286000830186612a40565b6134356020830185612c2e565b6134426040830184612a40565b949350505050565b7f4f776e61626c653a2063616c6c6572206973206e6f7420746865206f776e6572600082015250565b6000613480602083612872565b915061348b8261344a565b602082019050919050565b600060208201905081810360008301526134af81613473565b9050919050565b60006040820190506134cb6000830185612a40565b6134d86020830184612a40565b9392505050565b7f5472616e73616374696f6e2073656e646572206973206e6f74206f7267616e6960008201527f7a6572206f6620746865206576656e7400000000000000000000000000000000602082015250565b600061353b603083612872565b9150613546826134df565b604082019050919050565b6000602082019050818103600083015261356a8161352e565b9050919050565b7f416c72656164792073656c6563746564206f72206e6f7420616674657220726560008201527f67697374726174696f6e20646174652079657400000000000000000000000000602082015250565b60006135cd603383612872565b91506135d882613571565b604082019050919050565b600060208201905081810360008301526135fc816135c0565b9050919050565b600061360e82612994565b91507fffffffffffffffffffffffffffffffffffffffffffffffffffffffffffffffff821415613641576136406131cf565b5b600182019050919050565b600081519050919050565b600082825260208201905092915050565b6000819050602082019050919050565b60006136848383612d0f565b60208301905092915050565b6000602082019050919050565b60006136a88261364c565b6136b28185613657565b93506136bd83613668565b8060005b838110156136ee5781516136d58882613678565b97506136e083613690565b9250506001810190506136c1565b5085935050505092915050565b60006040820190506137106000830185612a40565b8181036020830152613722818461369d565b90509392505050565b7f45524332303a2064656372656173656420616c6c6f77616e63652062656c6f7760008201527f207a65726f000000000000000000000000000000000000000000000000000000602082015250565b6000613787602583612872565b91506137928261372b565b604082019050919050565b600060208201905081810360008301526137b68161377a565b9050919050565b600081905092915050565b7f45787065637465643a2000000000000000000000000000000000000000000000600082015250565b60006137fe600a836137bd565b9150613809826137c8565b600a82019050919050565b600061381f82612867565b61382981856137bd565b9350613839818560208601612883565b80840191505092915050565b7f20676f743a200000000000000000000000000000000000000000000000000000600082015250565b600061387b6006836137bd565b915061388682613845565b600682019050919050565b600061389c826137f1565b91506138a88285613814565b91506138b38261386e565b91506138bf8284613814565b91508190509392505050565b60006040820190506138e06000830185612a40565b6138ed6020830184612c2e565b9392505050565b7f4f776e61626c653a206e6577206f776e657220697320746865207a65726f206160008201527f6464726573730000000000000000000000000000000000000000000000000000602082015250565b6000613950602683612872565b915061395b826138f4565b604082019050919050565b6000602082019050818103600083015261397f81613943565b9050919050565b7f45524332303a20617070726f76652066726f6d20746865207a65726f2061646460008201527f7265737300000000000000000000000000000000000000000000000000000000602082015250565b60006139e2602483612872565b91506139ed82613986565b604082019050919050565b60006020820190508181036000830152613a11816139d5565b9050919050565b7f45524332303a20617070726f766520746f20746865207a65726f20616464726560008201527f7373000000000000000000000000000000000000000000000000000000000000602082015250565b6000613a74602283612872565b9150613a7f82613a18565b604082019050919050565b60006020820190508181036000830152613aa381613a67565b9050919050565b7f45524332303a207472616e736665722066726f6d20746865207a65726f20616460008201527f6472657373000000000000000000000000000000000000000000000000000000602082015250565b6000613b06602583612872565b9150613b1182613aaa565b604082019050919050565b60006020820190508181036000830152613b3581613af9565b9050919050565b7f45524332303a207472616e7366657220746f20746865207a65726f206164647260008201527f6573730000000000000000000000000000000000000000000000000000000000602082015250565b6000613b98602383612872565b9150613ba382613b3c565b604082019050919050565b60006020820190508181036000830152613bc781613b8b565b9050919050565b7f45524332303a207472616e7366657220616d6f756e742065786365656473206260008201527f616c616e63650000000000000000000000000000000000000000000000000000602082015250565b6000613c2a602683612872565b9150613c3582613bce565b604082019050919050565b60006020820190508181036000830152613c5981613c1d565b9050919050565b7f4e487b7100000000000000000000000000000000000000000000000000000000600052601260045260246000fd5b6000613c9a82612994565b9150613ca583612994565b925082613cb557613cb4613c60565b5b828204905092915050565b6000613ccb82612994565b9150613cd683612994565b925082821015613ce957613ce86131cf565b5b828203905092915050565b6000613cff82612994565b9150613d0a83612994565b925082613d1a57613d19613c60565b5b82820690509291505056fea26469706673582212208f7446efd93fc6a35f9ae4b6a87563370196a0fae41a6138b58e2b7d94c05a6e64736f6c634300080a0033",
  "immutableReferences": {},
  "source": "// SPDX-License-Identifier: MIT\r\npragma solidity ^0.8.0;\r\n\r\nimport \"@openzeppelin/contracts/utils/Strings.sol\";\r\nimport \"@openzeppelin/contracts/token/ERC20/ERC20.sol\";\r\nimport \"@openzeppelin/contracts/access/Ownable.sol\";\r\n\r\ncontract SignMeUp is ERC20, Ownable {\r\n\r\n  uint public entryPriceWei;\r\n\r\n  // All event entries\r\n  SignUpEventEntry[] public entries;\r\n\r\n  // Mapping of registered addresses by registration date for given entry\r\n  mapping (uint => mapping(address => uint)) private entryRegistrationTimestamps;\r\n\r\n  // Entries which user registered for\r\n  mapping (address => uint[]) private registrantEntries;\r\n\r\n  // Entries which user was selected for\r\n  mapping (address => uint[]) private participantEntries;\r\n\r\n  // Registrants for given SignUpEventEntry\r\n  mapping (uint => address[]) private entryRegistrants;\r\n\r\n  // Participants for given SignUpEventEntry\r\n  mapping (uint => address[]) private entryParticipants;\r\n\r\n  // Number of entries organized by user\r\n  mapping (address => uint) private organizerEntriesCount;\r\n\r\n  // Organizer of given SignUpEventEntry\r\n  mapping (uint => address) public entryOrganizer;\r\n\r\n  ////// Events //////\r\n  event LogEntryCreated(uint id, address organizer);\r\n  event LogRegistered(uint id, address who, uint when);\r\n  event LogEntryClosed(uint id, address[] participants);\r\n  event LogPriceChanged(uint oldPrice, uint newPrice);\r\n\r\n  ////// Modifiers //////\r\n  modifier isBeforeRegistrationDate(uint _eventId) {\r\n    SignUpEventEntry memory entry = entries[_eventId];\r\n    require(block.timestamp < entry.registrationDueDate, \"Already after registration date\");\r\n    _;\r\n  }\r\n\r\n  modifier canSelectParticipants(uint _eventId) {\r\n    SignUpEventEntry memory entry = entries[_eventId];\r\n    require(entryParticipants[_eventId].length == 0 \r\n      && entry.registrationDueDate != 0 \r\n      && block.timestamp >= entry.registrationDueDate, \"Already selected or not after registration date yet\");\r\n    _;\r\n  }\r\n\r\n  modifier isNotRegistered(uint _eventId) {\r\n    mapping(address => uint) storage registrationTimestamps = entryRegistrationTimestamps[_eventId];\r\n    require(registrationTimestamps[msg.sender] == 0, \"Already regisetered for the event\");\r\n    _;\r\n  }\r\n\r\n  modifier isOrganizer(uint _eventId) {\r\n    require(entryOrganizer[_eventId] == msg.sender, \"Transaction sender is not organizer of the event\");\r\n    _;\r\n  }\r\n\r\n  modifier isNotOrganizer(uint _eventId) {\r\n    require(entryOrganizer[_eventId] != msg.sender, \"Transaction sender cannot be organizer of the event\");\r\n    _;\r\n  }\r\n\r\n  modifier paidEnough() {\r\n    require(msg.value >= entryPriceWei, string(abi.encodePacked(\"Expected: \", Strings.toString(entryPriceWei), \" got: \", Strings.toString(msg.value))));\r\n    _;\r\n  }\r\n\r\n  ////// Structs //////\r\n  struct SignUpEventEntry {\r\n    uint id;\r\n    address organizer;\r\n    string title;\r\n    uint spots;\r\n    uint64 registrationDueDate;\r\n    uint64 eventDate;\r\n  }\r\n\r\n  constructor() ERC20(\"SignMeUp\", \"SMU\") {\r\n    entryPriceWei = 50_000 * 1_000_000_000;\r\n  }\r\n\r\n  ////// Owner functions //////\r\n\r\n  function setPrice(uint _price) public onlyOwner {\r\n    if (entryPriceWei != _price) {\r\n      uint oldPrice = entryPriceWei;\r\n      entryPriceWei = _price;\r\n      emit LogPriceChanged(oldPrice, entryPriceWei);\r\n    }\r\n  }\r\n\r\n  ////// Common functions //////\r\n\r\n  function getEntriesCount() public view returns(uint) {\r\n    return entries.length;\r\n  }\r\n\r\n  ////// Organizer functions\r\n  function createNewSignUpEventEntry(\r\n    string memory _title,\r\n    uint _spots,\r\n    uint64 _registrationDueDate,\r\n    uint64 _eventDate\r\n  )\r\n    public\r\n    payable\r\n    paidEnough()\r\n    returns (uint)\r\n  {\r\n    SignUpEventEntry memory entry = newSignUpEventEntryOf(_title, _spots, _registrationDueDate, _eventDate);\r\n\r\n    address payable _owner = payable(owner());\r\n    _owner.transfer(msg.value);\r\n\r\n    emit LogEntryCreated(entry.id, entry.organizer);\r\n\r\n    return entry.id;\r\n  }\r\n\r\n  function newSignUpEventEntryOf(\r\n    string memory _title,\r\n    uint _spots,\r\n    uint64 _registrationDueDate,\r\n    uint64 _eventDate\r\n  )\r\n    private\r\n    returns (SignUpEventEntry memory)\r\n  {\r\n    uint newId = nextEntryId();\r\n    address organizer = msg.sender;\r\n\r\n    SignUpEventEntry memory entry = SignUpEventEntry({\r\n      id: newId,\r\n      organizer: organizer,\r\n      title: _title,\r\n      spots: _spots,\r\n      registrationDueDate: _registrationDueDate,\r\n      eventDate: _eventDate\r\n    });\r\n    \r\n    entryOrganizer[newId] = organizer;\r\n    organizerEntriesCount[organizer] += 1;\r\n\r\n    entries.push(entry);\r\n\r\n    return entry;\r\n  }\r\n\r\n  function nextEntryId() private view returns(uint) {\r\n    return entries.length;\r\n  }\r\n\r\n  function getOrganizerEntriesCount() public view returns(uint) {\r\n    return organizerEntriesCount[msg.sender];\r\n  }\r\n\r\n  function getOrganizerEntries()\r\n    public\r\n    view\r\n    returns(SignUpEventEntry[] memory)\r\n  {\r\n    address organizer = msg.sender;\r\n\r\n    SignUpEventEntry[] memory result = new SignUpEventEntry[](organizerEntriesCount[organizer]);\r\n    uint targetIndex = 0;\r\n    for (uint i = 0; i < entries.length; i++) {\r\n      if (entries[i].organizer == organizer) {\r\n        result[targetIndex++] = entries[i];\r\n      }\r\n    }\r\n\r\n    return result;\r\n  }\r\n\r\n  function randomlyChooseEventParticipants(uint _eventId)\r\n    public\r\n    isOrganizer(_eventId)\r\n    canSelectParticipants(_eventId)\r\n  {\r\n    // TODO use some 'random' oracle, choose participants from registeres users and change state to Closed\r\n    address[] memory registrants = entryRegistrants[_eventId];\r\n    address[] memory participants = new address[](registrants.length);\r\n    for (uint i = 0; i < registrants.length; i++) {\r\n      participants[i] = registrants[i];\r\n    }\r\n    entryParticipants[_eventId] = participants;\r\n    emit LogEntryClosed(_eventId, participants);\r\n  }\r\n\r\n  ////// Registrant functions //////\r\n  function registerForEvent(uint _eventId)\r\n    public\r\n    isBeforeRegistrationDate(_eventId)\r\n    isNotRegistered(_eventId)\r\n    isNotOrganizer(_eventId)\r\n    returns(uint)\r\n  {\r\n    uint registrationTimestamp = block.timestamp;\r\n\r\n    mapping(address => uint) storage registrationTimestamps = entryRegistrationTimestamps[_eventId];\r\n    registrationTimestamps[msg.sender] = registrationTimestamp;\r\n    registrantEntries[msg.sender].push(_eventId);\r\n    entryRegistrants[_eventId].push(msg.sender);\r\n\r\n    emit LogRegistered(_eventId, msg.sender, registrationTimestamp);\r\n\r\n    return registrationTimestamp;\r\n  }\r\n\r\n  function getEntriesUserRegisteredFor() public view returns(uint[] memory) {\r\n    return registrantEntries[msg.sender];\r\n  }\r\n\r\n  function getEntriesUserSelectedFor() public view returns(uint[] memory) {\r\n    return participantEntries[msg.sender];\r\n  }\r\n\r\n  // ### Utils ###\r\n  // #############\r\n\r\n  function nonSecureRandom() private view returns (uint) {\r\n    return uint(keccak256(\r\n      abi.encodePacked(block.timestamp, block.difficulty)\r\n    ));\r\n  }\r\n  // ### Utils - end ###\r\n}\r\n",
  "sourcePath": "/mnt/c/Dev/workspace/consensys/final/blockchain-developer-bootcamp-final-project/contracts/SignMeUp.sol",
  "compiler": {
    "name": "solc",
    "version": "0.8.10+commit.fc410830.Emscripten.clang"
  },
  "schemaVersion": "3.4.3",
  "updatedAt": "2021-11-16T22:59:55.624Z",
  "networkType": "ethereum",
  "devdoc": {
    "kind": "dev",
    "methods": {
      "allowance(address,address)": {
        "details": "See {IERC20-allowance}."
      },
      "approve(address,uint256)": {
        "details": "See {IERC20-approve}. Requirements: - `spender` cannot be the zero address."
      },
      "balanceOf(address)": {
        "details": "See {IERC20-balanceOf}."
      },
      "decimals()": {
        "details": "Returns the number of decimals used to get its user representation. For example, if `decimals` equals `2`, a balance of `505` tokens should be displayed to a user as `5.05` (`505 / 10 ** 2`). Tokens usually opt for a value of 18, imitating the relationship between Ether and Wei. This is the value {ERC20} uses, unless this function is overridden; NOTE: This information is only used for _display_ purposes: it in no way affects any of the arithmetic of the contract, including {IERC20-balanceOf} and {IERC20-transfer}."
      },
      "decreaseAllowance(address,uint256)": {
        "details": "Atomically decreases the allowance granted to `spender` by the caller. This is an alternative to {approve} that can be used as a mitigation for problems described in {IERC20-approve}. Emits an {Approval} event indicating the updated allowance. Requirements: - `spender` cannot be the zero address. - `spender` must have allowance for the caller of at least `subtractedValue`."
      },
      "increaseAllowance(address,uint256)": {
        "details": "Atomically increases the allowance granted to `spender` by the caller. This is an alternative to {approve} that can be used as a mitigation for problems described in {IERC20-approve}. Emits an {Approval} event indicating the updated allowance. Requirements: - `spender` cannot be the zero address."
      },
      "name()": {
        "details": "Returns the name of the token."
      },
      "owner()": {
        "details": "Returns the address of the current owner."
      },
      "renounceOwnership()": {
        "details": "Leaves the contract without owner. It will not be possible to call `onlyOwner` functions anymore. Can only be called by the current owner. NOTE: Renouncing ownership will leave the contract without an owner, thereby removing any functionality that is only available to the owner."
      },
      "symbol()": {
        "details": "Returns the symbol of the token, usually a shorter version of the name."
      },
      "totalSupply()": {
        "details": "See {IERC20-totalSupply}."
      },
      "transfer(address,uint256)": {
        "details": "See {IERC20-transfer}. Requirements: - `recipient` cannot be the zero address. - the caller must have a balance of at least `amount`."
      },
      "transferFrom(address,address,uint256)": {
        "details": "See {IERC20-transferFrom}. Emits an {Approval} event indicating the updated allowance. This is not required by the EIP. See the note at the beginning of {ERC20}. Requirements: - `sender` and `recipient` cannot be the zero address. - `sender` must have a balance of at least `amount`. - the caller must have allowance for ``sender``'s tokens of at least `amount`."
      },
      "transferOwnership(address)": {
        "details": "Transfers ownership of the contract to a new account (`newOwner`). Can only be called by the current owner."
      }
    },
    "version": 1
  },
  "userdoc": {
    "kind": "user",
    "methods": {},
    "version": 1
  }
}