{
  "contractName": "SignMeUp",
  "abi": [
    {
      "inputs": [],
      "stateMutability": "nonpayable",
      "type": "constructor"
    },
    {
      "anonymous": false,
      "inputs": [
        {
          "indexed": true,
          "internalType": "address",
          "name": "owner",
          "type": "address"
        },
        {
          "indexed": true,
          "internalType": "address",
          "name": "spender",
          "type": "address"
        },
        {
          "indexed": false,
          "internalType": "uint256",
          "name": "value",
          "type": "uint256"
        }
      ],
      "name": "Approval",
      "type": "event"
    },
    {
      "anonymous": false,
      "inputs": [
        {
          "indexed": false,
          "internalType": "uint256",
          "name": "id",
          "type": "uint256"
        },
        {
          "indexed": false,
          "internalType": "address[]",
          "name": "participants",
          "type": "address[]"
        }
      ],
      "name": "LogEntryClosed",
      "type": "event"
    },
    {
      "anonymous": false,
      "inputs": [
        {
          "indexed": false,
          "internalType": "uint256",
          "name": "id",
          "type": "uint256"
        },
        {
          "indexed": false,
          "internalType": "address",
          "name": "organizer",
          "type": "address"
        }
      ],
      "name": "LogEntryCreated",
      "type": "event"
    },
    {
      "anonymous": false,
      "inputs": [
        {
          "indexed": false,
          "internalType": "uint256",
          "name": "oldPrice",
          "type": "uint256"
        },
        {
          "indexed": false,
          "internalType": "uint256",
          "name": "newPrice",
          "type": "uint256"
        }
      ],
      "name": "LogPriceChanged",
      "type": "event"
    },
    {
      "anonymous": false,
      "inputs": [
        {
          "indexed": false,
          "internalType": "uint256",
          "name": "id",
          "type": "uint256"
        },
        {
          "indexed": false,
          "internalType": "address",
          "name": "who",
          "type": "address"
        },
        {
          "indexed": false,
          "internalType": "uint256",
          "name": "when",
          "type": "uint256"
        }
      ],
      "name": "LogRegistered",
      "type": "event"
    },
    {
      "anonymous": false,
      "inputs": [
        {
          "indexed": true,
          "internalType": "address",
          "name": "previousOwner",
          "type": "address"
        },
        {
          "indexed": true,
          "internalType": "address",
          "name": "newOwner",
          "type": "address"
        }
      ],
      "name": "OwnershipTransferred",
      "type": "event"
    },
    {
      "anonymous": false,
      "inputs": [
        {
          "indexed": true,
          "internalType": "address",
          "name": "from",
          "type": "address"
        },
        {
          "indexed": true,
          "internalType": "address",
          "name": "to",
          "type": "address"
        },
        {
          "indexed": false,
          "internalType": "uint256",
          "name": "value",
          "type": "uint256"
        }
      ],
      "name": "Transfer",
      "type": "event"
    },
    {
      "inputs": [
        {
          "internalType": "address",
          "name": "owner",
          "type": "address"
        },
        {
          "internalType": "address",
          "name": "spender",
          "type": "address"
        }
      ],
      "name": "allowance",
      "outputs": [
        {
          "internalType": "uint256",
          "name": "",
          "type": "uint256"
        }
      ],
      "stateMutability": "view",
      "type": "function",
      "constant": true
    },
    {
      "inputs": [
        {
          "internalType": "address",
          "name": "spender",
          "type": "address"
        },
        {
          "internalType": "uint256",
          "name": "amount",
          "type": "uint256"
        }
      ],
      "name": "approve",
      "outputs": [
        {
          "internalType": "bool",
          "name": "",
          "type": "bool"
        }
      ],
      "stateMutability": "nonpayable",
      "type": "function"
    },
    {
      "inputs": [
        {
          "internalType": "address",
          "name": "account",
          "type": "address"
        }
      ],
      "name": "balanceOf",
      "outputs": [
        {
          "internalType": "uint256",
          "name": "",
          "type": "uint256"
        }
      ],
      "stateMutability": "view",
      "type": "function",
      "constant": true
    },
    {
      "inputs": [],
      "name": "decimals",
      "outputs": [
        {
          "internalType": "uint8",
          "name": "",
          "type": "uint8"
        }
      ],
      "stateMutability": "view",
      "type": "function",
      "constant": true
    },
    {
      "inputs": [
        {
          "internalType": "address",
          "name": "spender",
          "type": "address"
        },
        {
          "internalType": "uint256",
          "name": "subtractedValue",
          "type": "uint256"
        }
      ],
      "name": "decreaseAllowance",
      "outputs": [
        {
          "internalType": "bool",
          "name": "",
          "type": "bool"
        }
      ],
      "stateMutability": "nonpayable",
      "type": "function"
    },
    {
      "inputs": [
        {
          "internalType": "uint256",
          "name": "",
          "type": "uint256"
        }
      ],
      "name": "entries",
      "outputs": [
        {
          "internalType": "uint256",
          "name": "id",
          "type": "uint256"
        },
        {
          "internalType": "address",
          "name": "organizer",
          "type": "address"
        },
        {
          "internalType": "string",
          "name": "title",
          "type": "string"
        },
        {
          "internalType": "uint256",
          "name": "spots",
          "type": "uint256"
        },
        {
          "internalType": "uint64",
          "name": "registrationDueDate",
          "type": "uint64"
        },
        {
          "internalType": "uint64",
          "name": "eventDate",
          "type": "uint64"
        }
      ],
      "stateMutability": "view",
      "type": "function",
      "constant": true
    },
    {
      "inputs": [
        {
          "internalType": "uint256",
          "name": "",
          "type": "uint256"
        }
      ],
      "name": "entryOrganizer",
      "outputs": [
        {
          "internalType": "address",
          "name": "",
          "type": "address"
        }
      ],
      "stateMutability": "view",
      "type": "function",
      "constant": true
    },
    {
      "inputs": [],
      "name": "entryPriceWei",
      "outputs": [
        {
          "internalType": "uint256",
          "name": "",
          "type": "uint256"
        }
      ],
      "stateMutability": "view",
      "type": "function",
      "constant": true
    },
    {
      "inputs": [
        {
          "internalType": "address",
          "name": "spender",
          "type": "address"
        },
        {
          "internalType": "uint256",
          "name": "addedValue",
          "type": "uint256"
        }
      ],
      "name": "increaseAllowance",
      "outputs": [
        {
          "internalType": "bool",
          "name": "",
          "type": "bool"
        }
      ],
      "stateMutability": "nonpayable",
      "type": "function"
    },
    {
      "inputs": [],
      "name": "name",
      "outputs": [
        {
          "internalType": "string",
          "name": "",
          "type": "string"
        }
      ],
      "stateMutability": "view",
      "type": "function",
      "constant": true
    },
    {
      "inputs": [],
      "name": "owner",
      "outputs": [
        {
          "internalType": "address",
          "name": "",
          "type": "address"
        }
      ],
      "stateMutability": "view",
      "type": "function",
      "constant": true
    },
    {
      "inputs": [],
      "name": "renounceOwnership",
      "outputs": [],
      "stateMutability": "nonpayable",
      "type": "function"
    },
    {
      "inputs": [],
      "name": "symbol",
      "outputs": [
        {
          "internalType": "string",
          "name": "",
          "type": "string"
        }
      ],
      "stateMutability": "view",
      "type": "function",
      "constant": true
    },
    {
      "inputs": [],
      "name": "totalSupply",
      "outputs": [
        {
          "internalType": "uint256",
          "name": "",
          "type": "uint256"
        }
      ],
      "stateMutability": "view",
      "type": "function",
      "constant": true
    },
    {
      "inputs": [
        {
          "internalType": "address",
          "name": "recipient",
          "type": "address"
        },
        {
          "internalType": "uint256",
          "name": "amount",
          "type": "uint256"
        }
      ],
      "name": "transfer",
      "outputs": [
        {
          "internalType": "bool",
          "name": "",
          "type": "bool"
        }
      ],
      "stateMutability": "nonpayable",
      "type": "function"
    },
    {
      "inputs": [
        {
          "internalType": "address",
          "name": "sender",
          "type": "address"
        },
        {
          "internalType": "address",
          "name": "recipient",
          "type": "address"
        },
        {
          "internalType": "uint256",
          "name": "amount",
          "type": "uint256"
        }
      ],
      "name": "transferFrom",
      "outputs": [
        {
          "internalType": "bool",
          "name": "",
          "type": "bool"
        }
      ],
      "stateMutability": "nonpayable",
      "type": "function"
    },
    {
      "inputs": [
        {
          "internalType": "address",
          "name": "newOwner",
          "type": "address"
        }
      ],
      "name": "transferOwnership",
      "outputs": [],
      "stateMutability": "nonpayable",
      "type": "function"
    },
    {
      "inputs": [
        {
          "internalType": "uint256",
          "name": "_price",
          "type": "uint256"
        }
      ],
      "name": "setPrice",
      "outputs": [],
      "stateMutability": "nonpayable",
      "type": "function"
    },
    {
      "inputs": [],
      "name": "isOwner",
      "outputs": [
        {
          "internalType": "bool",
          "name": "",
          "type": "bool"
        }
      ],
      "stateMutability": "view",
      "type": "function",
      "constant": true
    },
    {
      "inputs": [],
      "name": "getEntriesCount",
      "outputs": [
        {
          "internalType": "uint256",
          "name": "",
          "type": "uint256"
        }
      ],
      "stateMutability": "view",
      "type": "function",
      "constant": true
    },
    {
      "inputs": [
        {
          "internalType": "string",
          "name": "_title",
          "type": "string"
        },
        {
          "internalType": "uint256",
          "name": "_spots",
          "type": "uint256"
        },
        {
          "internalType": "uint64",
          "name": "_registrationDueDate",
          "type": "uint64"
        },
        {
          "internalType": "uint64",
          "name": "_eventDate",
          "type": "uint64"
        }
      ],
      "name": "createNewSignUpEventEntry",
      "outputs": [
        {
          "internalType": "uint256",
          "name": "",
          "type": "uint256"
        }
      ],
      "stateMutability": "payable",
      "type": "function",
      "payable": true
    },
    {
      "inputs": [],
      "name": "getOrganizerEntriesCount",
      "outputs": [
        {
          "internalType": "uint256",
          "name": "",
          "type": "uint256"
        }
      ],
      "stateMutability": "view",
      "type": "function",
      "constant": true
    },
    {
      "inputs": [],
      "name": "getOrganizerEntries",
      "outputs": [
        {
          "components": [
            {
              "internalType": "uint256",
              "name": "id",
              "type": "uint256"
            },
            {
              "internalType": "address",
              "name": "organizer",
              "type": "address"
            },
            {
              "internalType": "string",
              "name": "title",
              "type": "string"
            },
            {
              "internalType": "uint256",
              "name": "spots",
              "type": "uint256"
            },
            {
              "internalType": "uint64",
              "name": "registrationDueDate",
              "type": "uint64"
            },
            {
              "internalType": "uint64",
              "name": "eventDate",
              "type": "uint64"
            }
          ],
          "internalType": "struct SignMeUp.SignUpEventEntry[]",
          "name": "",
          "type": "tuple[]"
        }
      ],
      "stateMutability": "view",
      "type": "function",
      "constant": true
    },
    {
      "inputs": [
        {
          "internalType": "uint256",
          "name": "_eventId",
          "type": "uint256"
        }
      ],
      "name": "randomlyChooseEventParticipants",
      "outputs": [],
      "stateMutability": "nonpayable",
      "type": "function"
    },
    {
      "inputs": [
        {
          "internalType": "uint256",
          "name": "_eventId",
          "type": "uint256"
        }
      ],
      "name": "registerForEvent",
      "outputs": [
        {
          "internalType": "uint256",
          "name": "",
          "type": "uint256"
        }
      ],
      "stateMutability": "nonpayable",
      "type": "function"
    },
    {
      "inputs": [],
      "name": "getEntriesUserRegisteredFor",
      "outputs": [
        {
          "internalType": "uint256[]",
          "name": "",
          "type": "uint256[]"
        }
      ],
      "stateMutability": "view",
      "type": "function",
      "constant": true
    },
    {
      "inputs": [],
      "name": "getEntriesUserSelectedFor",
      "outputs": [
        {
          "internalType": "uint256[]",
          "name": "",
          "type": "uint256[]"
        }
      ],
      "stateMutability": "view",
      "type": "function",
      "constant": true
    }
  ],
  "bytecode": "0x60806040523480156200001157600080fd5b506040518060400160405280600881526020017f5369676e4d6555700000000000000000000000000000000000000000000000008152506040518060400160405280600381526020017f534d550000000000000000000000000000000000000000000000000000000000815250816003908051906020019062000096929190620001b3565b508060049080519060200190620000af929190620001b3565b505050620000d2620000c6620000e560201b60201c565b620000ed60201b60201c565b652d79883d2000600681905550620002c8565b600033905090565b6000600560009054906101000a900473ffffffffffffffffffffffffffffffffffffffff16905081600560006101000a81548173ffffffffffffffffffffffffffffffffffffffff021916908373ffffffffffffffffffffffffffffffffffffffff1602179055508173ffffffffffffffffffffffffffffffffffffffff168173ffffffffffffffffffffffffffffffffffffffff167f8be0079c531659141344cd1fd0a4f28419497f9722a3daafe3b4186f6b6457e060405160405180910390a35050565b828054620001c19062000292565b90600052602060002090601f016020900481019282620001e5576000855562000231565b82601f106200020057805160ff191683800117855562000231565b8280016001018555821562000231579182015b828111156200023057825182559160200191906001019062000213565b5b50905062000240919062000244565b5090565b5b808211156200025f57600081600090555060010162000245565b5090565b7f4e487b7100000000000000000000000000000000000000000000000000000000600052602260045260246000fd5b60006002820490506001821680620002ab57607f821691505b60208210811415620002c257620002c162000263565b5b50919050565b613adf80620002d86000396000f3fe60806040526004361061019c5760003560e01c806391b7f5ed116100ec578063ca54ad851161008a578063dd62ed3e11610064578063dd62ed3e1461060d578063e2f683301461064a578063ebacab3814610675578063f2fde38b146106a55761019c565b8063ca54ad851461057a578063d09685b0146105a5578063db8a7038146105d05761019c565b80639c571402116100c65780639c57140214610495578063a457c2d7146104be578063a9059cbb146104fb578063b30906d4146105385761019c565b806391b7f5ed14610416578063942aa7e11461043f57806395d89b411461046a5761019c565b80633950935111610159578063715018a611610133578063715018a61461037e578063772a6fce146103955780638da5cb5b146103c05780638f32d59b146103eb5761019c565b806339509351146102c7578063406db8431461030457806370a08231146103415761019c565b806306fdde03146101a1578063095ea7b3146101cc57806318160ddd1461020957806322d9b4281461023457806323b872dd1461025f578063313ce5671461029c575b600080fd5b3480156101ad57600080fd5b506101b66106ce565b6040516101c391906127eb565b60405180910390f35b3480156101d857600080fd5b506101f360048036038101906101ee91906128b5565b610760565b6040516102009190612910565b60405180910390f35b34801561021557600080fd5b5061021e61077e565b60405161022b919061293a565b60405180910390f35b34801561024057600080fd5b50610249610788565b604051610256919061293a565b60405180910390f35b34801561026b57600080fd5b5061028660048036038101906102819190612955565b6107cf565b6040516102939190612910565b60405180910390f35b3480156102a857600080fd5b506102b16108c7565b6040516102be91906129c4565b60405180910390f35b3480156102d357600080fd5b506102ee60048036038101906102e991906128b5565b6108d0565b6040516102fb9190612910565b60405180910390f35b34801561031057600080fd5b5061032b600480360381019061032691906129df565b61097c565b604051610338919061293a565b60405180910390f35b34801561034d57600080fd5b5061036860048036038101906103639190612a0c565b610e1f565b604051610375919061293a565b60405180910390f35b34801561038a57600080fd5b50610393610e67565b005b3480156103a157600080fd5b506103aa610eef565b6040516103b79190612af7565b60405180910390f35b3480156103cc57600080fd5b506103d5610f84565b6040516103e29190612b28565b60405180910390f35b3480156103f757600080fd5b50610400610fae565b60405161040d9190612910565b60405180910390f35b34801561042257600080fd5b5061043d600480360381019061043891906129df565b610feb565b005b34801561044b57600080fd5b506104546110be565b6040516104619190612af7565b60405180910390f35b34801561047657600080fd5b5061047f611153565b60405161048c91906127eb565b60405180910390f35b3480156104a157600080fd5b506104bc60048036038101906104b791906129df565b6111e5565b005b3480156104ca57600080fd5b506104e560048036038101906104e091906128b5565b611682565b6040516104f29190612910565b60405180910390f35b34801561050757600080fd5b50610522600480360381019061051d91906128b5565b61176d565b60405161052f9190612910565b60405180910390f35b34801561054457600080fd5b5061055f600480360381019061055a91906129df565b61178b565b60405161057196959493929190612b66565b60405180910390f35b34801561058657600080fd5b5061058f6118a7565b60405161059c9190612d81565b60405180910390f35b3480156105b157600080fd5b506105ba611ba4565b6040516105c7919061293a565b60405180910390f35b3480156105dc57600080fd5b506105f760048036038101906105f291906129df565b611bb1565b6040516106049190612b28565b60405180910390f35b34801561061957600080fd5b50610634600480360381019061062f9190612da3565b611be4565b604051610641919061293a565b60405180910390f35b34801561065657600080fd5b5061065f611c6b565b60405161066c919061293a565b60405180910390f35b61068f600480360381019061068a9190612f44565b611c71565b60405161069c919061293a565b60405180910390f35b3480156106b157600080fd5b506106cc60048036038101906106c79190612a0c565b611d6d565b005b6060600380546106dd90612ff6565b80601f016020809104026020016040519081016040528092919081815260200182805461070990612ff6565b80156107565780601f1061072b57610100808354040283529160200191610756565b820191906000526020600020905b81548152906001019060200180831161073957829003601f168201915b5050505050905090565b600061077461076d611e65565b8484611e6d565b6001905092915050565b6000600254905090565b6000600d60003373ffffffffffffffffffffffffffffffffffffffff1673ffffffffffffffffffffffffffffffffffffffff16815260200190815260200160002054905090565b60006107dc848484612038565b6000600160008673ffffffffffffffffffffffffffffffffffffffff1673ffffffffffffffffffffffffffffffffffffffff1681526020019081526020016000206000610827611e65565b73ffffffffffffffffffffffffffffffffffffffff1673ffffffffffffffffffffffffffffffffffffffff168152602001908152602001600020549050828110156108a7576040517f08c379a000000000000000000000000000000000000000000000000000000000815260040161089e9061309a565b60405180910390fd5b6108bb856108b3611e65565b858403611e6d565b60019150509392505050565b60006012905090565b60006109726108dd611e65565b8484600160006108eb611e65565b73ffffffffffffffffffffffffffffffffffffffff1673ffffffffffffffffffffffffffffffffffffffff16815260200190815260200160002060008873ffffffffffffffffffffffffffffffffffffffff1673ffffffffffffffffffffffffffffffffffffffff1681526020019081526020016000205461096d91906130e9565b611e6d565b6001905092915050565b6000816000600782815481106109955761099461313f565b5b90600052602060002090600502016040518060c0016040529081600082015481526020016001820160009054906101000a900473ffffffffffffffffffffffffffffffffffffffff1673ffffffffffffffffffffffffffffffffffffffff1673ffffffffffffffffffffffffffffffffffffffff168152602001600282018054610a1e90612ff6565b80601f0160208091040260200160405190810160405280929190818152602001828054610a4a90612ff6565b8015610a975780601f10610a6c57610100808354040283529160200191610a97565b820191906000526020600020905b815481529060010190602001808311610a7a57829003601f168201915b50505050508152602001600382015481526020016004820160009054906101000a900467ffffffffffffffff1667ffffffffffffffff1667ffffffffffffffff1681526020016004820160089054906101000a900467ffffffffffffffff1667ffffffffffffffff1667ffffffffffffffff16815250509050806080015167ffffffffffffffff164210610b60576040517f08c379a0000000000000000000000000000000000000000000000000000000008152600401610b57906131ba565b60405180910390fd5b83600060086000838152602001908152602001600020905060008160003373ffffffffffffffffffffffffffffffffffffffff1673ffffffffffffffffffffffffffffffffffffffff1681526020019081526020016000205414610bf9576040517f08c379a0000000000000000000000000000000000000000000000000000000008152600401610bf09061324c565b60405180910390fd5b853373ffffffffffffffffffffffffffffffffffffffff16600e600083815260200190815260200160002060009054906101000a900473ffffffffffffffffffffffffffffffffffffffff1673ffffffffffffffffffffffffffffffffffffffff161415610c9c576040517f08c379a0000000000000000000000000000000000000000000000000000000008152600401610c93906132de565b60405180910390fd5b60004290506000600860008a81526020019081526020016000209050818160003373ffffffffffffffffffffffffffffffffffffffff1673ffffffffffffffffffffffffffffffffffffffff16815260200190815260200160002081905550600960003373ffffffffffffffffffffffffffffffffffffffff1673ffffffffffffffffffffffffffffffffffffffff168152602001908152602001600020899080600181540180825580915050600190039060005260206000200160009091909190915055600b60008a8152602001908152602001600020339080600181540180825580915050600190039060005260206000200160009091909190916101000a81548173ffffffffffffffffffffffffffffffffffffffff021916908373ffffffffffffffffffffffffffffffffffffffff1602179055507f16c02eafd4a170f62c09971fefa1b5aeaaffab6305564bb18a72a6150daa764e893384604051610e08939291906132fe565b60405180910390a181975050505050505050919050565b60008060008373ffffffffffffffffffffffffffffffffffffffff1673ffffffffffffffffffffffffffffffffffffffff168152602001908152602001600020549050919050565b610e6f611e65565b73ffffffffffffffffffffffffffffffffffffffff16610e8d610f84565b73ffffffffffffffffffffffffffffffffffffffff1614610ee3576040517f08c379a0000000000000000000000000000000000000000000000000000000008152600401610eda90613381565b60405180910390fd5b610eed60006122b9565b565b6060600a60003373ffffffffffffffffffffffffffffffffffffffff1673ffffffffffffffffffffffffffffffffffffffff168152602001908152602001600020805480602002602001604051908101604052809291908181526020018280548015610f7a57602002820191906000526020600020905b815481526020019060010190808311610f66575b5050505050905090565b6000600560009054906101000a900473ffffffffffffffffffffffffffffffffffffffff16905090565b60003373ffffffffffffffffffffffffffffffffffffffff16610fcf610f84565b73ffffffffffffffffffffffffffffffffffffffff1614905090565b610ff3611e65565b73ffffffffffffffffffffffffffffffffffffffff16611011610f84565b73ffffffffffffffffffffffffffffffffffffffff1614611067576040517f08c379a000000000000000000000000000000000000000000000000000000000815260040161105e90613381565b60405180910390fd5b80600654146110bb5760006006549050816006819055507fc3ae4d05a23526d863c1db9f30859dec463447da15d77d1345daec3ed995d3c1816006546040516110b19291906133a1565b60405180910390a1505b50565b6060600960003373ffffffffffffffffffffffffffffffffffffffff1673ffffffffffffffffffffffffffffffffffffffff16815260200190815260200160002080548060200260200160405190810160405280929190818152602001828054801561114957602002820191906000526020600020905b815481526020019060010190808311611135575b5050505050905090565b60606004805461116290612ff6565b80601f016020809104026020016040519081016040528092919081815260200182805461118e90612ff6565b80156111db5780601f106111b0576101008083540402835291602001916111db565b820191906000526020600020905b8154815290600101906020018083116111be57829003601f168201915b5050505050905090565b803373ffffffffffffffffffffffffffffffffffffffff16600e600083815260200190815260200160002060009054906101000a900473ffffffffffffffffffffffffffffffffffffffff1673ffffffffffffffffffffffffffffffffffffffff1614611287576040517f08c379a000000000000000000000000000000000000000000000000000000000815260040161127e9061343c565b60405180910390fd5b8160006007828154811061129e5761129d61313f565b5b90600052602060002090600502016040518060c0016040529081600082015481526020016001820160009054906101000a900473ffffffffffffffffffffffffffffffffffffffff1673ffffffffffffffffffffffffffffffffffffffff1673ffffffffffffffffffffffffffffffffffffffff16815260200160028201805461132790612ff6565b80601f016020809104026020016040519081016040528092919081815260200182805461135390612ff6565b80156113a05780601f10611375576101008083540402835291602001916113a0565b820191906000526020600020905b81548152906001019060200180831161138357829003601f168201915b50505050508152602001600382015481526020016004820160009054906101000a900467ffffffffffffffff1667ffffffffffffffff1667ffffffffffffffff1681526020016004820160089054906101000a900467ffffffffffffffff1667ffffffffffffffff1667ffffffffffffffff168152505090506000600c60008481526020019081526020016000208054905014801561144e57506000816080015167ffffffffffffffff1614155b80156114685750806080015167ffffffffffffffff164210155b6114a7576040517f08c379a000000000000000000000000000000000000000000000000000000000815260040161149e906134ce565b60405180910390fd5b6000600b600086815260200190815260200160002080548060200260200160405190810160405280929190818152602001828054801561153c57602002820191906000526020600020905b8160009054906101000a900473ffffffffffffffffffffffffffffffffffffffff1673ffffffffffffffffffffffffffffffffffffffff16815260200190600101908083116114f2575b505050505090506000815167ffffffffffffffff8111156115605761155f612ded565b5b60405190808252806020026020018201604052801561158e5781602001602082028036833780820191505090505b50905060005b8251811015611618578281815181106115b0576115af61313f565b5b60200260200101518282815181106115cb576115ca61313f565b5b602002602001019073ffffffffffffffffffffffffffffffffffffffff16908173ffffffffffffffffffffffffffffffffffffffff16815250508080611610906134ee565b915050611594565b5080600c600088815260200190815260200160002090805190602001906116409291906125c5565b507f8869306e622784f945949ca35d9495e3b75dcbdfc41d776da82fa27213bd82de86826040516116729291906135e6565b60405180910390a1505050505050565b60008060016000611691611e65565b73ffffffffffffffffffffffffffffffffffffffff1673ffffffffffffffffffffffffffffffffffffffff16815260200190815260200160002060008573ffffffffffffffffffffffffffffffffffffffff1673ffffffffffffffffffffffffffffffffffffffff1681526020019081526020016000205490508281101561174e576040517f08c379a000000000000000000000000000000000000000000000000000000000815260040161174590613688565b60405180910390fd5b611762611759611e65565b85858403611e6d565b600191505092915050565b600061178161177a611e65565b8484612038565b6001905092915050565b6007818154811061179b57600080fd5b90600052602060002090600502016000915090508060000154908060010160009054906101000a900473ffffffffffffffffffffffffffffffffffffffff16908060020180546117ea90612ff6565b80601f016020809104026020016040519081016040528092919081815260200182805461181690612ff6565b80156118635780601f1061183857610100808354040283529160200191611863565b820191906000526020600020905b81548152906001019060200180831161184657829003601f168201915b5050505050908060030154908060040160009054906101000a900467ffffffffffffffff16908060040160089054906101000a900467ffffffffffffffff16905086565b606060003390506000600d60008373ffffffffffffffffffffffffffffffffffffffff1673ffffffffffffffffffffffffffffffffffffffff1681526020019081526020016000205467ffffffffffffffff81111561190957611908612ded565b5b60405190808252806020026020018201604052801561194257816020015b61192f61264f565b8152602001906001900390816119275790505b5090506000805b600780549050811015611b9a578373ffffffffffffffffffffffffffffffffffffffff16600782815481106119815761198061313f565b5b906000526020600020906005020160010160009054906101000a900473ffffffffffffffffffffffffffffffffffffffff1673ffffffffffffffffffffffffffffffffffffffff161415611b8757600781815481106119e3576119e261313f565b5b90600052602060002090600502016040518060c0016040529081600082015481526020016001820160009054906101000a900473ffffffffffffffffffffffffffffffffffffffff1673ffffffffffffffffffffffffffffffffffffffff1673ffffffffffffffffffffffffffffffffffffffff168152602001600282018054611a6c90612ff6565b80601f0160208091040260200160405190810160405280929190818152602001828054611a9890612ff6565b8015611ae55780601f10611aba57610100808354040283529160200191611ae5565b820191906000526020600020905b815481529060010190602001808311611ac857829003601f168201915b50505050508152602001600382015481526020016004820160009054906101000a900467ffffffffffffffff1667ffffffffffffffff1667ffffffffffffffff1681526020016004820160089054906101000a900467ffffffffffffffff1667ffffffffffffffff1667ffffffffffffffff1681525050838380611b68906134ee565b945081518110611b7b57611b7a61313f565b5b60200260200101819052505b8080611b92906134ee565b915050611949565b5081935050505090565b6000600780549050905090565b600e6020528060005260406000206000915054906101000a900473ffffffffffffffffffffffffffffffffffffffff1681565b6000600160008473ffffffffffffffffffffffffffffffffffffffff1673ffffffffffffffffffffffffffffffffffffffff16815260200190815260200160002060008373ffffffffffffffffffffffffffffffffffffffff1673ffffffffffffffffffffffffffffffffffffffff16815260200190815260200160002054905092915050565b60065481565b6000600654341015611cb8576040517f08c379a0000000000000000000000000000000000000000000000000000000008152600401611caf906136f4565b60405180910390fd5b6000611cc68686868661237f565b90506000611cd2610f84565b90508073ffffffffffffffffffffffffffffffffffffffff166108fc349081150290604051600060405180830381858888f19350505050158015611d1a573d6000803e3d6000fd5b507f0a63f1d05e5ef7a076666610741aeec38a557d32f3344efe6d0476a329c9970a82600001518360200151604051611d54929190613714565b60405180910390a1816000015192505050949350505050565b611d75611e65565b73ffffffffffffffffffffffffffffffffffffffff16611d93610f84565b73ffffffffffffffffffffffffffffffffffffffff1614611de9576040517f08c379a0000000000000000000000000000000000000000000000000000000008152600401611de090613381565b60405180910390fd5b600073ffffffffffffffffffffffffffffffffffffffff168173ffffffffffffffffffffffffffffffffffffffff161415611e59576040517f08c379a0000000000000000000000000000000000000000000000000000000008152600401611e50906137af565b60405180910390fd5b611e62816122b9565b50565b600033905090565b600073ffffffffffffffffffffffffffffffffffffffff168373ffffffffffffffffffffffffffffffffffffffff161415611edd576040517f08c379a0000000000000000000000000000000000000000000000000000000008152600401611ed490613841565b60405180910390fd5b600073ffffffffffffffffffffffffffffffffffffffff168273ffffffffffffffffffffffffffffffffffffffff161415611f4d576040517f08c379a0000000000000000000000000000000000000000000000000000000008152600401611f44906138d3565b60405180910390fd5b80600160008573ffffffffffffffffffffffffffffffffffffffff1673ffffffffffffffffffffffffffffffffffffffff16815260200190815260200160002060008473ffffffffffffffffffffffffffffffffffffffff1673ffffffffffffffffffffffffffffffffffffffff168152602001908152602001600020819055508173ffffffffffffffffffffffffffffffffffffffff168373ffffffffffffffffffffffffffffffffffffffff167f8c5be1e5ebec7d5bd14f71427d1e84f3dd0314c0f7b2291e5b200ac8c7c3b9258360405161202b919061293a565b60405180910390a3505050565b600073ffffffffffffffffffffffffffffffffffffffff168373ffffffffffffffffffffffffffffffffffffffff1614156120a8576040517f08c379a000000000000000000000000000000000000000000000000000000000815260040161209f90613965565b60405180910390fd5b600073ffffffffffffffffffffffffffffffffffffffff168273ffffffffffffffffffffffffffffffffffffffff161415612118576040517f08c379a000000000000000000000000000000000000000000000000000000000815260040161210f906139f7565b60405180910390fd5b6121238383836125ae565b60008060008573ffffffffffffffffffffffffffffffffffffffff1673ffffffffffffffffffffffffffffffffffffffff168152602001908152602001600020549050818110156121a9576040517f08c379a00000000000000000000000000000000000000000000000000000000081526004016121a090613a89565b60405180910390fd5b8181036000808673ffffffffffffffffffffffffffffffffffffffff1673ffffffffffffffffffffffffffffffffffffffff16815260200190815260200160002081905550816000808573ffffffffffffffffffffffffffffffffffffffff1673ffffffffffffffffffffffffffffffffffffffff168152602001908152602001600020600082825461223c91906130e9565b925050819055508273ffffffffffffffffffffffffffffffffffffffff168473ffffffffffffffffffffffffffffffffffffffff167fddf252ad1be2c89b69c2b068fc378daa952ba7f163c4a11628f55a4df523b3ef846040516122a0919061293a565b60405180910390a36122b38484846125b3565b50505050565b6000600560009054906101000a900473ffffffffffffffffffffffffffffffffffffffff16905081600560006101000a81548173ffffffffffffffffffffffffffffffffffffffff021916908373ffffffffffffffffffffffffffffffffffffffff1602179055508173ffffffffffffffffffffffffffffffffffffffff168173ffffffffffffffffffffffffffffffffffffffff167f8be0079c531659141344cd1fd0a4f28419497f9722a3daafe3b4186f6b6457e060405160405180910390a35050565b61238761264f565b60006123916125b8565b9050600033905060006040518060c001604052808481526020018373ffffffffffffffffffffffffffffffffffffffff1681526020018981526020018881526020018767ffffffffffffffff1681526020018667ffffffffffffffff16815250905081600e600085815260200190815260200160002060006101000a81548173ffffffffffffffffffffffffffffffffffffffff021916908373ffffffffffffffffffffffffffffffffffffffff1602179055506001600d60008473ffffffffffffffffffffffffffffffffffffffff1673ffffffffffffffffffffffffffffffffffffffff168152602001908152602001600020600082825461249591906130e9565b9250508190555060078190806001815401808255809150506001900390600052602060002090600502016000909190919091506000820151816000015560208201518160010160006101000a81548173ffffffffffffffffffffffffffffffffffffffff021916908373ffffffffffffffffffffffffffffffffffffffff16021790555060408201518160020190805190602001906125359291906126af565b506060820151816003015560808201518160040160006101000a81548167ffffffffffffffff021916908367ffffffffffffffff16021790555060a08201518160040160086101000a81548167ffffffffffffffff021916908367ffffffffffffffff1602179055505050809350505050949350505050565b505050565b505050565b6000600780549050905090565b82805482825590600052602060002090810192821561263e579160200282015b8281111561263d5782518260006101000a81548173ffffffffffffffffffffffffffffffffffffffff021916908373ffffffffffffffffffffffffffffffffffffffff160217905550916020019190600101906125e5565b5b50905061264b9190612735565b5090565b6040518060c0016040528060008152602001600073ffffffffffffffffffffffffffffffffffffffff1681526020016060815260200160008152602001600067ffffffffffffffff168152602001600067ffffffffffffffff1681525090565b8280546126bb90612ff6565b90600052602060002090601f0160209004810192826126dd5760008555612724565b82601f106126f657805160ff1916838001178555612724565b82800160010185558215612724579182015b82811115612723578251825591602001919060010190612708565b5b5090506127319190612735565b5090565b5b8082111561274e576000816000905550600101612736565b5090565b600081519050919050565b600082825260208201905092915050565b60005b8381101561278c578082015181840152602081019050612771565b8381111561279b576000848401525b50505050565b6000601f19601f8301169050919050565b60006127bd82612752565b6127c7818561275d565b93506127d781856020860161276e565b6127e0816127a1565b840191505092915050565b6000602082019050818103600083015261280581846127b2565b905092915050565b6000604051905090565b600080fd5b600080fd5b600073ffffffffffffffffffffffffffffffffffffffff82169050919050565b600061284c82612821565b9050919050565b61285c81612841565b811461286757600080fd5b50565b60008135905061287981612853565b92915050565b6000819050919050565b6128928161287f565b811461289d57600080fd5b50565b6000813590506128af81612889565b92915050565b600080604083850312156128cc576128cb612817565b5b60006128da8582860161286a565b92505060206128eb858286016128a0565b9150509250929050565b60008115159050919050565b61290a816128f5565b82525050565b60006020820190506129256000830184612901565b92915050565b6129348161287f565b82525050565b600060208201905061294f600083018461292b565b92915050565b60008060006060848603121561296e5761296d612817565b5b600061297c8682870161286a565b935050602061298d8682870161286a565b925050604061299e868287016128a0565b9150509250925092565b600060ff82169050919050565b6129be816129a8565b82525050565b60006020820190506129d960008301846129b5565b92915050565b6000602082840312156129f5576129f4612817565b5b6000612a03848285016128a0565b91505092915050565b600060208284031215612a2257612a21612817565b5b6000612a308482850161286a565b91505092915050565b600081519050919050565b600082825260208201905092915050565b6000819050602082019050919050565b612a6e8161287f565b82525050565b6000612a808383612a65565b60208301905092915050565b6000602082019050919050565b6000612aa482612a39565b612aae8185612a44565b9350612ab983612a55565b8060005b83811015612aea578151612ad18882612a74565b9750612adc83612a8c565b925050600181019050612abd565b5085935050505092915050565b60006020820190508181036000830152612b118184612a99565b905092915050565b612b2281612841565b82525050565b6000602082019050612b3d6000830184612b19565b92915050565b600067ffffffffffffffff82169050919050565b612b6081612b43565b82525050565b600060c082019050612b7b600083018961292b565b612b886020830188612b19565b8181036040830152612b9a81876127b2565b9050612ba9606083018661292b565b612bb66080830185612b57565b612bc360a0830184612b57565b979650505050505050565b600081519050919050565b600082825260208201905092915050565b6000819050602082019050919050565b612c0381612841565b82525050565b600082825260208201905092915050565b6000612c2582612752565b612c2f8185612c09565b9350612c3f81856020860161276e565b612c48816127a1565b840191505092915050565b612c5c81612b43565b82525050565b600060c083016000830151612c7a6000860182612a65565b506020830151612c8d6020860182612bfa565b5060408301518482036040860152612ca58282612c1a565b9150506060830151612cba6060860182612a65565b506080830151612ccd6080860182612c53565b5060a0830151612ce060a0860182612c53565b508091505092915050565b6000612cf78383612c62565b905092915050565b6000602082019050919050565b6000612d1782612bce565b612d218185612bd9565b935083602082028501612d3385612bea565b8060005b85811015612d6f5784840389528151612d508582612ceb565b9450612d5b83612cff565b925060208a01995050600181019050612d37565b50829750879550505050505092915050565b60006020820190508181036000830152612d9b8184612d0c565b905092915050565b60008060408385031215612dba57612db9612817565b5b6000612dc88582860161286a565b9250506020612dd98582860161286a565b9150509250929050565b600080fd5b600080fd5b7f4e487b7100000000000000000000000000000000000000000000000000000000600052604160045260246000fd5b612e25826127a1565b810181811067ffffffffffffffff82111715612e4457612e43612ded565b5b80604052505050565b6000612e5761280d565b9050612e638282612e1c565b919050565b600067ffffffffffffffff821115612e8357612e82612ded565b5b612e8c826127a1565b9050602081019050919050565b82818337600083830152505050565b6000612ebb612eb684612e68565b612e4d565b905082815260208101848484011115612ed757612ed6612de8565b5b612ee2848285612e99565b509392505050565b600082601f830112612eff57612efe612de3565b5b8135612f0f848260208601612ea8565b91505092915050565b612f2181612b43565b8114612f2c57600080fd5b50565b600081359050612f3e81612f18565b92915050565b60008060008060808587031215612f5e57612f5d612817565b5b600085013567ffffffffffffffff811115612f7c57612f7b61281c565b5b612f8887828801612eea565b9450506020612f99878288016128a0565b9350506040612faa87828801612f2f565b9250506060612fbb87828801612f2f565b91505092959194509250565b7f4e487b7100000000000000000000000000000000000000000000000000000000600052602260045260246000fd5b6000600282049050600182168061300e57607f821691505b6020821081141561302257613021612fc7565b5b50919050565b7f45524332303a207472616e7366657220616d6f756e742065786365656473206160008201527f6c6c6f77616e6365000000000000000000000000000000000000000000000000602082015250565b600061308460288361275d565b915061308f82613028565b604082019050919050565b600060208201905081810360008301526130b381613077565b9050919050565b7f4e487b7100000000000000000000000000000000000000000000000000000000600052601160045260246000fd5b60006130f48261287f565b91506130ff8361287f565b9250827fffffffffffffffffffffffffffffffffffffffffffffffffffffffffffffffff03821115613134576131336130ba565b5b828201905092915050565b7f4e487b7100000000000000000000000000000000000000000000000000000000600052603260045260246000fd5b7f416c726561647920616674657220726567697374726174696f6e206461746500600082015250565b60006131a4601f8361275d565b91506131af8261316e565b602082019050919050565b600060208201905081810360008301526131d381613197565b9050919050565b7f416c726561647920726567697365746572656420666f7220746865206576656e60008201527f7400000000000000000000000000000000000000000000000000000000000000602082015250565b600061323660218361275d565b9150613241826131da565b604082019050919050565b6000602082019050818103600083015261326581613229565b9050919050565b7f5472616e73616374696f6e2073656e6465722063616e6e6f74206265206f726760008201527f616e697a6572206f6620746865206576656e7400000000000000000000000000602082015250565b60006132c860338361275d565b91506132d38261326c565b604082019050919050565b600060208201905081810360008301526132f7816132bb565b9050919050565b6000606082019050613313600083018661292b565b6133206020830185612b19565b61332d604083018461292b565b949350505050565b7f4f776e61626c653a2063616c6c6572206973206e6f7420746865206f776e6572600082015250565b600061336b60208361275d565b915061337682613335565b602082019050919050565b6000602082019050818103600083015261339a8161335e565b9050919050565b60006040820190506133b6600083018561292b565b6133c3602083018461292b565b9392505050565b7f5472616e73616374696f6e2073656e646572206973206e6f74206f7267616e6960008201527f7a6572206f6620746865206576656e7400000000000000000000000000000000602082015250565b600061342660308361275d565b9150613431826133ca565b604082019050919050565b6000602082019050818103600083015261345581613419565b9050919050565b7f416c72656164792073656c6563746564206f72206e6f7420616674657220726560008201527f67697374726174696f6e20646174652079657400000000000000000000000000602082015250565b60006134b860338361275d565b91506134c38261345c565b604082019050919050565b600060208201905081810360008301526134e7816134ab565b9050919050565b60006134f98261287f565b91507fffffffffffffffffffffffffffffffffffffffffffffffffffffffffffffffff82141561352c5761352b6130ba565b5b600182019050919050565b600081519050919050565b600082825260208201905092915050565b6000819050602082019050919050565b600061356f8383612bfa565b60208301905092915050565b6000602082019050919050565b600061359382613537565b61359d8185613542565b93506135a883613553565b8060005b838110156135d95781516135c08882613563565b97506135cb8361357b565b9250506001810190506135ac565b5085935050505092915050565b60006040820190506135fb600083018561292b565b818103602083015261360d8184613588565b90509392505050565b7f45524332303a2064656372656173656420616c6c6f77616e63652062656c6f7760008201527f207a65726f000000000000000000000000000000000000000000000000000000602082015250565b600061367260258361275d565b915061367d82613616565b604082019050919050565b600060208201905081810360008301526136a181613665565b9050919050565b7f48617665206e6f74207061696420656e6f756768000000000000000000000000600082015250565b60006136de60148361275d565b91506136e9826136a8565b602082019050919050565b6000602082019050818103600083015261370d816136d1565b9050919050565b6000604082019050613729600083018561292b565b6137366020830184612b19565b9392505050565b7f4f776e61626c653a206e6577206f776e657220697320746865207a65726f206160008201527f6464726573730000000000000000000000000000000000000000000000000000602082015250565b600061379960268361275d565b91506137a48261373d565b604082019050919050565b600060208201905081810360008301526137c88161378c565b9050919050565b7f45524332303a20617070726f76652066726f6d20746865207a65726f2061646460008201527f7265737300000000000000000000000000000000000000000000000000000000602082015250565b600061382b60248361275d565b9150613836826137cf565b604082019050919050565b6000602082019050818103600083015261385a8161381e565b9050919050565b7f45524332303a20617070726f766520746f20746865207a65726f20616464726560008201527f7373000000000000000000000000000000000000000000000000000000000000602082015250565b60006138bd60228361275d565b91506138c882613861565b604082019050919050565b600060208201905081810360008301526138ec816138b0565b9050919050565b7f45524332303a207472616e736665722066726f6d20746865207a65726f20616460008201527f6472657373000000000000000000000000000000000000000000000000000000602082015250565b600061394f60258361275d565b915061395a826138f3565b604082019050919050565b6000602082019050818103600083015261397e81613942565b9050919050565b7f45524332303a207472616e7366657220746f20746865207a65726f206164647260008201527f6573730000000000000000000000000000000000000000000000000000000000602082015250565b60006139e160238361275d565b91506139ec82613985565b604082019050919050565b60006020820190508181036000830152613a10816139d4565b9050919050565b7f45524332303a207472616e7366657220616d6f756e742065786365656473206260008201527f616c616e63650000000000000000000000000000000000000000000000000000602082015250565b6000613a7360268361275d565b9150613a7e82613a17565b604082019050919050565b60006020820190508181036000830152613aa281613a66565b905091905056fea2646970667358221220468db2d0c50c2da9d0d4301c1e90917c5ec51b7cad4eea6efa8cc8492a12ad0864736f6c634300080a0033",
  "immutableReferences": {},
  "source": "// SPDX-License-Identifier: MIT\r\npragma solidity ^0.8.0;\r\n\r\nimport \"@openzeppelin/contracts/token/ERC20/ERC20.sol\";\r\nimport \"@openzeppelin/contracts/access/Ownable.sol\";\r\n\r\ncontract SignMeUp is ERC20, Ownable {\r\n\r\n  uint public entryPriceWei;\r\n\r\n  // All event entries\r\n  SignUpEventEntry[] public entries;\r\n\r\n  // Mapping of registered addresses by registration date for given entry\r\n  mapping (uint => mapping(address => uint)) private entryRegistrationTimestamps;\r\n\r\n  // Entries which user registered for\r\n  mapping (address => uint[]) private registrantEntries;\r\n\r\n  // Entries which user was selected for\r\n  mapping (address => uint[]) private participantEntries;\r\n\r\n  // Registrants for given SignUpEventEntry\r\n  mapping (uint => address[]) private entryRegistrants;\r\n\r\n  // Participants for given SignUpEventEntry\r\n  mapping (uint => address[]) private entryParticipants;\r\n\r\n  // Number of entries organized by user\r\n  mapping (address => uint) private organizerEntriesCount;\r\n\r\n  // Organizer of given SignUpEventEntry\r\n  mapping (uint => address) public entryOrganizer;\r\n\r\n  ////// Events //////\r\n  event LogEntryCreated(uint id, address organizer);\r\n  event LogRegistered(uint id, address who, uint when);\r\n  event LogEntryClosed(uint id, address[] participants);\r\n  event LogPriceChanged(uint oldPrice, uint newPrice);\r\n\r\n  ////// Modifiers //////\r\n  modifier isBeforeRegistrationDate(uint _eventId) {\r\n    SignUpEventEntry memory entry = entries[_eventId];\r\n    require(block.timestamp < entry.registrationDueDate, \"Already after registration date\");\r\n    _;\r\n  }\r\n\r\n  modifier canSelectParticipants(uint _eventId) {\r\n    SignUpEventEntry memory entry = entries[_eventId];\r\n    require(entryParticipants[_eventId].length == 0 \r\n      && entry.registrationDueDate != 0 \r\n      && block.timestamp >= entry.registrationDueDate, \"Already selected or not after registration date yet\");\r\n    _;\r\n  }\r\n\r\n  modifier isNotRegistered(uint _eventId) {\r\n    mapping(address => uint) storage registrationTimestamps = entryRegistrationTimestamps[_eventId];\r\n    require(registrationTimestamps[msg.sender] == 0, \"Already regisetered for the event\");\r\n    _;\r\n  }\r\n\r\n  modifier isOrganizer(uint _eventId) {\r\n    require(entryOrganizer[_eventId] == msg.sender, \"Transaction sender is not organizer of the event\");\r\n    _;\r\n  }\r\n\r\n  modifier isNotOrganizer(uint _eventId) {\r\n    require(entryOrganizer[_eventId] != msg.sender, \"Transaction sender cannot be organizer of the event\");\r\n    _;\r\n  }\r\n\r\n  modifier paidEnough() {\r\n    require(msg.value >= entryPriceWei, \"Have not paid enough\");\r\n    _;\r\n  }\r\n\r\n  ////// Structs //////\r\n  struct SignUpEventEntry {\r\n    uint id;\r\n    address organizer;\r\n    string title;\r\n    uint spots;\r\n    uint64 registrationDueDate;\r\n    uint64 eventDate;\r\n  }\r\n\r\n  constructor() ERC20(\"SignMeUp\", \"SMU\") {\r\n    entryPriceWei = 50_000 * 1_000_000_000;\r\n  }\r\n\r\n  ////// Owner functions //////\r\n  function setPrice(uint _price) public onlyOwner {    \r\n    if (entryPriceWei != _price) {\r\n      uint oldPrice = entryPriceWei;\r\n      entryPriceWei = _price;\r\n      emit LogPriceChanged(oldPrice, entryPriceWei);\r\n    }\r\n  }\r\n\r\n  function isOwner() public view returns(bool) {\r\n    return owner() == msg.sender;\r\n  }\r\n\r\n  ////// Common functions //////\r\n\r\n  function getEntriesCount() public view returns(uint) {\r\n    return entries.length;\r\n  }\r\n\r\n  ////// Organizer functions\r\n  function createNewSignUpEventEntry(\r\n    string memory _title,\r\n    uint _spots,\r\n    uint64 _registrationDueDate,\r\n    uint64 _eventDate\r\n  )\r\n    public\r\n    payable\r\n    paidEnough()\r\n    returns (uint)\r\n  {\r\n    SignUpEventEntry memory entry = newSignUpEventEntryOf(_title, _spots, _registrationDueDate, _eventDate);\r\n\r\n    address payable _owner = payable(owner());\r\n    _owner.transfer(msg.value);\r\n\r\n    emit LogEntryCreated(entry.id, entry.organizer);\r\n\r\n    return entry.id;\r\n  }\r\n\r\n  function newSignUpEventEntryOf(\r\n    string memory _title,\r\n    uint _spots,\r\n    uint64 _registrationDueDate,\r\n    uint64 _eventDate\r\n  )\r\n    private\r\n    returns (SignUpEventEntry memory)\r\n  {\r\n    uint newId = nextEntryId();\r\n    address organizer = msg.sender;\r\n\r\n    SignUpEventEntry memory entry = SignUpEventEntry({\r\n      id: newId,\r\n      organizer: organizer,\r\n      title: _title,\r\n      spots: _spots,\r\n      registrationDueDate: _registrationDueDate,\r\n      eventDate: _eventDate\r\n    });\r\n    \r\n    entryOrganizer[newId] = organizer;\r\n    organizerEntriesCount[organizer] += 1;\r\n\r\n    entries.push(entry);\r\n\r\n    return entry;\r\n  }\r\n\r\n  function nextEntryId() private view returns(uint) {\r\n    return entries.length;\r\n  }\r\n\r\n  function getOrganizerEntriesCount() public view returns(uint) {\r\n    return organizerEntriesCount[msg.sender];\r\n  }\r\n\r\n  function getOrganizerEntries()\r\n    public\r\n    view\r\n    returns(SignUpEventEntry[] memory)\r\n  {\r\n    address organizer = msg.sender;\r\n\r\n    SignUpEventEntry[] memory result = new SignUpEventEntry[](organizerEntriesCount[organizer]);\r\n    uint targetIndex = 0;\r\n    for (uint i = 0; i < entries.length; i++) {\r\n      if (entries[i].organizer == organizer) {\r\n        result[targetIndex++] = entries[i];\r\n      }\r\n    }\r\n\r\n    return result;\r\n  }\r\n\r\n  function randomlyChooseEventParticipants(uint _eventId)\r\n    public\r\n    isOrganizer(_eventId)\r\n    canSelectParticipants(_eventId)\r\n  {\r\n    // TODO use some 'random' oracle, choose participants from registeres users and change state to Closed\r\n    address[] memory registrants = entryRegistrants[_eventId];\r\n    address[] memory participants = new address[](registrants.length);\r\n    for (uint i = 0; i < registrants.length; i++) {\r\n      participants[i] = registrants[i];\r\n    }\r\n    entryParticipants[_eventId] = participants;\r\n    emit LogEntryClosed(_eventId, participants);\r\n  }\r\n\r\n  ////// Registrant functions //////\r\n  function registerForEvent(uint _eventId)\r\n    public\r\n    isBeforeRegistrationDate(_eventId)\r\n    isNotRegistered(_eventId)\r\n    isNotOrganizer(_eventId)\r\n    returns(uint)\r\n  {\r\n    uint registrationTimestamp = block.timestamp;\r\n\r\n    mapping(address => uint) storage registrationTimestamps = entryRegistrationTimestamps[_eventId];\r\n    registrationTimestamps[msg.sender] = registrationTimestamp;\r\n    registrantEntries[msg.sender].push(_eventId);\r\n    entryRegistrants[_eventId].push(msg.sender);\r\n\r\n    emit LogRegistered(_eventId, msg.sender, registrationTimestamp);\r\n\r\n    return registrationTimestamp;\r\n  }\r\n\r\n  function getEntriesUserRegisteredFor() public view returns(uint[] memory) {\r\n    return registrantEntries[msg.sender];\r\n  }\r\n\r\n  function getEntriesUserSelectedFor() public view returns(uint[] memory) {\r\n    return participantEntries[msg.sender];\r\n  }\r\n\r\n  // ### Utils ###\r\n  // #############\r\n\r\n  function nonSecureRandom() private view returns (uint) {\r\n    return uint(keccak256(\r\n      abi.encodePacked(block.timestamp, block.difficulty)\r\n    ));\r\n  }\r\n  // ### Utils - end ###\r\n}\r\n",
  "sourcePath": "/mnt/c/Dev/workspace/consensys/final/blockchain-developer-bootcamp-final-project/contracts/SignMeUp.sol",
  "compiler": {
    "name": "solc",
    "version": "0.8.10+commit.fc410830.Emscripten.clang"
  },
  "schemaVersion": "3.4.3",
  "updatedAt": "2021-11-16T09:50:10.863Z",
  "networkType": "ethereum",
  "devdoc": {
    "kind": "dev",
    "methods": {
      "allowance(address,address)": {
        "details": "See {IERC20-allowance}."
      },
      "approve(address,uint256)": {
        "details": "See {IERC20-approve}. Requirements: - `spender` cannot be the zero address."
      },
      "balanceOf(address)": {
        "details": "See {IERC20-balanceOf}."
      },
      "decimals()": {
        "details": "Returns the number of decimals used to get its user representation. For example, if `decimals` equals `2`, a balance of `505` tokens should be displayed to a user as `5.05` (`505 / 10 ** 2`). Tokens usually opt for a value of 18, imitating the relationship between Ether and Wei. This is the value {ERC20} uses, unless this function is overridden; NOTE: This information is only used for _display_ purposes: it in no way affects any of the arithmetic of the contract, including {IERC20-balanceOf} and {IERC20-transfer}."
      },
      "decreaseAllowance(address,uint256)": {
        "details": "Atomically decreases the allowance granted to `spender` by the caller. This is an alternative to {approve} that can be used as a mitigation for problems described in {IERC20-approve}. Emits an {Approval} event indicating the updated allowance. Requirements: - `spender` cannot be the zero address. - `spender` must have allowance for the caller of at least `subtractedValue`."
      },
      "increaseAllowance(address,uint256)": {
        "details": "Atomically increases the allowance granted to `spender` by the caller. This is an alternative to {approve} that can be used as a mitigation for problems described in {IERC20-approve}. Emits an {Approval} event indicating the updated allowance. Requirements: - `spender` cannot be the zero address."
      },
      "name()": {
        "details": "Returns the name of the token."
      },
      "owner()": {
        "details": "Returns the address of the current owner."
      },
      "renounceOwnership()": {
        "details": "Leaves the contract without owner. It will not be possible to call `onlyOwner` functions anymore. Can only be called by the current owner. NOTE: Renouncing ownership will leave the contract without an owner, thereby removing any functionality that is only available to the owner."
      },
      "symbol()": {
        "details": "Returns the symbol of the token, usually a shorter version of the name."
      },
      "totalSupply()": {
        "details": "See {IERC20-totalSupply}."
      },
      "transfer(address,uint256)": {
        "details": "See {IERC20-transfer}. Requirements: - `recipient` cannot be the zero address. - the caller must have a balance of at least `amount`."
      },
      "transferFrom(address,address,uint256)": {
        "details": "See {IERC20-transferFrom}. Emits an {Approval} event indicating the updated allowance. This is not required by the EIP. See the note at the beginning of {ERC20}. Requirements: - `sender` and `recipient` cannot be the zero address. - `sender` must have a balance of at least `amount`. - the caller must have allowance for ``sender``'s tokens of at least `amount`."
      },
      "transferOwnership(address)": {
        "details": "Transfers ownership of the contract to a new account (`newOwner`). Can only be called by the current owner."
      }
    },
    "version": 1
  },
  "userdoc": {
    "kind": "user",
    "methods": {},
    "version": 1
  }
}