{
  "contractName": "SignMeUp",
  "abi": [
    {
      "inputs": [],
      "stateMutability": "nonpayable",
      "type": "constructor"
    },
    {
      "inputs": [
        {
          "internalType": "uint256",
          "name": "",
          "type": "uint256"
        }
      ],
      "name": "entries",
      "outputs": [
        {
          "internalType": "uint256",
          "name": "id",
          "type": "uint256"
        },
        {
          "internalType": "address",
          "name": "organizer",
          "type": "address"
        },
        {
          "internalType": "string",
          "name": "title",
          "type": "string"
        },
        {
          "internalType": "uint256",
          "name": "totalSpots",
          "type": "uint256"
        },
        {
          "internalType": "uint256",
          "name": "registrationDueDate",
          "type": "uint256"
        },
        {
          "internalType": "enum SignMeUp.State",
          "name": "state",
          "type": "uint8"
        }
      ],
      "stateMutability": "view",
      "type": "function",
      "constant": true
    },
    {
      "inputs": [],
      "name": "getEntriesCount",
      "outputs": [
        {
          "internalType": "uint256",
          "name": "",
          "type": "uint256"
        }
      ],
      "stateMutability": "view",
      "type": "function",
      "constant": true
    },
    {
      "inputs": [
        {
          "internalType": "string",
          "name": "_title",
          "type": "string"
        },
        {
          "internalType": "uint256",
          "name": "_totalSpots",
          "type": "uint256"
        },
        {
          "internalType": "uint256",
          "name": "_registrationDueDate",
          "type": "uint256"
        }
      ],
      "name": "createNewSignUpEntry",
      "outputs": [
        {
          "internalType": "uint256",
          "name": "",
          "type": "uint256"
        }
      ],
      "stateMutability": "nonpayable",
      "type": "function"
    },
    {
      "inputs": [
        {
          "internalType": "uint256",
          "name": "x",
          "type": "uint256"
        }
      ],
      "name": "set",
      "outputs": [],
      "stateMutability": "nonpayable",
      "type": "function"
    },
    {
      "inputs": [],
      "name": "get",
      "outputs": [
        {
          "internalType": "uint256",
          "name": "",
          "type": "uint256"
        }
      ],
      "stateMutability": "view",
      "type": "function",
      "constant": true
    }
  ],
  "bytecode": "0x6080604052602c6001553480156200001657600080fd5b50620000626040518060400160405280600781526020017f4576656e74203100000000000000000000000000000000000000000000000000815250600a612710620000b660201b60201c565b50620000af6040518060400160405280600781526020017f4576656e74203200000000000000000000000000000000000000000000000000815250600c620186a0620000b660201b60201c565b50620003ef565b6000806040518060c00160405280620000d46200021760201b60201c565b81526020013373ffffffffffffffffffffffffffffffffffffffff168152602001868152602001858152602001848152602001600060018111156200011e576200011d620002fc565b5b815250905060008190806001815401808255809150506001900390600052602060002090600602016000909190919091506000820151816000015560208201518160010160006101000a81548173ffffffffffffffffffffffffffffffffffffffff021916908373ffffffffffffffffffffffffffffffffffffffff1602179055506040820151816002019080519060200190620001be9291906200024c565b50606082015181600301556080820151816004015560a08201518160050160006101000a81548160ff02191690836001811115620002015762000200620002fc565b5b0217905550505080600001519150509392505050565b600042446040516020016200022e9291906200035a565b6040516020818303038152906040528051906020012060001c905090565b8280546200025a90620003b9565b90600052602060002090601f0160209004810192826200027e5760008555620002ca565b82601f106200029957805160ff1916838001178555620002ca565b82800160010185558215620002ca579182015b82811115620002c9578251825591602001919060010190620002ac565b5b509050620002d99190620002dd565b5090565b5b80821115620002f8576000816000905550600101620002de565b5090565b7f4e487b7100000000000000000000000000000000000000000000000000000000600052602160045260246000fd5b6000819050919050565b6000819050919050565b620003546200034e826200032b565b62000335565b82525050565b60006200036882856200033f565b6020820191506200037a82846200033f565b6020820191508190509392505050565b7f4e487b7100000000000000000000000000000000000000000000000000000000600052602260045260246000fd5b60006002820490506001821680620003d257607f821691505b60208210811415620003e957620003e86200038a565b5b50919050565b61094380620003ff6000396000f3fe608060405234801561001057600080fd5b50600436106100575760003560e01c806360fe47b11461005c5780636d4ce63c14610078578063b30906d414610096578063d09685b0146100cb578063ed9a84d0146100e9575b600080fd5b610076600480360381019061007191906104ab565b610119565b005b610080610123565b60405161008d91906104e7565b60405180910390f35b6100b060048036038101906100ab91906104ab565b61012d565b6040516100c296959493929190610653565b60405180910390f35b6100d361022e565b6040516100e091906104e7565b60405180910390f35b61010360048036038101906100fe91906107f0565b61023a565b60405161011091906104e7565b60405180910390f35b8060018190555050565b6000600154905090565b6000818154811061013d57600080fd5b90600052602060002090600602016000915090508060000154908060010160009054906101000a900473ffffffffffffffffffffffffffffffffffffffff169080600201805461018c9061088e565b80601f01602080910402602001604051908101604052809291908181526020018280546101b89061088e565b80156102055780601f106101da57610100808354040283529160200191610205565b820191906000526020600020905b8154815290600101906020018083116101e857829003601f168201915b5050505050908060030154908060040154908060050160009054906101000a900460ff16905086565b60008080549050905090565b6000806040518060c0016040528061025061038b565b81526020013373ffffffffffffffffffffffffffffffffffffffff16815260200186815260200185815260200184815260200160006001811115610297576102966105dc565b5b815250905060008190806001815401808255809150506001900390600052602060002090600602016000909190919091506000820151816000015560208201518160010160006101000a81548173ffffffffffffffffffffffffffffffffffffffff021916908373ffffffffffffffffffffffffffffffffffffffff16021790555060408201518160020190805190602001906103359291906103be565b50606082015181600301556080820151816004015560a08201518160050160006101000a81548160ff02191690836001811115610375576103746105dc565b5b0217905550505080600001519150509392505050565b600042446040516020016103a09291906108e1565b6040516020818303038152906040528051906020012060001c905090565b8280546103ca9061088e565b90600052602060002090601f0160209004810192826103ec5760008555610433565b82601f1061040557805160ff1916838001178555610433565b82800160010185558215610433579182015b82811115610432578251825591602001919060010190610417565b5b5090506104409190610444565b5090565b5b8082111561045d576000816000905550600101610445565b5090565b6000604051905090565b600080fd5b600080fd5b6000819050919050565b61048881610475565b811461049357600080fd5b50565b6000813590506104a58161047f565b92915050565b6000602082840312156104c1576104c061046b565b5b60006104cf84828501610496565b91505092915050565b6104e181610475565b82525050565b60006020820190506104fc60008301846104d8565b92915050565b600073ffffffffffffffffffffffffffffffffffffffff82169050919050565b600061052d82610502565b9050919050565b61053d81610522565b82525050565b600081519050919050565b600082825260208201905092915050565b60005b8381101561057d578082015181840152602081019050610562565b8381111561058c576000848401525b50505050565b6000601f19601f8301169050919050565b60006105ae82610543565b6105b8818561054e565b93506105c881856020860161055f565b6105d181610592565b840191505092915050565b7f4e487b7100000000000000000000000000000000000000000000000000000000600052602160045260246000fd5b6002811061061c5761061b6105dc565b5b50565b600081905061062d8261060b565b919050565b600061063d8261061f565b9050919050565b61064d81610632565b82525050565b600060c08201905061066860008301896104d8565b6106756020830188610534565b818103604083015261068781876105a3565b905061069660608301866104d8565b6106a360808301856104d8565b6106b060a0830184610644565b979650505050505050565b600080fd5b600080fd5b7f4e487b7100000000000000000000000000000000000000000000000000000000600052604160045260246000fd5b6106fd82610592565b810181811067ffffffffffffffff8211171561071c5761071b6106c5565b5b80604052505050565b600061072f610461565b905061073b82826106f4565b919050565b600067ffffffffffffffff82111561075b5761075a6106c5565b5b61076482610592565b9050602081019050919050565b82818337600083830152505050565b600061079361078e84610740565b610725565b9050828152602081018484840111156107af576107ae6106c0565b5b6107ba848285610771565b509392505050565b600082601f8301126107d7576107d66106bb565b5b81356107e7848260208601610780565b91505092915050565b6000806000606084860312156108095761080861046b565b5b600084013567ffffffffffffffff81111561082757610826610470565b5b610833868287016107c2565b935050602061084486828701610496565b925050604061085586828701610496565b9150509250925092565b7f4e487b7100000000000000000000000000000000000000000000000000000000600052602260045260246000fd5b600060028204905060018216806108a657607f821691505b602082108114156108ba576108b961085f565b5b50919050565b6000819050919050565b6108db6108d682610475565b6108c0565b82525050565b60006108ed82856108ca565b6020820191506108fd82846108ca565b602082019150819050939250505056fea264697066735822122056d13a72df834de1bf69dc32096425ab0825c436579a85217feefc07825d33bc64736f6c634300080a0033",
  "immutableReferences": {},
  "source": "// SPDX-License-Identifier: MIT\r\npragma solidity >=0.5.16 <0.9.0;\r\n\r\ncontract SignMeUp {\r\n\r\n  SignUpEntry[] public entries;\r\n  \r\n  // mapping (address => SignUpEntry[]) private organizerEntries;\r\n\r\n  enum State {Active, Expired}\r\n\r\n  struct SignUpEntry {\r\n    uint256 id;\r\n    address organizer;\r\n    string title;\r\n    uint totalSpots;\r\n    uint registrationDueDate;\r\n    // address[] registrants;\r\n    // address[] participants;\r\n    State state;\r\n  }\r\n\r\n  constructor() public {\r\n    // Test entries\r\n    createNewSignUpEntry(\"Event 1\", 10, 10000);\r\n    createNewSignUpEntry(\"Event 2\", 12, 100000);\r\n  }\r\n\r\n  function getEntriesCount() public view returns(uint256) {\r\n    return entries.length;\r\n  }\r\n\r\n  function createNewSignUpEntry(string memory _title, uint _totalSpots, uint _registrationDueDate)\r\n    public\r\n    returns (uint256) {\r\n\r\n    SignUpEntry memory entry = SignUpEntry({\r\n      id: nonSecureRandom(),\r\n      organizer: msg.sender,\r\n      title: _title,\r\n      totalSpots: _totalSpots,\r\n      registrationDueDate: _registrationDueDate,\r\n      state: State.Active\r\n    });\r\n\r\n    entries.push(entry);\r\n\r\n    return entry.id;\r\n  }\r\n\r\n  // ### Utils ###\r\n  // #############\r\n\r\n  function nonSecureRandom() private view returns (uint256) {\r\n    return uint256(keccak256(\r\n      abi.encodePacked(block.timestamp, block.difficulty)\r\n    ));\r\n  }\r\n\r\n  // ### Utils - end ###\r\n\r\n  // ##########################\r\n  // Simple storage\r\n  uint storedData = 44;\r\n  function set(uint x) public {\r\n    storedData = x;\r\n  }\r\n\r\n  function get() public view returns (uint) {\r\n    return storedData;\r\n  }\r\n}\r\n",
  "sourcePath": "/mnt/c/Dev/workspace/consensys/final/blockchain-developer-bootcamp-final-project/contracts/SignMeUp.sol",
  "compiler": {
    "name": "solc",
    "version": "0.8.10+commit.fc410830.Emscripten.clang"
  },
  "schemaVersion": "3.4.3",
  "updatedAt": "2021-11-10T16:06:49.407Z",
  "networkType": "ethereum",
  "devdoc": {
    "kind": "dev",
    "methods": {},
    "version": 1
  },
  "userdoc": {
    "kind": "user",
    "methods": {},
    "version": 1
  }
}