{
  "contractName": "SignMeUp",
  "abi": [
    {
      "inputs": [],
      "stateMutability": "nonpayable",
      "type": "constructor"
    },
    {
      "anonymous": false,
      "inputs": [
        {
          "indexed": true,
          "internalType": "address",
          "name": "owner",
          "type": "address"
        },
        {
          "indexed": true,
          "internalType": "address",
          "name": "spender",
          "type": "address"
        },
        {
          "indexed": false,
          "internalType": "uint256",
          "name": "value",
          "type": "uint256"
        }
      ],
      "name": "Approval",
      "type": "event"
    },
    {
      "anonymous": false,
      "inputs": [
        {
          "indexed": false,
          "internalType": "uint256",
          "name": "id",
          "type": "uint256"
        }
      ],
      "name": "LogEntryCreated",
      "type": "event"
    },
    {
      "anonymous": false,
      "inputs": [
        {
          "indexed": false,
          "internalType": "uint256",
          "name": "id",
          "type": "uint256"
        },
        {
          "indexed": false,
          "internalType": "address",
          "name": "who",
          "type": "address"
        },
        {
          "indexed": false,
          "internalType": "uint256",
          "name": "when",
          "type": "uint256"
        }
      ],
      "name": "LogRegistered",
      "type": "event"
    },
    {
      "anonymous": false,
      "inputs": [
        {
          "indexed": true,
          "internalType": "address",
          "name": "previousOwner",
          "type": "address"
        },
        {
          "indexed": true,
          "internalType": "address",
          "name": "newOwner",
          "type": "address"
        }
      ],
      "name": "OwnershipTransferred",
      "type": "event"
    },
    {
      "anonymous": false,
      "inputs": [
        {
          "indexed": true,
          "internalType": "address",
          "name": "from",
          "type": "address"
        },
        {
          "indexed": true,
          "internalType": "address",
          "name": "to",
          "type": "address"
        },
        {
          "indexed": false,
          "internalType": "uint256",
          "name": "value",
          "type": "uint256"
        }
      ],
      "name": "Transfer",
      "type": "event"
    },
    {
      "inputs": [
        {
          "internalType": "address",
          "name": "owner",
          "type": "address"
        },
        {
          "internalType": "address",
          "name": "spender",
          "type": "address"
        }
      ],
      "name": "allowance",
      "outputs": [
        {
          "internalType": "uint256",
          "name": "",
          "type": "uint256"
        }
      ],
      "stateMutability": "view",
      "type": "function",
      "constant": true
    },
    {
      "inputs": [
        {
          "internalType": "address",
          "name": "spender",
          "type": "address"
        },
        {
          "internalType": "uint256",
          "name": "amount",
          "type": "uint256"
        }
      ],
      "name": "approve",
      "outputs": [
        {
          "internalType": "bool",
          "name": "",
          "type": "bool"
        }
      ],
      "stateMutability": "nonpayable",
      "type": "function"
    },
    {
      "inputs": [
        {
          "internalType": "address",
          "name": "account",
          "type": "address"
        }
      ],
      "name": "balanceOf",
      "outputs": [
        {
          "internalType": "uint256",
          "name": "",
          "type": "uint256"
        }
      ],
      "stateMutability": "view",
      "type": "function",
      "constant": true
    },
    {
      "inputs": [],
      "name": "decimals",
      "outputs": [
        {
          "internalType": "uint8",
          "name": "",
          "type": "uint8"
        }
      ],
      "stateMutability": "view",
      "type": "function",
      "constant": true
    },
    {
      "inputs": [
        {
          "internalType": "address",
          "name": "spender",
          "type": "address"
        },
        {
          "internalType": "uint256",
          "name": "subtractedValue",
          "type": "uint256"
        }
      ],
      "name": "decreaseAllowance",
      "outputs": [
        {
          "internalType": "bool",
          "name": "",
          "type": "bool"
        }
      ],
      "stateMutability": "nonpayable",
      "type": "function"
    },
    {
      "inputs": [
        {
          "internalType": "uint256",
          "name": "",
          "type": "uint256"
        }
      ],
      "name": "entries",
      "outputs": [
        {
          "internalType": "uint256",
          "name": "id",
          "type": "uint256"
        },
        {
          "internalType": "address",
          "name": "organizer",
          "type": "address"
        },
        {
          "internalType": "string",
          "name": "title",
          "type": "string"
        },
        {
          "internalType": "uint256",
          "name": "spots",
          "type": "uint256"
        },
        {
          "internalType": "uint256",
          "name": "registrationDueDate",
          "type": "uint256"
        },
        {
          "internalType": "uint256",
          "name": "eventDate",
          "type": "uint256"
        },
        {
          "internalType": "enum SignMeUp.State",
          "name": "state",
          "type": "uint8"
        }
      ],
      "stateMutability": "view",
      "type": "function",
      "constant": true
    },
    {
      "inputs": [],
      "name": "entryPriceWei",
      "outputs": [
        {
          "internalType": "uint256",
          "name": "",
          "type": "uint256"
        }
      ],
      "stateMutability": "view",
      "type": "function",
      "constant": true
    },
    {
      "inputs": [
        {
          "internalType": "address",
          "name": "spender",
          "type": "address"
        },
        {
          "internalType": "uint256",
          "name": "addedValue",
          "type": "uint256"
        }
      ],
      "name": "increaseAllowance",
      "outputs": [
        {
          "internalType": "bool",
          "name": "",
          "type": "bool"
        }
      ],
      "stateMutability": "nonpayable",
      "type": "function"
    },
    {
      "inputs": [],
      "name": "name",
      "outputs": [
        {
          "internalType": "string",
          "name": "",
          "type": "string"
        }
      ],
      "stateMutability": "view",
      "type": "function",
      "constant": true
    },
    {
      "inputs": [],
      "name": "owner",
      "outputs": [
        {
          "internalType": "address",
          "name": "",
          "type": "address"
        }
      ],
      "stateMutability": "view",
      "type": "function",
      "constant": true
    },
    {
      "inputs": [],
      "name": "renounceOwnership",
      "outputs": [],
      "stateMutability": "nonpayable",
      "type": "function"
    },
    {
      "inputs": [],
      "name": "symbol",
      "outputs": [
        {
          "internalType": "string",
          "name": "",
          "type": "string"
        }
      ],
      "stateMutability": "view",
      "type": "function",
      "constant": true
    },
    {
      "inputs": [],
      "name": "totalSupply",
      "outputs": [
        {
          "internalType": "uint256",
          "name": "",
          "type": "uint256"
        }
      ],
      "stateMutability": "view",
      "type": "function",
      "constant": true
    },
    {
      "inputs": [
        {
          "internalType": "address",
          "name": "recipient",
          "type": "address"
        },
        {
          "internalType": "uint256",
          "name": "amount",
          "type": "uint256"
        }
      ],
      "name": "transfer",
      "outputs": [
        {
          "internalType": "bool",
          "name": "",
          "type": "bool"
        }
      ],
      "stateMutability": "nonpayable",
      "type": "function"
    },
    {
      "inputs": [
        {
          "internalType": "address",
          "name": "sender",
          "type": "address"
        },
        {
          "internalType": "address",
          "name": "recipient",
          "type": "address"
        },
        {
          "internalType": "uint256",
          "name": "amount",
          "type": "uint256"
        }
      ],
      "name": "transferFrom",
      "outputs": [
        {
          "internalType": "bool",
          "name": "",
          "type": "bool"
        }
      ],
      "stateMutability": "nonpayable",
      "type": "function"
    },
    {
      "inputs": [
        {
          "internalType": "address",
          "name": "newOwner",
          "type": "address"
        }
      ],
      "name": "transferOwnership",
      "outputs": [],
      "stateMutability": "nonpayable",
      "type": "function"
    },
    {
      "inputs": [],
      "name": "getEntriesCount",
      "outputs": [
        {
          "internalType": "uint256",
          "name": "",
          "type": "uint256"
        }
      ],
      "stateMutability": "view",
      "type": "function",
      "constant": true
    },
    {
      "inputs": [
        {
          "internalType": "string",
          "name": "_title",
          "type": "string"
        },
        {
          "internalType": "uint256",
          "name": "_spots",
          "type": "uint256"
        },
        {
          "internalType": "uint256",
          "name": "_registrationDueDate",
          "type": "uint256"
        },
        {
          "internalType": "uint256",
          "name": "_eventDate",
          "type": "uint256"
        }
      ],
      "name": "createNewSignUpEventEntry",
      "outputs": [
        {
          "internalType": "uint256",
          "name": "",
          "type": "uint256"
        }
      ],
      "stateMutability": "payable",
      "type": "function",
      "payable": true
    },
    {
      "inputs": [],
      "name": "getOrganizerEntryIds",
      "outputs": [
        {
          "internalType": "uint256[]",
          "name": "",
          "type": "uint256[]"
        }
      ],
      "stateMutability": "view",
      "type": "function",
      "constant": true
    },
    {
      "inputs": [
        {
          "internalType": "uint256",
          "name": "_eventId",
          "type": "uint256"
        }
      ],
      "name": "randomlyChooseEventParticipants",
      "outputs": [],
      "stateMutability": "nonpayable",
      "type": "function"
    },
    {
      "inputs": [
        {
          "internalType": "uint256",
          "name": "_eventId",
          "type": "uint256"
        }
      ],
      "name": "registerForEvent",
      "outputs": [
        {
          "internalType": "bool",
          "name": "",
          "type": "bool"
        }
      ],
      "stateMutability": "nonpayable",
      "type": "function"
    },
    {
      "inputs": [],
      "name": "getEntriesUserRegisteredFor",
      "outputs": [
        {
          "internalType": "uint256[]",
          "name": "",
          "type": "uint256[]"
        }
      ],
      "stateMutability": "view",
      "type": "function",
      "constant": true
    },
    {
      "inputs": [],
      "name": "getEntriesUserSelectedFor",
      "outputs": [
        {
          "internalType": "uint256[]",
          "name": "",
          "type": "uint256[]"
        }
      ],
      "stateMutability": "view",
      "type": "function",
      "constant": true
    }
  ],
  "bytecode": "0x60806040523480156200001157600080fd5b506040518060400160405280600881526020017f5369676e4d6555700000000000000000000000000000000000000000000000008152506040518060400160405280600381526020017f534d550000000000000000000000000000000000000000000000000000000000815250816003908051906020019062000096929190620004e2565b508060049080519060200190620000af929190620004e2565b505050620000d2620000c6620001d760201b60201c565b620001df60201b60201c565b652d79883d20006006819055506200012d6040518060400160405280600781526020017f4576656e74203100000000000000000000000000000000000000000000000000815250600a612710614e20620002a560201b60201c565b506200017e6040518060400160405280600781526020017f4576656e74203200000000000000000000000000000000000000000000000000815250600c620186a062030d40620002a560201b60201c565b50620001d06040518060400160405280600781526020017f4576656e742033000000000000000000000000000000000000000000000000008152506017629896806301312d00620002a560201b60201c565b5062000626565b600033905090565b6000600560009054906101000a900473ffffffffffffffffffffffffffffffffffffffff16905081600560006101000a81548173ffffffffffffffffffffffffffffffffffffffff021916908373ffffffffffffffffffffffffffffffffffffffff1602179055508173ffffffffffffffffffffffffffffffffffffffff168173ffffffffffffffffffffffffffffffffffffffff167f8be0079c531659141344cd1fd0a4f28419497f9722a3daafe3b4186f6b6457e060405160405180910390a35050565b600080620002b8620004d560201b60201c565b905060006040518060e001604052808381526020013373ffffffffffffffffffffffffffffffffffffffff1681526020018881526020018781526020018681526020018581526020016000600181111562000318576200031762000592565b5b815250905060078190806001815401808255809150506001900390600052602060002090600702016000909190919091506000820151816000015560208201518160010160006101000a81548173ffffffffffffffffffffffffffffffffffffffff021916908373ffffffffffffffffffffffffffffffffffffffff1602179055506040820151816002019080519060200190620003b8929190620004e2565b50606082015181600301556080820151816004015560a0820151816005015560c08201518160060160006101000a81548160ff0219169083600181111562000405576200040462000592565b5b02179055505050600c60003373ffffffffffffffffffffffffffffffffffffffff1673ffffffffffffffffffffffffffffffffffffffff16815260200190815260200160002082908060018154018082558091505060019003906000526020600020016000909190919091505533600d600084815260200190815260200160002060006101000a81548173ffffffffffffffffffffffffffffffffffffffff021916908373ffffffffffffffffffffffffffffffffffffffff160217905550806000015192505050949350505050565b6000600780549050905090565b828054620004f090620005f0565b90600052602060002090601f01602090048101928262000514576000855562000560565b82601f106200052f57805160ff191683800117855562000560565b8280016001018555821562000560579182015b828111156200055f57825182559160200191906001019062000542565b5b5090506200056f919062000573565b5090565b5b808211156200058e57600081600090555060010162000574565b5090565b7f4e487b7100000000000000000000000000000000000000000000000000000000600052602160045260246000fd5b7f4e487b7100000000000000000000000000000000000000000000000000000000600052602260045260246000fd5b600060028204905060018216806200060957607f821691505b6020821081141562000620576200061f620005c1565b5b50919050565b612a1d80620006366000396000f3fe6080604052600436106101405760003560e01c8063942aa7e1116100b6578063d09685b01161006f578063d09685b0146104a0578063d9b230da146104cb578063dd62ed3e146104f6578063e2f6833014610533578063f2fde38b1461055e578063f8cdb6521461058757610140565b8063942aa7e11461036457806395d89b411461038f5780639c571402146103ba578063a457c2d7146103e3578063a9059cbb14610420578063b30906d41461045d57610140565b806339509351116101085780633950935114610240578063406db8431461027d57806370a08231146102ba578063715018a6146102f7578063772a6fce1461030e5780638da5cb5b1461033957610140565b806306fdde0314610145578063095ea7b31461017057806318160ddd146101ad57806323b872dd146101d8578063313ce56714610215575b600080fd5b34801561015157600080fd5b5061015a6105b7565b6040516101679190611d62565b60405180910390f35b34801561017c57600080fd5b5061019760048036038101906101929190611e2c565b610649565b6040516101a49190611e87565b60405180910390f35b3480156101b957600080fd5b506101c2610667565b6040516101cf9190611eb1565b60405180910390f35b3480156101e457600080fd5b506101ff60048036038101906101fa9190611ecc565b610671565b60405161020c9190611e87565b60405180910390f35b34801561022157600080fd5b5061022a610769565b6040516102379190611f3b565b60405180910390f35b34801561024c57600080fd5b5061026760048036038101906102629190611e2c565b610772565b6040516102749190611e87565b60405180910390f35b34801561028957600080fd5b506102a4600480360381019061029f9190611f56565b61081e565b6040516102b19190611e87565b60405180910390f35b3480156102c657600080fd5b506102e160048036038101906102dc9190611f83565b610b4d565b6040516102ee9190611eb1565b60405180910390f35b34801561030357600080fd5b5061030c610b95565b005b34801561031a57600080fd5b50610323610c1d565b604051610330919061206e565b60405180910390f35b34801561034557600080fd5b5061034e610cb2565b60405161035b919061209f565b60405180910390f35b34801561037057600080fd5b50610379610cdc565b604051610386919061206e565b60405180910390f35b34801561039b57600080fd5b506103a4610d71565b6040516103b19190611d62565b60405180910390f35b3480156103c657600080fd5b506103e160048036038101906103dc9190611f56565b610e03565b005b3480156103ef57600080fd5b5061040a60048036038101906104059190611e2c565b611027565b6040516104179190611e87565b60405180910390f35b34801561042c57600080fd5b5061044760048036038101906104429190611e2c565b611112565b6040516104549190611e87565b60405180910390f35b34801561046957600080fd5b50610484600480360381019061047f9190611f56565b611130565b6040516104979796959493929190612131565b60405180910390f35b3480156104ac57600080fd5b506104b5611237565b6040516104c29190611eb1565b60405180910390f35b3480156104d757600080fd5b506104e0611244565b6040516104ed919061206e565b60405180910390f35b34801561050257600080fd5b5061051d600480360381019061051891906121a7565b6112d9565b60405161052a9190611eb1565b60405180910390f35b34801561053f57600080fd5b50610548611360565b6040516105559190611eb1565b60405180910390f35b34801561056a57600080fd5b5061058560048036038101906105809190611f83565b611366565b005b6105a1600480360381019061059c919061231c565b61145e565b6040516105ae9190611eb1565b60405180910390f35b6060600380546105c6906123ce565b80601f01602080910402602001604051908101604052809291908181526020018280546105f2906123ce565b801561063f5780601f106106145761010080835404028352916020019161063f565b820191906000526020600020905b81548152906001019060200180831161062257829003601f168201915b5050505050905090565b600061065d6106566114d5565b84846114dd565b6001905092915050565b6000600254905090565b600061067e8484846116a8565b6000600160008673ffffffffffffffffffffffffffffffffffffffff1673ffffffffffffffffffffffffffffffffffffffff16815260200190815260200160002060006106c96114d5565b73ffffffffffffffffffffffffffffffffffffffff1673ffffffffffffffffffffffffffffffffffffffff16815260200190815260200160002054905082811015610749576040517f08c379a000000000000000000000000000000000000000000000000000000000815260040161074090612472565b60405180910390fd5b61075d856107556114d5565b8584036114dd565b60019150509392505050565b60006012905090565b600061081461077f6114d5565b84846001600061078d6114d5565b73ffffffffffffffffffffffffffffffffffffffff1673ffffffffffffffffffffffffffffffffffffffff16815260200190815260200160002060008873ffffffffffffffffffffffffffffffffffffffff1673ffffffffffffffffffffffffffffffffffffffff1681526020019081526020016000205461080f91906124c1565b6114dd565b6001905092915050565b60008160006007828154811061083757610836612517565b5b90600052602060002090600702016040518060e0016040529081600082015481526020016001820160009054906101000a900473ffffffffffffffffffffffffffffffffffffffff1673ffffffffffffffffffffffffffffffffffffffff1673ffffffffffffffffffffffffffffffffffffffff1681526020016002820180546108c0906123ce565b80601f01602080910402602001604051908101604052809291908181526020018280546108ec906123ce565b80156109395780601f1061090e57610100808354040283529160200191610939565b820191906000526020600020905b81548152906001019060200180831161091c57829003601f168201915b505050505081526020016003820154815260200160048201548152602001600582015481526020016006820160009054906101000a900460ff166001811115610985576109846120ba565b5b6001811115610997576109966120ba565b5b815250509050600060018111156109b1576109b06120ba565b5b8160c0015160018111156109c8576109c76120ba565b5b1480156109d85750806080015142105b6109e157600080fd5b83600060086000838152602001908152602001600020905060008160003373ffffffffffffffffffffffffffffffffffffffff1673ffffffffffffffffffffffffffffffffffffffff1681526020019081526020016000205414610a4457600080fd5b6000600860008881526020019081526020016000209050428160003373ffffffffffffffffffffffffffffffffffffffff1673ffffffffffffffffffffffffffffffffffffffff16815260200190815260200160002081905550600960003373ffffffffffffffffffffffffffffffffffffffff1673ffffffffffffffffffffffffffffffffffffffff1681526020019081526020016000208790806001815401808255809150506001900390600052602060002001600090919091909150557f16c02eafd4a170f62c09971fefa1b5aeaaffab6305564bb18a72a6150daa764e873342604051610b3793929190612546565b60405180910390a1600195505050505050919050565b60008060008373ffffffffffffffffffffffffffffffffffffffff1673ffffffffffffffffffffffffffffffffffffffff168152602001908152602001600020549050919050565b610b9d6114d5565b73ffffffffffffffffffffffffffffffffffffffff16610bbb610cb2565b73ffffffffffffffffffffffffffffffffffffffff1614610c11576040517f08c379a0000000000000000000000000000000000000000000000000000000008152600401610c08906125c9565b60405180910390fd5b610c1b6000611929565b565b6060600a60003373ffffffffffffffffffffffffffffffffffffffff1673ffffffffffffffffffffffffffffffffffffffff168152602001908152602001600020805480602002602001604051908101604052809291908181526020018280548015610ca857602002820191906000526020600020905b815481526020019060010190808311610c94575b5050505050905090565b6000600560009054906101000a900473ffffffffffffffffffffffffffffffffffffffff16905090565b6060600960003373ffffffffffffffffffffffffffffffffffffffff1673ffffffffffffffffffffffffffffffffffffffff168152602001908152602001600020805480602002602001604051908101604052809291908181526020018280548015610d6757602002820191906000526020600020905b815481526020019060010190808311610d53575b5050505050905090565b606060048054610d80906123ce565b80601f0160208091040260200160405190810160405280929190818152602001828054610dac906123ce565b8015610df95780601f10610dce57610100808354040283529160200191610df9565b820191906000526020600020905b815481529060010190602001808311610ddc57829003601f168201915b5050505050905090565b803373ffffffffffffffffffffffffffffffffffffffff16600d600083815260200190815260200160002060009054906101000a900473ffffffffffffffffffffffffffffffffffffffff1673ffffffffffffffffffffffffffffffffffffffff1614610e6f57600080fd5b81600060078281548110610e8657610e85612517565b5b90600052602060002090600702016040518060e0016040529081600082015481526020016001820160009054906101000a900473ffffffffffffffffffffffffffffffffffffffff1673ffffffffffffffffffffffffffffffffffffffff1673ffffffffffffffffffffffffffffffffffffffff168152602001600282018054610f0f906123ce565b80601f0160208091040260200160405190810160405280929190818152602001828054610f3b906123ce565b8015610f885780601f10610f5d57610100808354040283529160200191610f88565b820191906000526020600020905b815481529060010190602001808311610f6b57829003601f168201915b505050505081526020016003820154815260200160048201548152602001600582015481526020016006820160009054906101000a900460ff166001811115610fd457610fd36120ba565b5b6001811115610fe657610fe56120ba565b5b815250509050600180811115610fff57610ffe6120ba565b5b8160c001516001811115611016576110156120ba565b5b141561102157600080fd5b50505050565b600080600160006110366114d5565b73ffffffffffffffffffffffffffffffffffffffff1673ffffffffffffffffffffffffffffffffffffffff16815260200190815260200160002060008573ffffffffffffffffffffffffffffffffffffffff1673ffffffffffffffffffffffffffffffffffffffff168152602001908152602001600020549050828110156110f3576040517f08c379a00000000000000000000000000000000000000000000000000000000081526004016110ea9061265b565b60405180910390fd5b6111076110fe6114d5565b858584036114dd565b600191505092915050565b600061112661111f6114d5565b84846116a8565b6001905092915050565b6007818154811061114057600080fd5b90600052602060002090600702016000915090508060000154908060010160009054906101000a900473ffffffffffffffffffffffffffffffffffffffff169080600201805461118f906123ce565b80601f01602080910402602001604051908101604052809291908181526020018280546111bb906123ce565b80156112085780601f106111dd57610100808354040283529160200191611208565b820191906000526020600020905b8154815290600101906020018083116111eb57829003601f168201915b5050505050908060030154908060040154908060050154908060060160009054906101000a900460ff16905087565b6000600780549050905090565b6060600c60003373ffffffffffffffffffffffffffffffffffffffff1673ffffffffffffffffffffffffffffffffffffffff1681526020019081526020016000208054806020026020016040519081016040528092919081815260200182805480156112cf57602002820191906000526020600020905b8154815260200190600101908083116112bb575b5050505050905090565b6000600160008473ffffffffffffffffffffffffffffffffffffffff1673ffffffffffffffffffffffffffffffffffffffff16815260200190815260200160002060008373ffffffffffffffffffffffffffffffffffffffff1673ffffffffffffffffffffffffffffffffffffffff16815260200190815260200160002054905092915050565b60065481565b61136e6114d5565b73ffffffffffffffffffffffffffffffffffffffff1661138c610cb2565b73ffffffffffffffffffffffffffffffffffffffff16146113e2576040517f08c379a00000000000000000000000000000000000000000000000000000000081526004016113d9906125c9565b60405180910390fd5b600073ffffffffffffffffffffffffffffffffffffffff168173ffffffffffffffffffffffffffffffffffffffff161415611452576040517f08c379a0000000000000000000000000000000000000000000000000000000008152600401611449906126ed565b60405180910390fd5b61145b81611929565b50565b600060065434101561146f57600080fd5b600061147d868686866119ef565b90506114913361148b610cb2565b34610671565b507fd15269fdc42e19a3cfa35959665426fe1c8e40dd95b212dba9adcc576342b1cd816040516114c19190611eb1565b60405180910390a180915050949350505050565b600033905090565b600073ffffffffffffffffffffffffffffffffffffffff168373ffffffffffffffffffffffffffffffffffffffff16141561154d576040517f08c379a00000000000000000000000000000000000000000000000000000000081526004016115449061277f565b60405180910390fd5b600073ffffffffffffffffffffffffffffffffffffffff168273ffffffffffffffffffffffffffffffffffffffff1614156115bd576040517f08c379a00000000000000000000000000000000000000000000000000000000081526004016115b490612811565b60405180910390fd5b80600160008573ffffffffffffffffffffffffffffffffffffffff1673ffffffffffffffffffffffffffffffffffffffff16815260200190815260200160002060008473ffffffffffffffffffffffffffffffffffffffff1673ffffffffffffffffffffffffffffffffffffffff168152602001908152602001600020819055508173ffffffffffffffffffffffffffffffffffffffff168373ffffffffffffffffffffffffffffffffffffffff167f8c5be1e5ebec7d5bd14f71427d1e84f3dd0314c0f7b2291e5b200ac8c7c3b9258360405161169b9190611eb1565b60405180910390a3505050565b600073ffffffffffffffffffffffffffffffffffffffff168373ffffffffffffffffffffffffffffffffffffffff161415611718576040517f08c379a000000000000000000000000000000000000000000000000000000000815260040161170f906128a3565b60405180910390fd5b600073ffffffffffffffffffffffffffffffffffffffff168273ffffffffffffffffffffffffffffffffffffffff161415611788576040517f08c379a000000000000000000000000000000000000000000000000000000000815260040161177f90612935565b60405180910390fd5b611793838383611c0f565b60008060008573ffffffffffffffffffffffffffffffffffffffff1673ffffffffffffffffffffffffffffffffffffffff16815260200190815260200160002054905081811015611819576040517f08c379a0000000000000000000000000000000000000000000000000000000008152600401611810906129c7565b60405180910390fd5b8181036000808673ffffffffffffffffffffffffffffffffffffffff1673ffffffffffffffffffffffffffffffffffffffff16815260200190815260200160002081905550816000808573ffffffffffffffffffffffffffffffffffffffff1673ffffffffffffffffffffffffffffffffffffffff16815260200190815260200160002060008282546118ac91906124c1565b925050819055508273ffffffffffffffffffffffffffffffffffffffff168473ffffffffffffffffffffffffffffffffffffffff167fddf252ad1be2c89b69c2b068fc378daa952ba7f163c4a11628f55a4df523b3ef846040516119109190611eb1565b60405180910390a3611923848484611c14565b50505050565b6000600560009054906101000a900473ffffffffffffffffffffffffffffffffffffffff16905081600560006101000a81548173ffffffffffffffffffffffffffffffffffffffff021916908373ffffffffffffffffffffffffffffffffffffffff1602179055508173ffffffffffffffffffffffffffffffffffffffff168173ffffffffffffffffffffffffffffffffffffffff167f8be0079c531659141344cd1fd0a4f28419497f9722a3daafe3b4186f6b6457e060405160405180910390a35050565b6000806119fa611c19565b905060006040518060e001604052808381526020013373ffffffffffffffffffffffffffffffffffffffff16815260200188815260200187815260200186815260200185815260200160006001811115611a5757611a566120ba565b5b815250905060078190806001815401808255809150506001900390600052602060002090600702016000909190919091506000820151816000015560208201518160010160006101000a81548173ffffffffffffffffffffffffffffffffffffffff021916908373ffffffffffffffffffffffffffffffffffffffff1602179055506040820151816002019080519060200190611af5929190611c26565b50606082015181600301556080820151816004015560a0820151816005015560c08201518160060160006101000a81548160ff02191690836001811115611b3f57611b3e6120ba565b5b02179055505050600c60003373ffffffffffffffffffffffffffffffffffffffff1673ffffffffffffffffffffffffffffffffffffffff16815260200190815260200160002082908060018154018082558091505060019003906000526020600020016000909190919091505533600d600084815260200190815260200160002060006101000a81548173ffffffffffffffffffffffffffffffffffffffff021916908373ffffffffffffffffffffffffffffffffffffffff160217905550806000015192505050949350505050565b505050565b505050565b6000600780549050905090565b828054611c32906123ce565b90600052602060002090601f016020900481019282611c545760008555611c9b565b82601f10611c6d57805160ff1916838001178555611c9b565b82800160010185558215611c9b579182015b82811115611c9a578251825591602001919060010190611c7f565b5b509050611ca89190611cac565b5090565b5b80821115611cc5576000816000905550600101611cad565b5090565b600081519050919050565b600082825260208201905092915050565b60005b83811015611d03578082015181840152602081019050611ce8565b83811115611d12576000848401525b50505050565b6000601f19601f8301169050919050565b6000611d3482611cc9565b611d3e8185611cd4565b9350611d4e818560208601611ce5565b611d5781611d18565b840191505092915050565b60006020820190508181036000830152611d7c8184611d29565b905092915050565b6000604051905090565b600080fd5b600080fd5b600073ffffffffffffffffffffffffffffffffffffffff82169050919050565b6000611dc382611d98565b9050919050565b611dd381611db8565b8114611dde57600080fd5b50565b600081359050611df081611dca565b92915050565b6000819050919050565b611e0981611df6565b8114611e1457600080fd5b50565b600081359050611e2681611e00565b92915050565b60008060408385031215611e4357611e42611d8e565b5b6000611e5185828601611de1565b9250506020611e6285828601611e17565b9150509250929050565b60008115159050919050565b611e8181611e6c565b82525050565b6000602082019050611e9c6000830184611e78565b92915050565b611eab81611df6565b82525050565b6000602082019050611ec66000830184611ea2565b92915050565b600080600060608486031215611ee557611ee4611d8e565b5b6000611ef386828701611de1565b9350506020611f0486828701611de1565b9250506040611f1586828701611e17565b9150509250925092565b600060ff82169050919050565b611f3581611f1f565b82525050565b6000602082019050611f506000830184611f2c565b92915050565b600060208284031215611f6c57611f6b611d8e565b5b6000611f7a84828501611e17565b91505092915050565b600060208284031215611f9957611f98611d8e565b5b6000611fa784828501611de1565b91505092915050565b600081519050919050565b600082825260208201905092915050565b6000819050602082019050919050565b611fe581611df6565b82525050565b6000611ff78383611fdc565b60208301905092915050565b6000602082019050919050565b600061201b82611fb0565b6120258185611fbb565b935061203083611fcc565b8060005b838110156120615781516120488882611feb565b975061205383612003565b925050600181019050612034565b5085935050505092915050565b600060208201905081810360008301526120888184612010565b905092915050565b61209981611db8565b82525050565b60006020820190506120b46000830184612090565b92915050565b7f4e487b7100000000000000000000000000000000000000000000000000000000600052602160045260246000fd5b600281106120fa576120f96120ba565b5b50565b600081905061210b826120e9565b919050565b600061211b826120fd565b9050919050565b61212b81612110565b82525050565b600060e082019050612146600083018a611ea2565b6121536020830189612090565b81810360408301526121658188611d29565b90506121746060830187611ea2565b6121816080830186611ea2565b61218e60a0830185611ea2565b61219b60c0830184612122565b98975050505050505050565b600080604083850312156121be576121bd611d8e565b5b60006121cc85828601611de1565b92505060206121dd85828601611de1565b9150509250929050565b600080fd5b600080fd5b7f4e487b7100000000000000000000000000000000000000000000000000000000600052604160045260246000fd5b61222982611d18565b810181811067ffffffffffffffff82111715612248576122476121f1565b5b80604052505050565b600061225b611d84565b90506122678282612220565b919050565b600067ffffffffffffffff821115612287576122866121f1565b5b61229082611d18565b9050602081019050919050565b82818337600083830152505050565b60006122bf6122ba8461226c565b612251565b9050828152602081018484840111156122db576122da6121ec565b5b6122e684828561229d565b509392505050565b600082601f830112612303576123026121e7565b5b81356123138482602086016122ac565b91505092915050565b6000806000806080858703121561233657612335611d8e565b5b600085013567ffffffffffffffff81111561235457612353611d93565b5b612360878288016122ee565b945050602061237187828801611e17565b935050604061238287828801611e17565b925050606061239387828801611e17565b91505092959194509250565b7f4e487b7100000000000000000000000000000000000000000000000000000000600052602260045260246000fd5b600060028204905060018216806123e657607f821691505b602082108114156123fa576123f961239f565b5b50919050565b7f45524332303a207472616e7366657220616d6f756e742065786365656473206160008201527f6c6c6f77616e6365000000000000000000000000000000000000000000000000602082015250565b600061245c602883611cd4565b915061246782612400565b604082019050919050565b6000602082019050818103600083015261248b8161244f565b9050919050565b7f4e487b7100000000000000000000000000000000000000000000000000000000600052601160045260246000fd5b60006124cc82611df6565b91506124d783611df6565b9250827fffffffffffffffffffffffffffffffffffffffffffffffffffffffffffffffff0382111561250c5761250b612492565b5b828201905092915050565b7f4e487b7100000000000000000000000000000000000000000000000000000000600052603260045260246000fd5b600060608201905061255b6000830186611ea2565b6125686020830185612090565b6125756040830184611ea2565b949350505050565b7f4f776e61626c653a2063616c6c6572206973206e6f7420746865206f776e6572600082015250565b60006125b3602083611cd4565b91506125be8261257d565b602082019050919050565b600060208201905081810360008301526125e2816125a6565b9050919050565b7f45524332303a2064656372656173656420616c6c6f77616e63652062656c6f7760008201527f207a65726f000000000000000000000000000000000000000000000000000000602082015250565b6000612645602583611cd4565b9150612650826125e9565b604082019050919050565b6000602082019050818103600083015261267481612638565b9050919050565b7f4f776e61626c653a206e6577206f776e657220697320746865207a65726f206160008201527f6464726573730000000000000000000000000000000000000000000000000000602082015250565b60006126d7602683611cd4565b91506126e28261267b565b604082019050919050565b60006020820190508181036000830152612706816126ca565b9050919050565b7f45524332303a20617070726f76652066726f6d20746865207a65726f2061646460008201527f7265737300000000000000000000000000000000000000000000000000000000602082015250565b6000612769602483611cd4565b91506127748261270d565b604082019050919050565b600060208201905081810360008301526127988161275c565b9050919050565b7f45524332303a20617070726f766520746f20746865207a65726f20616464726560008201527f7373000000000000000000000000000000000000000000000000000000000000602082015250565b60006127fb602283611cd4565b91506128068261279f565b604082019050919050565b6000602082019050818103600083015261282a816127ee565b9050919050565b7f45524332303a207472616e736665722066726f6d20746865207a65726f20616460008201527f6472657373000000000000000000000000000000000000000000000000000000602082015250565b600061288d602583611cd4565b915061289882612831565b604082019050919050565b600060208201905081810360008301526128bc81612880565b9050919050565b7f45524332303a207472616e7366657220746f20746865207a65726f206164647260008201527f6573730000000000000000000000000000000000000000000000000000000000602082015250565b600061291f602383611cd4565b915061292a826128c3565b604082019050919050565b6000602082019050818103600083015261294e81612912565b9050919050565b7f45524332303a207472616e7366657220616d6f756e742065786365656473206260008201527f616c616e63650000000000000000000000000000000000000000000000000000602082015250565b60006129b1602683611cd4565b91506129bc82612955565b604082019050919050565b600060208201905081810360008301526129e0816129a4565b905091905056fea26469706673582212201eef62dab52e66e57f982f94be77b005ff6eb5dc6640c09e0b5ac1ad4668998964736f6c634300080a0033",
  "immutableReferences": {},
  "source": "// SPDX-License-Identifier: MIT\r\npragma solidity ^0.8.0;\r\n\r\nimport \"@openzeppelin/contracts/token/ERC20/ERC20.sol\";\r\nimport \"@openzeppelin/contracts/access/Ownable.sol\";\r\n\r\ncontract SignMeUp is ERC20, Ownable {\r\n\r\n  uint256 public entryPriceWei;\r\n\r\n  // All entries\r\n  SignUpEventEntry[] public entries;\r\n\r\n  // Mapping of registered addresses by registration date for given entry\r\n  mapping (uint256 => mapping(address => uint256)) private entryRegistrationTimestamps;\r\n\r\n  // Entries which user registered for\r\n  mapping (address => uint256[]) private registrantEntries;\r\n\r\n  // Entries which user was selected for\r\n  mapping (address => uint256[]) private participantEntries;\r\n\r\n  // Registrants for given SignUpEventEntry\r\n  mapping (uint256 => address[]) private entryParticipants;\r\n\r\n  // Entries which Organizer created\r\n  mapping (address => uint256[]) private organizerEntries;\r\n  // Organizer of given SignUpEventEntry\r\n  mapping (uint256 => address) private entryOrganizer;\r\n\r\n  ////// Enums //////\r\n  enum State {Active, Closed}\r\n\r\n  ////// Events //////\r\n  event LogEntryCreated(uint256 id);\r\n  event LogRegistered(uint256 id, address who, uint256 when);\r\n\r\n  ////// Modifiers //////\r\n  modifier isActive(uint256 _eventId) {\r\n    SignUpEventEntry memory eventEntry = entries[_eventId];\r\n    require(eventEntry.state == State.Active && block.timestamp < eventEntry.registrationDueDate);\r\n    _;\r\n  }\r\n\r\n  modifier isNotClosed(uint256 _eventId) {\r\n    SignUpEventEntry memory eventEntry = entries[_eventId];\r\n    require(eventEntry.state != State.Closed);\r\n    _;\r\n  }\r\n\r\n  modifier notYetRegistered(uint256 _eventId) {\r\n    mapping(address => uint256) storage registrationTimestamps = entryRegistrationTimestamps[_eventId];\r\n    require(registrationTimestamps[msg.sender] == 0);\r\n    _;\r\n  }\r\n\r\n  modifier isOrganizer(uint256 _eventId) {\r\n    require(entryOrganizer[_eventId] == msg.sender);\r\n    _;\r\n  }\r\n\r\n  modifier paidEnough() {\r\n    require(msg.value >= entryPriceWei);\r\n    _;\r\n  }\r\n\r\n  ////// Structs //////\r\n  struct SignUpEventEntry {\r\n    uint256 id;\r\n    address organizer;\r\n    string title;\r\n    uint256 spots;\r\n    uint256 registrationDueDate;\r\n    uint256 eventDate;\r\n    State state;\r\n  }\r\n\r\n  constructor() ERC20(\"SignMeUp\", \"SMU\") {\r\n    entryPriceWei = 50_000 * 1_000_000_000;\r\n    // Test entries\r\n    newSignUpEventEntryOf(\"Event 1\", 10, 10000, 20000);\r\n    newSignUpEventEntryOf(\"Event 2\", 12, 100000, 200000);\r\n    newSignUpEventEntryOf(\"Event 3\", 23, 10000000, 20000000);\r\n  }\r\n\r\n  ////// Common functions //////\r\n\r\n  function getEntriesCount() public view returns(uint256) {\r\n    return entries.length;\r\n  }\r\n\r\n  ////// Organizer functions\r\n  function createNewSignUpEventEntry(string memory _title, uint _spots, uint _registrationDueDate, uint _eventDate)\r\n    public\r\n    payable\r\n    paidEnough()\r\n    returns (uint256) {\r\n\r\n      uint256 id = newSignUpEventEntryOf(_title, _spots, _registrationDueDate, _eventDate);\r\n\r\n      transferFrom(msg.sender, owner(), msg.value);\r\n      emit LogEntryCreated(id);\r\n\r\n      return id;\r\n  }\r\n\r\n  function newSignUpEventEntryOf(string memory _title, uint _spots, uint _registrationDueDate, uint _eventDate)\r\n    private\r\n    returns (uint256) {\r\n\r\n      uint256 newId = nextEntryId();\r\n\r\n      SignUpEventEntry memory entry = SignUpEventEntry({\r\n        id: newId,\r\n        organizer: msg.sender,\r\n        title: _title,\r\n        spots: _spots,\r\n        registrationDueDate: _registrationDueDate,\r\n        eventDate: _eventDate,\r\n        state: State.Active\r\n      });\r\n\r\n      entries.push(entry);\r\n      organizerEntries[msg.sender].push(newId);\r\n      entryOrganizer[newId] = msg.sender;\r\n\r\n      return entry.id;\r\n  }\r\n\r\n  function nextEntryId() private view returns(uint256) {\r\n    // TODO maybe better id generator??\r\n    return entries.length;\r\n  }\r\n\r\n  function getOrganizerEntryIds() public view returns(uint256[] memory) {\r\n    return organizerEntries[msg.sender];\r\n  }\r\n\r\n  function randomlyChooseEventParticipants(uint256 _eventId)\r\n    public\r\n    isOrganizer(_eventId)\r\n    isNotClosed(_eventId) {\r\n      // TODO use some 'random' oracle, choose participants from registeres users and change state to Closed\r\n  }\r\n\r\n  ////// Registrant functions //////\r\n  function registerForEvent(uint256 _eventId)\r\n    public\r\n    isActive(_eventId)\r\n    notYetRegistered(_eventId)\r\n    returns(bool) {\r\n\r\n    mapping(address => uint) storage registrationTimestamps = entryRegistrationTimestamps[_eventId];\r\n    registrationTimestamps[msg.sender] = block.timestamp;\r\n    registrantEntries[msg.sender].push(_eventId);\r\n\r\n    emit LogRegistered(_eventId, msg.sender, block.timestamp);\r\n\r\n    return true;\r\n  }\r\n\r\n  function getEntriesUserRegisteredFor() public view returns(uint256[] memory) {\r\n    return registrantEntries[msg.sender];\r\n  }\r\n\r\n  function getEntriesUserSelectedFor() public view returns(uint256[] memory) {\r\n    return participantEntries[msg.sender];\r\n  }\r\n\r\n  // ### Utils ###\r\n  // #############\r\n\r\n  function nonSecureRandom() private view returns (uint256) {\r\n    return uint256(keccak256(\r\n      abi.encodePacked(block.timestamp, block.difficulty)\r\n    ));\r\n  }\r\n  // ### Utils - end ###\r\n}\r\n",
  "sourcePath": "/mnt/c/Dev/workspace/consensys/final/blockchain-developer-bootcamp-final-project/contracts/SignMeUp.sol",
  "compiler": {
    "name": "solc",
    "version": "0.8.10+commit.fc410830.Emscripten.clang"
  },
  "schemaVersion": "3.4.3",
  "updatedAt": "2021-11-12T12:55:14.600Z",
  "networkType": "ethereum",
  "devdoc": {
    "kind": "dev",
    "methods": {
      "allowance(address,address)": {
        "details": "See {IERC20-allowance}."
      },
      "approve(address,uint256)": {
        "details": "See {IERC20-approve}. Requirements: - `spender` cannot be the zero address."
      },
      "balanceOf(address)": {
        "details": "See {IERC20-balanceOf}."
      },
      "decimals()": {
        "details": "Returns the number of decimals used to get its user representation. For example, if `decimals` equals `2`, a balance of `505` tokens should be displayed to a user as `5.05` (`505 / 10 ** 2`). Tokens usually opt for a value of 18, imitating the relationship between Ether and Wei. This is the value {ERC20} uses, unless this function is overridden; NOTE: This information is only used for _display_ purposes: it in no way affects any of the arithmetic of the contract, including {IERC20-balanceOf} and {IERC20-transfer}."
      },
      "decreaseAllowance(address,uint256)": {
        "details": "Atomically decreases the allowance granted to `spender` by the caller. This is an alternative to {approve} that can be used as a mitigation for problems described in {IERC20-approve}. Emits an {Approval} event indicating the updated allowance. Requirements: - `spender` cannot be the zero address. - `spender` must have allowance for the caller of at least `subtractedValue`."
      },
      "increaseAllowance(address,uint256)": {
        "details": "Atomically increases the allowance granted to `spender` by the caller. This is an alternative to {approve} that can be used as a mitigation for problems described in {IERC20-approve}. Emits an {Approval} event indicating the updated allowance. Requirements: - `spender` cannot be the zero address."
      },
      "name()": {
        "details": "Returns the name of the token."
      },
      "owner()": {
        "details": "Returns the address of the current owner."
      },
      "renounceOwnership()": {
        "details": "Leaves the contract without owner. It will not be possible to call `onlyOwner` functions anymore. Can only be called by the current owner. NOTE: Renouncing ownership will leave the contract without an owner, thereby removing any functionality that is only available to the owner."
      },
      "symbol()": {
        "details": "Returns the symbol of the token, usually a shorter version of the name."
      },
      "totalSupply()": {
        "details": "See {IERC20-totalSupply}."
      },
      "transfer(address,uint256)": {
        "details": "See {IERC20-transfer}. Requirements: - `recipient` cannot be the zero address. - the caller must have a balance of at least `amount`."
      },
      "transferFrom(address,address,uint256)": {
        "details": "See {IERC20-transferFrom}. Emits an {Approval} event indicating the updated allowance. This is not required by the EIP. See the note at the beginning of {ERC20}. Requirements: - `sender` and `recipient` cannot be the zero address. - `sender` must have a balance of at least `amount`. - the caller must have allowance for ``sender``'s tokens of at least `amount`."
      },
      "transferOwnership(address)": {
        "details": "Transfers ownership of the contract to a new account (`newOwner`). Can only be called by the current owner."
      }
    },
    "version": 1
  },
  "userdoc": {
    "kind": "user",
    "methods": {},
    "version": 1
  }
}