{
  "contractName": "SignMeUp",
  "abi": [
    {
      "inputs": [],
      "stateMutability": "nonpayable",
      "type": "constructor"
    },
    {
      "anonymous": false,
      "inputs": [
        {
          "indexed": true,
          "internalType": "address",
          "name": "owner",
          "type": "address"
        },
        {
          "indexed": true,
          "internalType": "address",
          "name": "spender",
          "type": "address"
        },
        {
          "indexed": false,
          "internalType": "uint256",
          "name": "value",
          "type": "uint256"
        }
      ],
      "name": "Approval",
      "type": "event"
    },
    {
      "anonymous": false,
      "inputs": [
        {
          "indexed": false,
          "internalType": "uint256",
          "name": "id",
          "type": "uint256"
        },
        {
          "indexed": false,
          "internalType": "address[]",
          "name": "participants",
          "type": "address[]"
        }
      ],
      "name": "LogEntryClosed",
      "type": "event"
    },
    {
      "anonymous": false,
      "inputs": [
        {
          "indexed": false,
          "internalType": "uint256",
          "name": "id",
          "type": "uint256"
        }
      ],
      "name": "LogEntryCreated",
      "type": "event"
    },
    {
      "anonymous": false,
      "inputs": [
        {
          "indexed": false,
          "internalType": "uint256",
          "name": "id",
          "type": "uint256"
        },
        {
          "indexed": false,
          "internalType": "address",
          "name": "who",
          "type": "address"
        },
        {
          "indexed": false,
          "internalType": "uint256",
          "name": "when",
          "type": "uint256"
        }
      ],
      "name": "LogRegistered",
      "type": "event"
    },
    {
      "anonymous": false,
      "inputs": [
        {
          "indexed": true,
          "internalType": "address",
          "name": "previousOwner",
          "type": "address"
        },
        {
          "indexed": true,
          "internalType": "address",
          "name": "newOwner",
          "type": "address"
        }
      ],
      "name": "OwnershipTransferred",
      "type": "event"
    },
    {
      "anonymous": false,
      "inputs": [
        {
          "indexed": true,
          "internalType": "address",
          "name": "from",
          "type": "address"
        },
        {
          "indexed": true,
          "internalType": "address",
          "name": "to",
          "type": "address"
        },
        {
          "indexed": false,
          "internalType": "uint256",
          "name": "value",
          "type": "uint256"
        }
      ],
      "name": "Transfer",
      "type": "event"
    },
    {
      "inputs": [
        {
          "internalType": "address",
          "name": "owner",
          "type": "address"
        },
        {
          "internalType": "address",
          "name": "spender",
          "type": "address"
        }
      ],
      "name": "allowance",
      "outputs": [
        {
          "internalType": "uint256",
          "name": "",
          "type": "uint256"
        }
      ],
      "stateMutability": "view",
      "type": "function",
      "constant": true
    },
    {
      "inputs": [
        {
          "internalType": "address",
          "name": "spender",
          "type": "address"
        },
        {
          "internalType": "uint256",
          "name": "amount",
          "type": "uint256"
        }
      ],
      "name": "approve",
      "outputs": [
        {
          "internalType": "bool",
          "name": "",
          "type": "bool"
        }
      ],
      "stateMutability": "nonpayable",
      "type": "function"
    },
    {
      "inputs": [
        {
          "internalType": "address",
          "name": "account",
          "type": "address"
        }
      ],
      "name": "balanceOf",
      "outputs": [
        {
          "internalType": "uint256",
          "name": "",
          "type": "uint256"
        }
      ],
      "stateMutability": "view",
      "type": "function",
      "constant": true
    },
    {
      "inputs": [],
      "name": "decimals",
      "outputs": [
        {
          "internalType": "uint8",
          "name": "",
          "type": "uint8"
        }
      ],
      "stateMutability": "view",
      "type": "function",
      "constant": true
    },
    {
      "inputs": [
        {
          "internalType": "address",
          "name": "spender",
          "type": "address"
        },
        {
          "internalType": "uint256",
          "name": "subtractedValue",
          "type": "uint256"
        }
      ],
      "name": "decreaseAllowance",
      "outputs": [
        {
          "internalType": "bool",
          "name": "",
          "type": "bool"
        }
      ],
      "stateMutability": "nonpayable",
      "type": "function"
    },
    {
      "inputs": [
        {
          "internalType": "uint256",
          "name": "",
          "type": "uint256"
        }
      ],
      "name": "entries",
      "outputs": [
        {
          "internalType": "uint256",
          "name": "id",
          "type": "uint256"
        },
        {
          "internalType": "address",
          "name": "organizer",
          "type": "address"
        },
        {
          "internalType": "string",
          "name": "title",
          "type": "string"
        },
        {
          "internalType": "uint256",
          "name": "spots",
          "type": "uint256"
        },
        {
          "internalType": "uint64",
          "name": "registrationDueDate",
          "type": "uint64"
        },
        {
          "internalType": "uint64",
          "name": "eventDate",
          "type": "uint64"
        },
        {
          "internalType": "enum SignMeUp.State",
          "name": "state",
          "type": "uint8"
        }
      ],
      "stateMutability": "view",
      "type": "function",
      "constant": true
    },
    {
      "inputs": [
        {
          "internalType": "uint256",
          "name": "",
          "type": "uint256"
        }
      ],
      "name": "entryOrganizer",
      "outputs": [
        {
          "internalType": "address",
          "name": "",
          "type": "address"
        }
      ],
      "stateMutability": "view",
      "type": "function",
      "constant": true
    },
    {
      "inputs": [],
      "name": "entryPriceWei",
      "outputs": [
        {
          "internalType": "uint256",
          "name": "",
          "type": "uint256"
        }
      ],
      "stateMutability": "view",
      "type": "function",
      "constant": true
    },
    {
      "inputs": [
        {
          "internalType": "address",
          "name": "spender",
          "type": "address"
        },
        {
          "internalType": "uint256",
          "name": "addedValue",
          "type": "uint256"
        }
      ],
      "name": "increaseAllowance",
      "outputs": [
        {
          "internalType": "bool",
          "name": "",
          "type": "bool"
        }
      ],
      "stateMutability": "nonpayable",
      "type": "function"
    },
    {
      "inputs": [],
      "name": "name",
      "outputs": [
        {
          "internalType": "string",
          "name": "",
          "type": "string"
        }
      ],
      "stateMutability": "view",
      "type": "function",
      "constant": true
    },
    {
      "inputs": [],
      "name": "owner",
      "outputs": [
        {
          "internalType": "address",
          "name": "",
          "type": "address"
        }
      ],
      "stateMutability": "view",
      "type": "function",
      "constant": true
    },
    {
      "inputs": [],
      "name": "renounceOwnership",
      "outputs": [],
      "stateMutability": "nonpayable",
      "type": "function"
    },
    {
      "inputs": [],
      "name": "symbol",
      "outputs": [
        {
          "internalType": "string",
          "name": "",
          "type": "string"
        }
      ],
      "stateMutability": "view",
      "type": "function",
      "constant": true
    },
    {
      "inputs": [],
      "name": "totalSupply",
      "outputs": [
        {
          "internalType": "uint256",
          "name": "",
          "type": "uint256"
        }
      ],
      "stateMutability": "view",
      "type": "function",
      "constant": true
    },
    {
      "inputs": [
        {
          "internalType": "address",
          "name": "recipient",
          "type": "address"
        },
        {
          "internalType": "uint256",
          "name": "amount",
          "type": "uint256"
        }
      ],
      "name": "transfer",
      "outputs": [
        {
          "internalType": "bool",
          "name": "",
          "type": "bool"
        }
      ],
      "stateMutability": "nonpayable",
      "type": "function"
    },
    {
      "inputs": [
        {
          "internalType": "address",
          "name": "sender",
          "type": "address"
        },
        {
          "internalType": "address",
          "name": "recipient",
          "type": "address"
        },
        {
          "internalType": "uint256",
          "name": "amount",
          "type": "uint256"
        }
      ],
      "name": "transferFrom",
      "outputs": [
        {
          "internalType": "bool",
          "name": "",
          "type": "bool"
        }
      ],
      "stateMutability": "nonpayable",
      "type": "function"
    },
    {
      "inputs": [
        {
          "internalType": "address",
          "name": "newOwner",
          "type": "address"
        }
      ],
      "name": "transferOwnership",
      "outputs": [],
      "stateMutability": "nonpayable",
      "type": "function"
    },
    {
      "inputs": [],
      "name": "getEntriesCount",
      "outputs": [
        {
          "internalType": "uint256",
          "name": "",
          "type": "uint256"
        }
      ],
      "stateMutability": "view",
      "type": "function",
      "constant": true
    },
    {
      "inputs": [
        {
          "internalType": "string",
          "name": "_title",
          "type": "string"
        },
        {
          "internalType": "uint256",
          "name": "_spots",
          "type": "uint256"
        },
        {
          "internalType": "uint64",
          "name": "_registrationDueDate",
          "type": "uint64"
        },
        {
          "internalType": "uint64",
          "name": "_eventDate",
          "type": "uint64"
        }
      ],
      "name": "createNewSignUpEventEntry",
      "outputs": [
        {
          "internalType": "uint256",
          "name": "",
          "type": "uint256"
        }
      ],
      "stateMutability": "nonpayable",
      "type": "function"
    },
    {
      "inputs": [],
      "name": "getOrganizerEntriesCount",
      "outputs": [
        {
          "internalType": "uint256",
          "name": "",
          "type": "uint256"
        }
      ],
      "stateMutability": "view",
      "type": "function",
      "constant": true
    },
    {
      "inputs": [],
      "name": "getOrganizerEntries",
      "outputs": [
        {
          "components": [
            {
              "internalType": "uint256",
              "name": "id",
              "type": "uint256"
            },
            {
              "internalType": "address",
              "name": "organizer",
              "type": "address"
            },
            {
              "internalType": "string",
              "name": "title",
              "type": "string"
            },
            {
              "internalType": "uint256",
              "name": "spots",
              "type": "uint256"
            },
            {
              "internalType": "uint64",
              "name": "registrationDueDate",
              "type": "uint64"
            },
            {
              "internalType": "uint64",
              "name": "eventDate",
              "type": "uint64"
            },
            {
              "internalType": "enum SignMeUp.State",
              "name": "state",
              "type": "uint8"
            }
          ],
          "internalType": "struct SignMeUp.SignUpEventEntry[]",
          "name": "",
          "type": "tuple[]"
        }
      ],
      "stateMutability": "view",
      "type": "function",
      "constant": true
    },
    {
      "inputs": [
        {
          "internalType": "uint256",
          "name": "_eventId",
          "type": "uint256"
        }
      ],
      "name": "randomlyChooseEventParticipants",
      "outputs": [],
      "stateMutability": "nonpayable",
      "type": "function"
    },
    {
      "inputs": [
        {
          "internalType": "uint256",
          "name": "_eventId",
          "type": "uint256"
        }
      ],
      "name": "registerForEvent",
      "outputs": [
        {
          "internalType": "uint256",
          "name": "",
          "type": "uint256"
        }
      ],
      "stateMutability": "nonpayable",
      "type": "function"
    },
    {
      "inputs": [],
      "name": "getEntriesUserRegisteredFor",
      "outputs": [
        {
          "internalType": "uint256[]",
          "name": "",
          "type": "uint256[]"
        }
      ],
      "stateMutability": "view",
      "type": "function",
      "constant": true
    },
    {
      "inputs": [],
      "name": "getEntriesUserSelectedFor",
      "outputs": [
        {
          "internalType": "uint256[]",
          "name": "",
          "type": "uint256[]"
        }
      ],
      "stateMutability": "view",
      "type": "function",
      "constant": true
    }
  ],
  "bytecode": "0x60806040523480156200001157600080fd5b506040518060400160405280600881526020017f5369676e4d6555700000000000000000000000000000000000000000000000008152506040518060400160405280600381526020017f534d550000000000000000000000000000000000000000000000000000000000815250816003908051906020019062000096929190620001b3565b508060049080519060200190620000af929190620001b3565b505050620000d2620000c6620000e560201b60201c565b620000ed60201b60201c565b652d79883d2000600681905550620002c8565b600033905090565b6000600560009054906101000a900473ffffffffffffffffffffffffffffffffffffffff16905081600560006101000a81548173ffffffffffffffffffffffffffffffffffffffff021916908373ffffffffffffffffffffffffffffffffffffffff1602179055508173ffffffffffffffffffffffffffffffffffffffff168173ffffffffffffffffffffffffffffffffffffffff167f8be0079c531659141344cd1fd0a4f28419497f9722a3daafe3b4186f6b6457e060405160405180910390a35050565b828054620001c19062000292565b90600052602060002090601f016020900481019282620001e5576000855562000231565b82601f106200020057805160ff191683800117855562000231565b8280016001018555821562000231579182015b828111156200023057825182559160200191906001019062000213565b5b50905062000240919062000244565b5090565b5b808211156200025f57600081600090555060010162000245565b5090565b7f4e487b7100000000000000000000000000000000000000000000000000000000600052602260045260246000fd5b60006002820490506001821680620002ab57607f821691505b60208210811415620002c257620002c162000263565b5b50919050565b61351c80620002d86000396000f3fe608060405234801561001057600080fd5b50600436106101735760003560e01c8063942aa7e1116100de578063ca54ad8511610097578063dd62ed3e11610071578063dd62ed3e14610480578063e2f68330146104b0578063ebacab38146104ce578063f2fde38b146104fe57610173565b8063ca54ad8514610414578063d09685b014610432578063db8a70381461045057610173565b8063942aa7e11461032657806395d89b41146103445780639c57140214610362578063a457c2d71461037e578063a9059cbb146103ae578063b30906d4146103de57610173565b806339509351116101305780633950935114610250578063406db8431461028057806370a08231146102b0578063715018a6146102e0578063772a6fce146102ea5780638da5cb5b1461030857610173565b806306fdde0314610178578063095ea7b31461019657806318160ddd146101c657806322d9b428146101e457806323b872dd14610202578063313ce56714610232575b600080fd5b61018061051a565b60405161018d91906124f3565b60405180910390f35b6101b060048036038101906101ab91906125bd565b6105ac565b6040516101bd9190612618565b60405180910390f35b6101ce6105ca565b6040516101db9190612642565b60405180910390f35b6101ec6105d4565b6040516101f99190612642565b60405180910390f35b61021c6004803603810190610217919061265d565b61061b565b6040516102299190612618565b60405180910390f35b61023a610713565b60405161024791906126cc565b60405180910390f35b61026a600480360381019061026591906125bd565b61071c565b6040516102779190612618565b60405180910390f35b61029a600480360381019061029591906126e7565b6107c8565b6040516102a79190612642565b60405180910390f35b6102ca60048036038101906102c59190612714565b610c38565b6040516102d79190612642565b60405180910390f35b6102e8610c80565b005b6102f2610d08565b6040516102ff91906127ff565b60405180910390f35b610310610d9d565b60405161031d9190612830565b60405180910390f35b61032e610dc7565b60405161033b91906127ff565b60405180910390f35b61034c610e5c565b60405161035991906124f3565b60405180910390f35b61037c600480360381019061037791906126e7565b610eee565b005b610398600480360381019061039391906125bd565b611385565b6040516103a59190612618565b60405180910390f35b6103c860048036038101906103c391906125bd565b611470565b6040516103d59190612618565b60405180910390f35b6103f860048036038101906103f391906126e7565b61148e565b60405161040b97969594939291906128e5565b60405180910390f35b61041c6115bd565b6040516104299190612b30565b60405180910390f35b61043a6118f5565b6040516104479190612642565b60405180910390f35b61046a600480360381019061046591906126e7565b611902565b6040516104779190612830565b60405180910390f35b61049a60048036038101906104959190612b52565b611935565b6040516104a79190612642565b60405180910390f35b6104b86119bc565b6040516104c59190612642565b60405180910390f35b6104e860048036038101906104e39190612cf3565b6119c2565b6040516104f59190612642565b60405180910390f35b61051860048036038101906105139190612714565b611a16565b005b60606003805461052990612da5565b80601f016020809104026020016040519081016040528092919081815260200182805461055590612da5565b80156105a25780601f10610577576101008083540402835291602001916105a2565b820191906000526020600020905b81548152906001019060200180831161058557829003601f168201915b5050505050905090565b60006105c06105b9611b0e565b8484611b16565b6001905092915050565b6000600254905090565b6000600d60003373ffffffffffffffffffffffffffffffffffffffff1673ffffffffffffffffffffffffffffffffffffffff16815260200190815260200160002054905090565b6000610628848484611ce1565b6000600160008673ffffffffffffffffffffffffffffffffffffffff1673ffffffffffffffffffffffffffffffffffffffff1681526020019081526020016000206000610673611b0e565b73ffffffffffffffffffffffffffffffffffffffff1673ffffffffffffffffffffffffffffffffffffffff168152602001908152602001600020549050828110156106f3576040517f08c379a00000000000000000000000000000000000000000000000000000000081526004016106ea90612e49565b60405180910390fd5b610707856106ff611b0e565b858403611b16565b60019150509392505050565b60006012905090565b60006107be610729611b0e565b848460016000610737611b0e565b73ffffffffffffffffffffffffffffffffffffffff1673ffffffffffffffffffffffffffffffffffffffff16815260200190815260200160002060008873ffffffffffffffffffffffffffffffffffffffff1673ffffffffffffffffffffffffffffffffffffffff168152602001908152602001600020546107b99190612e98565b611b16565b6001905092915050565b6000816000600782815481106107e1576107e0612eee565b5b90600052602060002090600502016040518060e0016040529081600082015481526020016001820160009054906101000a900473ffffffffffffffffffffffffffffffffffffffff1673ffffffffffffffffffffffffffffffffffffffff1673ffffffffffffffffffffffffffffffffffffffff16815260200160028201805461086a90612da5565b80601f016020809104026020016040519081016040528092919081815260200182805461089690612da5565b80156108e35780601f106108b8576101008083540402835291602001916108e3565b820191906000526020600020905b8154815290600101906020018083116108c657829003601f168201915b50505050508152602001600382015481526020016004820160009054906101000a900467ffffffffffffffff1667ffffffffffffffff1667ffffffffffffffff1681526020016004820160089054906101000a900467ffffffffffffffff1667ffffffffffffffff1667ffffffffffffffff1681526020016004820160109054906101000a900460ff16600181111561097f5761097e61286e565b5b60018111156109915761099061286e565b5b815250509050600060018111156109ab576109aa61286e565b5b8160c0015160018111156109c2576109c161286e565b5b1480156109dc5750806080015167ffffffffffffffff1642105b6109e557600080fd5b83600060086000838152602001908152602001600020905060008160003373ffffffffffffffffffffffffffffffffffffffff1673ffffffffffffffffffffffffffffffffffffffff1681526020019081526020016000205414610a4857600080fd5b853373ffffffffffffffffffffffffffffffffffffffff16600e600083815260200190815260200160002060009054906101000a900473ffffffffffffffffffffffffffffffffffffffff1673ffffffffffffffffffffffffffffffffffffffff161415610ab557600080fd5b60004290506000600860008a81526020019081526020016000209050818160003373ffffffffffffffffffffffffffffffffffffffff1673ffffffffffffffffffffffffffffffffffffffff16815260200190815260200160002081905550600960003373ffffffffffffffffffffffffffffffffffffffff1673ffffffffffffffffffffffffffffffffffffffff168152602001908152602001600020899080600181540180825580915050600190039060005260206000200160009091909190915055600b60008a8152602001908152602001600020339080600181540180825580915050600190039060005260206000200160009091909190916101000a81548173ffffffffffffffffffffffffffffffffffffffff021916908373ffffffffffffffffffffffffffffffffffffffff1602179055507f16c02eafd4a170f62c09971fefa1b5aeaaffab6305564bb18a72a6150daa764e893384604051610c2193929190612f1d565b60405180910390a181975050505050505050919050565b60008060008373ffffffffffffffffffffffffffffffffffffffff1673ffffffffffffffffffffffffffffffffffffffff168152602001908152602001600020549050919050565b610c88611b0e565b73ffffffffffffffffffffffffffffffffffffffff16610ca6610d9d565b73ffffffffffffffffffffffffffffffffffffffff1614610cfc576040517f08c379a0000000000000000000000000000000000000000000000000000000008152600401610cf390612fa0565b60405180910390fd5b610d066000611f62565b565b6060600a60003373ffffffffffffffffffffffffffffffffffffffff1673ffffffffffffffffffffffffffffffffffffffff168152602001908152602001600020805480602002602001604051908101604052809291908181526020018280548015610d9357602002820191906000526020600020905b815481526020019060010190808311610d7f575b5050505050905090565b6000600560009054906101000a900473ffffffffffffffffffffffffffffffffffffffff16905090565b6060600960003373ffffffffffffffffffffffffffffffffffffffff1673ffffffffffffffffffffffffffffffffffffffff168152602001908152602001600020805480602002602001604051908101604052809291908181526020018280548015610e5257602002820191906000526020600020905b815481526020019060010190808311610e3e575b5050505050905090565b606060048054610e6b90612da5565b80601f0160208091040260200160405190810160405280929190818152602001828054610e9790612da5565b8015610ee45780601f10610eb957610100808354040283529160200191610ee4565b820191906000526020600020905b815481529060010190602001808311610ec757829003601f168201915b5050505050905090565b803373ffffffffffffffffffffffffffffffffffffffff16600e600083815260200190815260200160002060009054906101000a900473ffffffffffffffffffffffffffffffffffffffff1673ffffffffffffffffffffffffffffffffffffffff1614610f5a57600080fd5b81600060078281548110610f7157610f70612eee565b5b90600052602060002090600502016040518060e0016040529081600082015481526020016001820160009054906101000a900473ffffffffffffffffffffffffffffffffffffffff1673ffffffffffffffffffffffffffffffffffffffff1673ffffffffffffffffffffffffffffffffffffffff168152602001600282018054610ffa90612da5565b80601f016020809104026020016040519081016040528092919081815260200182805461102690612da5565b80156110735780601f1061104857610100808354040283529160200191611073565b820191906000526020600020905b81548152906001019060200180831161105657829003601f168201915b50505050508152602001600382015481526020016004820160009054906101000a900467ffffffffffffffff1667ffffffffffffffff1667ffffffffffffffff1681526020016004820160089054906101000a900467ffffffffffffffff1667ffffffffffffffff1667ffffffffffffffff1681526020016004820160109054906101000a900460ff16600181111561110f5761110e61286e565b5b60018111156111215761112061286e565b5b81525050905060018081111561113a5761113961286e565b5b8160c0015160018111156111515761115061286e565b5b141561115c57600080fd5b6000600b60008681526020019081526020016000208054806020026020016040519081016040528092919081815260200182805480156111f157602002820191906000526020600020905b8160009054906101000a900473ffffffffffffffffffffffffffffffffffffffff1673ffffffffffffffffffffffffffffffffffffffff16815260200190600101908083116111a7575b505050505090506000815167ffffffffffffffff81111561121557611214612b9c565b5b6040519080825280602002602001820160405280156112435781602001602082028036833780820191505090505b50905060005b82518110156112cd5782818151811061126557611264612eee565b5b60200260200101518282815181106112805761127f612eee565b5b602002602001019073ffffffffffffffffffffffffffffffffffffffff16908173ffffffffffffffffffffffffffffffffffffffff168152505080806112c590612fc0565b915050611249565b5080600c600088815260200190815260200160002090805190602001906112f59291906122b4565b5060016007878154811061130c5761130b612eee565b5b906000526020600020906005020160040160106101000a81548160ff0219169083600181111561133f5761133e61286e565b5b02179055507f8869306e622784f945949ca35d9495e3b75dcbdfc41d776da82fa27213bd82de86826040516113759291906130b8565b60405180910390a1505050505050565b60008060016000611394611b0e565b73ffffffffffffffffffffffffffffffffffffffff1673ffffffffffffffffffffffffffffffffffffffff16815260200190815260200160002060008573ffffffffffffffffffffffffffffffffffffffff1673ffffffffffffffffffffffffffffffffffffffff16815260200190815260200160002054905082811015611451576040517f08c379a00000000000000000000000000000000000000000000000000000000081526004016114489061315a565b60405180910390fd5b61146561145c611b0e565b85858403611b16565b600191505092915050565b600061148461147d611b0e565b8484611ce1565b6001905092915050565b6007818154811061149e57600080fd5b90600052602060002090600502016000915090508060000154908060010160009054906101000a900473ffffffffffffffffffffffffffffffffffffffff16908060020180546114ed90612da5565b80601f016020809104026020016040519081016040528092919081815260200182805461151990612da5565b80156115665780601f1061153b57610100808354040283529160200191611566565b820191906000526020600020905b81548152906001019060200180831161154957829003601f168201915b5050505050908060030154908060040160009054906101000a900467ffffffffffffffff16908060040160089054906101000a900467ffffffffffffffff16908060040160109054906101000a900460ff16905087565b606060003390506000600d60008373ffffffffffffffffffffffffffffffffffffffff1673ffffffffffffffffffffffffffffffffffffffff1681526020019081526020016000205467ffffffffffffffff81111561161f5761161e612b9c565b5b60405190808252806020026020018201604052801561165857816020015b61164561233e565b81526020019060019003908161163d5790505b5090506000805b6007805490508110156118eb578373ffffffffffffffffffffffffffffffffffffffff166007828154811061169757611696612eee565b5b906000526020600020906005020160010160009054906101000a900473ffffffffffffffffffffffffffffffffffffffff1673ffffffffffffffffffffffffffffffffffffffff1614156118d857600781815481106116f9576116f8612eee565b5b90600052602060002090600502016040518060e0016040529081600082015481526020016001820160009054906101000a900473ffffffffffffffffffffffffffffffffffffffff1673ffffffffffffffffffffffffffffffffffffffff1673ffffffffffffffffffffffffffffffffffffffff16815260200160028201805461178290612da5565b80601f01602080910402602001604051908101604052809291908181526020018280546117ae90612da5565b80156117fb5780601f106117d0576101008083540402835291602001916117fb565b820191906000526020600020905b8154815290600101906020018083116117de57829003601f168201915b50505050508152602001600382015481526020016004820160009054906101000a900467ffffffffffffffff1667ffffffffffffffff1667ffffffffffffffff1681526020016004820160089054906101000a900467ffffffffffffffff1667ffffffffffffffff1667ffffffffffffffff1681526020016004820160109054906101000a900460ff1660018111156118975761189661286e565b5b60018111156118a9576118a861286e565b5b815250508383806118b990612fc0565b9450815181106118cc576118cb612eee565b5b60200260200101819052505b80806118e390612fc0565b91505061165f565b5081935050505090565b6000600780549050905090565b600e6020528060005260406000206000915054906101000a900473ffffffffffffffffffffffffffffffffffffffff1681565b6000600160008473ffffffffffffffffffffffffffffffffffffffff1673ffffffffffffffffffffffffffffffffffffffff16815260200190815260200160002060008373ffffffffffffffffffffffffffffffffffffffff1673ffffffffffffffffffffffffffffffffffffffff16815260200190815260200160002054905092915050565b60065481565b6000806119d186868686612028565b90507fd15269fdc42e19a3cfa35959665426fe1c8e40dd95b212dba9adcc576342b1cd81604051611a029190612642565b60405180910390a180915050949350505050565b611a1e611b0e565b73ffffffffffffffffffffffffffffffffffffffff16611a3c610d9d565b73ffffffffffffffffffffffffffffffffffffffff1614611a92576040517f08c379a0000000000000000000000000000000000000000000000000000000008152600401611a8990612fa0565b60405180910390fd5b600073ffffffffffffffffffffffffffffffffffffffff168173ffffffffffffffffffffffffffffffffffffffff161415611b02576040517f08c379a0000000000000000000000000000000000000000000000000000000008152600401611af9906131ec565b60405180910390fd5b611b0b81611f62565b50565b600033905090565b600073ffffffffffffffffffffffffffffffffffffffff168373ffffffffffffffffffffffffffffffffffffffff161415611b86576040517f08c379a0000000000000000000000000000000000000000000000000000000008152600401611b7d9061327e565b60405180910390fd5b600073ffffffffffffffffffffffffffffffffffffffff168273ffffffffffffffffffffffffffffffffffffffff161415611bf6576040517f08c379a0000000000000000000000000000000000000000000000000000000008152600401611bed90613310565b60405180910390fd5b80600160008573ffffffffffffffffffffffffffffffffffffffff1673ffffffffffffffffffffffffffffffffffffffff16815260200190815260200160002060008473ffffffffffffffffffffffffffffffffffffffff1673ffffffffffffffffffffffffffffffffffffffff168152602001908152602001600020819055508173ffffffffffffffffffffffffffffffffffffffff168373ffffffffffffffffffffffffffffffffffffffff167f8c5be1e5ebec7d5bd14f71427d1e84f3dd0314c0f7b2291e5b200ac8c7c3b92583604051611cd49190612642565b60405180910390a3505050565b600073ffffffffffffffffffffffffffffffffffffffff168373ffffffffffffffffffffffffffffffffffffffff161415611d51576040517f08c379a0000000000000000000000000000000000000000000000000000000008152600401611d48906133a2565b60405180910390fd5b600073ffffffffffffffffffffffffffffffffffffffff168273ffffffffffffffffffffffffffffffffffffffff161415611dc1576040517f08c379a0000000000000000000000000000000000000000000000000000000008152600401611db890613434565b60405180910390fd5b611dcc83838361229d565b60008060008573ffffffffffffffffffffffffffffffffffffffff1673ffffffffffffffffffffffffffffffffffffffff16815260200190815260200160002054905081811015611e52576040517f08c379a0000000000000000000000000000000000000000000000000000000008152600401611e49906134c6565b60405180910390fd5b8181036000808673ffffffffffffffffffffffffffffffffffffffff1673ffffffffffffffffffffffffffffffffffffffff16815260200190815260200160002081905550816000808573ffffffffffffffffffffffffffffffffffffffff1673ffffffffffffffffffffffffffffffffffffffff1681526020019081526020016000206000828254611ee59190612e98565b925050819055508273ffffffffffffffffffffffffffffffffffffffff168473ffffffffffffffffffffffffffffffffffffffff167fddf252ad1be2c89b69c2b068fc378daa952ba7f163c4a11628f55a4df523b3ef84604051611f499190612642565b60405180910390a3611f5c8484846122a2565b50505050565b6000600560009054906101000a900473ffffffffffffffffffffffffffffffffffffffff16905081600560006101000a81548173ffffffffffffffffffffffffffffffffffffffff021916908373ffffffffffffffffffffffffffffffffffffffff1602179055508173ffffffffffffffffffffffffffffffffffffffff168173ffffffffffffffffffffffffffffffffffffffff167f8be0079c531659141344cd1fd0a4f28419497f9722a3daafe3b4186f6b6457e060405160405180910390a35050565b6000806120336122a7565b9050600033905060006040518060e001604052808481526020018373ffffffffffffffffffffffffffffffffffffffff1681526020018981526020018881526020018767ffffffffffffffff1681526020018667ffffffffffffffff168152602001600060018111156120a9576120a861286e565b5b815250905081600e600085815260200190815260200160002060006101000a81548173ffffffffffffffffffffffffffffffffffffffff021916908373ffffffffffffffffffffffffffffffffffffffff1602179055506001600d60008473ffffffffffffffffffffffffffffffffffffffff1673ffffffffffffffffffffffffffffffffffffffff16815260200190815260200160002060008282546121509190612e98565b9250508190555060078190806001815401808255809150506001900390600052602060002090600502016000909190919091506000820151816000015560208201518160010160006101000a81548173ffffffffffffffffffffffffffffffffffffffff021916908373ffffffffffffffffffffffffffffffffffffffff16021790555060408201518160020190805190602001906121f09291906123b7565b506060820151816003015560808201518160040160006101000a81548167ffffffffffffffff021916908367ffffffffffffffff16021790555060a08201518160040160086101000a81548167ffffffffffffffff021916908367ffffffffffffffff16021790555060c08201518160040160106101000a81548160ff021916908360018111156122845761228361286e565b5b0217905550505080600001519350505050949350505050565b505050565b505050565b6000600780549050905090565b82805482825590600052602060002090810192821561232d579160200282015b8281111561232c5782518260006101000a81548173ffffffffffffffffffffffffffffffffffffffff021916908373ffffffffffffffffffffffffffffffffffffffff160217905550916020019190600101906122d4565b5b50905061233a919061243d565b5090565b6040518060e0016040528060008152602001600073ffffffffffffffffffffffffffffffffffffffff1681526020016060815260200160008152602001600067ffffffffffffffff168152602001600067ffffffffffffffff168152602001600060018111156123b1576123b061286e565b5b81525090565b8280546123c390612da5565b90600052602060002090601f0160209004810192826123e5576000855561242c565b82601f106123fe57805160ff191683800117855561242c565b8280016001018555821561242c579182015b8281111561242b578251825591602001919060010190612410565b5b509050612439919061243d565b5090565b5b8082111561245657600081600090555060010161243e565b5090565b600081519050919050565b600082825260208201905092915050565b60005b83811015612494578082015181840152602081019050612479565b838111156124a3576000848401525b50505050565b6000601f19601f8301169050919050565b60006124c58261245a565b6124cf8185612465565b93506124df818560208601612476565b6124e8816124a9565b840191505092915050565b6000602082019050818103600083015261250d81846124ba565b905092915050565b6000604051905090565b600080fd5b600080fd5b600073ffffffffffffffffffffffffffffffffffffffff82169050919050565b600061255482612529565b9050919050565b61256481612549565b811461256f57600080fd5b50565b6000813590506125818161255b565b92915050565b6000819050919050565b61259a81612587565b81146125a557600080fd5b50565b6000813590506125b781612591565b92915050565b600080604083850312156125d4576125d361251f565b5b60006125e285828601612572565b92505060206125f3858286016125a8565b9150509250929050565b60008115159050919050565b612612816125fd565b82525050565b600060208201905061262d6000830184612609565b92915050565b61263c81612587565b82525050565b60006020820190506126576000830184612633565b92915050565b6000806000606084860312156126765761267561251f565b5b600061268486828701612572565b935050602061269586828701612572565b92505060406126a6868287016125a8565b9150509250925092565b600060ff82169050919050565b6126c6816126b0565b82525050565b60006020820190506126e160008301846126bd565b92915050565b6000602082840312156126fd576126fc61251f565b5b600061270b848285016125a8565b91505092915050565b60006020828403121561272a5761272961251f565b5b600061273884828501612572565b91505092915050565b600081519050919050565b600082825260208201905092915050565b6000819050602082019050919050565b61277681612587565b82525050565b6000612788838361276d565b60208301905092915050565b6000602082019050919050565b60006127ac82612741565b6127b6818561274c565b93506127c18361275d565b8060005b838110156127f25781516127d9888261277c565b97506127e483612794565b9250506001810190506127c5565b5085935050505092915050565b6000602082019050818103600083015261281981846127a1565b905092915050565b61282a81612549565b82525050565b60006020820190506128456000830184612821565b92915050565b600067ffffffffffffffff82169050919050565b6128688161284b565b82525050565b7f4e487b7100000000000000000000000000000000000000000000000000000000600052602160045260246000fd5b600281106128ae576128ad61286e565b5b50565b60008190506128bf8261289d565b919050565b60006128cf826128b1565b9050919050565b6128df816128c4565b82525050565b600060e0820190506128fa600083018a612633565b6129076020830189612821565b818103604083015261291981886124ba565b90506129286060830187612633565b612935608083018661285f565b61294260a083018561285f565b61294f60c08301846128d6565b98975050505050505050565b600081519050919050565b600082825260208201905092915050565b6000819050602082019050919050565b61299081612549565b82525050565b600082825260208201905092915050565b60006129b28261245a565b6129bc8185612996565b93506129cc818560208601612476565b6129d5816124a9565b840191505092915050565b6129e98161284b565b82525050565b6129f8816128c4565b82525050565b600060e083016000830151612a16600086018261276d565b506020830151612a296020860182612987565b5060408301518482036040860152612a4182826129a7565b9150506060830151612a56606086018261276d565b506080830151612a6960808601826129e0565b5060a0830151612a7c60a08601826129e0565b5060c0830151612a8f60c08601826129ef565b508091505092915050565b6000612aa683836129fe565b905092915050565b6000602082019050919050565b6000612ac68261295b565b612ad08185612966565b935083602082028501612ae285612977565b8060005b85811015612b1e5784840389528151612aff8582612a9a565b9450612b0a83612aae565b925060208a01995050600181019050612ae6565b50829750879550505050505092915050565b60006020820190508181036000830152612b4a8184612abb565b905092915050565b60008060408385031215612b6957612b6861251f565b5b6000612b7785828601612572565b9250506020612b8885828601612572565b9150509250929050565b600080fd5b600080fd5b7f4e487b7100000000000000000000000000000000000000000000000000000000600052604160045260246000fd5b612bd4826124a9565b810181811067ffffffffffffffff82111715612bf357612bf2612b9c565b5b80604052505050565b6000612c06612515565b9050612c128282612bcb565b919050565b600067ffffffffffffffff821115612c3257612c31612b9c565b5b612c3b826124a9565b9050602081019050919050565b82818337600083830152505050565b6000612c6a612c6584612c17565b612bfc565b905082815260208101848484011115612c8657612c85612b97565b5b612c91848285612c48565b509392505050565b600082601f830112612cae57612cad612b92565b5b8135612cbe848260208601612c57565b91505092915050565b612cd08161284b565b8114612cdb57600080fd5b50565b600081359050612ced81612cc7565b92915050565b60008060008060808587031215612d0d57612d0c61251f565b5b600085013567ffffffffffffffff811115612d2b57612d2a612524565b5b612d3787828801612c99565b9450506020612d48878288016125a8565b9350506040612d5987828801612cde565b9250506060612d6a87828801612cde565b91505092959194509250565b7f4e487b7100000000000000000000000000000000000000000000000000000000600052602260045260246000fd5b60006002820490506001821680612dbd57607f821691505b60208210811415612dd157612dd0612d76565b5b50919050565b7f45524332303a207472616e7366657220616d6f756e742065786365656473206160008201527f6c6c6f77616e6365000000000000000000000000000000000000000000000000602082015250565b6000612e33602883612465565b9150612e3e82612dd7565b604082019050919050565b60006020820190508181036000830152612e6281612e26565b9050919050565b7f4e487b7100000000000000000000000000000000000000000000000000000000600052601160045260246000fd5b6000612ea382612587565b9150612eae83612587565b9250827fffffffffffffffffffffffffffffffffffffffffffffffffffffffffffffffff03821115612ee357612ee2612e69565b5b828201905092915050565b7f4e487b7100000000000000000000000000000000000000000000000000000000600052603260045260246000fd5b6000606082019050612f326000830186612633565b612f3f6020830185612821565b612f4c6040830184612633565b949350505050565b7f4f776e61626c653a2063616c6c6572206973206e6f7420746865206f776e6572600082015250565b6000612f8a602083612465565b9150612f9582612f54565b602082019050919050565b60006020820190508181036000830152612fb981612f7d565b9050919050565b6000612fcb82612587565b91507fffffffffffffffffffffffffffffffffffffffffffffffffffffffffffffffff821415612ffe57612ffd612e69565b5b600182019050919050565b600081519050919050565b600082825260208201905092915050565b6000819050602082019050919050565b60006130418383612987565b60208301905092915050565b6000602082019050919050565b600061306582613009565b61306f8185613014565b935061307a83613025565b8060005b838110156130ab5781516130928882613035565b975061309d8361304d565b92505060018101905061307e565b5085935050505092915050565b60006040820190506130cd6000830185612633565b81810360208301526130df818461305a565b90509392505050565b7f45524332303a2064656372656173656420616c6c6f77616e63652062656c6f7760008201527f207a65726f000000000000000000000000000000000000000000000000000000602082015250565b6000613144602583612465565b915061314f826130e8565b604082019050919050565b6000602082019050818103600083015261317381613137565b9050919050565b7f4f776e61626c653a206e6577206f776e657220697320746865207a65726f206160008201527f6464726573730000000000000000000000000000000000000000000000000000602082015250565b60006131d6602683612465565b91506131e18261317a565b604082019050919050565b60006020820190508181036000830152613205816131c9565b9050919050565b7f45524332303a20617070726f76652066726f6d20746865207a65726f2061646460008201527f7265737300000000000000000000000000000000000000000000000000000000602082015250565b6000613268602483612465565b91506132738261320c565b604082019050919050565b600060208201905081810360008301526132978161325b565b9050919050565b7f45524332303a20617070726f766520746f20746865207a65726f20616464726560008201527f7373000000000000000000000000000000000000000000000000000000000000602082015250565b60006132fa602283612465565b91506133058261329e565b604082019050919050565b60006020820190508181036000830152613329816132ed565b9050919050565b7f45524332303a207472616e736665722066726f6d20746865207a65726f20616460008201527f6472657373000000000000000000000000000000000000000000000000000000602082015250565b600061338c602583612465565b915061339782613330565b604082019050919050565b600060208201905081810360008301526133bb8161337f565b9050919050565b7f45524332303a207472616e7366657220746f20746865207a65726f206164647260008201527f6573730000000000000000000000000000000000000000000000000000000000602082015250565b600061341e602383612465565b9150613429826133c2565b604082019050919050565b6000602082019050818103600083015261344d81613411565b9050919050565b7f45524332303a207472616e7366657220616d6f756e742065786365656473206260008201527f616c616e63650000000000000000000000000000000000000000000000000000602082015250565b60006134b0602683612465565b91506134bb82613454565b604082019050919050565b600060208201905081810360008301526134df816134a3565b905091905056fea264697066735822122096396d417a7d5c8cd75f0a86587e607ce0fc891dde0eb9c73c0288d38e52c03564736f6c634300080a0033",
  "immutableReferences": {},
  "source": "// SPDX-License-Identifier: MIT\r\npragma solidity ^0.8.0;\r\n\r\nimport \"@openzeppelin/contracts/token/ERC20/ERC20.sol\";\r\nimport \"@openzeppelin/contracts/access/Ownable.sol\";\r\n\r\ncontract SignMeUp is ERC20, Ownable {\r\n\r\n  uint256 public entryPriceWei;\r\n\r\n  // All entries\r\n  SignUpEventEntry[] public entries;\r\n\r\n  // Mapping of registered addresses by registration date for given entry\r\n  mapping (uint256 => mapping(address => uint256)) private entryRegistrationTimestamps;\r\n\r\n  // Entries which user registered for\r\n  mapping (address => uint256[]) private registrantEntries;\r\n\r\n  // Entries which user was selected for\r\n  mapping (address => uint256[]) private participantEntries;\r\n\r\n  // Registrants for given SignUpEventEntry\r\n  mapping (uint256 => address[]) private entryRegistrants;\r\n\r\n  // Participants for given SignUpEventEntry\r\n  mapping (uint256 => address[]) private entryParticipants;  \r\n\r\n  // Number of entries organized by user\r\n  mapping (address => uint256) private organizerEntriesCount;\r\n\r\n  // Organizer of given SignUpEventEntry\r\n  mapping (uint256 => address) public entryOrganizer;\r\n\r\n  ////// Enums //////\r\n  enum State {Active, Closed}\r\n\r\n  ////// Events //////\r\n  event LogEntryCreated(uint256 id);\r\n  event LogRegistered(uint256 id, address who, uint256 when);\r\n  event LogEntryClosed(uint256 id, address[] participants);\r\n\r\n  ////// Modifiers //////\r\n  modifier isActive(uint256 _eventId) {\r\n    SignUpEventEntry memory eventEntry = entries[_eventId];\r\n    require(eventEntry.state == State.Active && block.timestamp < eventEntry.registrationDueDate);\r\n    _;\r\n  }\r\n\r\n  modifier isNotClosed(uint256 _eventId) {\r\n    SignUpEventEntry memory eventEntry = entries[_eventId];\r\n    require(eventEntry.state != State.Closed);\r\n    _;\r\n  }\r\n\r\n  modifier notYetRegistered(uint256 _eventId) {\r\n    mapping(address => uint256) storage registrationTimestamps = entryRegistrationTimestamps[_eventId];\r\n    require(registrationTimestamps[msg.sender] == 0);\r\n    _;\r\n  }\r\n\r\n  modifier isOrganizer(uint256 _eventId) {\r\n    require(entryOrganizer[_eventId] == msg.sender);\r\n    _;\r\n  }\r\n\r\n  modifier isNotOrganizer(uint256 _eventId) {\r\n    require(entryOrganizer[_eventId] != msg.sender);\r\n    _;\r\n  }\r\n\r\n  modifier paidEnough() {\r\n    require(msg.value >= entryPriceWei);\r\n    _;\r\n  }\r\n\r\n  ////// Structs //////\r\n  struct SignUpEventEntry {\r\n    uint256 id;\r\n    address organizer;\r\n    string title;\r\n    uint256 spots;\r\n    uint64 registrationDueDate;\r\n    uint64 eventDate;\r\n    State state;\r\n  }\r\n\r\n  struct EntryList {\r\n    bool isPresent;\r\n    uint256 ids;\r\n  }\r\n\r\n  constructor() ERC20(\"SignMeUp\", \"SMU\") {\r\n    entryPriceWei = 50_000 * 1_000_000_000;\r\n    // Test entries\r\n    // newSignUpEventEntryOf(\"Event 1\", 10, 10000, 20000);\r\n    // newSignUpEventEntryOf(\"Event 2\", 12, 100000, 200000);\r\n    // newSignUpEventEntryOf(\"Event 3\", 23, 10000000, 20000000);\r\n  }\r\n\r\n  // fallback() external payable {\r\n  //   revert();\r\n  // }\r\n\r\n  ////// Common functions //////\r\n\r\n  function getEntriesCount() public view returns(uint256) {\r\n    return entries.length;\r\n  }\r\n\r\n// payable\r\n//     paidEnough()\r\n\r\n  ////// Organizer functions\r\n  function createNewSignUpEventEntry(\r\n    string memory _title,\r\n    uint _spots,\r\n    uint64 _registrationDueDate,\r\n    uint64 _eventDate\r\n  )\r\n    public\r\n    returns (uint256)\r\n  {\r\n    uint256 id = newSignUpEventEntryOf(_title, _spots, _registrationDueDate, _eventDate);\r\n\r\n    // TODO test it\r\n    // address payable _owner = payable(owner());\r\n    // _owner.transfer(msg.value);\r\n\r\n    emit LogEntryCreated(id);\r\n\r\n    return id;\r\n  }\r\n\r\n  function newSignUpEventEntryOf(\r\n    string memory _title,\r\n    uint _spots,\r\n    uint64 _registrationDueDate,\r\n    uint64 _eventDate\r\n  )\r\n    private\r\n    returns (uint256)\r\n  {\r\n    uint256 newId = nextEntryId();\r\n    address organizer = msg.sender;\r\n\r\n    SignUpEventEntry memory entry = SignUpEventEntry({\r\n      id: newId,\r\n      organizer: organizer,\r\n      title: _title,\r\n      spots: _spots,\r\n      registrationDueDate: _registrationDueDate,\r\n      eventDate: _eventDate,\r\n      state: State.Active\r\n    });\r\n    \r\n    entryOrganizer[newId] = organizer;\r\n    organizerEntriesCount[organizer] += 1;\r\n\r\n    entries.push(entry);\r\n\r\n    return entry.id;\r\n  }\r\n\r\n  function nextEntryId() private view returns(uint256) {\r\n    return entries.length;\r\n  }\r\n\r\n  function getOrganizerEntriesCount() public view returns(uint256) {\r\n    return organizerEntriesCount[msg.sender];\r\n  }\r\n\r\n  function getOrganizerEntries()\r\n    public\r\n    view\r\n    returns(SignUpEventEntry[] memory)\r\n  {\r\n    address organizer = msg.sender;\r\n\r\n    SignUpEventEntry[] memory result = new SignUpEventEntry[](organizerEntriesCount[organizer]);\r\n    uint256 targetIndex = 0;\r\n    for (uint256 i = 0; i < entries.length; i++) {\r\n      if (entries[i].organizer == organizer) {\r\n        result[targetIndex++] = entries[i];\r\n      }\r\n    }\r\n\r\n    return result;\r\n  }\r\n\r\n  function randomlyChooseEventParticipants(uint256 _eventId)\r\n    public\r\n    isOrganizer(_eventId)\r\n    isNotClosed(_eventId)\r\n  {\r\n    // TODO use some 'random' oracle, choose participants from registeres users and change state to Closed\r\n    address[] memory registrants = entryRegistrants[_eventId];\r\n    address[] memory copy = new address[](registrants.length);\r\n    for (uint256 i = 0; i < registrants.length; i++) {\r\n      copy[i] = registrants[i];\r\n    }\r\n    entryParticipants[_eventId] = copy;\r\n\r\n    entries[_eventId].state = State.Closed;\r\n\r\n    emit LogEntryClosed(_eventId, copy);\r\n  }\r\n\r\n  ////// Registrant functions //////\r\n  function registerForEvent(uint256 _eventId)\r\n    public\r\n    isActive(_eventId)\r\n    notYetRegistered(_eventId)\r\n    isNotOrganizer(_eventId)\r\n    returns(uint256)\r\n  {\r\n    uint256 registrationTimestamp = block.timestamp;\r\n\r\n    mapping(address => uint) storage registrationTimestamps = entryRegistrationTimestamps[_eventId];\r\n    registrationTimestamps[msg.sender] = registrationTimestamp;\r\n    registrantEntries[msg.sender].push(_eventId);\r\n    entryRegistrants[_eventId].push(msg.sender);\r\n\r\n    emit LogRegistered(_eventId, msg.sender, registrationTimestamp);\r\n\r\n    return registrationTimestamp;\r\n  }\r\n\r\n  function getEntriesUserRegisteredFor() public view returns(uint256[] memory) {\r\n    return registrantEntries[msg.sender];\r\n  }\r\n\r\n  function getEntriesUserSelectedFor() public view returns(uint256[] memory) {\r\n    return participantEntries[msg.sender];\r\n  }\r\n\r\n  // ### Utils ###\r\n  // #############\r\n\r\n  function nonSecureRandom() private view returns (uint256) {\r\n    return uint256(keccak256(\r\n      abi.encodePacked(block.timestamp, block.difficulty)\r\n    ));\r\n  }\r\n  // ### Utils - end ###\r\n}\r\n",
  "sourcePath": "/mnt/c/Dev/workspace/consensys/final/blockchain-developer-bootcamp-final-project/contracts/SignMeUp.sol",
  "compiler": {
    "name": "solc",
    "version": "0.8.10+commit.fc410830.Emscripten.clang"
  },
  "schemaVersion": "3.4.3",
  "updatedAt": "2021-11-15T15:23:06.363Z",
  "networkType": "ethereum",
  "devdoc": {
    "kind": "dev",
    "methods": {
      "allowance(address,address)": {
        "details": "See {IERC20-allowance}."
      },
      "approve(address,uint256)": {
        "details": "See {IERC20-approve}. Requirements: - `spender` cannot be the zero address."
      },
      "balanceOf(address)": {
        "details": "See {IERC20-balanceOf}."
      },
      "decimals()": {
        "details": "Returns the number of decimals used to get its user representation. For example, if `decimals` equals `2`, a balance of `505` tokens should be displayed to a user as `5.05` (`505 / 10 ** 2`). Tokens usually opt for a value of 18, imitating the relationship between Ether and Wei. This is the value {ERC20} uses, unless this function is overridden; NOTE: This information is only used for _display_ purposes: it in no way affects any of the arithmetic of the contract, including {IERC20-balanceOf} and {IERC20-transfer}."
      },
      "decreaseAllowance(address,uint256)": {
        "details": "Atomically decreases the allowance granted to `spender` by the caller. This is an alternative to {approve} that can be used as a mitigation for problems described in {IERC20-approve}. Emits an {Approval} event indicating the updated allowance. Requirements: - `spender` cannot be the zero address. - `spender` must have allowance for the caller of at least `subtractedValue`."
      },
      "increaseAllowance(address,uint256)": {
        "details": "Atomically increases the allowance granted to `spender` by the caller. This is an alternative to {approve} that can be used as a mitigation for problems described in {IERC20-approve}. Emits an {Approval} event indicating the updated allowance. Requirements: - `spender` cannot be the zero address."
      },
      "name()": {
        "details": "Returns the name of the token."
      },
      "owner()": {
        "details": "Returns the address of the current owner."
      },
      "renounceOwnership()": {
        "details": "Leaves the contract without owner. It will not be possible to call `onlyOwner` functions anymore. Can only be called by the current owner. NOTE: Renouncing ownership will leave the contract without an owner, thereby removing any functionality that is only available to the owner."
      },
      "symbol()": {
        "details": "Returns the symbol of the token, usually a shorter version of the name."
      },
      "totalSupply()": {
        "details": "See {IERC20-totalSupply}."
      },
      "transfer(address,uint256)": {
        "details": "See {IERC20-transfer}. Requirements: - `recipient` cannot be the zero address. - the caller must have a balance of at least `amount`."
      },
      "transferFrom(address,address,uint256)": {
        "details": "See {IERC20-transferFrom}. Emits an {Approval} event indicating the updated allowance. This is not required by the EIP. See the note at the beginning of {ERC20}. Requirements: - `sender` and `recipient` cannot be the zero address. - `sender` must have a balance of at least `amount`. - the caller must have allowance for ``sender``'s tokens of at least `amount`."
      },
      "transferOwnership(address)": {
        "details": "Transfers ownership of the contract to a new account (`newOwner`). Can only be called by the current owner."
      }
    },
    "version": 1
  },
  "userdoc": {
    "kind": "user",
    "methods": {},
    "version": 1
  }
}