{
  "contractName": "SignMeUp",
  "abi": [
    {
      "inputs": [],
      "stateMutability": "nonpayable",
      "type": "constructor"
    },
    {
      "anonymous": false,
      "inputs": [
        {
          "indexed": true,
          "internalType": "address",
          "name": "owner",
          "type": "address"
        },
        {
          "indexed": true,
          "internalType": "address",
          "name": "approved",
          "type": "address"
        },
        {
          "indexed": true,
          "internalType": "uint256",
          "name": "tokenId",
          "type": "uint256"
        }
      ],
      "name": "Approval",
      "type": "event"
    },
    {
      "anonymous": false,
      "inputs": [
        {
          "indexed": true,
          "internalType": "address",
          "name": "owner",
          "type": "address"
        },
        {
          "indexed": true,
          "internalType": "address",
          "name": "operator",
          "type": "address"
        },
        {
          "indexed": false,
          "internalType": "bool",
          "name": "approved",
          "type": "bool"
        }
      ],
      "name": "ApprovalForAll",
      "type": "event"
    },
    {
      "anonymous": false,
      "inputs": [
        {
          "indexed": false,
          "internalType": "uint256",
          "name": "id",
          "type": "uint256"
        },
        {
          "indexed": false,
          "internalType": "address[]",
          "name": "participants",
          "type": "address[]"
        }
      ],
      "name": "LogEntryClosed",
      "type": "event"
    },
    {
      "anonymous": false,
      "inputs": [
        {
          "indexed": false,
          "internalType": "uint256",
          "name": "id",
          "type": "uint256"
        },
        {
          "indexed": false,
          "internalType": "address",
          "name": "organizer",
          "type": "address"
        }
      ],
      "name": "LogEntryCreated",
      "type": "event"
    },
    {
      "anonymous": false,
      "inputs": [
        {
          "indexed": false,
          "internalType": "uint256",
          "name": "oldPrice",
          "type": "uint256"
        },
        {
          "indexed": false,
          "internalType": "uint256",
          "name": "newPrice",
          "type": "uint256"
        }
      ],
      "name": "LogPriceChanged",
      "type": "event"
    },
    {
      "anonymous": false,
      "inputs": [
        {
          "indexed": false,
          "internalType": "uint256",
          "name": "id",
          "type": "uint256"
        },
        {
          "indexed": false,
          "internalType": "address",
          "name": "who",
          "type": "address"
        },
        {
          "indexed": false,
          "internalType": "uint256",
          "name": "when",
          "type": "uint256"
        }
      ],
      "name": "LogRegistered",
      "type": "event"
    },
    {
      "anonymous": false,
      "inputs": [
        {
          "indexed": true,
          "internalType": "address",
          "name": "previousOwner",
          "type": "address"
        },
        {
          "indexed": true,
          "internalType": "address",
          "name": "newOwner",
          "type": "address"
        }
      ],
      "name": "OwnershipTransferred",
      "type": "event"
    },
    {
      "anonymous": false,
      "inputs": [
        {
          "indexed": true,
          "internalType": "address",
          "name": "from",
          "type": "address"
        },
        {
          "indexed": true,
          "internalType": "address",
          "name": "to",
          "type": "address"
        },
        {
          "indexed": true,
          "internalType": "uint256",
          "name": "tokenId",
          "type": "uint256"
        }
      ],
      "name": "Transfer",
      "type": "event"
    },
    {
      "inputs": [
        {
          "internalType": "address",
          "name": "to",
          "type": "address"
        },
        {
          "internalType": "uint256",
          "name": "tokenId",
          "type": "uint256"
        }
      ],
      "name": "approve",
      "outputs": [],
      "stateMutability": "nonpayable",
      "type": "function"
    },
    {
      "inputs": [
        {
          "internalType": "address",
          "name": "owner",
          "type": "address"
        }
      ],
      "name": "balanceOf",
      "outputs": [
        {
          "internalType": "uint256",
          "name": "",
          "type": "uint256"
        }
      ],
      "stateMutability": "view",
      "type": "function",
      "constant": true
    },
    {
      "inputs": [
        {
          "internalType": "uint256",
          "name": "",
          "type": "uint256"
        }
      ],
      "name": "entries",
      "outputs": [
        {
          "internalType": "uint256",
          "name": "id",
          "type": "uint256"
        },
        {
          "internalType": "address",
          "name": "organizer",
          "type": "address"
        },
        {
          "internalType": "string",
          "name": "title",
          "type": "string"
        },
        {
          "internalType": "uint256",
          "name": "spots",
          "type": "uint256"
        },
        {
          "internalType": "uint64",
          "name": "registrationDueDate",
          "type": "uint64"
        },
        {
          "internalType": "uint64",
          "name": "eventDate",
          "type": "uint64"
        }
      ],
      "stateMutability": "view",
      "type": "function",
      "constant": true
    },
    {
      "inputs": [
        {
          "internalType": "uint256",
          "name": "",
          "type": "uint256"
        }
      ],
      "name": "entryOrganizer",
      "outputs": [
        {
          "internalType": "address",
          "name": "",
          "type": "address"
        }
      ],
      "stateMutability": "view",
      "type": "function",
      "constant": true
    },
    {
      "inputs": [],
      "name": "entryPriceWei",
      "outputs": [
        {
          "internalType": "uint256",
          "name": "",
          "type": "uint256"
        }
      ],
      "stateMutability": "view",
      "type": "function",
      "constant": true
    },
    {
      "inputs": [
        {
          "internalType": "uint256",
          "name": "tokenId",
          "type": "uint256"
        }
      ],
      "name": "getApproved",
      "outputs": [
        {
          "internalType": "address",
          "name": "",
          "type": "address"
        }
      ],
      "stateMutability": "view",
      "type": "function",
      "constant": true
    },
    {
      "inputs": [
        {
          "internalType": "address",
          "name": "owner",
          "type": "address"
        },
        {
          "internalType": "address",
          "name": "operator",
          "type": "address"
        }
      ],
      "name": "isApprovedForAll",
      "outputs": [
        {
          "internalType": "bool",
          "name": "",
          "type": "bool"
        }
      ],
      "stateMutability": "view",
      "type": "function",
      "constant": true
    },
    {
      "inputs": [
        {
          "internalType": "uint256",
          "name": "",
          "type": "uint256"
        }
      ],
      "name": "isEventClosed",
      "outputs": [
        {
          "internalType": "bool",
          "name": "",
          "type": "bool"
        }
      ],
      "stateMutability": "view",
      "type": "function",
      "constant": true
    },
    {
      "inputs": [],
      "name": "name",
      "outputs": [
        {
          "internalType": "string",
          "name": "",
          "type": "string"
        }
      ],
      "stateMutability": "view",
      "type": "function",
      "constant": true
    },
    {
      "inputs": [],
      "name": "owner",
      "outputs": [
        {
          "internalType": "address",
          "name": "",
          "type": "address"
        }
      ],
      "stateMutability": "view",
      "type": "function",
      "constant": true
    },
    {
      "inputs": [
        {
          "internalType": "uint256",
          "name": "tokenId",
          "type": "uint256"
        }
      ],
      "name": "ownerOf",
      "outputs": [
        {
          "internalType": "address",
          "name": "",
          "type": "address"
        }
      ],
      "stateMutability": "view",
      "type": "function",
      "constant": true
    },
    {
      "inputs": [],
      "name": "renounceOwnership",
      "outputs": [],
      "stateMutability": "nonpayable",
      "type": "function"
    },
    {
      "inputs": [
        {
          "internalType": "address",
          "name": "from",
          "type": "address"
        },
        {
          "internalType": "address",
          "name": "to",
          "type": "address"
        },
        {
          "internalType": "uint256",
          "name": "tokenId",
          "type": "uint256"
        }
      ],
      "name": "safeTransferFrom",
      "outputs": [],
      "stateMutability": "nonpayable",
      "type": "function"
    },
    {
      "inputs": [
        {
          "internalType": "address",
          "name": "from",
          "type": "address"
        },
        {
          "internalType": "address",
          "name": "to",
          "type": "address"
        },
        {
          "internalType": "uint256",
          "name": "tokenId",
          "type": "uint256"
        },
        {
          "internalType": "bytes",
          "name": "_data",
          "type": "bytes"
        }
      ],
      "name": "safeTransferFrom",
      "outputs": [],
      "stateMutability": "nonpayable",
      "type": "function"
    },
    {
      "inputs": [
        {
          "internalType": "address",
          "name": "operator",
          "type": "address"
        },
        {
          "internalType": "bool",
          "name": "approved",
          "type": "bool"
        }
      ],
      "name": "setApprovalForAll",
      "outputs": [],
      "stateMutability": "nonpayable",
      "type": "function"
    },
    {
      "inputs": [
        {
          "internalType": "bytes4",
          "name": "interfaceId",
          "type": "bytes4"
        }
      ],
      "name": "supportsInterface",
      "outputs": [
        {
          "internalType": "bool",
          "name": "",
          "type": "bool"
        }
      ],
      "stateMutability": "view",
      "type": "function",
      "constant": true
    },
    {
      "inputs": [],
      "name": "symbol",
      "outputs": [
        {
          "internalType": "string",
          "name": "",
          "type": "string"
        }
      ],
      "stateMutability": "view",
      "type": "function",
      "constant": true
    },
    {
      "inputs": [
        {
          "internalType": "uint256",
          "name": "tokenId",
          "type": "uint256"
        }
      ],
      "name": "tokenURI",
      "outputs": [
        {
          "internalType": "string",
          "name": "",
          "type": "string"
        }
      ],
      "stateMutability": "view",
      "type": "function",
      "constant": true
    },
    {
      "inputs": [
        {
          "internalType": "address",
          "name": "from",
          "type": "address"
        },
        {
          "internalType": "address",
          "name": "to",
          "type": "address"
        },
        {
          "internalType": "uint256",
          "name": "tokenId",
          "type": "uint256"
        }
      ],
      "name": "transferFrom",
      "outputs": [],
      "stateMutability": "nonpayable",
      "type": "function"
    },
    {
      "inputs": [
        {
          "internalType": "address",
          "name": "newOwner",
          "type": "address"
        }
      ],
      "name": "transferOwnership",
      "outputs": [],
      "stateMutability": "nonpayable",
      "type": "function"
    },
    {
      "inputs": [
        {
          "internalType": "uint256",
          "name": "price",
          "type": "uint256"
        }
      ],
      "name": "setPrice",
      "outputs": [],
      "stateMutability": "nonpayable",
      "type": "function"
    },
    {
      "inputs": [],
      "name": "getEntriesCount",
      "outputs": [
        {
          "internalType": "uint256",
          "name": "",
          "type": "uint256"
        }
      ],
      "stateMutability": "view",
      "type": "function",
      "constant": true
    },
    {
      "inputs": [
        {
          "internalType": "string",
          "name": "title",
          "type": "string"
        },
        {
          "internalType": "uint256",
          "name": "spots",
          "type": "uint256"
        },
        {
          "internalType": "uint64",
          "name": "registrationDueDate",
          "type": "uint64"
        },
        {
          "internalType": "uint64",
          "name": "eventDate",
          "type": "uint64"
        }
      ],
      "name": "createNewSignUpEventEntry",
      "outputs": [],
      "stateMutability": "payable",
      "type": "function",
      "payable": true
    },
    {
      "inputs": [],
      "name": "getOrganizerEntriesCount",
      "outputs": [
        {
          "internalType": "uint256",
          "name": "",
          "type": "uint256"
        }
      ],
      "stateMutability": "view",
      "type": "function",
      "constant": true
    },
    {
      "inputs": [],
      "name": "getOrganizerEntries",
      "outputs": [
        {
          "components": [
            {
              "internalType": "uint256",
              "name": "id",
              "type": "uint256"
            },
            {
              "internalType": "address",
              "name": "organizer",
              "type": "address"
            },
            {
              "internalType": "string",
              "name": "title",
              "type": "string"
            },
            {
              "internalType": "uint256",
              "name": "spots",
              "type": "uint256"
            },
            {
              "internalType": "uint64",
              "name": "registrationDueDate",
              "type": "uint64"
            },
            {
              "internalType": "uint64",
              "name": "eventDate",
              "type": "uint64"
            }
          ],
          "internalType": "struct SignMeUp.SignUpEventEntry[]",
          "name": "",
          "type": "tuple[]"
        }
      ],
      "stateMutability": "view",
      "type": "function",
      "constant": true
    },
    {
      "inputs": [
        {
          "internalType": "uint256",
          "name": "eventId",
          "type": "uint256"
        }
      ],
      "name": "randomlyChooseEventParticipants",
      "outputs": [],
      "stateMutability": "nonpayable",
      "type": "function"
    },
    {
      "inputs": [
        {
          "internalType": "uint256",
          "name": "eventId",
          "type": "uint256"
        }
      ],
      "name": "registerForEvent",
      "outputs": [],
      "stateMutability": "nonpayable",
      "type": "function"
    },
    {
      "inputs": [],
      "name": "getEntriesUserRegisteredFor",
      "outputs": [
        {
          "internalType": "uint256[]",
          "name": "",
          "type": "uint256[]"
        }
      ],
      "stateMutability": "view",
      "type": "function",
      "constant": true
    },
    {
      "inputs": [
        {
          "internalType": "uint256",
          "name": "eventId",
          "type": "uint256"
        }
      ],
      "name": "isRegisteredForEntry",
      "outputs": [
        {
          "internalType": "bool",
          "name": "",
          "type": "bool"
        }
      ],
      "stateMutability": "view",
      "type": "function",
      "constant": true
    },
    {
      "inputs": [],
      "name": "getEntriesUserSelectedFor",
      "outputs": [
        {
          "internalType": "uint256[]",
          "name": "",
          "type": "uint256[]"
        }
      ],
      "stateMutability": "view",
      "type": "function",
      "constant": true
    },
    {
      "inputs": [
        {
          "internalType": "uint256",
          "name": "eventId",
          "type": "uint256"
        }
      ],
      "name": "getNumberOfRegisteredUsersForEvent",
      "outputs": [
        {
          "internalType": "uint256",
          "name": "",
          "type": "uint256"
        }
      ],
      "stateMutability": "view",
      "type": "function",
      "constant": true
    }
  ],
  "bytecode": "0x60806040523480156200001157600080fd5b506040518060400160405280600881526020017f5369676e4d6555700000000000000000000000000000000000000000000000008152506040518060400160405280600381526020017f534d550000000000000000000000000000000000000000000000000000000000815250816000908051906020019062000096929190620001bb565b508060019080519060200190620000af929190620001bb565b505050620000d2620000c6620000ed60201b60201c565b620000f560201b60201c565b6001600781905550652d79883d2000600981905550620002d0565b600033905090565b6000600660009054906101000a900473ffffffffffffffffffffffffffffffffffffffff16905081600660006101000a81548173ffffffffffffffffffffffffffffffffffffffff021916908373ffffffffffffffffffffffffffffffffffffffff1602179055508173ffffffffffffffffffffffffffffffffffffffff168173ffffffffffffffffffffffffffffffffffffffff167f8be0079c531659141344cd1fd0a4f28419497f9722a3daafe3b4186f6b6457e060405160405180910390a35050565b828054620001c9906200029a565b90600052602060002090601f016020900481019282620001ed576000855562000239565b82601f106200020857805160ff191683800117855562000239565b8280016001018555821562000239579182015b82811115620002385782518255916020019190600101906200021b565b5b5090506200024891906200024c565b5090565b5b80821115620002675760008160009055506001016200024d565b5090565b7f4e487b7100000000000000000000000000000000000000000000000000000000600052602260045260246000fd5b60006002820490506001821680620002b357607f821691505b60208210811415620002ca57620002c96200026b565b5b50919050565b61565680620002e06000396000f3fe6080604052600436106101d75760003560e01c80638da5cb5b11610102578063c87b56dd11610095578063e2f6833011610064578063e2f68330146106fa578063e985e9c514610725578063ebacab3814610762578063f2fde38b1461077e576101d7565b8063c87b56dd1461062a578063ca54ad8514610667578063d09685b014610692578063db8a7038146106bd576101d7565b80639c571402116100d15780639c5714021461056d578063a22cb46514610596578063b30906d4146105bf578063b88d4fde14610601576101d7565b80638da5cb5b146104c357806391b7f5ed146104ee578063942aa7e11461051757806395d89b4114610542576101d7565b80632ffe24f81161017a57806370a082311161014957806370a082311461040757806370f7ae9514610444578063715018a614610481578063772a6fce14610498576101d7565b80632ffe24f81461033b578063406db8431461037857806342842e0e146103a15780636352211e146103ca576101d7565b8063081812fc116101b6578063081812fc14610281578063095ea7b3146102be57806322d9b428146102e757806323b872dd14610312576101d7565b8062648543146101dc57806301ffc9a71461021957806306fdde0314610256575b600080fd5b3480156101e857600080fd5b5061020360048036038101906101fe919061384c565b6107a7565b6040516102109190613894565b60405180910390f35b34801561022557600080fd5b50610240600480360381019061023b9190613907565b610803565b60405161024d9190613894565b60405180910390f35b34801561026257600080fd5b5061026b6108e5565b60405161027891906139cd565b60405180910390f35b34801561028d57600080fd5b506102a860048036038101906102a3919061384c565b610977565b6040516102b59190613a30565b60405180910390f35b3480156102ca57600080fd5b506102e560048036038101906102e09190613a77565b6109fc565b005b3480156102f357600080fd5b506102fc610b14565b6040516103099190613ac6565b60405180910390f35b34801561031e57600080fd5b5061033960048036038101906103349190613ae1565b610b5b565b005b34801561034757600080fd5b50610362600480360381019061035d919061384c565b610bbb565b60405161036f9190613ac6565b60405180910390f35b34801561038457600080fd5b5061039f600480360381019061039a919061384c565b610c7e565b005b3480156103ad57600080fd5b506103c860048036038101906103c39190613ae1565b611170565b005b3480156103d657600080fd5b506103f160048036038101906103ec919061384c565b611190565b6040516103fe9190613a30565b60405180910390f35b34801561041357600080fd5b5061042e60048036038101906104299190613b34565b611242565b60405161043b9190613ac6565b60405180910390f35b34801561045057600080fd5b5061046b6004803603810190610466919061384c565b6112fa565b6040516104789190613894565b60405180910390f35b34801561048d57600080fd5b5061049661131a565b005b3480156104a457600080fd5b506104ad6113a2565b6040516104ba9190613c1f565b60405180910390f35b3480156104cf57600080fd5b506104d86114de565b6040516104e59190613a30565b60405180910390f35b3480156104fa57600080fd5b506105156004803603810190610510919061384c565b611508565b005b34801561052357600080fd5b5061052c611631565b6040516105399190613c1f565b60405180910390f35b34801561054e57600080fd5b506105576116c6565b60405161056491906139cd565b60405180910390f35b34801561057957600080fd5b50610594600480360381019061058f919061384c565b611758565b005b3480156105a257600080fd5b506105bd60048036038101906105b89190613c6d565b611c19565b005b3480156105cb57600080fd5b506105e660048036038101906105e1919061384c565b611d9a565b6040516105f896959493929190613cd0565b60405180910390f35b34801561060d57600080fd5b5061062860048036038101906106239190613e6d565b611eb6565b005b34801561063657600080fd5b50610651600480360381019061064c919061384c565b611f18565b60405161065e91906139cd565b60405180910390f35b34801561067357600080fd5b5061067c611fbf565b60405161068991906140a3565b60405180910390f35b34801561069e57600080fd5b506106a76122bc565b6040516106b49190613ac6565b60405180910390f35b3480156106c957600080fd5b506106e460048036038101906106df919061384c565b6122c9565b6040516106f19190613a30565b60405180910390f35b34801561070657600080fd5b5061070f6122fc565b60405161071c9190613ac6565b60405180910390f35b34801561073157600080fd5b5061074c600480360381019061074791906140c5565b612302565b6040516107599190613894565b60405180910390f35b61077c600480360381019061077791906141d2565b612396565b005b34801561078a57600080fd5b506107a560048036038101906107a09190613b34565b6124be565b005b600080600c600084815260200190815260200160002060003373ffffffffffffffffffffffffffffffffffffffff1673ffffffffffffffffffffffffffffffffffffffff16815260200190815260200160002054119050919050565b60007f80ac58cd000000000000000000000000000000000000000000000000000000007bffffffffffffffffffffffffffffffffffffffffffffffffffffffff1916827bffffffffffffffffffffffffffffffffffffffffffffffffffffffff191614806108ce57507f5b5e139f000000000000000000000000000000000000000000000000000000007bffffffffffffffffffffffffffffffffffffffffffffffffffffffff1916827bffffffffffffffffffffffffffffffffffffffffffffffffffffffff1916145b806108de57506108dd826125b6565b5b9050919050565b6060600080546108f490614284565b80601f016020809104026020016040519081016040528092919081815260200182805461092090614284565b801561096d5780601f106109425761010080835404028352916020019161096d565b820191906000526020600020905b81548152906001019060200180831161095057829003601f168201915b5050505050905090565b600061098282612620565b6109c1576040517f08c379a00000000000000000000000000000000000000000000000000000000081526004016109b890614328565b60405180910390fd5b6004600083815260200190815260200160002060009054906101000a900473ffffffffffffffffffffffffffffffffffffffff169050919050565b6000610a0782611190565b90508073ffffffffffffffffffffffffffffffffffffffff168373ffffffffffffffffffffffffffffffffffffffff161415610a78576040517f08c379a0000000000000000000000000000000000000000000000000000000008152600401610a6f906143ba565b60405180910390fd5b8073ffffffffffffffffffffffffffffffffffffffff16610a9761268c565b73ffffffffffffffffffffffffffffffffffffffff161480610ac65750610ac581610ac061268c565b612302565b5b610b05576040517f08c379a0000000000000000000000000000000000000000000000000000000008152600401610afc9061444c565b60405180910390fd5b610b0f8383612694565b505050565b6000601260003373ffffffffffffffffffffffffffffffffffffffff1673ffffffffffffffffffffffffffffffffffffffff16815260200190815260200160002054905090565b610b6c610b6661268c565b8261274d565b610bab576040517f08c379a0000000000000000000000000000000000000000000000000000000008152600401610ba2906144de565b60405180910390fd5b610bb683838361282b565b505050565b6000813373ffffffffffffffffffffffffffffffffffffffff166013600083815260200190815260200160002060009054906101000a900473ffffffffffffffffffffffffffffffffffffffff1673ffffffffffffffffffffffffffffffffffffffff1614610c5f576040517f08c379a0000000000000000000000000000000000000000000000000000000008152600401610c5690614570565b60405180910390fd5b600e600084815260200190815260200160002080549050915050919050565b806000600a8281548110610c9557610c94614590565b5b90600052602060002090600502016040518060c0016040529081600082015481526020016001820160009054906101000a900473ffffffffffffffffffffffffffffffffffffffff1673ffffffffffffffffffffffffffffffffffffffff1673ffffffffffffffffffffffffffffffffffffffff168152602001600282018054610d1e90614284565b80601f0160208091040260200160405190810160405280929190818152602001828054610d4a90614284565b8015610d975780601f10610d6c57610100808354040283529160200191610d97565b820191906000526020600020905b815481529060010190602001808311610d7a57829003601f168201915b50505050508152602001600382015481526020016004820160009054906101000a900467ffffffffffffffff1667ffffffffffffffff1667ffffffffffffffff1681526020016004820160089054906101000a900467ffffffffffffffff1667ffffffffffffffff1667ffffffffffffffff16815250509050806080015167ffffffffffffffff164210610e60576040517f08c379a0000000000000000000000000000000000000000000000000000000008152600401610e579061460b565b60405180910390fd5b826000600c6000838152602001908152602001600020905060008160003373ffffffffffffffffffffffffffffffffffffffff1673ffffffffffffffffffffffffffffffffffffffff1681526020019081526020016000205414610ef9576040517f08c379a0000000000000000000000000000000000000000000000000000000008152600401610ef09061469d565b60405180910390fd5b843373ffffffffffffffffffffffffffffffffffffffff166013600083815260200190815260200160002060009054906101000a900473ffffffffffffffffffffffffffffffffffffffff1673ffffffffffffffffffffffffffffffffffffffff161415610f9c576040517f08c379a0000000000000000000000000000000000000000000000000000000008152600401610f939061472f565b60405180910390fd5b60026007541415610fe2576040517f08c379a0000000000000000000000000000000000000000000000000000000008152600401610fd99061479b565b60405180910390fd5b600260078190555060004290506000600c60008981526020019081526020016000209050818160003373ffffffffffffffffffffffffffffffffffffffff1673ffffffffffffffffffffffffffffffffffffffff16815260200190815260200160002081905550600d60003373ffffffffffffffffffffffffffffffffffffffff1673ffffffffffffffffffffffffffffffffffffffff168152602001908152602001600020889080600181540180825580915050600190039060005260206000200160009091909190915055600e6000898152602001908152602001600020339080600181540180825580915050600190039060005260206000200160009091909190916101000a81548173ffffffffffffffffffffffffffffffffffffffff021916908373ffffffffffffffffffffffffffffffffffffffff1602179055507f16c02eafd4a170f62c09971fefa1b5aeaaffab6305564bb18a72a6150daa764e883384604051611156939291906147bb565b60405180910390a150506001600781905550505050505050565b61118b83838360405180602001604052806000815250611eb6565b505050565b6000806002600084815260200190815260200160002060009054906101000a900473ffffffffffffffffffffffffffffffffffffffff169050600073ffffffffffffffffffffffffffffffffffffffff168173ffffffffffffffffffffffffffffffffffffffff161415611239576040517f08c379a000000000000000000000000000000000000000000000000000000000815260040161123090614864565b60405180910390fd5b80915050919050565b60008073ffffffffffffffffffffffffffffffffffffffff168273ffffffffffffffffffffffffffffffffffffffff1614156112b3576040517f08c379a00000000000000000000000000000000000000000000000000000000081526004016112aa906148f6565b60405180910390fd5b600360008373ffffffffffffffffffffffffffffffffffffffff1673ffffffffffffffffffffffffffffffffffffffff168152602001908152602001600020549050919050565b600b6020528060005260406000206000915054906101000a900460ff1681565b61132261268c565b73ffffffffffffffffffffffffffffffffffffffff166113406114de565b73ffffffffffffffffffffffffffffffffffffffff1614611396576040517f08c379a000000000000000000000000000000000000000000000000000000000815260040161138d90614962565b60405180910390fd5b6113a06000612a87565b565b606060006113af33611242565b905060008167ffffffffffffffff8111156113cd576113cc613d42565b5b6040519080825280602002602001820160405280156113fb5781602001602082028036833780820191505090505b5090506000805b600084118015611416575060118054905081105b156114d45760006011828154811061143157611430614590565b5b906000526020600020015490503373ffffffffffffffffffffffffffffffffffffffff1661145e82611190565b73ffffffffffffffffffffffffffffffffffffffff1614156114c0576000601060008381526020019081526020016000205490508085858061149f906149b1565b9650815181106114b2576114b1614590565b5b602002602001018181525050505b5080806114cc906149b1565b915050611402565b5081935050505090565b6000600660009054906101000a900473ffffffffffffffffffffffffffffffffffffffff16905090565b61151061268c565b73ffffffffffffffffffffffffffffffffffffffff1661152e6114de565b73ffffffffffffffffffffffffffffffffffffffff1614611584576040517f08c379a000000000000000000000000000000000000000000000000000000000815260040161157b90614962565b60405180910390fd5b600260075414156115ca576040517f08c379a00000000000000000000000000000000000000000000000000000000081526004016115c19061479b565b60405180910390fd5b600260078190555080600954146116265760006009549050816009819055507fc3ae4d05a23526d863c1db9f30859dec463447da15d77d1345daec3ed995d3c18160095460405161161c9291906149fa565b60405180910390a1505b600160078190555050565b6060600d60003373ffffffffffffffffffffffffffffffffffffffff1673ffffffffffffffffffffffffffffffffffffffff1681526020019081526020016000208054806020026020016040519081016040528092919081815260200182805480156116bc57602002820191906000526020600020905b8154815260200190600101908083116116a8575b5050505050905090565b6060600180546116d590614284565b80601f016020809104026020016040519081016040528092919081815260200182805461170190614284565b801561174e5780601f106117235761010080835404028352916020019161174e565b820191906000526020600020905b81548152906001019060200180831161173157829003601f168201915b5050505050905090565b803373ffffffffffffffffffffffffffffffffffffffff166013600083815260200190815260200160002060009054906101000a900473ffffffffffffffffffffffffffffffffffffffff1673ffffffffffffffffffffffffffffffffffffffff16146117fa576040517f08c379a00000000000000000000000000000000000000000000000000000000081526004016117f190614570565b60405180910390fd5b816000600a828154811061181157611810614590565b5b90600052602060002090600502016040518060c0016040529081600082015481526020016001820160009054906101000a900473ffffffffffffffffffffffffffffffffffffffff1673ffffffffffffffffffffffffffffffffffffffff1673ffffffffffffffffffffffffffffffffffffffff16815260200160028201805461189a90614284565b80601f01602080910402602001604051908101604052809291908181526020018280546118c690614284565b80156119135780601f106118e857610100808354040283529160200191611913565b820191906000526020600020905b8154815290600101906020018083116118f657829003601f168201915b50505050508152602001600382015481526020016004820160009054906101000a900467ffffffffffffffff1667ffffffffffffffff1667ffffffffffffffff1681526020016004820160089054906101000a900467ffffffffffffffff1667ffffffffffffffff1667ffffffffffffffff1681525050905060001515600b600084815260200190815260200160002060009054906101000a900460ff1615151480156119cf57506000816080015167ffffffffffffffff1614155b80156119e95750806080015167ffffffffffffffff164210155b611a28576040517f08c379a0000000000000000000000000000000000000000000000000000000008152600401611a1f90614a95565b60405180910390fd5b60026007541415611a6e576040517f08c379a0000000000000000000000000000000000000000000000000000000008152600401611a659061479b565b60405180910390fd5b60026007819055506001600b600086815260200190815260200160002060006101000a81548160ff0219169083151502179055506000600e6000868152602001908152602001600020805480602002602001604051908101604052809291908181526020018280548015611b3757602002820191906000526020600020905b8160009054906101000a900473ffffffffffffffffffffffffffffffffffffffff1673ffffffffffffffffffffffffffffffffffffffff1681526020019060010190808311611aed575b505050505090506060600082511115611bd057611b8382611b7e8451600a8a81548110611b6757611b66614590565b5b906000526020600020906005020160030154612b4d565b612b66565b905060005b8151811015611bce576000828281518110611ba657611ba5614590565b5b60200260200101519050611bba8882612cbc565b508080611bc6906149b1565b915050611b88565b505b7f8869306e622784f945949ca35d9495e3b75dcbdfc41d776da82fa27213bd82de8682604051611c01929190614b64565b60405180910390a15050600160078190555050505050565b611c2161268c565b73ffffffffffffffffffffffffffffffffffffffff168273ffffffffffffffffffffffffffffffffffffffff161415611c8f576040517f08c379a0000000000000000000000000000000000000000000000000000000008152600401611c8690614be0565b60405180910390fd5b8060056000611c9c61268c565b73ffffffffffffffffffffffffffffffffffffffff1673ffffffffffffffffffffffffffffffffffffffff16815260200190815260200160002060008473ffffffffffffffffffffffffffffffffffffffff1673ffffffffffffffffffffffffffffffffffffffff16815260200190815260200160002060006101000a81548160ff0219169083151502179055508173ffffffffffffffffffffffffffffffffffffffff16611d4961268c565b73ffffffffffffffffffffffffffffffffffffffff167f17307eab39ab6107e8899845ad3d59bd9653f200f220920489ca2b5937696c3183604051611d8e9190613894565b60405180910390a35050565b600a8181548110611daa57600080fd5b90600052602060002090600502016000915090508060000154908060010160009054906101000a900473ffffffffffffffffffffffffffffffffffffffff1690806002018054611df990614284565b80601f0160208091040260200160405190810160405280929190818152602001828054611e2590614284565b8015611e725780601f10611e4757610100808354040283529160200191611e72565b820191906000526020600020905b815481529060010190602001808311611e5557829003601f168201915b5050505050908060030154908060040160009054906101000a900467ffffffffffffffff16908060040160089054906101000a900467ffffffffffffffff16905086565b611ec7611ec161268c565b8361274d565b611f06576040517f08c379a0000000000000000000000000000000000000000000000000000000008152600401611efd906144de565b60405180910390fd5b611f1284848484612e01565b50505050565b6060611f2382612620565b611f62576040517f08c379a0000000000000000000000000000000000000000000000000000000008152600401611f5990614c72565b60405180910390fd5b6000611f6c612e5d565b90506000815111611f8c5760405180602001604052806000815250611fb7565b80611f9684612e74565b604051602001611fa7929190614cce565b6040516020818303038152906040525b915050919050565b606060003390506000601260008373ffffffffffffffffffffffffffffffffffffffff1673ffffffffffffffffffffffffffffffffffffffff1681526020019081526020016000205467ffffffffffffffff81111561202157612020613d42565b5b60405190808252806020026020018201604052801561205a57816020015b6120476136ff565b81526020019060019003908161203f5790505b5090506000805b600a805490508110156122b2578373ffffffffffffffffffffffffffffffffffffffff16600a828154811061209957612098614590565b5b906000526020600020906005020160010160009054906101000a900473ffffffffffffffffffffffffffffffffffffffff1673ffffffffffffffffffffffffffffffffffffffff16141561229f57600a81815481106120fb576120fa614590565b5b90600052602060002090600502016040518060c0016040529081600082015481526020016001820160009054906101000a900473ffffffffffffffffffffffffffffffffffffffff1673ffffffffffffffffffffffffffffffffffffffff1673ffffffffffffffffffffffffffffffffffffffff16815260200160028201805461218490614284565b80601f01602080910402602001604051908101604052809291908181526020018280546121b090614284565b80156121fd5780601f106121d2576101008083540402835291602001916121fd565b820191906000526020600020905b8154815290600101906020018083116121e057829003601f168201915b50505050508152602001600382015481526020016004820160009054906101000a900467ffffffffffffffff1667ffffffffffffffff1667ffffffffffffffff1681526020016004820160089054906101000a900467ffffffffffffffff1667ffffffffffffffff1667ffffffffffffffff1681525050838380612280906149b1565b94508151811061229357612292614590565b5b60200260200101819052505b80806122aa906149b1565b915050612061565b5081935050505090565b6000600a80549050905090565b60136020528060005260406000206000915054906101000a900473ffffffffffffffffffffffffffffffffffffffff1681565b60095481565b6000600560008473ffffffffffffffffffffffffffffffffffffffff1673ffffffffffffffffffffffffffffffffffffffff16815260200190815260200160002060008373ffffffffffffffffffffffffffffffffffffffff1673ffffffffffffffffffffffffffffffffffffffff16815260200190815260200160002060009054906101000a900460ff16905092915050565b6009543410156123a7600954612e74565b6123b034612e74565b6040516020016123c1929190614d8a565b60405160208183030381529060405290612411576040517f08c379a000000000000000000000000000000000000000000000000000000000815260040161240891906139cd565b60405180910390fd5b50600061242085858585612fd5565b9050600061242c6114de565b90508073ffffffffffffffffffffffffffffffffffffffff166108fc349081150290604051600060405180830381858888f19350505050158015612474573d6000803e3d6000fd5b507f0a63f1d05e5ef7a076666610741aeec38a557d32f3344efe6d0476a329c9970a826000015183602001516040516124ae929190614dc4565b60405180910390a1505050505050565b6124c661268c565b73ffffffffffffffffffffffffffffffffffffffff166124e46114de565b73ffffffffffffffffffffffffffffffffffffffff161461253a576040517f08c379a000000000000000000000000000000000000000000000000000000000815260040161253190614962565b60405180910390fd5b600073ffffffffffffffffffffffffffffffffffffffff168173ffffffffffffffffffffffffffffffffffffffff1614156125aa576040517f08c379a00000000000000000000000000000000000000000000000000000000081526004016125a190614e5f565b60405180910390fd5b6125b381612a87565b50565b60007f01ffc9a7000000000000000000000000000000000000000000000000000000007bffffffffffffffffffffffffffffffffffffffffffffffffffffffff1916827bffffffffffffffffffffffffffffffffffffffffffffffffffffffff1916149050919050565b60008073ffffffffffffffffffffffffffffffffffffffff166002600084815260200190815260200160002060009054906101000a900473ffffffffffffffffffffffffffffffffffffffff1673ffffffffffffffffffffffffffffffffffffffff1614159050919050565b600033905090565b816004600083815260200190815260200160002060006101000a81548173ffffffffffffffffffffffffffffffffffffffff021916908373ffffffffffffffffffffffffffffffffffffffff160217905550808273ffffffffffffffffffffffffffffffffffffffff1661270783611190565b73ffffffffffffffffffffffffffffffffffffffff167f8c5be1e5ebec7d5bd14f71427d1e84f3dd0314c0f7b2291e5b200ac8c7c3b92560405160405180910390a45050565b600061275882612620565b612797576040517f08c379a000000000000000000000000000000000000000000000000000000000815260040161278e90614ef1565b60405180910390fd5b60006127a283611190565b90508073ffffffffffffffffffffffffffffffffffffffff168473ffffffffffffffffffffffffffffffffffffffff16148061281157508373ffffffffffffffffffffffffffffffffffffffff166127f984610977565b73ffffffffffffffffffffffffffffffffffffffff16145b8061282257506128218185612302565b5b91505092915050565b8273ffffffffffffffffffffffffffffffffffffffff1661284b82611190565b73ffffffffffffffffffffffffffffffffffffffff16146128a1576040517f08c379a000000000000000000000000000000000000000000000000000000000815260040161289890614f83565b60405180910390fd5b600073ffffffffffffffffffffffffffffffffffffffff168273ffffffffffffffffffffffffffffffffffffffff161415612911576040517f08c379a000000000000000000000000000000000000000000000000000000000815260040161290890615015565b60405180910390fd5b61291c8383836132f4565b612927600082612694565b6001600360008573ffffffffffffffffffffffffffffffffffffffff1673ffffffffffffffffffffffffffffffffffffffff16815260200190815260200160002060008282546129779190615035565b925050819055506001600360008473ffffffffffffffffffffffffffffffffffffffff1673ffffffffffffffffffffffffffffffffffffffff16815260200190815260200160002060008282546129ce9190615069565b92505081905550816002600083815260200190815260200160002060006101000a81548173ffffffffffffffffffffffffffffffffffffffff021916908373ffffffffffffffffffffffffffffffffffffffff160217905550808273ffffffffffffffffffffffffffffffffffffffff168473ffffffffffffffffffffffffffffffffffffffff167fddf252ad1be2c89b69c2b068fc378daa952ba7f163c4a11628f55a4df523b3ef60405160405180910390a4505050565b6000600660009054906101000a900473ffffffffffffffffffffffffffffffffffffffff16905081600660006101000a81548173ffffffffffffffffffffffffffffffffffffffff021916908373ffffffffffffffffffffffffffffffffffffffff1602179055508173ffffffffffffffffffffffffffffffffffffffff168173ffffffffffffffffffffffffffffffffffffffff167f8be0079c531659141344cd1fd0a4f28419497f9722a3daafe3b4186f6b6457e060405160405180910390a35050565b6000818310612b5c5781612b5e565b825b905092915050565b60606000424485604051602001612b7f93929190615170565b6040516020818303038152906040528051906020012060001c90506000845182612ba991906151d8565b905084518110612bbc57612bbb615209565b5b600081905060008567ffffffffffffffff811115612bdd57612bdc613d42565b5b604051908082528060200260200182016040528015612c0b5781602001602082028036833780820191505090505b50905060005b8151811015612cae57878380612c26906149b1565b945081518110612c3957612c38614590565b5b6020026020010151828281518110612c5457612c53614590565b5b602002602001019073ffffffffffffffffffffffffffffffffffffffff16908173ffffffffffffffffffffffffffffffffffffffff168152505087518310612c9b57600092505b8080612ca6906149b1565b915050612c11565b508094505050505092915050565b813373ffffffffffffffffffffffffffffffffffffffff166013600083815260200190815260200160002060009054906101000a900473ffffffffffffffffffffffffffffffffffffffff1673ffffffffffffffffffffffffffffffffffffffff1614612d5e576040517f08c379a0000000000000000000000000000000000000000000000000000000008152600401612d5590614570565b60405180910390fd5b6000612d6a60086132f9565b9050612d766008613307565b600f60008581526020019081526020016000208190806001815401808255809150506001900390600052602060002001600090919091909150556011819080600181540180825580915050600190039060005260206000200160009091909190915055836010600083815260200190815260200160002081905550612dfb838261331d565b50505050565b612e0c84848461282b565b612e188484848461333b565b612e57576040517f08c379a0000000000000000000000000000000000000000000000000000000008152600401612e4e906152aa565b60405180910390fd5b50505050565b606060405180602001604052806000815250905090565b60606000821415612ebc576040518060400160405280600181526020017f30000000000000000000000000000000000000000000000000000000000000008152509050612fd0565b600082905060005b60008214612eee578080612ed7906149b1565b915050600a82612ee791906152ca565b9150612ec4565b60008167ffffffffffffffff811115612f0a57612f09613d42565b5b6040519080825280601f01601f191660200182016040528015612f3c5781602001600182028036833780820191505090505b5090505b60008514612fc957600182612f559190615035565b9150600a85612f6491906151d8565b6030612f709190615069565b60f81b818381518110612f8657612f85614590565b5b60200101907effffffffffffffffffffffffffffffffffffffffffffffffffffffffffffff1916908160001a905350600a85612fc291906152ca565b9450612f40565b8093505050505b919050565b612fdd6136ff565b6000855111613021576040517f08c379a000000000000000000000000000000000000000000000000000000000815260040161301890615347565b60405180910390fd5b60008411613064576040517f08c379a000000000000000000000000000000000000000000000000000000000815260040161305b906153b3565b60405180910390fd5b8267ffffffffffffffff168267ffffffffffffffff161180156130905750428367ffffffffffffffff16115b6130cf576040517f08c379a00000000000000000000000000000000000000000000000000000000081526004016130c690615445565b60405180910390fd5b6000600a805490509050600033905060006040518060c001604052808481526020018373ffffffffffffffffffffffffffffffffffffffff1681526020018981526020018881526020018767ffffffffffffffff1681526020018667ffffffffffffffff168152509050816013600085815260200190815260200160002060006101000a81548173ffffffffffffffffffffffffffffffffffffffff021916908373ffffffffffffffffffffffffffffffffffffffff1602179055506001601260008473ffffffffffffffffffffffffffffffffffffffff1673ffffffffffffffffffffffffffffffffffffffff16815260200190815260200160002060008282546131db9190615069565b92505081905550600a8190806001815401808255809150506001900390600052602060002090600502016000909190919091506000820151816000015560208201518160010160006101000a81548173ffffffffffffffffffffffffffffffffffffffff021916908373ffffffffffffffffffffffffffffffffffffffff160217905550604082015181600201908051906020019061327b92919061375f565b506060820151816003015560808201518160040160006101000a81548167ffffffffffffffff021916908367ffffffffffffffff16021790555060a08201518160040160086101000a81548167ffffffffffffffff021916908367ffffffffffffffff1602179055505050809350505050949350505050565b505050565b600081600001549050919050565b6001816000016000828254019250508190555050565b6133378282604051806020016040528060008152506134c3565b5050565b600061335c8473ffffffffffffffffffffffffffffffffffffffff1661351e565b156134b6578373ffffffffffffffffffffffffffffffffffffffff1663150b7a0261338561268c565b8786866040518563ffffffff1660e01b81526004016133a794939291906154ba565b6020604051808303816000875af19250505080156133e357506040513d601f19601f820116820180604052508101906133e0919061551b565b60015b613466573d8060008114613413576040519150601f19603f3d011682016040523d82523d6000602084013e613418565b606091505b5060008151141561345e576040517f08c379a0000000000000000000000000000000000000000000000000000000008152600401613455906152aa565b60405180910390fd5b805181602001fd5b63150b7a0260e01b7bffffffffffffffffffffffffffffffffffffffffffffffffffffffff1916817bffffffffffffffffffffffffffffffffffffffffffffffffffffffff1916149150506134bb565b600190505b949350505050565b6134cd8383613531565b6134da600084848461333b565b613519576040517f08c379a0000000000000000000000000000000000000000000000000000000008152600401613510906152aa565b60405180910390fd5b505050565b600080823b905060008111915050919050565b600073ffffffffffffffffffffffffffffffffffffffff168273ffffffffffffffffffffffffffffffffffffffff1614156135a1576040517f08c379a000000000000000000000000000000000000000000000000000000000815260040161359890615594565b60405180910390fd5b6135aa81612620565b156135ea576040517f08c379a00000000000000000000000000000000000000000000000000000000081526004016135e190615600565b60405180910390fd5b6135f6600083836132f4565b6001600360008473ffffffffffffffffffffffffffffffffffffffff1673ffffffffffffffffffffffffffffffffffffffff16815260200190815260200160002060008282546136469190615069565b92505081905550816002600083815260200190815260200160002060006101000a81548173ffffffffffffffffffffffffffffffffffffffff021916908373ffffffffffffffffffffffffffffffffffffffff160217905550808273ffffffffffffffffffffffffffffffffffffffff16600073ffffffffffffffffffffffffffffffffffffffff167fddf252ad1be2c89b69c2b068fc378daa952ba7f163c4a11628f55a4df523b3ef60405160405180910390a45050565b6040518060c0016040528060008152602001600073ffffffffffffffffffffffffffffffffffffffff1681526020016060815260200160008152602001600067ffffffffffffffff168152602001600067ffffffffffffffff1681525090565b82805461376b90614284565b90600052602060002090601f01602090048101928261378d57600085556137d4565b82601f106137a657805160ff19168380011785556137d4565b828001600101855582156137d4579182015b828111156137d35782518255916020019190600101906137b8565b5b5090506137e191906137e5565b5090565b5b808211156137fe5760008160009055506001016137e6565b5090565b6000604051905090565b600080fd5b600080fd5b6000819050919050565b61382981613816565b811461383457600080fd5b50565b60008135905061384681613820565b92915050565b6000602082840312156138625761386161380c565b5b600061387084828501613837565b91505092915050565b60008115159050919050565b61388e81613879565b82525050565b60006020820190506138a96000830184613885565b92915050565b60007fffffffff0000000000000000000000000000000000000000000000000000000082169050919050565b6138e4816138af565b81146138ef57600080fd5b50565b600081359050613901816138db565b92915050565b60006020828403121561391d5761391c61380c565b5b600061392b848285016138f2565b91505092915050565b600081519050919050565b600082825260208201905092915050565b60005b8381101561396e578082015181840152602081019050613953565b8381111561397d576000848401525b50505050565b6000601f19601f8301169050919050565b600061399f82613934565b6139a9818561393f565b93506139b9818560208601613950565b6139c281613983565b840191505092915050565b600060208201905081810360008301526139e78184613994565b905092915050565b600073ffffffffffffffffffffffffffffffffffffffff82169050919050565b6000613a1a826139ef565b9050919050565b613a2a81613a0f565b82525050565b6000602082019050613a456000830184613a21565b92915050565b613a5481613a0f565b8114613a5f57600080fd5b50565b600081359050613a7181613a4b565b92915050565b60008060408385031215613a8e57613a8d61380c565b5b6000613a9c85828601613a62565b9250506020613aad85828601613837565b9150509250929050565b613ac081613816565b82525050565b6000602082019050613adb6000830184613ab7565b92915050565b600080600060608486031215613afa57613af961380c565b5b6000613b0886828701613a62565b9350506020613b1986828701613a62565b9250506040613b2a86828701613837565b9150509250925092565b600060208284031215613b4a57613b4961380c565b5b6000613b5884828501613a62565b91505092915050565b600081519050919050565b600082825260208201905092915050565b6000819050602082019050919050565b613b9681613816565b82525050565b6000613ba88383613b8d565b60208301905092915050565b6000602082019050919050565b6000613bcc82613b61565b613bd68185613b6c565b9350613be183613b7d565b8060005b83811015613c12578151613bf98882613b9c565b9750613c0483613bb4565b925050600181019050613be5565b5085935050505092915050565b60006020820190508181036000830152613c398184613bc1565b905092915050565b613c4a81613879565b8114613c5557600080fd5b50565b600081359050613c6781613c41565b92915050565b60008060408385031215613c8457613c8361380c565b5b6000613c9285828601613a62565b9250506020613ca385828601613c58565b9150509250929050565b600067ffffffffffffffff82169050919050565b613cca81613cad565b82525050565b600060c082019050613ce56000830189613ab7565b613cf26020830188613a21565b8181036040830152613d048187613994565b9050613d136060830186613ab7565b613d206080830185613cc1565b613d2d60a0830184613cc1565b979650505050505050565b600080fd5b600080fd5b7f4e487b7100000000000000000000000000000000000000000000000000000000600052604160045260246000fd5b613d7a82613983565b810181811067ffffffffffffffff82111715613d9957613d98613d42565b5b80604052505050565b6000613dac613802565b9050613db88282613d71565b919050565b600067ffffffffffffffff821115613dd857613dd7613d42565b5b613de182613983565b9050602081019050919050565b82818337600083830152505050565b6000613e10613e0b84613dbd565b613da2565b905082815260208101848484011115613e2c57613e2b613d3d565b5b613e37848285613dee565b509392505050565b600082601f830112613e5457613e53613d38565b5b8135613e64848260208601613dfd565b91505092915050565b60008060008060808587031215613e8757613e8661380c565b5b6000613e9587828801613a62565b9450506020613ea687828801613a62565b9350506040613eb787828801613837565b925050606085013567ffffffffffffffff811115613ed857613ed7613811565b5b613ee487828801613e3f565b91505092959194509250565b600081519050919050565b600082825260208201905092915050565b6000819050602082019050919050565b613f2581613a0f565b82525050565b600082825260208201905092915050565b6000613f4782613934565b613f518185613f2b565b9350613f61818560208601613950565b613f6a81613983565b840191505092915050565b613f7e81613cad565b82525050565b600060c083016000830151613f9c6000860182613b8d565b506020830151613faf6020860182613f1c565b5060408301518482036040860152613fc78282613f3c565b9150506060830151613fdc6060860182613b8d565b506080830151613fef6080860182613f75565b5060a083015161400260a0860182613f75565b508091505092915050565b60006140198383613f84565b905092915050565b6000602082019050919050565b600061403982613ef0565b6140438185613efb565b93508360208202850161405585613f0c565b8060005b858110156140915784840389528151614072858261400d565b945061407d83614021565b925060208a01995050600181019050614059565b50829750879550505050505092915050565b600060208201905081810360008301526140bd818461402e565b905092915050565b600080604083850312156140dc576140db61380c565b5b60006140ea85828601613a62565b92505060206140fb85828601613a62565b9150509250929050565b600067ffffffffffffffff8211156141205761411f613d42565b5b61412982613983565b9050602081019050919050565b600061414961414484614105565b613da2565b90508281526020810184848401111561416557614164613d3d565b5b614170848285613dee565b509392505050565b600082601f83011261418d5761418c613d38565b5b813561419d848260208601614136565b91505092915050565b6141af81613cad565b81146141ba57600080fd5b50565b6000813590506141cc816141a6565b92915050565b600080600080608085870312156141ec576141eb61380c565b5b600085013567ffffffffffffffff81111561420a57614209613811565b5b61421687828801614178565b945050602061422787828801613837565b9350506040614238878288016141bd565b9250506060614249878288016141bd565b91505092959194509250565b7f4e487b7100000000000000000000000000000000000000000000000000000000600052602260045260246000fd5b6000600282049050600182168061429c57607f821691505b602082108114156142b0576142af614255565b5b50919050565b7f4552433732313a20617070726f76656420717565727920666f72206e6f6e657860008201527f697374656e7420746f6b656e0000000000000000000000000000000000000000602082015250565b6000614312602c8361393f565b915061431d826142b6565b604082019050919050565b6000602082019050818103600083015261434181614305565b9050919050565b7f4552433732313a20617070726f76616c20746f2063757272656e74206f776e6560008201527f7200000000000000000000000000000000000000000000000000000000000000602082015250565b60006143a460218361393f565b91506143af82614348565b604082019050919050565b600060208201905081810360008301526143d381614397565b9050919050565b7f4552433732313a20617070726f76652063616c6c6572206973206e6f74206f7760008201527f6e6572206e6f7220617070726f76656420666f7220616c6c0000000000000000602082015250565b600061443660388361393f565b9150614441826143da565b604082019050919050565b6000602082019050818103600083015261446581614429565b9050919050565b7f4552433732313a207472616e736665722063616c6c6572206973206e6f74206f60008201527f776e6572206e6f7220617070726f766564000000000000000000000000000000602082015250565b60006144c860318361393f565b91506144d38261446c565b604082019050919050565b600060208201905081810360008301526144f7816144bb565b9050919050565b7f5472616e73616374696f6e2073656e646572206973206e6f74206f7267616e6960008201527f7a6572206f6620746865206576656e7400000000000000000000000000000000602082015250565b600061455a60308361393f565b9150614565826144fe565b604082019050919050565b600060208201905081810360008301526145898161454d565b9050919050565b7f4e487b7100000000000000000000000000000000000000000000000000000000600052603260045260246000fd5b7f416c726561647920616674657220726567697374726174696f6e206461746500600082015250565b60006145f5601f8361393f565b9150614600826145bf565b602082019050919050565b60006020820190508181036000830152614624816145e8565b9050919050565b7f416c726561647920726567697365746572656420666f7220746865206576656e60008201527f7400000000000000000000000000000000000000000000000000000000000000602082015250565b600061468760218361393f565b91506146928261462b565b604082019050919050565b600060208201905081810360008301526146b68161467a565b9050919050565b7f5472616e73616374696f6e2073656e6465722063616e6e6f74206265206f726760008201527f616e697a6572206f6620746865206576656e7400000000000000000000000000602082015250565b600061471960338361393f565b9150614724826146bd565b604082019050919050565b600060208201905081810360008301526147488161470c565b9050919050565b7f5265656e7472616e637947756172643a207265656e7472616e742063616c6c00600082015250565b6000614785601f8361393f565b91506147908261474f565b602082019050919050565b600060208201905081810360008301526147b481614778565b9050919050565b60006060820190506147d06000830186613ab7565b6147dd6020830185613a21565b6147ea6040830184613ab7565b949350505050565b7f4552433732313a206f776e657220717565727920666f72206e6f6e657869737460008201527f656e7420746f6b656e0000000000000000000000000000000000000000000000602082015250565b600061484e60298361393f565b9150614859826147f2565b604082019050919050565b6000602082019050818103600083015261487d81614841565b9050919050565b7f4552433732313a2062616c616e636520717565727920666f7220746865207a6560008201527f726f206164647265737300000000000000000000000000000000000000000000602082015250565b60006148e0602a8361393f565b91506148eb82614884565b604082019050919050565b6000602082019050818103600083015261490f816148d3565b9050919050565b7f4f776e61626c653a2063616c6c6572206973206e6f7420746865206f776e6572600082015250565b600061494c60208361393f565b915061495782614916565b602082019050919050565b6000602082019050818103600083015261497b8161493f565b9050919050565b7f4e487b7100000000000000000000000000000000000000000000000000000000600052601160045260246000fd5b60006149bc82613816565b91507fffffffffffffffffffffffffffffffffffffffffffffffffffffffffffffffff8214156149ef576149ee614982565b5b600182019050919050565b6000604082019050614a0f6000830185613ab7565b614a1c6020830184613ab7565b9392505050565b7f4576656e7420636c6f736564206f72206e6f742061667465722072656769737460008201527f726174696f6e2064617465207965740000000000000000000000000000000000602082015250565b6000614a7f602f8361393f565b9150614a8a82614a23565b604082019050919050565b60006020820190508181036000830152614aae81614a72565b9050919050565b600081519050919050565b600082825260208201905092915050565b6000819050602082019050919050565b6000614aed8383613f1c565b60208301905092915050565b6000602082019050919050565b6000614b1182614ab5565b614b1b8185614ac0565b9350614b2683614ad1565b8060005b83811015614b57578151614b3e8882614ae1565b9750614b4983614af9565b925050600181019050614b2a565b5085935050505092915050565b6000604082019050614b796000830185613ab7565b8181036020830152614b8b8184614b06565b90509392505050565b7f4552433732313a20617070726f766520746f2063616c6c657200000000000000600082015250565b6000614bca60198361393f565b9150614bd582614b94565b602082019050919050565b60006020820190508181036000830152614bf981614bbd565b9050919050565b7f4552433732314d657461646174613a2055524920717565727920666f72206e6f60008201527f6e6578697374656e7420746f6b656e0000000000000000000000000000000000602082015250565b6000614c5c602f8361393f565b9150614c6782614c00565b604082019050919050565b60006020820190508181036000830152614c8b81614c4f565b9050919050565b600081905092915050565b6000614ca882613934565b614cb28185614c92565b9350614cc2818560208601613950565b80840191505092915050565b6000614cda8285614c9d565b9150614ce68284614c9d565b91508190509392505050565b7f45787065637465643a2000000000000000000000000000000000000000000000600082015250565b6000614d28600a83614c92565b9150614d3382614cf2565b600a82019050919050565b7f20676f743a200000000000000000000000000000000000000000000000000000600082015250565b6000614d74600683614c92565b9150614d7f82614d3e565b600682019050919050565b6000614d9582614d1b565b9150614da18285614c9d565b9150614dac82614d67565b9150614db88284614c9d565b91508190509392505050565b6000604082019050614dd96000830185613ab7565b614de66020830184613a21565b9392505050565b7f4f776e61626c653a206e6577206f776e657220697320746865207a65726f206160008201527f6464726573730000000000000000000000000000000000000000000000000000602082015250565b6000614e4960268361393f565b9150614e5482614ded565b604082019050919050565b60006020820190508181036000830152614e7881614e3c565b9050919050565b7f4552433732313a206f70657261746f7220717565727920666f72206e6f6e657860008201527f697374656e7420746f6b656e0000000000000000000000000000000000000000602082015250565b6000614edb602c8361393f565b9150614ee682614e7f565b604082019050919050565b60006020820190508181036000830152614f0a81614ece565b9050919050565b7f4552433732313a207472616e73666572206f6620746f6b656e2074686174206960008201527f73206e6f74206f776e0000000000000000000000000000000000000000000000602082015250565b6000614f6d60298361393f565b9150614f7882614f11565b604082019050919050565b60006020820190508181036000830152614f9c81614f60565b9050919050565b7f4552433732313a207472616e7366657220746f20746865207a65726f2061646460008201527f7265737300000000000000000000000000000000000000000000000000000000602082015250565b6000614fff60248361393f565b915061500a82614fa3565b604082019050919050565b6000602082019050818103600083015261502e81614ff2565b9050919050565b600061504082613816565b915061504b83613816565b92508282101561505e5761505d614982565b5b828203905092915050565b600061507482613816565b915061507f83613816565b9250827fffffffffffffffffffffffffffffffffffffffffffffffffffffffffffffffff038211156150b4576150b3614982565b5b828201905092915050565b6000819050919050565b6150da6150d582613816565b6150bf565b82525050565b600081905092915050565b6150f481613a0f565b82525050565b600061510683836150eb565b60208301905092915050565b600061511d82614ab5565b61512781856150e0565b935061513283614ad1565b8060005b8381101561516357815161514a88826150fa565b975061515583614af9565b925050600181019050615136565b5085935050505092915050565b600061517c82866150c9565b60208201915061518c82856150c9565b60208201915061519c8284615112565b9150819050949350505050565b7f4e487b7100000000000000000000000000000000000000000000000000000000600052601260045260246000fd5b60006151e382613816565b91506151ee83613816565b9250826151fe576151fd6151a9565b5b828206905092915050565b7f4e487b7100000000000000000000000000000000000000000000000000000000600052600160045260246000fd5b7f4552433732313a207472616e7366657220746f206e6f6e20455243373231526560008201527f63656976657220696d706c656d656e7465720000000000000000000000000000602082015250565b600061529460328361393f565b915061529f82615238565b604082019050919050565b600060208201905081810360008301526152c381615287565b9050919050565b60006152d582613816565b91506152e083613816565b9250826152f0576152ef6151a9565b5b828204905092915050565b7f5469746c652063616e6e6f7420626520656d7074790000000000000000000000600082015250565b600061533160158361393f565b915061533c826152fb565b602082019050919050565b6000602082019050818103600083015261536081615324565b9050919050565b7f53706f7473206d75737420626520706f73697469766520696e74656765720000600082015250565b600061539d601e8361393f565b91506153a882615367565b602082019050919050565b600060208201905081810360008301526153cc81615390565b9050919050565b7f6576656e7444617465203e20726567697374726174696f6e447565446174652060008201527f3e206e6f77282900000000000000000000000000000000000000000000000000602082015250565b600061542f60278361393f565b915061543a826153d3565b604082019050919050565b6000602082019050818103600083015261545e81615422565b9050919050565b600081519050919050565b600082825260208201905092915050565b600061548c82615465565b6154968185615470565b93506154a6818560208601613950565b6154af81613983565b840191505092915050565b60006080820190506154cf6000830187613a21565b6154dc6020830186613a21565b6154e96040830185613ab7565b81810360608301526154fb8184615481565b905095945050505050565b600081519050615515816138db565b92915050565b6000602082840312156155315761553061380c565b5b600061553f84828501615506565b91505092915050565b7f4552433732313a206d696e7420746f20746865207a65726f2061646472657373600082015250565b600061557e60208361393f565b915061558982615548565b602082019050919050565b600060208201905081810360008301526155ad81615571565b9050919050565b7f4552433732313a20746f6b656e20616c7265616479206d696e74656400000000600082015250565b60006155ea601c8361393f565b91506155f5826155b4565b602082019050919050565b60006020820190508181036000830152615619816155dd565b905091905056fea26469706673582212201a2ed322a27cca749c4b7df5de9f39b1d5616c39e74e2c1cfe18ba6ffa8e724d64736f6c634300080a0033",
  "immutableReferences": {},
  "source": "// SPDX-License-Identifier: MIT\r\npragma solidity 0.8.10;\r\n\r\nimport \"@openzeppelin/contracts/access/Ownable.sol\";\r\nimport \"@openzeppelin/contracts/security/ReentrancyGuard.sol\";\r\nimport \"@openzeppelin/contracts/token/ERC721/ERC721.sol\";\r\nimport \"@openzeppelin/contracts/utils/Counters.sol\";\r\nimport \"@openzeppelin/contracts/utils/Strings.sol\";\r\nimport \"@openzeppelin/contracts/utils/math/Math.sol\";\r\n\r\n/// @title SignMeUp\r\n/// @author Mariusz Walania\r\n/// @notice Contract owner gets paid small fee for each SignUpEventEntry created. Users can register to SignUpEventEntry. Once due date passes, SignUpEventEntry organizer can randomly choose selected participants of the event.\r\ncontract SignMeUp is ERC721, Ownable, ReentrancyGuard {\r\n    using Counters for Counters.Counter;\r\n\r\n    Counters.Counter private tokenIdCounter;\r\n\r\n    /// @return wei price paid for newly created SignUpEventEntry\r\n    uint public entryPriceWei;\r\n\r\n    // All event entries\r\n    SignUpEventEntry[] public entries;\r\n\r\n    /// @notice Keeps state of the SignUpEventEntry\r\n    /// @return true if event is closed\r\n    mapping(uint => bool) public isEventClosed;\r\n\r\n    // Mapping of registered addresses by registration date for given entry\r\n    mapping(uint => mapping(address => uint)) private entryRegistrationTimestamps;\r\n\r\n    // Entries which user registered for\r\n    mapping(address => uint[]) private registrantEntries;\r\n\r\n    // Registrants for given SignUpEventEntry\r\n    mapping(uint => address[]) private entryRegistrants;\r\n\r\n    mapping(uint => uint[]) private entryTokens;\r\n    mapping(uint => uint) private tokenEntry;\r\n    uint[] private allTokens;\r\n\r\n    // Number of entries organized by user\r\n    mapping(address => uint) private organizerEntriesCount;\r\n\r\n    // Organizer of given SignUpEventEntry\r\n    mapping(uint => address) public entryOrganizer;\r\n\r\n    /// @param id id of created SignUpEventEntry\r\n    /// @param organizer address of SignUpEventEntry organizer\r\n    event LogEntryCreated(uint id, address organizer);\r\n\r\n    /// @param id id of SignUpEventEntry someone registered to\r\n    /// @param who address of registrant for the SignUpEventEntry\r\n    /// @param when timestamp when the registration happened\r\n    event LogRegistered(uint id, address who, uint when);\r\n\r\n    /// @param id id SignUpEventEntry that was closed and for which participants were selected\r\n    /// @param participants list of participant addresses selected from registrants list\r\n    event LogEntryClosed(uint id, address[] participants);\r\n\r\n    /// @param oldPrice previous price of created SignUpEventEntry\r\n    /// @param newPrice current price of created SignUpEventEntry\r\n    event LogPriceChanged(uint oldPrice, uint newPrice);\r\n\r\n    /// @notice require the SignUpEventEntry of this id to be before registration date\r\n    /// @param eventId id of SignUpEventEntry\r\n    modifier isBeforeRegistrationDate(uint eventId) {\r\n        SignUpEventEntry memory entry = entries[eventId];\r\n        require(block.timestamp < entry.registrationDueDate, \"Already after registration date\");\r\n        _;\r\n    }\r\n\r\n    /// @notice Requires given SignUpEventEntry to be after registration date and no participants selected yet for this event\r\n    /// @param eventId SignUpEventEntry id\r\n    modifier canSelectParticipants(uint eventId) {\r\n        SignUpEventEntry memory entry = entries[eventId];\r\n        require(\r\n            isEventClosed[eventId] == false &&\r\n                entry.registrationDueDate != 0 &&\r\n                block.timestamp >= entry.registrationDueDate,\r\n            \"Event closed or not after registration date yet\"\r\n        );\r\n        _;\r\n    }\r\n\r\n    /// @notice Requires message sender not to be registered for given SignUpEventEntry\r\n    /// @param eventId SignUpEventEntry id\r\n    modifier isNotRegistered(uint eventId) {\r\n        mapping(address => uint) storage registrationTimestamps = entryRegistrationTimestamps[\r\n            eventId\r\n        ];\r\n        require(registrationTimestamps[msg.sender] == 0, \"Already regisetered for the event\");\r\n        _;\r\n    }\r\n\r\n    /// @notice Requires message sender to be organizer of this SignUpEventEntry\r\n    /// @param eventId SignUpEventEntry id\r\n    modifier isOrganizer(uint eventId) {\r\n        require(\r\n            entryOrganizer[eventId] == msg.sender,\r\n            \"Transaction sender is not organizer of the event\"\r\n        );\r\n        _;\r\n    }\r\n\r\n    /// @notice Requires message sender not to be organizer of given SignUpEventEntry\r\n    /// @param eventId SignUpEventEntry id\r\n    modifier isNotOrganizer(uint eventId) {\r\n        require(\r\n            entryOrganizer[eventId] != msg.sender,\r\n            \"Transaction sender cannot be organizer of the event\"\r\n        );\r\n        _;\r\n    }\r\n\r\n    /// @notice Requires message value to be at least of entryPriceWei\r\n    modifier paidEnough() {\r\n        require(\r\n            msg.value >= entryPriceWei,\r\n            string(\r\n                abi.encodePacked(\r\n                    \"Expected: \",\r\n                    Strings.toString(entryPriceWei),\r\n                    \" got: \",\r\n                    Strings.toString(msg.value)\r\n                )\r\n            )\r\n        );\r\n        _;\r\n    }\r\n\r\n    /// @notice Structure holding information about created event, number of available spots, registration date and actual event date.\r\n    struct SignUpEventEntry {\r\n        uint id;\r\n        address organizer;\r\n        string title;\r\n        uint spots;\r\n        uint64 registrationDueDate;\r\n        uint64 eventDate;\r\n    }\r\n\r\n    constructor() ERC721(\"SignMeUp\", \"SMU\") {\r\n        entryPriceWei = 50_000 * 1_000_000_000;\r\n    }\r\n\r\n    /// @notice Sets price that is paid by sender when creating a new SignUpEventEntry\r\n    /// @param price price to be set\r\n    /// @dev event emitted only when price has actually been change\r\n    function setPrice(uint price) public onlyOwner nonReentrant {\r\n        if (entryPriceWei != price) {\r\n            uint oldPrice = entryPriceWei;\r\n            entryPriceWei = price;\r\n            emit LogPriceChanged(oldPrice, entryPriceWei);\r\n        }\r\n    }\r\n\r\n    /// @return number of SignUpEventEntry objects\r\n    function getEntriesCount() public view returns (uint) {\r\n        return entries.length;\r\n    }\r\n\r\n    /// @notice create new SignUpEventEntry\r\n    /// @param title event title\r\n    /// @param spots number of available spots\r\n    /// @param registrationDueDate epoch time (seconds) until when users can register for the event\r\n    /// @param eventDate epoch time (seconds) of the event\r\n    function createNewSignUpEventEntry(\r\n        string memory title,\r\n        uint spots,\r\n        uint64 registrationDueDate,\r\n        uint64 eventDate\r\n    ) public payable paidEnough {\r\n        SignUpEventEntry memory entry = newSignUpEventEntryOf(\r\n            title,\r\n            spots,\r\n            registrationDueDate,\r\n            eventDate\r\n        );\r\n\r\n        address payable _owner = payable(owner());\r\n        _owner.transfer(msg.value);\r\n\r\n        emit LogEntryCreated(entry.id, entry.organizer);\r\n    }\r\n\r\n    function newSignUpEventEntryOf(\r\n        string memory title,\r\n        uint spots,\r\n        uint64 registrationDueDate,\r\n        uint64 eventDate\r\n    ) private returns (SignUpEventEntry memory) {\r\n        require(bytes(title).length > 0, \"Title cannot be empty\");\r\n        require(spots > 0, \"Spots must be positive integer\");\r\n        require(\r\n            eventDate > registrationDueDate && registrationDueDate > block.timestamp,\r\n            \"eventDate > registrationDueDate > now()\"\r\n        );\r\n\r\n        uint newId = entries.length;\r\n        address organizer = msg.sender;\r\n\r\n        SignUpEventEntry memory entry = SignUpEventEntry({\r\n            id: newId,\r\n            organizer: organizer,\r\n            title: title,\r\n            spots: spots,\r\n            registrationDueDate: registrationDueDate,\r\n            eventDate: eventDate\r\n        });\r\n\r\n        entryOrganizer[newId] = organizer;\r\n        organizerEntriesCount[organizer] += 1;\r\n\r\n        entries.push(entry);\r\n\r\n        return entry;\r\n    }\r\n\r\n    /// @notice Get number of entries created by given message sender\r\n    /// @return number of entries\r\n    function getOrganizerEntriesCount() public view returns (uint) {\r\n        return organizerEntriesCount[msg.sender];\r\n    }\r\n\r\n    /// @notice get entries created by given message sender\r\n    /// @return entries array\r\n    function getOrganizerEntries() public view returns (SignUpEventEntry[] memory) {\r\n        address organizer = msg.sender;\r\n\r\n        SignUpEventEntry[] memory result = new SignUpEventEntry[](\r\n            organizerEntriesCount[organizer]\r\n        );\r\n        uint targetIndex = 0;\r\n        for (uint i = 0; i < entries.length; i++) {\r\n            if (entries[i].organizer == organizer) {\r\n                result[targetIndex++] = entries[i];\r\n            }\r\n        }\r\n\r\n        return result;\r\n    }\r\n\r\n    function safeMint(uint eventId, address to) private isOrganizer(eventId) {\r\n        uint tokenId = tokenIdCounter.current();\r\n        tokenIdCounter.increment();\r\n        entryTokens[eventId].push(tokenId);\r\n        allTokens.push(tokenId);\r\n        tokenEntry[tokenId] = eventId;\r\n        _safeMint(to, tokenId);\r\n    }\r\n\r\n    /// @notice Randomly chooses participants of given SignUpEventEntry from the list of registrants for this event\r\n    /// @param eventId id of SignUpEventEntry\r\n    function randomlyChooseEventParticipants(uint eventId)\r\n        public\r\n        isOrganizer(eventId)\r\n        canSelectParticipants(eventId)\r\n        nonReentrant\r\n    {\r\n        // TODO use some 'random' oracle, choose participants from registeres users and change state to Closed\r\n\r\n        isEventClosed[eventId] = true;\r\n        address[] memory registrants = entryRegistrants[eventId];\r\n        address[] memory participants;\r\n        if (registrants.length > 0) {\r\n            participants = pseudoRandomAddresses(\r\n                registrants,\r\n                Math.min(registrants.length, entries[eventId].spots)\r\n            );\r\n            for (uint i = 0; i < participants.length; i++) {\r\n                address participant = participants[i];\r\n                safeMint(eventId, participant);\r\n            }\r\n        }\r\n\r\n        emit LogEntryClosed(eventId, participants);\r\n    }\r\n\r\n    /// @notice register sender of this message for the event\r\n    /// @param eventId SignUpEventEntry id\r\n    function registerForEvent(uint eventId)\r\n        public\r\n        isBeforeRegistrationDate(eventId)\r\n        isNotRegistered(eventId)\r\n        isNotOrganizer(eventId)\r\n        nonReentrant\r\n    {\r\n        uint registrationTimestamp = block.timestamp;\r\n\r\n        mapping(address => uint) storage registrationTimestamps = entryRegistrationTimestamps[\r\n            eventId\r\n        ];\r\n        registrationTimestamps[msg.sender] = registrationTimestamp;\r\n        registrantEntries[msg.sender].push(eventId);\r\n        entryRegistrants[eventId].push(msg.sender);\r\n\r\n        emit LogRegistered(eventId, msg.sender, registrationTimestamp);\r\n    }\r\n\r\n    /// @return array of ids of entries given message sender registered for\r\n    function getEntriesUserRegisteredFor() public view returns (uint[] memory) {\r\n        return registrantEntries[msg.sender];\r\n    }\r\n\r\n    /// @notice Checks if message sender is registered for given event\r\n    /// @param eventId event id\r\n    /// @return true if registered, false otherwise\r\n    function isRegisteredForEntry(uint eventId) public view returns (bool) {\r\n        return entryRegistrationTimestamps[eventId][msg.sender] > 0;\r\n    }\r\n\r\n    /// @return array of ids of entries given message sender has been selected for\r\n    function getEntriesUserSelectedFor() public view returns (uint[] memory) {\r\n        uint tokensCount = balanceOf(msg.sender);\r\n        uint[] memory result = new uint[](tokensCount);\r\n        uint resultIndex = 0;\r\n        for (uint i = 0; tokensCount > 0 && i < allTokens.length; i++) {\r\n            uint tokenId = allTokens[i];\r\n            if (ownerOf(tokenId) == msg.sender) {\r\n                uint eventId = tokenEntry[tokenId];\r\n                result[resultIndex++] = eventId;\r\n            }\r\n        }\r\n        return result;\r\n    }\r\n\r\n    /// @notice Get number of registrants for given SignUpEventEntry\r\n    /// @param eventId event id\r\n    /// @return number of registrants\r\n    function getNumberOfRegisteredUsersForEvent(uint eventId)\r\n        public\r\n        view\r\n        isOrganizer(eventId)\r\n        returns (uint)\r\n    {\r\n        return entryRegistrants[eventId].length;\r\n    }\r\n\r\n    /// @notice pseudo number way of selecting participants\r\n    /// @param registrants array of registrants addresses\r\n    /// @param targetCount number of addresses that should be selected among registrants\r\n    function pseudoRandomAddresses(address[] memory registrants, uint targetCount)\r\n        private\r\n        view\r\n        returns (address[] memory)\r\n    {\r\n        uint number = uint(\r\n            keccak256(abi.encodePacked(block.timestamp, block.difficulty, registrants))\r\n        );\r\n        uint pseudoNumber = number % registrants.length;\r\n        assert(pseudoNumber < registrants.length);\r\n\r\n        uint registrantIndex = pseudoNumber;\r\n        address[] memory participants = new address[](targetCount);\r\n        for (uint i = 0; i < participants.length; i++) {\r\n            participants[i] = registrants[registrantIndex++];\r\n            if (registrantIndex >= registrants.length) {\r\n                registrantIndex = 0;\r\n            }\r\n        }\r\n\r\n        return participants;\r\n    }\r\n}\r\n",
  "sourcePath": "/mnt/c/Dev/workspace/consensys/final/blockchain-developer-bootcamp-final-project/contracts/SignMeUp.sol",
  "compiler": {
    "name": "solc",
    "version": "0.8.10+commit.fc410830.Emscripten.clang"
  },
  "schemaVersion": "3.4.3",
  "updatedAt": "2021-11-26T10:59:32.399Z",
  "networkType": "ethereum",
  "devdoc": {
    "author": "Mariusz Walania",
    "events": {
      "LogEntryClosed(uint256,address[])": {
        "params": {
          "id": "id SignUpEventEntry that was closed and for which participants were selected",
          "participants": "list of participant addresses selected from registrants list"
        }
      },
      "LogEntryCreated(uint256,address)": {
        "params": {
          "id": "id of created SignUpEventEntry",
          "organizer": "address of SignUpEventEntry organizer"
        }
      },
      "LogPriceChanged(uint256,uint256)": {
        "params": {
          "newPrice": "current price of created SignUpEventEntry",
          "oldPrice": "previous price of created SignUpEventEntry"
        }
      },
      "LogRegistered(uint256,address,uint256)": {
        "params": {
          "id": "id of SignUpEventEntry someone registered to",
          "when": "timestamp when the registration happened",
          "who": "address of registrant for the SignUpEventEntry"
        }
      }
    },
    "kind": "dev",
    "methods": {
      "approve(address,uint256)": {
        "details": "See {IERC721-approve}."
      },
      "balanceOf(address)": {
        "details": "See {IERC721-balanceOf}."
      },
      "createNewSignUpEventEntry(string,uint256,uint64,uint64)": {
        "params": {
          "eventDate": "epoch time (seconds) of the event",
          "registrationDueDate": "epoch time (seconds) until when users can register for the event",
          "spots": "number of available spots",
          "title": "event title"
        }
      },
      "getApproved(uint256)": {
        "details": "See {IERC721-getApproved}."
      },
      "getEntriesCount()": {
        "returns": {
          "_0": "number of SignUpEventEntry objects"
        }
      },
      "getEntriesUserRegisteredFor()": {
        "returns": {
          "_0": "array of ids of entries given message sender registered for"
        }
      },
      "getEntriesUserSelectedFor()": {
        "returns": {
          "_0": "array of ids of entries given message sender has been selected for"
        }
      },
      "getNumberOfRegisteredUsersForEvent(uint256)": {
        "params": {
          "eventId": "event id"
        },
        "returns": {
          "_0": "number of registrants"
        }
      },
      "getOrganizerEntries()": {
        "returns": {
          "_0": "entries array"
        }
      },
      "getOrganizerEntriesCount()": {
        "returns": {
          "_0": "number of entries"
        }
      },
      "isApprovedForAll(address,address)": {
        "details": "See {IERC721-isApprovedForAll}."
      },
      "isRegisteredForEntry(uint256)": {
        "params": {
          "eventId": "event id"
        },
        "returns": {
          "_0": "true if registered, false otherwise"
        }
      },
      "name()": {
        "details": "See {IERC721Metadata-name}."
      },
      "owner()": {
        "details": "Returns the address of the current owner."
      },
      "ownerOf(uint256)": {
        "details": "See {IERC721-ownerOf}."
      },
      "randomlyChooseEventParticipants(uint256)": {
        "params": {
          "eventId": "id of SignUpEventEntry"
        }
      },
      "registerForEvent(uint256)": {
        "params": {
          "eventId": "SignUpEventEntry id"
        }
      },
      "renounceOwnership()": {
        "details": "Leaves the contract without owner. It will not be possible to call `onlyOwner` functions anymore. Can only be called by the current owner. NOTE: Renouncing ownership will leave the contract without an owner, thereby removing any functionality that is only available to the owner."
      },
      "safeTransferFrom(address,address,uint256)": {
        "details": "See {IERC721-safeTransferFrom}."
      },
      "safeTransferFrom(address,address,uint256,bytes)": {
        "details": "See {IERC721-safeTransferFrom}."
      },
      "setApprovalForAll(address,bool)": {
        "details": "See {IERC721-setApprovalForAll}."
      },
      "setPrice(uint256)": {
        "details": "event emitted only when price has actually been change",
        "params": {
          "price": "price to be set"
        }
      },
      "supportsInterface(bytes4)": {
        "details": "See {IERC165-supportsInterface}."
      },
      "symbol()": {
        "details": "See {IERC721Metadata-symbol}."
      },
      "tokenURI(uint256)": {
        "details": "See {IERC721Metadata-tokenURI}."
      },
      "transferFrom(address,address,uint256)": {
        "details": "See {IERC721-transferFrom}."
      },
      "transferOwnership(address)": {
        "details": "Transfers ownership of the contract to a new account (`newOwner`). Can only be called by the current owner."
      }
    },
    "stateVariables": {
      "entryPriceWei": {
        "return": "wei price paid for newly created SignUpEventEntry",
        "returns": {
          "_0": "wei price paid for newly created SignUpEventEntry"
        }
      },
      "isEventClosed": {
        "return": "true if event is closed",
        "returns": {
          "_0": "true if event is closed"
        }
      }
    },
    "title": "SignMeUp",
    "version": 1
  },
  "userdoc": {
    "kind": "user",
    "methods": {
      "createNewSignUpEventEntry(string,uint256,uint64,uint64)": {
        "notice": "create new SignUpEventEntry"
      },
      "getNumberOfRegisteredUsersForEvent(uint256)": {
        "notice": "Get number of registrants for given SignUpEventEntry"
      },
      "getOrganizerEntries()": {
        "notice": "get entries created by given message sender"
      },
      "getOrganizerEntriesCount()": {
        "notice": "Get number of entries created by given message sender"
      },
      "isEventClosed(uint256)": {
        "notice": "Keeps state of the SignUpEventEntry"
      },
      "isRegisteredForEntry(uint256)": {
        "notice": "Checks if message sender is registered for given event"
      },
      "randomlyChooseEventParticipants(uint256)": {
        "notice": "Randomly chooses participants of given SignUpEventEntry from the list of registrants for this event"
      },
      "registerForEvent(uint256)": {
        "notice": "register sender of this message for the event"
      },
      "setPrice(uint256)": {
        "notice": "Sets price that is paid by sender when creating a new SignUpEventEntry"
      }
    },
    "notice": "Contract owner gets paid small fee for each SignUpEventEntry created. Users can register to SignUpEventEntry. Once due date passes, SignUpEventEntry organizer can randomly choose selected participants of the event.",
    "version": 1
  }
}