{
  "contractName": "SignMeUp",
  "abi": [
    {
      "inputs": [],
      "stateMutability": "nonpayable",
      "type": "constructor"
    },
    {
      "anonymous": false,
      "inputs": [
        {
          "indexed": true,
          "internalType": "address",
          "name": "owner",
          "type": "address"
        },
        {
          "indexed": true,
          "internalType": "address",
          "name": "spender",
          "type": "address"
        },
        {
          "indexed": false,
          "internalType": "uint256",
          "name": "value",
          "type": "uint256"
        }
      ],
      "name": "Approval",
      "type": "event"
    },
    {
      "anonymous": false,
      "inputs": [
        {
          "indexed": false,
          "internalType": "uint256",
          "name": "id",
          "type": "uint256"
        },
        {
          "indexed": false,
          "internalType": "address[]",
          "name": "participants",
          "type": "address[]"
        }
      ],
      "name": "LogEntryClosed",
      "type": "event"
    },
    {
      "anonymous": false,
      "inputs": [
        {
          "indexed": false,
          "internalType": "uint256",
          "name": "id",
          "type": "uint256"
        },
        {
          "indexed": false,
          "internalType": "address",
          "name": "organizer",
          "type": "address"
        }
      ],
      "name": "LogEntryCreated",
      "type": "event"
    },
    {
      "anonymous": false,
      "inputs": [
        {
          "indexed": false,
          "internalType": "uint256",
          "name": "oldPrice",
          "type": "uint256"
        },
        {
          "indexed": false,
          "internalType": "uint256",
          "name": "newPrice",
          "type": "uint256"
        }
      ],
      "name": "LogPriceChanged",
      "type": "event"
    },
    {
      "anonymous": false,
      "inputs": [
        {
          "indexed": false,
          "internalType": "uint256",
          "name": "id",
          "type": "uint256"
        },
        {
          "indexed": false,
          "internalType": "address",
          "name": "who",
          "type": "address"
        },
        {
          "indexed": false,
          "internalType": "uint256",
          "name": "when",
          "type": "uint256"
        }
      ],
      "name": "LogRegistered",
      "type": "event"
    },
    {
      "anonymous": false,
      "inputs": [
        {
          "indexed": true,
          "internalType": "address",
          "name": "previousOwner",
          "type": "address"
        },
        {
          "indexed": true,
          "internalType": "address",
          "name": "newOwner",
          "type": "address"
        }
      ],
      "name": "OwnershipTransferred",
      "type": "event"
    },
    {
      "anonymous": false,
      "inputs": [
        {
          "indexed": true,
          "internalType": "address",
          "name": "from",
          "type": "address"
        },
        {
          "indexed": true,
          "internalType": "address",
          "name": "to",
          "type": "address"
        },
        {
          "indexed": false,
          "internalType": "uint256",
          "name": "value",
          "type": "uint256"
        }
      ],
      "name": "Transfer",
      "type": "event"
    },
    {
      "inputs": [
        {
          "internalType": "address",
          "name": "owner",
          "type": "address"
        },
        {
          "internalType": "address",
          "name": "spender",
          "type": "address"
        }
      ],
      "name": "allowance",
      "outputs": [
        {
          "internalType": "uint256",
          "name": "",
          "type": "uint256"
        }
      ],
      "stateMutability": "view",
      "type": "function",
      "constant": true
    },
    {
      "inputs": [
        {
          "internalType": "address",
          "name": "spender",
          "type": "address"
        },
        {
          "internalType": "uint256",
          "name": "amount",
          "type": "uint256"
        }
      ],
      "name": "approve",
      "outputs": [
        {
          "internalType": "bool",
          "name": "",
          "type": "bool"
        }
      ],
      "stateMutability": "nonpayable",
      "type": "function"
    },
    {
      "inputs": [
        {
          "internalType": "address",
          "name": "account",
          "type": "address"
        }
      ],
      "name": "balanceOf",
      "outputs": [
        {
          "internalType": "uint256",
          "name": "",
          "type": "uint256"
        }
      ],
      "stateMutability": "view",
      "type": "function",
      "constant": true
    },
    {
      "inputs": [],
      "name": "decimals",
      "outputs": [
        {
          "internalType": "uint8",
          "name": "",
          "type": "uint8"
        }
      ],
      "stateMutability": "view",
      "type": "function",
      "constant": true
    },
    {
      "inputs": [
        {
          "internalType": "address",
          "name": "spender",
          "type": "address"
        },
        {
          "internalType": "uint256",
          "name": "subtractedValue",
          "type": "uint256"
        }
      ],
      "name": "decreaseAllowance",
      "outputs": [
        {
          "internalType": "bool",
          "name": "",
          "type": "bool"
        }
      ],
      "stateMutability": "nonpayable",
      "type": "function"
    },
    {
      "inputs": [
        {
          "internalType": "uint256",
          "name": "",
          "type": "uint256"
        }
      ],
      "name": "entries",
      "outputs": [
        {
          "internalType": "uint256",
          "name": "id",
          "type": "uint256"
        },
        {
          "internalType": "address",
          "name": "organizer",
          "type": "address"
        },
        {
          "internalType": "string",
          "name": "title",
          "type": "string"
        },
        {
          "internalType": "uint256",
          "name": "spots",
          "type": "uint256"
        },
        {
          "internalType": "uint64",
          "name": "registrationDueDate",
          "type": "uint64"
        },
        {
          "internalType": "uint64",
          "name": "eventDate",
          "type": "uint64"
        }
      ],
      "stateMutability": "view",
      "type": "function",
      "constant": true
    },
    {
      "inputs": [
        {
          "internalType": "uint256",
          "name": "",
          "type": "uint256"
        }
      ],
      "name": "entryOrganizer",
      "outputs": [
        {
          "internalType": "address",
          "name": "",
          "type": "address"
        }
      ],
      "stateMutability": "view",
      "type": "function",
      "constant": true
    },
    {
      "inputs": [],
      "name": "entryPriceWei",
      "outputs": [
        {
          "internalType": "uint256",
          "name": "",
          "type": "uint256"
        }
      ],
      "stateMutability": "view",
      "type": "function",
      "constant": true
    },
    {
      "inputs": [
        {
          "internalType": "address",
          "name": "spender",
          "type": "address"
        },
        {
          "internalType": "uint256",
          "name": "addedValue",
          "type": "uint256"
        }
      ],
      "name": "increaseAllowance",
      "outputs": [
        {
          "internalType": "bool",
          "name": "",
          "type": "bool"
        }
      ],
      "stateMutability": "nonpayable",
      "type": "function"
    },
    {
      "inputs": [],
      "name": "name",
      "outputs": [
        {
          "internalType": "string",
          "name": "",
          "type": "string"
        }
      ],
      "stateMutability": "view",
      "type": "function",
      "constant": true
    },
    {
      "inputs": [],
      "name": "owner",
      "outputs": [
        {
          "internalType": "address",
          "name": "",
          "type": "address"
        }
      ],
      "stateMutability": "view",
      "type": "function",
      "constant": true
    },
    {
      "inputs": [],
      "name": "renounceOwnership",
      "outputs": [],
      "stateMutability": "nonpayable",
      "type": "function"
    },
    {
      "inputs": [],
      "name": "symbol",
      "outputs": [
        {
          "internalType": "string",
          "name": "",
          "type": "string"
        }
      ],
      "stateMutability": "view",
      "type": "function",
      "constant": true
    },
    {
      "inputs": [],
      "name": "totalSupply",
      "outputs": [
        {
          "internalType": "uint256",
          "name": "",
          "type": "uint256"
        }
      ],
      "stateMutability": "view",
      "type": "function",
      "constant": true
    },
    {
      "inputs": [
        {
          "internalType": "address",
          "name": "recipient",
          "type": "address"
        },
        {
          "internalType": "uint256",
          "name": "amount",
          "type": "uint256"
        }
      ],
      "name": "transfer",
      "outputs": [
        {
          "internalType": "bool",
          "name": "",
          "type": "bool"
        }
      ],
      "stateMutability": "nonpayable",
      "type": "function"
    },
    {
      "inputs": [
        {
          "internalType": "address",
          "name": "sender",
          "type": "address"
        },
        {
          "internalType": "address",
          "name": "recipient",
          "type": "address"
        },
        {
          "internalType": "uint256",
          "name": "amount",
          "type": "uint256"
        }
      ],
      "name": "transferFrom",
      "outputs": [
        {
          "internalType": "bool",
          "name": "",
          "type": "bool"
        }
      ],
      "stateMutability": "nonpayable",
      "type": "function"
    },
    {
      "inputs": [
        {
          "internalType": "address",
          "name": "newOwner",
          "type": "address"
        }
      ],
      "name": "transferOwnership",
      "outputs": [],
      "stateMutability": "nonpayable",
      "type": "function"
    },
    {
      "inputs": [
        {
          "internalType": "uint256",
          "name": "price",
          "type": "uint256"
        }
      ],
      "name": "setPrice",
      "outputs": [],
      "stateMutability": "nonpayable",
      "type": "function"
    },
    {
      "inputs": [],
      "name": "getEntriesCount",
      "outputs": [
        {
          "internalType": "uint256",
          "name": "",
          "type": "uint256"
        }
      ],
      "stateMutability": "view",
      "type": "function",
      "constant": true
    },
    {
      "inputs": [
        {
          "internalType": "string",
          "name": "title",
          "type": "string"
        },
        {
          "internalType": "uint256",
          "name": "spots",
          "type": "uint256"
        },
        {
          "internalType": "uint64",
          "name": "registrationDueDate",
          "type": "uint64"
        },
        {
          "internalType": "uint64",
          "name": "eventDate",
          "type": "uint64"
        }
      ],
      "name": "createNewSignUpEventEntry",
      "outputs": [
        {
          "internalType": "uint256",
          "name": "",
          "type": "uint256"
        }
      ],
      "stateMutability": "payable",
      "type": "function",
      "payable": true
    },
    {
      "inputs": [],
      "name": "getOrganizerEntriesCount",
      "outputs": [
        {
          "internalType": "uint256",
          "name": "",
          "type": "uint256"
        }
      ],
      "stateMutability": "view",
      "type": "function",
      "constant": true
    },
    {
      "inputs": [],
      "name": "getOrganizerEntries",
      "outputs": [
        {
          "components": [
            {
              "internalType": "uint256",
              "name": "id",
              "type": "uint256"
            },
            {
              "internalType": "address",
              "name": "organizer",
              "type": "address"
            },
            {
              "internalType": "string",
              "name": "title",
              "type": "string"
            },
            {
              "internalType": "uint256",
              "name": "spots",
              "type": "uint256"
            },
            {
              "internalType": "uint64",
              "name": "registrationDueDate",
              "type": "uint64"
            },
            {
              "internalType": "uint64",
              "name": "eventDate",
              "type": "uint64"
            }
          ],
          "internalType": "struct SignMeUp.SignUpEventEntry[]",
          "name": "",
          "type": "tuple[]"
        }
      ],
      "stateMutability": "view",
      "type": "function",
      "constant": true
    },
    {
      "inputs": [
        {
          "internalType": "uint256",
          "name": "eventId",
          "type": "uint256"
        }
      ],
      "name": "randomlyChooseEventParticipants",
      "outputs": [],
      "stateMutability": "nonpayable",
      "type": "function"
    },
    {
      "inputs": [
        {
          "internalType": "uint256",
          "name": "eventId",
          "type": "uint256"
        }
      ],
      "name": "registerForEvent",
      "outputs": [
        {
          "internalType": "uint256",
          "name": "",
          "type": "uint256"
        }
      ],
      "stateMutability": "nonpayable",
      "type": "function"
    },
    {
      "inputs": [],
      "name": "getEntriesUserRegisteredFor",
      "outputs": [
        {
          "internalType": "uint256[]",
          "name": "",
          "type": "uint256[]"
        }
      ],
      "stateMutability": "view",
      "type": "function",
      "constant": true
    },
    {
      "inputs": [
        {
          "internalType": "uint256",
          "name": "eventId",
          "type": "uint256"
        }
      ],
      "name": "isRegisteredForEntry",
      "outputs": [
        {
          "internalType": "bool",
          "name": "",
          "type": "bool"
        }
      ],
      "stateMutability": "view",
      "type": "function",
      "constant": true
    },
    {
      "inputs": [],
      "name": "getEntriesUserSelectedFor",
      "outputs": [
        {
          "internalType": "uint256[]",
          "name": "",
          "type": "uint256[]"
        }
      ],
      "stateMutability": "view",
      "type": "function",
      "constant": true
    },
    {
      "inputs": [
        {
          "internalType": "uint256",
          "name": "eventId",
          "type": "uint256"
        }
      ],
      "name": "getNumberOfRegisteredUsersForEvent",
      "outputs": [
        {
          "internalType": "uint256",
          "name": "",
          "type": "uint256"
        }
      ],
      "stateMutability": "view",
      "type": "function",
      "constant": true
    }
  ],
  "bytecode": "0x60806040523480156200001157600080fd5b506040518060400160405280600881526020017f5369676e4d6555700000000000000000000000000000000000000000000000008152506040518060400160405280600381526020017f534d550000000000000000000000000000000000000000000000000000000000815250816003908051906020019062000096929190620001b3565b508060049080519060200190620000af929190620001b3565b505050620000d2620000c6620000e560201b60201c565b620000ed60201b60201c565b652d79883d2000600681905550620002c8565b600033905090565b6000600560009054906101000a900473ffffffffffffffffffffffffffffffffffffffff16905081600560006101000a81548173ffffffffffffffffffffffffffffffffffffffff021916908373ffffffffffffffffffffffffffffffffffffffff1602179055508173ffffffffffffffffffffffffffffffffffffffff168173ffffffffffffffffffffffffffffffffffffffff167f8be0079c531659141344cd1fd0a4f28419497f9722a3daafe3b4186f6b6457e060405160405180910390a35050565b828054620001c19062000292565b90600052602060002090601f016020900481019282620001e5576000855562000231565b82601f106200020057805160ff191683800117855562000231565b8280016001018555821562000231579182015b828111156200023057825182559160200191906001019062000213565b5b50905062000240919062000244565b5090565b5b808211156200025f57600081600090555060010162000245565b5090565b7f4e487b7100000000000000000000000000000000000000000000000000000000600052602260045260246000fd5b60006002820490506001821680620002ab57607f821691505b60208210811415620002c257620002c162000263565b5b50919050565b61441080620002d86000396000f3fe6080604052600436106101b65760003560e01c806391b7f5ed116100ec578063ca54ad851161008a578063dd62ed3e11610064578063dd62ed3e14610676578063e2f68330146106b3578063ebacab38146106de578063f2fde38b1461070e576101b6565b8063ca54ad85146105e3578063d09685b01461060e578063db8a703814610639576101b6565b80639c571402116100c65780639c571402146104fe578063a457c2d714610527578063a9059cbb14610564578063b30906d4146105a1576101b6565b806391b7f5ed1461047f578063942aa7e1146104a857806395d89b41146104d3576101b6565b8063313ce5671161015957806370a082311161013357806370a08231146103d5578063715018a614610412578063772a6fce146104295780638da5cb5b14610454576101b6565b8063313ce56714610330578063395093511461035b578063406db84314610398576101b6565b806318160ddd1161019557806318160ddd1461026057806322d9b4281461028b57806323b872dd146102b65780632ffe24f8146102f3576101b6565b8062648543146101bb57806306fdde03146101f8578063095ea7b314610223575b600080fd5b3480156101c757600080fd5b506101e260048036038101906101dd9190612ce3565b610737565b6040516101ef9190612d2b565b60405180910390f35b34801561020457600080fd5b5061020d610793565b60405161021a9190612ddf565b60405180910390f35b34801561022f57600080fd5b5061024a60048036038101906102459190612e5f565b610825565b6040516102579190612d2b565b60405180910390f35b34801561026c57600080fd5b50610275610843565b6040516102829190612eae565b60405180910390f35b34801561029757600080fd5b506102a061084d565b6040516102ad9190612eae565b60405180910390f35b3480156102c257600080fd5b506102dd60048036038101906102d89190612ec9565b610894565b6040516102ea9190612d2b565b60405180910390f35b3480156102ff57600080fd5b5061031a60048036038101906103159190612ce3565b61098c565b6040516103279190612eae565b60405180910390f35b34801561033c57600080fd5b50610345610a4f565b6040516103529190612f38565b60405180910390f35b34801561036757600080fd5b50610382600480360381019061037d9190612e5f565b610a58565b60405161038f9190612d2b565b60405180910390f35b3480156103a457600080fd5b506103bf60048036038101906103ba9190612ce3565b610b04565b6040516103cc9190612eae565b60405180910390f35b3480156103e157600080fd5b506103fc60048036038101906103f79190612f53565b610fa7565b6040516104099190612eae565b60405180910390f35b34801561041e57600080fd5b50610427610fef565b005b34801561043557600080fd5b5061043e611077565b60405161044b919061303e565b60405180910390f35b34801561046057600080fd5b5061046961110c565b604051610476919061306f565b60405180910390f35b34801561048b57600080fd5b506104a660048036038101906104a19190612ce3565b611136565b005b3480156104b457600080fd5b506104bd611209565b6040516104ca919061303e565b60405180910390f35b3480156104df57600080fd5b506104e861129e565b6040516104f59190612ddf565b60405180910390f35b34801561050a57600080fd5b5061052560048036038101906105209190612ce3565b611330565b005b34801561053357600080fd5b5061054e60048036038101906105499190612e5f565b6117df565b60405161055b9190612d2b565b60405180910390f35b34801561057057600080fd5b5061058b60048036038101906105869190612e5f565b6118ca565b6040516105989190612d2b565b60405180910390f35b3480156105ad57600080fd5b506105c860048036038101906105c39190612ce3565b6118e8565b6040516105da969594939291906130ad565b60405180910390f35b3480156105ef57600080fd5b506105f8611a04565b60405161060591906132c8565b60405180910390f35b34801561061a57600080fd5b50610623611d01565b6040516106309190612eae565b60405180910390f35b34801561064557600080fd5b50610660600480360381019061065b9190612ce3565b611d0e565b60405161066d919061306f565b60405180910390f35b34801561068257600080fd5b5061069d600480360381019061069891906132ea565b611d41565b6040516106aa9190612eae565b60405180910390f35b3480156106bf57600080fd5b506106c8611dc8565b6040516106d59190612eae565b60405180910390f35b6106f860048036038101906106f3919061348b565b611dce565b6040516107059190612eae565b60405180910390f35b34801561071a57600080fd5b5061073560048036038101906107309190612f53565b611f01565b005b6000806008600084815260200190815260200160002060003373ffffffffffffffffffffffffffffffffffffffff1673ffffffffffffffffffffffffffffffffffffffff16815260200190815260200160002054119050919050565b6060600380546107a29061353d565b80601f01602080910402602001604051908101604052809291908181526020018280546107ce9061353d565b801561081b5780601f106107f05761010080835404028352916020019161081b565b820191906000526020600020905b8154815290600101906020018083116107fe57829003601f168201915b5050505050905090565b6000610839610832611ff9565b8484612001565b6001905092915050565b6000600254905090565b6000600d60003373ffffffffffffffffffffffffffffffffffffffff1673ffffffffffffffffffffffffffffffffffffffff16815260200190815260200160002054905090565b60006108a18484846121cc565b6000600160008673ffffffffffffffffffffffffffffffffffffffff1673ffffffffffffffffffffffffffffffffffffffff16815260200190815260200160002060006108ec611ff9565b73ffffffffffffffffffffffffffffffffffffffff1673ffffffffffffffffffffffffffffffffffffffff1681526020019081526020016000205490508281101561096c576040517f08c379a0000000000000000000000000000000000000000000000000000000008152600401610963906135e1565b60405180910390fd5b61098085610978611ff9565b858403612001565b60019150509392505050565b6000813373ffffffffffffffffffffffffffffffffffffffff16600e600083815260200190815260200160002060009054906101000a900473ffffffffffffffffffffffffffffffffffffffff1673ffffffffffffffffffffffffffffffffffffffff1614610a30576040517f08c379a0000000000000000000000000000000000000000000000000000000008152600401610a2790613673565b60405180910390fd5b600b600084815260200190815260200160002080549050915050919050565b60006012905090565b6000610afa610a65611ff9565b848460016000610a73611ff9565b73ffffffffffffffffffffffffffffffffffffffff1673ffffffffffffffffffffffffffffffffffffffff16815260200190815260200160002060008873ffffffffffffffffffffffffffffffffffffffff1673ffffffffffffffffffffffffffffffffffffffff16815260200190815260200160002054610af591906136c2565b612001565b6001905092915050565b600081600060078281548110610b1d57610b1c613718565b5b90600052602060002090600502016040518060c0016040529081600082015481526020016001820160009054906101000a900473ffffffffffffffffffffffffffffffffffffffff1673ffffffffffffffffffffffffffffffffffffffff1673ffffffffffffffffffffffffffffffffffffffff168152602001600282018054610ba69061353d565b80601f0160208091040260200160405190810160405280929190818152602001828054610bd29061353d565b8015610c1f5780601f10610bf457610100808354040283529160200191610c1f565b820191906000526020600020905b815481529060010190602001808311610c0257829003601f168201915b50505050508152602001600382015481526020016004820160009054906101000a900467ffffffffffffffff1667ffffffffffffffff1667ffffffffffffffff1681526020016004820160089054906101000a900467ffffffffffffffff1667ffffffffffffffff1667ffffffffffffffff16815250509050806080015167ffffffffffffffff164210610ce8576040517f08c379a0000000000000000000000000000000000000000000000000000000008152600401610cdf90613793565b60405180910390fd5b83600060086000838152602001908152602001600020905060008160003373ffffffffffffffffffffffffffffffffffffffff1673ffffffffffffffffffffffffffffffffffffffff1681526020019081526020016000205414610d81576040517f08c379a0000000000000000000000000000000000000000000000000000000008152600401610d7890613825565b60405180910390fd5b853373ffffffffffffffffffffffffffffffffffffffff16600e600083815260200190815260200160002060009054906101000a900473ffffffffffffffffffffffffffffffffffffffff1673ffffffffffffffffffffffffffffffffffffffff161415610e24576040517f08c379a0000000000000000000000000000000000000000000000000000000008152600401610e1b906138b7565b60405180910390fd5b60004290506000600860008a81526020019081526020016000209050818160003373ffffffffffffffffffffffffffffffffffffffff1673ffffffffffffffffffffffffffffffffffffffff16815260200190815260200160002081905550600960003373ffffffffffffffffffffffffffffffffffffffff1673ffffffffffffffffffffffffffffffffffffffff168152602001908152602001600020899080600181540180825580915050600190039060005260206000200160009091909190915055600b60008a8152602001908152602001600020339080600181540180825580915050600190039060005260206000200160009091909190916101000a81548173ffffffffffffffffffffffffffffffffffffffff021916908373ffffffffffffffffffffffffffffffffffffffff1602179055507f16c02eafd4a170f62c09971fefa1b5aeaaffab6305564bb18a72a6150daa764e893384604051610f90939291906138d7565b60405180910390a181975050505050505050919050565b60008060008373ffffffffffffffffffffffffffffffffffffffff1673ffffffffffffffffffffffffffffffffffffffff168152602001908152602001600020549050919050565b610ff7611ff9565b73ffffffffffffffffffffffffffffffffffffffff1661101561110c565b73ffffffffffffffffffffffffffffffffffffffff161461106b576040517f08c379a00000000000000000000000000000000000000000000000000000000081526004016110629061395a565b60405180910390fd5b611075600061244d565b565b6060600a60003373ffffffffffffffffffffffffffffffffffffffff1673ffffffffffffffffffffffffffffffffffffffff16815260200190815260200160002080548060200260200160405190810160405280929190818152602001828054801561110257602002820191906000526020600020905b8154815260200190600101908083116110ee575b5050505050905090565b6000600560009054906101000a900473ffffffffffffffffffffffffffffffffffffffff16905090565b61113e611ff9565b73ffffffffffffffffffffffffffffffffffffffff1661115c61110c565b73ffffffffffffffffffffffffffffffffffffffff16146111b2576040517f08c379a00000000000000000000000000000000000000000000000000000000081526004016111a99061395a565b60405180910390fd5b80600654146112065760006006549050816006819055507fc3ae4d05a23526d863c1db9f30859dec463447da15d77d1345daec3ed995d3c1816006546040516111fc92919061397a565b60405180910390a1505b50565b6060600960003373ffffffffffffffffffffffffffffffffffffffff1673ffffffffffffffffffffffffffffffffffffffff16815260200190815260200160002080548060200260200160405190810160405280929190818152602001828054801561129457602002820191906000526020600020905b815481526020019060010190808311611280575b5050505050905090565b6060600480546112ad9061353d565b80601f01602080910402602001604051908101604052809291908181526020018280546112d99061353d565b80156113265780601f106112fb57610100808354040283529160200191611326565b820191906000526020600020905b81548152906001019060200180831161130957829003601f168201915b5050505050905090565b803373ffffffffffffffffffffffffffffffffffffffff16600e600083815260200190815260200160002060009054906101000a900473ffffffffffffffffffffffffffffffffffffffff1673ffffffffffffffffffffffffffffffffffffffff16146113d2576040517f08c379a00000000000000000000000000000000000000000000000000000000081526004016113c990613673565b60405180910390fd5b816000600782815481106113e9576113e8613718565b5b90600052602060002090600502016040518060c0016040529081600082015481526020016001820160009054906101000a900473ffffffffffffffffffffffffffffffffffffffff1673ffffffffffffffffffffffffffffffffffffffff1673ffffffffffffffffffffffffffffffffffffffff1681526020016002820180546114729061353d565b80601f016020809104026020016040519081016040528092919081815260200182805461149e9061353d565b80156114eb5780601f106114c0576101008083540402835291602001916114eb565b820191906000526020600020905b8154815290600101906020018083116114ce57829003601f168201915b50505050508152602001600382015481526020016004820160009054906101000a900467ffffffffffffffff1667ffffffffffffffff1667ffffffffffffffff1681526020016004820160089054906101000a900467ffffffffffffffff1667ffffffffffffffff1667ffffffffffffffff168152505090506000600c60008481526020019081526020016000208054905014801561159957506000816080015167ffffffffffffffff1614155b80156115b35750806080015167ffffffffffffffff164210155b6115f2576040517f08c379a00000000000000000000000000000000000000000000000000000000081526004016115e990613a15565b60405180910390fd5b6000600b600086815260200190815260200160002080548060200260200160405190810160405280929190818152602001828054801561168757602002820191906000526020600020905b8160009054906101000a900473ffffffffffffffffffffffffffffffffffffffff1673ffffffffffffffffffffffffffffffffffffffff168152602001906001019080831161163d575b50505050509050606060008251111561179e576116d3826116ce845160078a815481106116b7576116b6613718565b5b906000526020600020906005020160030154612513565b61252c565b905080600c600088815260200190815260200160002090805190602001906116fc929190612b0c565b5060005b815181101561179c57600a60008383815181106117205761171f613718565b5b602002602001015173ffffffffffffffffffffffffffffffffffffffff1673ffffffffffffffffffffffffffffffffffffffff168152602001908152602001600020879080600181540180825580915050600190039060005260206000200160009091909190915055808061179490613a35565b915050611700565b505b7f8869306e622784f945949ca35d9495e3b75dcbdfc41d776da82fa27213bd82de86826040516117cf929190613b2d565b60405180910390a1505050505050565b600080600160006117ee611ff9565b73ffffffffffffffffffffffffffffffffffffffff1673ffffffffffffffffffffffffffffffffffffffff16815260200190815260200160002060008573ffffffffffffffffffffffffffffffffffffffff1673ffffffffffffffffffffffffffffffffffffffff168152602001908152602001600020549050828110156118ab576040517f08c379a00000000000000000000000000000000000000000000000000000000081526004016118a290613bcf565b60405180910390fd5b6118bf6118b6611ff9565b85858403612001565b600191505092915050565b60006118de6118d7611ff9565b84846121cc565b6001905092915050565b600781815481106118f857600080fd5b90600052602060002090600502016000915090508060000154908060010160009054906101000a900473ffffffffffffffffffffffffffffffffffffffff16908060020180546119479061353d565b80601f01602080910402602001604051908101604052809291908181526020018280546119739061353d565b80156119c05780601f10611995576101008083540402835291602001916119c0565b820191906000526020600020905b8154815290600101906020018083116119a357829003601f168201915b5050505050908060030154908060040160009054906101000a900467ffffffffffffffff16908060040160089054906101000a900467ffffffffffffffff16905086565b606060003390506000600d60008373ffffffffffffffffffffffffffffffffffffffff1673ffffffffffffffffffffffffffffffffffffffff1681526020019081526020016000205467ffffffffffffffff811115611a6657611a65613334565b5b604051908082528060200260200182016040528015611a9f57816020015b611a8c612b96565b815260200190600190039081611a845790505b5090506000805b600780549050811015611cf7578373ffffffffffffffffffffffffffffffffffffffff1660078281548110611ade57611add613718565b5b906000526020600020906005020160010160009054906101000a900473ffffffffffffffffffffffffffffffffffffffff1673ffffffffffffffffffffffffffffffffffffffff161415611ce45760078181548110611b4057611b3f613718565b5b90600052602060002090600502016040518060c0016040529081600082015481526020016001820160009054906101000a900473ffffffffffffffffffffffffffffffffffffffff1673ffffffffffffffffffffffffffffffffffffffff1673ffffffffffffffffffffffffffffffffffffffff168152602001600282018054611bc99061353d565b80601f0160208091040260200160405190810160405280929190818152602001828054611bf59061353d565b8015611c425780601f10611c1757610100808354040283529160200191611c42565b820191906000526020600020905b815481529060010190602001808311611c2557829003601f168201915b50505050508152602001600382015481526020016004820160009054906101000a900467ffffffffffffffff1667ffffffffffffffff1667ffffffffffffffff1681526020016004820160089054906101000a900467ffffffffffffffff1667ffffffffffffffff1667ffffffffffffffff1681525050838380611cc590613a35565b945081518110611cd857611cd7613718565b5b60200260200101819052505b8080611cef90613a35565b915050611aa6565b5081935050505090565b6000600780549050905090565b600e6020528060005260406000206000915054906101000a900473ffffffffffffffffffffffffffffffffffffffff1681565b6000600160008473ffffffffffffffffffffffffffffffffffffffff1673ffffffffffffffffffffffffffffffffffffffff16815260200190815260200160002060008373ffffffffffffffffffffffffffffffffffffffff1673ffffffffffffffffffffffffffffffffffffffff16815260200190815260200160002054905092915050565b60065481565b6000600654341015611de1600654612682565b611dea34612682565b604051602001611dfb929190613cc3565b60405160208183030381529060405290611e4b576040517f08c379a0000000000000000000000000000000000000000000000000000000008152600401611e429190612ddf565b60405180910390fd5b506000611e5a868686866127e3565b90506000611e6661110c565b90508073ffffffffffffffffffffffffffffffffffffffff166108fc349081150290604051600060405180830381858888f19350505050158015611eae573d6000803e3d6000fd5b507f0a63f1d05e5ef7a076666610741aeec38a557d32f3344efe6d0476a329c9970a82600001518360200151604051611ee8929190613cfd565b60405180910390a1816000015192505050949350505050565b611f09611ff9565b73ffffffffffffffffffffffffffffffffffffffff16611f2761110c565b73ffffffffffffffffffffffffffffffffffffffff1614611f7d576040517f08c379a0000000000000000000000000000000000000000000000000000000008152600401611f749061395a565b60405180910390fd5b600073ffffffffffffffffffffffffffffffffffffffff168173ffffffffffffffffffffffffffffffffffffffff161415611fed576040517f08c379a0000000000000000000000000000000000000000000000000000000008152600401611fe490613d98565b60405180910390fd5b611ff68161244d565b50565b600033905090565b600073ffffffffffffffffffffffffffffffffffffffff168373ffffffffffffffffffffffffffffffffffffffff161415612071576040517f08c379a000000000000000000000000000000000000000000000000000000000815260040161206890613e2a565b60405180910390fd5b600073ffffffffffffffffffffffffffffffffffffffff168273ffffffffffffffffffffffffffffffffffffffff1614156120e1576040517f08c379a00000000000000000000000000000000000000000000000000000000081526004016120d890613ebc565b60405180910390fd5b80600160008573ffffffffffffffffffffffffffffffffffffffff1673ffffffffffffffffffffffffffffffffffffffff16815260200190815260200160002060008473ffffffffffffffffffffffffffffffffffffffff1673ffffffffffffffffffffffffffffffffffffffff168152602001908152602001600020819055508173ffffffffffffffffffffffffffffffffffffffff168373ffffffffffffffffffffffffffffffffffffffff167f8c5be1e5ebec7d5bd14f71427d1e84f3dd0314c0f7b2291e5b200ac8c7c3b925836040516121bf9190612eae565b60405180910390a3505050565b600073ffffffffffffffffffffffffffffffffffffffff168373ffffffffffffffffffffffffffffffffffffffff16141561223c576040517f08c379a000000000000000000000000000000000000000000000000000000000815260040161223390613f4e565b60405180910390fd5b600073ffffffffffffffffffffffffffffffffffffffff168273ffffffffffffffffffffffffffffffffffffffff1614156122ac576040517f08c379a00000000000000000000000000000000000000000000000000000000081526004016122a390613fe0565b60405180910390fd5b6122b7838383612b02565b60008060008573ffffffffffffffffffffffffffffffffffffffff1673ffffffffffffffffffffffffffffffffffffffff1681526020019081526020016000205490508181101561233d576040517f08c379a000000000000000000000000000000000000000000000000000000000815260040161233490614072565b60405180910390fd5b8181036000808673ffffffffffffffffffffffffffffffffffffffff1673ffffffffffffffffffffffffffffffffffffffff16815260200190815260200160002081905550816000808573ffffffffffffffffffffffffffffffffffffffff1673ffffffffffffffffffffffffffffffffffffffff16815260200190815260200160002060008282546123d091906136c2565b925050819055508273ffffffffffffffffffffffffffffffffffffffff168473ffffffffffffffffffffffffffffffffffffffff167fddf252ad1be2c89b69c2b068fc378daa952ba7f163c4a11628f55a4df523b3ef846040516124349190612eae565b60405180910390a3612447848484612b07565b50505050565b6000600560009054906101000a900473ffffffffffffffffffffffffffffffffffffffff16905081600560006101000a81548173ffffffffffffffffffffffffffffffffffffffff021916908373ffffffffffffffffffffffffffffffffffffffff1602179055508173ffffffffffffffffffffffffffffffffffffffff168173ffffffffffffffffffffffffffffffffffffffff167f8be0079c531659141344cd1fd0a4f28419497f9722a3daafe3b4186f6b6457e060405160405180910390a35050565b60008183106125225781612524565b825b905092915050565b6060600042448560405160200161254593929190614143565b6040516020818303038152906040528051906020012060001c9050600084518261256f91906141ab565b905084518110612582576125816141dc565b5b600081905060008567ffffffffffffffff8111156125a3576125a2613334565b5b6040519080825280602002602001820160405280156125d15781602001602082028036833780820191505090505b50905060005b8151811015612674578783806125ec90613a35565b9450815181106125ff576125fe613718565b5b602002602001015182828151811061261a57612619613718565b5b602002602001019073ffffffffffffffffffffffffffffffffffffffff16908173ffffffffffffffffffffffffffffffffffffffff16815250508751831061266157600092505b808061266c90613a35565b9150506125d7565b508094505050505092915050565b606060008214156126ca576040518060400160405280600181526020017f300000000000000000000000000000000000000000000000000000000000000081525090506127de565b600082905060005b600082146126fc5780806126e590613a35565b915050600a826126f5919061420b565b91506126d2565b60008167ffffffffffffffff81111561271857612717613334565b5b6040519080825280601f01601f19166020018201604052801561274a5781602001600182028036833780820191505090505b5090505b600085146127d757600182612763919061423c565b9150600a8561277291906141ab565b603061277e91906136c2565b60f81b81838151811061279457612793613718565b5b60200101907effffffffffffffffffffffffffffffffffffffffffffffffffffffffffffff1916908160001a905350600a856127d0919061420b565b945061274e565b8093505050505b919050565b6127eb612b96565b600085511161282f576040517f08c379a0000000000000000000000000000000000000000000000000000000008152600401612826906142bc565b60405180910390fd5b60008411612872576040517f08c379a000000000000000000000000000000000000000000000000000000000815260040161286990614328565b60405180910390fd5b8267ffffffffffffffff168267ffffffffffffffff1611801561289e5750428367ffffffffffffffff16115b6128dd576040517f08c379a00000000000000000000000000000000000000000000000000000000081526004016128d4906143ba565b60405180910390fd5b60006007805490509050600033905060006040518060c001604052808481526020018373ffffffffffffffffffffffffffffffffffffffff1681526020018981526020018881526020018767ffffffffffffffff1681526020018667ffffffffffffffff16815250905081600e600085815260200190815260200160002060006101000a81548173ffffffffffffffffffffffffffffffffffffffff021916908373ffffffffffffffffffffffffffffffffffffffff1602179055506001600d60008473ffffffffffffffffffffffffffffffffffffffff1673ffffffffffffffffffffffffffffffffffffffff16815260200190815260200160002060008282546129e991906136c2565b9250508190555060078190806001815401808255809150506001900390600052602060002090600502016000909190919091506000820151816000015560208201518160010160006101000a81548173ffffffffffffffffffffffffffffffffffffffff021916908373ffffffffffffffffffffffffffffffffffffffff1602179055506040820151816002019080519060200190612a89929190612bf6565b506060820151816003015560808201518160040160006101000a81548167ffffffffffffffff021916908367ffffffffffffffff16021790555060a08201518160040160086101000a81548167ffffffffffffffff021916908367ffffffffffffffff1602179055505050809350505050949350505050565b505050565b505050565b828054828255906000526020600020908101928215612b85579160200282015b82811115612b845782518260006101000a81548173ffffffffffffffffffffffffffffffffffffffff021916908373ffffffffffffffffffffffffffffffffffffffff16021790555091602001919060010190612b2c565b5b509050612b929190612c7c565b5090565b6040518060c0016040528060008152602001600073ffffffffffffffffffffffffffffffffffffffff1681526020016060815260200160008152602001600067ffffffffffffffff168152602001600067ffffffffffffffff1681525090565b828054612c029061353d565b90600052602060002090601f016020900481019282612c245760008555612c6b565b82601f10612c3d57805160ff1916838001178555612c6b565b82800160010185558215612c6b579182015b82811115612c6a578251825591602001919060010190612c4f565b5b509050612c789190612c7c565b5090565b5b80821115612c95576000816000905550600101612c7d565b5090565b6000604051905090565b600080fd5b600080fd5b6000819050919050565b612cc081612cad565b8114612ccb57600080fd5b50565b600081359050612cdd81612cb7565b92915050565b600060208284031215612cf957612cf8612ca3565b5b6000612d0784828501612cce565b91505092915050565b60008115159050919050565b612d2581612d10565b82525050565b6000602082019050612d406000830184612d1c565b92915050565b600081519050919050565b600082825260208201905092915050565b60005b83811015612d80578082015181840152602081019050612d65565b83811115612d8f576000848401525b50505050565b6000601f19601f8301169050919050565b6000612db182612d46565b612dbb8185612d51565b9350612dcb818560208601612d62565b612dd481612d95565b840191505092915050565b60006020820190508181036000830152612df98184612da6565b905092915050565b600073ffffffffffffffffffffffffffffffffffffffff82169050919050565b6000612e2c82612e01565b9050919050565b612e3c81612e21565b8114612e4757600080fd5b50565b600081359050612e5981612e33565b92915050565b60008060408385031215612e7657612e75612ca3565b5b6000612e8485828601612e4a565b9250506020612e9585828601612cce565b9150509250929050565b612ea881612cad565b82525050565b6000602082019050612ec36000830184612e9f565b92915050565b600080600060608486031215612ee257612ee1612ca3565b5b6000612ef086828701612e4a565b9350506020612f0186828701612e4a565b9250506040612f1286828701612cce565b9150509250925092565b600060ff82169050919050565b612f3281612f1c565b82525050565b6000602082019050612f4d6000830184612f29565b92915050565b600060208284031215612f6957612f68612ca3565b5b6000612f7784828501612e4a565b91505092915050565b600081519050919050565b600082825260208201905092915050565b6000819050602082019050919050565b612fb581612cad565b82525050565b6000612fc78383612fac565b60208301905092915050565b6000602082019050919050565b6000612feb82612f80565b612ff58185612f8b565b935061300083612f9c565b8060005b838110156130315781516130188882612fbb565b975061302383612fd3565b925050600181019050613004565b5085935050505092915050565b600060208201905081810360008301526130588184612fe0565b905092915050565b61306981612e21565b82525050565b60006020820190506130846000830184613060565b92915050565b600067ffffffffffffffff82169050919050565b6130a78161308a565b82525050565b600060c0820190506130c26000830189612e9f565b6130cf6020830188613060565b81810360408301526130e18187612da6565b90506130f06060830186612e9f565b6130fd608083018561309e565b61310a60a083018461309e565b979650505050505050565b600081519050919050565b600082825260208201905092915050565b6000819050602082019050919050565b61314a81612e21565b82525050565b600082825260208201905092915050565b600061316c82612d46565b6131768185613150565b9350613186818560208601612d62565b61318f81612d95565b840191505092915050565b6131a38161308a565b82525050565b600060c0830160008301516131c16000860182612fac565b5060208301516131d46020860182613141565b50604083015184820360408601526131ec8282613161565b91505060608301516132016060860182612fac565b506080830151613214608086018261319a565b5060a083015161322760a086018261319a565b508091505092915050565b600061323e83836131a9565b905092915050565b6000602082019050919050565b600061325e82613115565b6132688185613120565b93508360208202850161327a85613131565b8060005b858110156132b657848403895281516132978582613232565b94506132a283613246565b925060208a0199505060018101905061327e565b50829750879550505050505092915050565b600060208201905081810360008301526132e28184613253565b905092915050565b6000806040838503121561330157613300612ca3565b5b600061330f85828601612e4a565b925050602061332085828601612e4a565b9150509250929050565b600080fd5b600080fd5b7f4e487b7100000000000000000000000000000000000000000000000000000000600052604160045260246000fd5b61336c82612d95565b810181811067ffffffffffffffff8211171561338b5761338a613334565b5b80604052505050565b600061339e612c99565b90506133aa8282613363565b919050565b600067ffffffffffffffff8211156133ca576133c9613334565b5b6133d382612d95565b9050602081019050919050565b82818337600083830152505050565b60006134026133fd846133af565b613394565b90508281526020810184848401111561341e5761341d61332f565b5b6134298482856133e0565b509392505050565b600082601f8301126134465761344561332a565b5b81356134568482602086016133ef565b91505092915050565b6134688161308a565b811461347357600080fd5b50565b6000813590506134858161345f565b92915050565b600080600080608085870312156134a5576134a4612ca3565b5b600085013567ffffffffffffffff8111156134c3576134c2612ca8565b5b6134cf87828801613431565b94505060206134e087828801612cce565b93505060406134f187828801613476565b925050606061350287828801613476565b91505092959194509250565b7f4e487b7100000000000000000000000000000000000000000000000000000000600052602260045260246000fd5b6000600282049050600182168061355557607f821691505b602082108114156135695761356861350e565b5b50919050565b7f45524332303a207472616e7366657220616d6f756e742065786365656473206160008201527f6c6c6f77616e6365000000000000000000000000000000000000000000000000602082015250565b60006135cb602883612d51565b91506135d68261356f565b604082019050919050565b600060208201905081810360008301526135fa816135be565b9050919050565b7f5472616e73616374696f6e2073656e646572206973206e6f74206f7267616e6960008201527f7a6572206f6620746865206576656e7400000000000000000000000000000000602082015250565b600061365d603083612d51565b915061366882613601565b604082019050919050565b6000602082019050818103600083015261368c81613650565b9050919050565b7f4e487b7100000000000000000000000000000000000000000000000000000000600052601160045260246000fd5b60006136cd82612cad565b91506136d883612cad565b9250827fffffffffffffffffffffffffffffffffffffffffffffffffffffffffffffffff0382111561370d5761370c613693565b5b828201905092915050565b7f4e487b7100000000000000000000000000000000000000000000000000000000600052603260045260246000fd5b7f416c726561647920616674657220726567697374726174696f6e206461746500600082015250565b600061377d601f83612d51565b915061378882613747565b602082019050919050565b600060208201905081810360008301526137ac81613770565b9050919050565b7f416c726561647920726567697365746572656420666f7220746865206576656e60008201527f7400000000000000000000000000000000000000000000000000000000000000602082015250565b600061380f602183612d51565b915061381a826137b3565b604082019050919050565b6000602082019050818103600083015261383e81613802565b9050919050565b7f5472616e73616374696f6e2073656e6465722063616e6e6f74206265206f726760008201527f616e697a6572206f6620746865206576656e7400000000000000000000000000602082015250565b60006138a1603383612d51565b91506138ac82613845565b604082019050919050565b600060208201905081810360008301526138d081613894565b9050919050565b60006060820190506138ec6000830186612e9f565b6138f96020830185613060565b6139066040830184612e9f565b949350505050565b7f4f776e61626c653a2063616c6c6572206973206e6f7420746865206f776e6572600082015250565b6000613944602083612d51565b915061394f8261390e565b602082019050919050565b6000602082019050818103600083015261397381613937565b9050919050565b600060408201905061398f6000830185612e9f565b61399c6020830184612e9f565b9392505050565b7f4576656e7420636c6f736564206f72206e6f742061667465722072656769737460008201527f726174696f6e2064617465207965740000000000000000000000000000000000602082015250565b60006139ff602f83612d51565b9150613a0a826139a3565b604082019050919050565b60006020820190508181036000830152613a2e816139f2565b9050919050565b6000613a4082612cad565b91507fffffffffffffffffffffffffffffffffffffffffffffffffffffffffffffffff821415613a7357613a72613693565b5b600182019050919050565b600081519050919050565b600082825260208201905092915050565b6000819050602082019050919050565b6000613ab68383613141565b60208301905092915050565b6000602082019050919050565b6000613ada82613a7e565b613ae48185613a89565b9350613aef83613a9a565b8060005b83811015613b20578151613b078882613aaa565b9750613b1283613ac2565b925050600181019050613af3565b5085935050505092915050565b6000604082019050613b426000830185612e9f565b8181036020830152613b548184613acf565b90509392505050565b7f45524332303a2064656372656173656420616c6c6f77616e63652062656c6f7760008201527f207a65726f000000000000000000000000000000000000000000000000000000602082015250565b6000613bb9602583612d51565b9150613bc482613b5d565b604082019050919050565b60006020820190508181036000830152613be881613bac565b9050919050565b600081905092915050565b7f45787065637465643a2000000000000000000000000000000000000000000000600082015250565b6000613c30600a83613bef565b9150613c3b82613bfa565b600a82019050919050565b6000613c5182612d46565b613c5b8185613bef565b9350613c6b818560208601612d62565b80840191505092915050565b7f20676f743a200000000000000000000000000000000000000000000000000000600082015250565b6000613cad600683613bef565b9150613cb882613c77565b600682019050919050565b6000613cce82613c23565b9150613cda8285613c46565b9150613ce582613ca0565b9150613cf18284613c46565b91508190509392505050565b6000604082019050613d126000830185612e9f565b613d1f6020830184613060565b9392505050565b7f4f776e61626c653a206e6577206f776e657220697320746865207a65726f206160008201527f6464726573730000000000000000000000000000000000000000000000000000602082015250565b6000613d82602683612d51565b9150613d8d82613d26565b604082019050919050565b60006020820190508181036000830152613db181613d75565b9050919050565b7f45524332303a20617070726f76652066726f6d20746865207a65726f2061646460008201527f7265737300000000000000000000000000000000000000000000000000000000602082015250565b6000613e14602483612d51565b9150613e1f82613db8565b604082019050919050565b60006020820190508181036000830152613e4381613e07565b9050919050565b7f45524332303a20617070726f766520746f20746865207a65726f20616464726560008201527f7373000000000000000000000000000000000000000000000000000000000000602082015250565b6000613ea6602283612d51565b9150613eb182613e4a565b604082019050919050565b60006020820190508181036000830152613ed581613e99565b9050919050565b7f45524332303a207472616e736665722066726f6d20746865207a65726f20616460008201527f6472657373000000000000000000000000000000000000000000000000000000602082015250565b6000613f38602583612d51565b9150613f4382613edc565b604082019050919050565b60006020820190508181036000830152613f6781613f2b565b9050919050565b7f45524332303a207472616e7366657220746f20746865207a65726f206164647260008201527f6573730000000000000000000000000000000000000000000000000000000000602082015250565b6000613fca602383612d51565b9150613fd582613f6e565b604082019050919050565b60006020820190508181036000830152613ff981613fbd565b9050919050565b7f45524332303a207472616e7366657220616d6f756e742065786365656473206260008201527f616c616e63650000000000000000000000000000000000000000000000000000602082015250565b600061405c602683612d51565b915061406782614000565b604082019050919050565b6000602082019050818103600083015261408b8161404f565b9050919050565b6000819050919050565b6140ad6140a882612cad565b614092565b82525050565b600081905092915050565b6140c781612e21565b82525050565b60006140d983836140be565b60208301905092915050565b60006140f082613a7e565b6140fa81856140b3565b935061410583613a9a565b8060005b8381101561413657815161411d88826140cd565b975061412883613ac2565b925050600181019050614109565b5085935050505092915050565b600061414f828661409c565b60208201915061415f828561409c565b60208201915061416f82846140e5565b9150819050949350505050565b7f4e487b7100000000000000000000000000000000000000000000000000000000600052601260045260246000fd5b60006141b682612cad565b91506141c183612cad565b9250826141d1576141d061417c565b5b828206905092915050565b7f4e487b7100000000000000000000000000000000000000000000000000000000600052600160045260246000fd5b600061421682612cad565b915061422183612cad565b9250826142315761423061417c565b5b828204905092915050565b600061424782612cad565b915061425283612cad565b92508282101561426557614264613693565b5b828203905092915050565b7f5469746c652063616e6e6f7420626520656d7074790000000000000000000000600082015250565b60006142a6601583612d51565b91506142b182614270565b602082019050919050565b600060208201905081810360008301526142d581614299565b9050919050565b7f53706f7473206d75737420626520706f73697469766520696e74656765720000600082015250565b6000614312601e83612d51565b915061431d826142dc565b602082019050919050565b6000602082019050818103600083015261434181614305565b9050919050565b7f6576656e7444617465203e20726567697374726174696f6e447565446174652060008201527f3e206e6f77282900000000000000000000000000000000000000000000000000602082015250565b60006143a4602783612d51565b91506143af82614348565b604082019050919050565b600060208201905081810360008301526143d381614397565b905091905056fea26469706673582212207cfe8fcbada81e0ef6f083cdbc81e770506da22b79d35b80db0791027351091a64736f6c634300080a0033",
  "immutableReferences": {},
  "source": "// SPDX-License-Identifier: MIT\r\npragma solidity 0.8.10;\r\n\r\nimport \"@openzeppelin/contracts/utils/Strings.sol\";\r\nimport \"@openzeppelin/contracts/utils/math/Math.sol\";\r\nimport \"@openzeppelin/contracts/token/ERC20/ERC20.sol\";\r\nimport \"@openzeppelin/contracts/access/Ownable.sol\";\r\n\r\n/// @title SignMeUp\r\n/// @author Mariusz Walania\r\n/// @notice Contract owner gets paid small fee for each SignUpEventEntry created. Users can register to SignUpEventEntry. Once due date passes, SignUpEventEntry organizer can randomly choose selected participants of the event.\r\ncontract SignMeUp is ERC20, Ownable {\r\n    /// @return wei price paid for newly created SignUpEventEntry\r\n    uint public entryPriceWei;\r\n\r\n    // All event entries\r\n    SignUpEventEntry[] public entries;\r\n\r\n    // Mapping of registered addresses by registration date for given entry\r\n    mapping(uint => mapping(address => uint)) private entryRegistrationTimestamps;\r\n\r\n    // Entries which user registered for\r\n    mapping(address => uint[]) private registrantEntries;\r\n\r\n    // Entries which user was selected for\r\n    mapping(address => uint[]) private participantEntries;\r\n\r\n    // Registrants for given SignUpEventEntry\r\n    mapping(uint => address[]) private entryRegistrants;\r\n\r\n    // Participants for given SignUpEventEntry\r\n    mapping(uint => address[]) private entryParticipants;\r\n\r\n    // Number of entries organized by user\r\n    mapping(address => uint) private organizerEntriesCount;\r\n\r\n    // Organizer of given SignUpEventEntry\r\n    mapping(uint => address) public entryOrganizer;\r\n\r\n    /// @param id id of created SignUpEventEntry\r\n    /// @param organizer address of SignUpEventEntry organizer\r\n    event LogEntryCreated(uint id, address organizer);\r\n\r\n    /// @param id id of SignUpEventEntry someone registered to\r\n    /// @param who address of registrant for the SignUpEventEntry\r\n    /// @param when timestamp when the registration happened\r\n    event LogRegistered(uint id, address who, uint when);\r\n\r\n    /// @param id id SignUpEventEntry that was closed and for which participants were selected\r\n    /// @param participants list of participant addresses selected from registrants list\r\n    event LogEntryClosed(uint id, address[] participants);\r\n\r\n    /// @param oldPrice previous price of created SignUpEventEntry\r\n    /// @param newPrice current price of created SignUpEventEntry\r\n    event LogPriceChanged(uint oldPrice, uint newPrice);\r\n\r\n    /// @notice require the SignUpEventEntry of this id to be before registration date\r\n    /// @param eventId id of SignUpEventEntry\r\n    modifier isBeforeRegistrationDate(uint eventId) {\r\n        SignUpEventEntry memory entry = entries[eventId];\r\n        require(block.timestamp < entry.registrationDueDate, \"Already after registration date\");\r\n        _;\r\n    }\r\n\r\n    /// @notice Requires given SignUpEventEntry to be after registration date and no participants selected yet for this event\r\n    /// @param eventId SignUpEventEntry id\r\n    modifier canSelectParticipants(uint eventId) {\r\n        SignUpEventEntry memory entry = entries[eventId];\r\n        require(\r\n            entryParticipants[eventId].length == 0 &&\r\n                entry.registrationDueDate != 0 &&\r\n                block.timestamp >= entry.registrationDueDate,\r\n            \"Event closed or not after registration date yet\"\r\n        );\r\n        _;\r\n    }\r\n\r\n    /// @notice Requires message sender not to be registered for given SignUpEventEntry\r\n    /// @param eventId SignUpEventEntry id\r\n    modifier isNotRegistered(uint eventId) {\r\n        mapping(address => uint) storage registrationTimestamps = entryRegistrationTimestamps[\r\n            eventId\r\n        ];\r\n        require(registrationTimestamps[msg.sender] == 0, \"Already regisetered for the event\");\r\n        _;\r\n    }\r\n\r\n    /// @notice Requires message sender to be organizer of this SignUpEventEntry\r\n    /// @param eventId SignUpEventEntry id\r\n    modifier isOrganizer(uint eventId) {\r\n        require(\r\n            entryOrganizer[eventId] == msg.sender,\r\n            \"Transaction sender is not organizer of the event\"\r\n        );\r\n        _;\r\n    }\r\n\r\n    /// @notice Requires message sender not to be organizer of given SignUpEventEntry\r\n    /// @param eventId SignUpEventEntry id\r\n    modifier isNotOrganizer(uint eventId) {\r\n        require(\r\n            entryOrganizer[eventId] != msg.sender,\r\n            \"Transaction sender cannot be organizer of the event\"\r\n        );\r\n        _;\r\n    }\r\n\r\n    /// @notice Requires message value to be at least of entryPriceWei\r\n    modifier paidEnough() {\r\n        require(\r\n            msg.value >= entryPriceWei,\r\n            string(\r\n                abi.encodePacked(\r\n                    \"Expected: \",\r\n                    Strings.toString(entryPriceWei),\r\n                    \" got: \",\r\n                    Strings.toString(msg.value)\r\n                )\r\n            )\r\n        );\r\n        _;\r\n    }\r\n\r\n    ////// Structs //////\r\n    struct SignUpEventEntry {\r\n        uint id;\r\n        address organizer;\r\n        string title;\r\n        uint spots;\r\n        uint64 registrationDueDate;\r\n        uint64 eventDate;\r\n    }\r\n\r\n    constructor() ERC20(\"SignMeUp\", \"SMU\") {\r\n        entryPriceWei = 50_000 * 1_000_000_000;\r\n    }\r\n\r\n    ////// Owner functions //////\r\n\r\n    /// @notice Sets price that is paid by sender when creating a new SignUpEventEntry\r\n    /// @param price price to be set\r\n    /// @dev event emitted only when price has actually been change\r\n    function setPrice(uint price) public onlyOwner {\r\n        if (entryPriceWei != price) {\r\n            uint oldPrice = entryPriceWei;\r\n            entryPriceWei = price;\r\n            emit LogPriceChanged(oldPrice, entryPriceWei);\r\n        }\r\n    }\r\n\r\n    ////// Common functions //////\r\n\r\n    /// @return number of SignUpEventEntry objects\r\n    function getEntriesCount() public view returns (uint) {\r\n        return entries.length;\r\n    }\r\n\r\n    /// @notice create new SignUpEventEntry\r\n    /// @param title event title\r\n    /// @param spots number of available spots\r\n    /// @param registrationDueDate epoch time (seconds) until when users can register for the event\r\n    /// @param eventDate epoch time (seconds) of the event\r\n    /// @return entry id\r\n    function createNewSignUpEventEntry(\r\n        string memory title,\r\n        uint spots,\r\n        uint64 registrationDueDate,\r\n        uint64 eventDate\r\n    ) public payable paidEnough returns (uint) {\r\n        SignUpEventEntry memory entry = newSignUpEventEntryOf(\r\n            title,\r\n            spots,\r\n            registrationDueDate,\r\n            eventDate\r\n        );\r\n\r\n        address payable _owner = payable(owner());\r\n        _owner.transfer(msg.value);\r\n\r\n        emit LogEntryCreated(entry.id, entry.organizer);\r\n\r\n        return entry.id;\r\n    }\r\n\r\n    function newSignUpEventEntryOf(\r\n        string memory title,\r\n        uint spots,\r\n        uint64 registrationDueDate,\r\n        uint64 eventDate\r\n    ) private returns (SignUpEventEntry memory) {\r\n        require(bytes(title).length > 0, \"Title cannot be empty\");\r\n        require(spots > 0, \"Spots must be positive integer\");\r\n        require(\r\n            eventDate > registrationDueDate && registrationDueDate > block.timestamp,\r\n            \"eventDate > registrationDueDate > now()\"\r\n        );\r\n\r\n        uint newId = entries.length;\r\n        address organizer = msg.sender;\r\n\r\n        SignUpEventEntry memory entry = SignUpEventEntry({\r\n            id: newId,\r\n            organizer: organizer,\r\n            title: title,\r\n            spots: spots,\r\n            registrationDueDate: registrationDueDate,\r\n            eventDate: eventDate\r\n        });\r\n\r\n        entryOrganizer[newId] = organizer;\r\n        organizerEntriesCount[organizer] += 1;\r\n\r\n        entries.push(entry);\r\n\r\n        return entry;\r\n    }\r\n\r\n    /// @notice Get number of entries created by given message sender\r\n    /// @return number of entries\r\n    function getOrganizerEntriesCount() public view returns (uint) {\r\n        return organizerEntriesCount[msg.sender];\r\n    }\r\n\r\n    /// @notice get entries created by given message sender\r\n    /// @return entries array\r\n    function getOrganizerEntries() public view returns (SignUpEventEntry[] memory) {\r\n        address organizer = msg.sender;\r\n\r\n        SignUpEventEntry[] memory result = new SignUpEventEntry[](\r\n            organizerEntriesCount[organizer]\r\n        );\r\n        uint targetIndex = 0;\r\n        for (uint i = 0; i < entries.length; i++) {\r\n            if (entries[i].organizer == organizer) {\r\n                result[targetIndex++] = entries[i];\r\n            }\r\n        }\r\n\r\n        return result;\r\n    }\r\n\r\n    /// @notice Randomly chooses participants of given SignUpEventEntry from the list of registrants for this event\r\n    /// @param eventId id of SignUpEventEntry\r\n    function randomlyChooseEventParticipants(uint eventId)\r\n        public\r\n        isOrganizer(eventId)\r\n        canSelectParticipants(eventId)\r\n    {\r\n        // TODO use some 'random' oracle, choose participants from registeres users and change state to Closed\r\n\r\n        address[] memory registrants = entryRegistrants[eventId];\r\n        address[] memory participants;\r\n        if (registrants.length > 0) {\r\n            participants = pseudoRandomAddresses(\r\n                registrants,\r\n                Math.min(registrants.length, entries[eventId].spots)\r\n            );\r\n            entryParticipants[eventId] = participants;\r\n            for (uint i = 0; i < participants.length; i++) {\r\n                participantEntries[participants[i]].push(eventId);\r\n            }\r\n        }\r\n\r\n        emit LogEntryClosed(eventId, participants);\r\n    }\r\n\r\n    ////// Registrant functions //////\r\n\r\n    /// @notice register sender of this message for the event\r\n    /// @param eventId SignUpEventEntry id\r\n    function registerForEvent(uint eventId)\r\n        public\r\n        isBeforeRegistrationDate(eventId)\r\n        isNotRegistered(eventId)\r\n        isNotOrganizer(eventId)\r\n        returns (uint)\r\n    {\r\n        uint registrationTimestamp = block.timestamp;\r\n\r\n        mapping(address => uint) storage registrationTimestamps = entryRegistrationTimestamps[\r\n            eventId\r\n        ];\r\n        registrationTimestamps[msg.sender] = registrationTimestamp;\r\n        registrantEntries[msg.sender].push(eventId);\r\n        entryRegistrants[eventId].push(msg.sender);\r\n\r\n        emit LogRegistered(eventId, msg.sender, registrationTimestamp);\r\n\r\n        return registrationTimestamp;\r\n    }\r\n\r\n    /// @return array of ids of entries given message sender registered for\r\n    function getEntriesUserRegisteredFor() public view returns (uint[] memory) {\r\n        return registrantEntries[msg.sender];\r\n    }\r\n\r\n    /// @notice Checks if message sender is registered for given event\r\n    /// @param eventId event id\r\n    /// @return true if registered, false otherwise\r\n    function isRegisteredForEntry(uint eventId) public view returns (bool) {\r\n        return entryRegistrationTimestamps[eventId][msg.sender] > 0;\r\n    }\r\n\r\n    /// @return array of ids of entries given message sender has been selected for\r\n    function getEntriesUserSelectedFor() public view returns (uint[] memory) {\r\n        return participantEntries[msg.sender];\r\n    }\r\n\r\n    /// @notice Get number of registrants for given SignUpEventEntry\r\n    /// @param eventId event id\r\n    /// @return number of registrants\r\n    function getNumberOfRegisteredUsersForEvent(uint eventId)\r\n        public\r\n        view\r\n        isOrganizer(eventId)\r\n        returns (uint)\r\n    {\r\n        return entryRegistrants[eventId].length;\r\n    }\r\n\r\n    /// @notice pseudo number way of selecting participants\r\n    /// @param registrants array of registrants addresses\r\n    /// @param targetCount number of addresses that should be selected among registrants\r\n    function pseudoRandomAddresses(address[] memory registrants, uint targetCount)\r\n        private\r\n        view\r\n        returns (address[] memory)\r\n    {\r\n        uint number = uint(\r\n            keccak256(abi.encodePacked(block.timestamp, block.difficulty, registrants))\r\n        );\r\n        uint pseudoNumber = number % registrants.length;\r\n        assert(pseudoNumber < registrants.length);\r\n\r\n        uint registrantIndex = pseudoNumber;\r\n        address[] memory participants = new address[](targetCount);\r\n        for (uint i = 0; i < participants.length; i++) {\r\n            participants[i] = registrants[registrantIndex++];\r\n            if (registrantIndex >= registrants.length) {\r\n                registrantIndex = 0;\r\n            }\r\n        }\r\n\r\n        return participants;\r\n    }\r\n}\r\n",
  "sourcePath": "/mnt/c/Dev/workspace/consensys/final/blockchain-developer-bootcamp-final-project/contracts/SignMeUp.sol",
  "compiler": {
    "name": "solc",
    "version": "0.8.10+commit.fc410830.Emscripten.clang"
  },
  "schemaVersion": "3.4.3",
  "updatedAt": "2021-11-20T21:47:47.991Z",
  "networkType": "ethereum",
  "devdoc": {
    "author": "Mariusz Walania",
    "events": {
      "LogEntryClosed(uint256,address[])": {
        "params": {
          "id": "id SignUpEventEntry that was closed and for which participants were selected",
          "participants": "list of participant addresses selected from registrants list"
        }
      },
      "LogEntryCreated(uint256,address)": {
        "params": {
          "id": "id of created SignUpEventEntry",
          "organizer": "address of SignUpEventEntry organizer"
        }
      },
      "LogPriceChanged(uint256,uint256)": {
        "params": {
          "newPrice": "current price of created SignUpEventEntry",
          "oldPrice": "previous price of created SignUpEventEntry"
        }
      },
      "LogRegistered(uint256,address,uint256)": {
        "params": {
          "id": "id of SignUpEventEntry someone registered to",
          "when": "timestamp when the registration happened",
          "who": "address of registrant for the SignUpEventEntry"
        }
      }
    },
    "kind": "dev",
    "methods": {
      "allowance(address,address)": {
        "details": "See {IERC20-allowance}."
      },
      "approve(address,uint256)": {
        "details": "See {IERC20-approve}. Requirements: - `spender` cannot be the zero address."
      },
      "balanceOf(address)": {
        "details": "See {IERC20-balanceOf}."
      },
      "createNewSignUpEventEntry(string,uint256,uint64,uint64)": {
        "params": {
          "eventDate": "epoch time (seconds) of the event",
          "registrationDueDate": "epoch time (seconds) until when users can register for the event",
          "spots": "number of available spots",
          "title": "event title"
        },
        "returns": {
          "_0": "entry id"
        }
      },
      "decimals()": {
        "details": "Returns the number of decimals used to get its user representation. For example, if `decimals` equals `2`, a balance of `505` tokens should be displayed to a user as `5.05` (`505 / 10 ** 2`). Tokens usually opt for a value of 18, imitating the relationship between Ether and Wei. This is the value {ERC20} uses, unless this function is overridden; NOTE: This information is only used for _display_ purposes: it in no way affects any of the arithmetic of the contract, including {IERC20-balanceOf} and {IERC20-transfer}."
      },
      "decreaseAllowance(address,uint256)": {
        "details": "Atomically decreases the allowance granted to `spender` by the caller. This is an alternative to {approve} that can be used as a mitigation for problems described in {IERC20-approve}. Emits an {Approval} event indicating the updated allowance. Requirements: - `spender` cannot be the zero address. - `spender` must have allowance for the caller of at least `subtractedValue`."
      },
      "getEntriesCount()": {
        "returns": {
          "_0": "number of SignUpEventEntry objects"
        }
      },
      "getEntriesUserRegisteredFor()": {
        "returns": {
          "_0": "array of ids of entries given message sender registered for"
        }
      },
      "getEntriesUserSelectedFor()": {
        "returns": {
          "_0": "array of ids of entries given message sender has been selected for"
        }
      },
      "getNumberOfRegisteredUsersForEvent(uint256)": {
        "params": {
          "eventId": "event id"
        },
        "returns": {
          "_0": "number of registrants"
        }
      },
      "getOrganizerEntries()": {
        "returns": {
          "_0": "entries array"
        }
      },
      "getOrganizerEntriesCount()": {
        "returns": {
          "_0": "number of entries"
        }
      },
      "increaseAllowance(address,uint256)": {
        "details": "Atomically increases the allowance granted to `spender` by the caller. This is an alternative to {approve} that can be used as a mitigation for problems described in {IERC20-approve}. Emits an {Approval} event indicating the updated allowance. Requirements: - `spender` cannot be the zero address."
      },
      "isRegisteredForEntry(uint256)": {
        "params": {
          "eventId": "event id"
        },
        "returns": {
          "_0": "true if registered, false otherwise"
        }
      },
      "name()": {
        "details": "Returns the name of the token."
      },
      "owner()": {
        "details": "Returns the address of the current owner."
      },
      "randomlyChooseEventParticipants(uint256)": {
        "params": {
          "eventId": "id of SignUpEventEntry"
        }
      },
      "registerForEvent(uint256)": {
        "params": {
          "eventId": "SignUpEventEntry id"
        }
      },
      "renounceOwnership()": {
        "details": "Leaves the contract without owner. It will not be possible to call `onlyOwner` functions anymore. Can only be called by the current owner. NOTE: Renouncing ownership will leave the contract without an owner, thereby removing any functionality that is only available to the owner."
      },
      "setPrice(uint256)": {
        "details": "event emitted only when price has actually been change",
        "params": {
          "price": "price to be set"
        }
      },
      "symbol()": {
        "details": "Returns the symbol of the token, usually a shorter version of the name."
      },
      "totalSupply()": {
        "details": "See {IERC20-totalSupply}."
      },
      "transfer(address,uint256)": {
        "details": "See {IERC20-transfer}. Requirements: - `recipient` cannot be the zero address. - the caller must have a balance of at least `amount`."
      },
      "transferFrom(address,address,uint256)": {
        "details": "See {IERC20-transferFrom}. Emits an {Approval} event indicating the updated allowance. This is not required by the EIP. See the note at the beginning of {ERC20}. Requirements: - `sender` and `recipient` cannot be the zero address. - `sender` must have a balance of at least `amount`. - the caller must have allowance for ``sender``'s tokens of at least `amount`."
      },
      "transferOwnership(address)": {
        "details": "Transfers ownership of the contract to a new account (`newOwner`). Can only be called by the current owner."
      }
    },
    "stateVariables": {
      "entryPriceWei": {
        "return": "wei price paid for newly created SignUpEventEntry",
        "returns": {
          "_0": "wei price paid for newly created SignUpEventEntry"
        }
      }
    },
    "title": "SignMeUp",
    "version": 1
  },
  "userdoc": {
    "kind": "user",
    "methods": {
      "createNewSignUpEventEntry(string,uint256,uint64,uint64)": {
        "notice": "create new SignUpEventEntry"
      },
      "getNumberOfRegisteredUsersForEvent(uint256)": {
        "notice": "Get number of registrants for given SignUpEventEntry"
      },
      "getOrganizerEntries()": {
        "notice": "get entries created by given message sender"
      },
      "getOrganizerEntriesCount()": {
        "notice": "Get number of entries created by given message sender"
      },
      "isRegisteredForEntry(uint256)": {
        "notice": "Checks if message sender is registered for given event"
      },
      "randomlyChooseEventParticipants(uint256)": {
        "notice": "Randomly chooses participants of given SignUpEventEntry from the list of registrants for this event"
      },
      "registerForEvent(uint256)": {
        "notice": "register sender of this message for the event"
      },
      "setPrice(uint256)": {
        "notice": "Sets price that is paid by sender when creating a new SignUpEventEntry"
      }
    },
    "notice": "Contract owner gets paid small fee for each SignUpEventEntry created. Users can register to SignUpEventEntry. Once due date passes, SignUpEventEntry organizer can randomly choose selected participants of the event.",
    "version": 1
  }
}