{
  "contractName": "SignMeUp",
  "abi": [
    {
      "inputs": [
        {
          "internalType": "uint256",
          "name": "",
          "type": "uint256"
        }
      ],
      "name": "entries",
      "outputs": [
        {
          "internalType": "uint256",
          "name": "id",
          "type": "uint256"
        },
        {
          "internalType": "address",
          "name": "organizer",
          "type": "address"
        },
        {
          "internalType": "string",
          "name": "title",
          "type": "string"
        },
        {
          "internalType": "uint256",
          "name": "totalSpots",
          "type": "uint256"
        },
        {
          "internalType": "uint256",
          "name": "registrationDueDate",
          "type": "uint256"
        },
        {
          "internalType": "enum SignMeUp.State",
          "name": "state",
          "type": "uint8"
        }
      ],
      "stateMutability": "view",
      "type": "function",
      "constant": true
    },
    {
      "inputs": [
        {
          "internalType": "string",
          "name": "_title",
          "type": "string"
        },
        {
          "internalType": "uint256",
          "name": "_totalSpots",
          "type": "uint256"
        },
        {
          "internalType": "uint256",
          "name": "_registrationDueDate",
          "type": "uint256"
        }
      ],
      "name": "createNewSignUpEntry",
      "outputs": [
        {
          "internalType": "uint256",
          "name": "",
          "type": "uint256"
        }
      ],
      "stateMutability": "nonpayable",
      "type": "function"
    },
    {
      "inputs": [
        {
          "internalType": "uint256",
          "name": "x",
          "type": "uint256"
        }
      ],
      "name": "set",
      "outputs": [],
      "stateMutability": "nonpayable",
      "type": "function"
    },
    {
      "inputs": [],
      "name": "get",
      "outputs": [
        {
          "internalType": "uint256",
          "name": "",
          "type": "uint256"
        }
      ],
      "stateMutability": "view",
      "type": "function",
      "constant": true
    }
  ],
  "bytecode": "0x6080604052602c60015534801561001557600080fd5b5061090e806100256000396000f3fe608060405234801561001057600080fd5b506004361061004c5760003560e01c806360fe47b1146100515780636d4ce63c1461006d578063b30906d41461008b578063ed9a84d0146100c0575b600080fd5b61006b60048036038101906100669190610476565b6100f0565b005b6100756100fa565b60405161008291906104b2565b60405180910390f35b6100a560048036038101906100a09190610476565b610104565b6040516100b79695949392919061061e565b60405180910390f35b6100da60048036038101906100d591906107bb565b610205565b6040516100e791906104b2565b60405180910390f35b8060018190555050565b6000600154905090565b6000818154811061011457600080fd5b90600052602060002090600602016000915090508060000154908060010160009054906101000a900473ffffffffffffffffffffffffffffffffffffffff169080600201805461016390610859565b80601f016020809104026020016040519081016040528092919081815260200182805461018f90610859565b80156101dc5780601f106101b1576101008083540402835291602001916101dc565b820191906000526020600020905b8154815290600101906020018083116101bf57829003601f168201915b5050505050908060030154908060040154908060050160009054906101000a900460ff16905086565b6000806040518060c0016040528061021b610356565b81526020013373ffffffffffffffffffffffffffffffffffffffff16815260200186815260200185815260200184815260200160006001811115610262576102616105a7565b5b815250905060008190806001815401808255809150506001900390600052602060002090600602016000909190919091506000820151816000015560208201518160010160006101000a81548173ffffffffffffffffffffffffffffffffffffffff021916908373ffffffffffffffffffffffffffffffffffffffff1602179055506040820151816002019080519060200190610300929190610389565b50606082015181600301556080820151816004015560a08201518160050160006101000a81548160ff021916908360018111156103405761033f6105a7565b5b0217905550505080600001519150509392505050565b6000424460405160200161036b9291906108ac565b6040516020818303038152906040528051906020012060001c905090565b82805461039590610859565b90600052602060002090601f0160209004810192826103b757600085556103fe565b82601f106103d057805160ff19168380011785556103fe565b828001600101855582156103fe579182015b828111156103fd5782518255916020019190600101906103e2565b5b50905061040b919061040f565b5090565b5b80821115610428576000816000905550600101610410565b5090565b6000604051905090565b600080fd5b600080fd5b6000819050919050565b61045381610440565b811461045e57600080fd5b50565b6000813590506104708161044a565b92915050565b60006020828403121561048c5761048b610436565b5b600061049a84828501610461565b91505092915050565b6104ac81610440565b82525050565b60006020820190506104c760008301846104a3565b92915050565b600073ffffffffffffffffffffffffffffffffffffffff82169050919050565b60006104f8826104cd565b9050919050565b610508816104ed565b82525050565b600081519050919050565b600082825260208201905092915050565b60005b8381101561054857808201518184015260208101905061052d565b83811115610557576000848401525b50505050565b6000601f19601f8301169050919050565b60006105798261050e565b6105838185610519565b935061059381856020860161052a565b61059c8161055d565b840191505092915050565b7f4e487b7100000000000000000000000000000000000000000000000000000000600052602160045260246000fd5b600281106105e7576105e66105a7565b5b50565b60008190506105f8826105d6565b919050565b6000610608826105ea565b9050919050565b610618816105fd565b82525050565b600060c08201905061063360008301896104a3565b61064060208301886104ff565b8181036040830152610652818761056e565b905061066160608301866104a3565b61066e60808301856104a3565b61067b60a083018461060f565b979650505050505050565b600080fd5b600080fd5b7f4e487b7100000000000000000000000000000000000000000000000000000000600052604160045260246000fd5b6106c88261055d565b810181811067ffffffffffffffff821117156106e7576106e6610690565b5b80604052505050565b60006106fa61042c565b905061070682826106bf565b919050565b600067ffffffffffffffff82111561072657610725610690565b5b61072f8261055d565b9050602081019050919050565b82818337600083830152505050565b600061075e6107598461070b565b6106f0565b90508281526020810184848401111561077a5761077961068b565b5b61078584828561073c565b509392505050565b600082601f8301126107a2576107a1610686565b5b81356107b284826020860161074b565b91505092915050565b6000806000606084860312156107d4576107d3610436565b5b600084013567ffffffffffffffff8111156107f2576107f161043b565b5b6107fe8682870161078d565b935050602061080f86828701610461565b925050604061082086828701610461565b9150509250925092565b7f4e487b7100000000000000000000000000000000000000000000000000000000600052602260045260246000fd5b6000600282049050600182168061087157607f821691505b602082108114156108855761088461082a565b5b50919050565b6000819050919050565b6108a66108a182610440565b61088b565b82525050565b60006108b88285610895565b6020820191506108c88284610895565b602082019150819050939250505056fea26469706673582212205a813d4f1a32da224b72cdc804c74f20d28168f1c65723e6f7ecbdc8cad11c3664736f6c634300080a0033",
  "immutableReferences": {},
  "source": "// SPDX-License-Identifier: MIT\r\npragma solidity >=0.5.16 <0.9.0;\r\n\r\ncontract SignMeUp {\r\n\r\n  SignUpEntry[] public entries;\r\n  \r\n  // mapping (address => SignUpEntry[]) private organizerEntries;\r\n\r\n  enum State {Active, Expired}\r\n\r\n  struct SignUpEntry {\r\n    uint256 id;\r\n    address organizer;\r\n    string title;\r\n    uint totalSpots;\r\n    uint registrationDueDate;\r\n    // address[] registrants;\r\n    // address[] participants;\r\n    State state;\r\n  }\r\n\r\n  function createNewSignUpEntry(string memory _title, uint _totalSpots, uint _registrationDueDate)\r\n    public\r\n    returns (uint256) {\r\n\r\n    SignUpEntry memory entry = SignUpEntry({\r\n      id: nonSecureRandom(),\r\n      organizer: msg.sender,\r\n      title: _title,\r\n      totalSpots: _totalSpots,\r\n      registrationDueDate: _registrationDueDate,\r\n      state: State.Active\r\n    });\r\n\r\n    entries.push(entry);\r\n\r\n    return entry.id;\r\n  }\r\n\r\n  // ### Utils ###\r\n  // #############\r\n\r\n  function nonSecureRandom() private view returns (uint256) {\r\n    return uint256(keccak256(\r\n      abi.encodePacked(block.timestamp, block.difficulty)\r\n    ));\r\n  }\r\n\r\n  // ### Utils - end ###\r\n\r\n  // ##########################\r\n  // Simple storage\r\n  uint storedData = 44;\r\n  function set(uint x) public {\r\n    storedData = x;\r\n  }\r\n\r\n  function get() public view returns (uint) {\r\n    return storedData;\r\n  }\r\n}\r\n",
  "sourcePath": "/mnt/c/Dev/workspace/consensys/final/blockchain-developer-bootcamp-final-project/contracts/SignMeUp.sol",
  "compiler": {
    "name": "solc",
    "version": "0.8.10+commit.fc410830.Emscripten.clang"
  },
  "schemaVersion": "3.4.3",
  "updatedAt": "2021-11-10T14:18:11.894Z",
  "networkType": "ethereum",
  "devdoc": {
    "kind": "dev",
    "methods": {},
    "version": 1
  },
  "userdoc": {
    "kind": "user",
    "methods": {},
    "version": 1
  }
}