{
  "contractName": "SignMeUp",
  "abi": [
    {
      "inputs": [],
      "stateMutability": "nonpayable",
      "type": "constructor"
    },
    {
      "anonymous": false,
      "inputs": [
        {
          "indexed": true,
          "internalType": "address",
          "name": "owner",
          "type": "address"
        },
        {
          "indexed": true,
          "internalType": "address",
          "name": "spender",
          "type": "address"
        },
        {
          "indexed": false,
          "internalType": "uint256",
          "name": "value",
          "type": "uint256"
        }
      ],
      "name": "Approval",
      "type": "event"
    },
    {
      "anonymous": false,
      "inputs": [
        {
          "indexed": true,
          "internalType": "address",
          "name": "previousOwner",
          "type": "address"
        },
        {
          "indexed": true,
          "internalType": "address",
          "name": "newOwner",
          "type": "address"
        }
      ],
      "name": "OwnershipTransferred",
      "type": "event"
    },
    {
      "anonymous": false,
      "inputs": [
        {
          "indexed": false,
          "internalType": "uint256",
          "name": "id",
          "type": "uint256"
        }
      ],
      "name": "SignMeUpEntryCreated",
      "type": "event"
    },
    {
      "anonymous": false,
      "inputs": [
        {
          "indexed": true,
          "internalType": "address",
          "name": "from",
          "type": "address"
        },
        {
          "indexed": true,
          "internalType": "address",
          "name": "to",
          "type": "address"
        },
        {
          "indexed": false,
          "internalType": "uint256",
          "name": "value",
          "type": "uint256"
        }
      ],
      "name": "Transfer",
      "type": "event"
    },
    {
      "inputs": [
        {
          "internalType": "address",
          "name": "owner",
          "type": "address"
        },
        {
          "internalType": "address",
          "name": "spender",
          "type": "address"
        }
      ],
      "name": "allowance",
      "outputs": [
        {
          "internalType": "uint256",
          "name": "",
          "type": "uint256"
        }
      ],
      "stateMutability": "view",
      "type": "function",
      "constant": true
    },
    {
      "inputs": [
        {
          "internalType": "address",
          "name": "spender",
          "type": "address"
        },
        {
          "internalType": "uint256",
          "name": "amount",
          "type": "uint256"
        }
      ],
      "name": "approve",
      "outputs": [
        {
          "internalType": "bool",
          "name": "",
          "type": "bool"
        }
      ],
      "stateMutability": "nonpayable",
      "type": "function"
    },
    {
      "inputs": [
        {
          "internalType": "address",
          "name": "account",
          "type": "address"
        }
      ],
      "name": "balanceOf",
      "outputs": [
        {
          "internalType": "uint256",
          "name": "",
          "type": "uint256"
        }
      ],
      "stateMutability": "view",
      "type": "function",
      "constant": true
    },
    {
      "inputs": [],
      "name": "decimals",
      "outputs": [
        {
          "internalType": "uint8",
          "name": "",
          "type": "uint8"
        }
      ],
      "stateMutability": "view",
      "type": "function",
      "constant": true
    },
    {
      "inputs": [
        {
          "internalType": "address",
          "name": "spender",
          "type": "address"
        },
        {
          "internalType": "uint256",
          "name": "subtractedValue",
          "type": "uint256"
        }
      ],
      "name": "decreaseAllowance",
      "outputs": [
        {
          "internalType": "bool",
          "name": "",
          "type": "bool"
        }
      ],
      "stateMutability": "nonpayable",
      "type": "function"
    },
    {
      "inputs": [
        {
          "internalType": "uint256",
          "name": "",
          "type": "uint256"
        }
      ],
      "name": "entries",
      "outputs": [
        {
          "internalType": "uint256",
          "name": "id",
          "type": "uint256"
        },
        {
          "internalType": "address",
          "name": "organizer",
          "type": "address"
        },
        {
          "internalType": "string",
          "name": "title",
          "type": "string"
        },
        {
          "internalType": "uint256",
          "name": "spots",
          "type": "uint256"
        },
        {
          "internalType": "uint256",
          "name": "registrationDueDate",
          "type": "uint256"
        },
        {
          "internalType": "enum SignMeUp.State",
          "name": "state",
          "type": "uint8"
        }
      ],
      "stateMutability": "view",
      "type": "function",
      "constant": true
    },
    {
      "inputs": [
        {
          "internalType": "address",
          "name": "spender",
          "type": "address"
        },
        {
          "internalType": "uint256",
          "name": "addedValue",
          "type": "uint256"
        }
      ],
      "name": "increaseAllowance",
      "outputs": [
        {
          "internalType": "bool",
          "name": "",
          "type": "bool"
        }
      ],
      "stateMutability": "nonpayable",
      "type": "function"
    },
    {
      "inputs": [],
      "name": "name",
      "outputs": [
        {
          "internalType": "string",
          "name": "",
          "type": "string"
        }
      ],
      "stateMutability": "view",
      "type": "function",
      "constant": true
    },
    {
      "inputs": [],
      "name": "owner",
      "outputs": [
        {
          "internalType": "address",
          "name": "",
          "type": "address"
        }
      ],
      "stateMutability": "view",
      "type": "function",
      "constant": true
    },
    {
      "inputs": [],
      "name": "renounceOwnership",
      "outputs": [],
      "stateMutability": "nonpayable",
      "type": "function"
    },
    {
      "inputs": [],
      "name": "symbol",
      "outputs": [
        {
          "internalType": "string",
          "name": "",
          "type": "string"
        }
      ],
      "stateMutability": "view",
      "type": "function",
      "constant": true
    },
    {
      "inputs": [],
      "name": "totalSupply",
      "outputs": [
        {
          "internalType": "uint256",
          "name": "",
          "type": "uint256"
        }
      ],
      "stateMutability": "view",
      "type": "function",
      "constant": true
    },
    {
      "inputs": [
        {
          "internalType": "address",
          "name": "recipient",
          "type": "address"
        },
        {
          "internalType": "uint256",
          "name": "amount",
          "type": "uint256"
        }
      ],
      "name": "transfer",
      "outputs": [
        {
          "internalType": "bool",
          "name": "",
          "type": "bool"
        }
      ],
      "stateMutability": "nonpayable",
      "type": "function"
    },
    {
      "inputs": [
        {
          "internalType": "address",
          "name": "sender",
          "type": "address"
        },
        {
          "internalType": "address",
          "name": "recipient",
          "type": "address"
        },
        {
          "internalType": "uint256",
          "name": "amount",
          "type": "uint256"
        }
      ],
      "name": "transferFrom",
      "outputs": [
        {
          "internalType": "bool",
          "name": "",
          "type": "bool"
        }
      ],
      "stateMutability": "nonpayable",
      "type": "function"
    },
    {
      "inputs": [
        {
          "internalType": "address",
          "name": "newOwner",
          "type": "address"
        }
      ],
      "name": "transferOwnership",
      "outputs": [],
      "stateMutability": "nonpayable",
      "type": "function"
    },
    {
      "inputs": [],
      "name": "getEntriesCount",
      "outputs": [
        {
          "internalType": "uint256",
          "name": "",
          "type": "uint256"
        }
      ],
      "stateMutability": "view",
      "type": "function",
      "constant": true
    },
    {
      "inputs": [
        {
          "internalType": "string",
          "name": "_title",
          "type": "string"
        },
        {
          "internalType": "uint256",
          "name": "_spots",
          "type": "uint256"
        },
        {
          "internalType": "uint256",
          "name": "_registrationDueDate",
          "type": "uint256"
        }
      ],
      "name": "createNewSignUpEntry",
      "outputs": [
        {
          "internalType": "uint256",
          "name": "",
          "type": "uint256"
        }
      ],
      "stateMutability": "nonpayable",
      "type": "function"
    }
  ],
  "bytecode": "0x60806040523480156200001157600080fd5b506040518060400160405280600881526020017f5369676e4d6555700000000000000000000000000000000000000000000000008152506040518060400160405280600381526020017f534d55000000000000000000000000000000000000000000000000000000000081525081600390805190602001906200009692919062000426565b508060049080519060200190620000af92919062000426565b505050620000d2620000c6620001be60201b60201c565b620001c660201b60201c565b6200011d6040518060400160405280600781526020017f4576656e74203100000000000000000000000000000000000000000000000000815250600a6127106200028c60201b60201c565b506200016a6040518060400160405280600781526020017f4576656e74203200000000000000000000000000000000000000000000000000815250600c620186a06200028c60201b60201c565b50620001b76040518060400160405280600781526020017f4576656e742033000000000000000000000000000000000000000000000000008152506017629896806200028c60201b60201c565b50620005a2565b600033905090565b6000600560009054906101000a900473ffffffffffffffffffffffffffffffffffffffff16905081600560006101000a81548173ffffffffffffffffffffffffffffffffffffffff021916908373ffffffffffffffffffffffffffffffffffffffff1602179055508173ffffffffffffffffffffffffffffffffffffffff168173ffffffffffffffffffffffffffffffffffffffff167f8be0079c531659141344cd1fd0a4f28419497f9722a3daafe3b4186f6b6457e060405160405180910390a35050565b600080600680549050905060006040518060c001604052808381526020013373ffffffffffffffffffffffffffffffffffffffff16815260200187815260200186815260200185815260200160006001811115620002ef57620002ee620004d6565b5b815250905060068190806001815401808255809150506001900390600052602060002090600602016000909190919091506000820151816000015560208201518160010160006101000a81548173ffffffffffffffffffffffffffffffffffffffff021916908373ffffffffffffffffffffffffffffffffffffffff16021790555060408201518160020190805190602001906200038f92919062000426565b50606082015181600301556080820151816004015560a08201518160050160006101000a81548160ff02191690836001811115620003d257620003d1620004d6565b5b021790555050507f63fbb601c5f46806528e8a39b19accc635c3678db83a34bb09c765f99ad6c29781600001516040516200040e919062000520565b60405180910390a18060000151925050509392505050565b82805462000434906200056c565b90600052602060002090601f016020900481019282620004585760008555620004a4565b82601f106200047357805160ff1916838001178555620004a4565b82800160010185558215620004a4579182015b82811115620004a357825182559160200191906001019062000486565b5b509050620004b39190620004b7565b5090565b5b80821115620004d2576000816000905550600101620004b8565b5090565b7f4e487b7100000000000000000000000000000000000000000000000000000000600052602160045260246000fd5b6000819050919050565b6200051a8162000505565b82525050565b60006020820190506200053760008301846200050f565b92915050565b7f4e487b7100000000000000000000000000000000000000000000000000000000600052602260045260246000fd5b600060028204905060018216806200058557607f821691505b602082108114156200059c576200059b6200053d565b5b50919050565b611e6b80620005b26000396000f3fe608060405234801561001057600080fd5b506004361061010b5760003560e01c80638da5cb5b116100a2578063b30906d411610071578063b30906d4146102d0578063d09685b014610305578063dd62ed3e14610323578063ed9a84d014610353578063f2fde38b146103835761010b565b80638da5cb5b1461023457806395d89b4114610252578063a457c2d714610270578063a9059cbb146102a05761010b565b8063313ce567116100de578063313ce567146101ac57806339509351146101ca57806370a08231146101fa578063715018a61461022a5761010b565b806306fdde0314610110578063095ea7b31461012e57806318160ddd1461015e57806323b872dd1461017c575b600080fd5b61011861039f565b6040516101259190611318565b60405180910390f35b610148600480360381019061014391906113e2565b610431565b604051610155919061143d565b60405180910390f35b61016661044f565b6040516101739190611467565b60405180910390f35b61019660048036038101906101919190611482565b610459565b6040516101a3919061143d565b60405180910390f35b6101b4610551565b6040516101c191906114f1565b60405180910390f35b6101e460048036038101906101df91906113e2565b61055a565b6040516101f1919061143d565b60405180910390f35b610214600480360381019061020f919061150c565b610606565b6040516102219190611467565b60405180910390f35b61023261064e565b005b61023c6106d6565b6040516102499190611548565b60405180910390f35b61025a610700565b6040516102679190611318565b60405180910390f35b61028a600480360381019061028591906113e2565b610792565b604051610297919061143d565b60405180910390f35b6102ba60048036038101906102b591906113e2565b61087d565b6040516102c7919061143d565b60405180910390f35b6102ea60048036038101906102e59190611563565b61089b565b6040516102fc96959493929190611607565b60405180910390f35b61030d61099c565b60405161031a9190611467565b60405180910390f35b61033d6004803603810190610338919061166f565b6109a9565b60405161034a9190611467565b60405180910390f35b61036d600480360381019061036891906117e4565b610a30565b60405161037a9190611467565b60405180910390f35b61039d6004803603810190610398919061150c565b610bc0565b005b6060600380546103ae90611882565b80601f01602080910402602001604051908101604052809291908181526020018280546103da90611882565b80156104275780601f106103fc57610100808354040283529160200191610427565b820191906000526020600020905b81548152906001019060200180831161040a57829003601f168201915b5050505050905090565b600061044561043e610cb8565b8484610cc0565b6001905092915050565b6000600254905090565b6000610466848484610e8b565b6000600160008673ffffffffffffffffffffffffffffffffffffffff1673ffffffffffffffffffffffffffffffffffffffff16815260200190815260200160002060006104b1610cb8565b73ffffffffffffffffffffffffffffffffffffffff1673ffffffffffffffffffffffffffffffffffffffff16815260200190815260200160002054905082811015610531576040517f08c379a000000000000000000000000000000000000000000000000000000000815260040161052890611926565b60405180910390fd5b6105458561053d610cb8565b858403610cc0565b60019150509392505050565b60006012905090565b60006105fc610567610cb8565b848460016000610575610cb8565b73ffffffffffffffffffffffffffffffffffffffff1673ffffffffffffffffffffffffffffffffffffffff16815260200190815260200160002060008873ffffffffffffffffffffffffffffffffffffffff1673ffffffffffffffffffffffffffffffffffffffff168152602001908152602001600020546105f79190611975565b610cc0565b6001905092915050565b60008060008373ffffffffffffffffffffffffffffffffffffffff1673ffffffffffffffffffffffffffffffffffffffff168152602001908152602001600020549050919050565b610656610cb8565b73ffffffffffffffffffffffffffffffffffffffff166106746106d6565b73ffffffffffffffffffffffffffffffffffffffff16146106ca576040517f08c379a00000000000000000000000000000000000000000000000000000000081526004016106c190611a17565b60405180910390fd5b6106d4600061110c565b565b6000600560009054906101000a900473ffffffffffffffffffffffffffffffffffffffff16905090565b60606004805461070f90611882565b80601f016020809104026020016040519081016040528092919081815260200182805461073b90611882565b80156107885780601f1061075d57610100808354040283529160200191610788565b820191906000526020600020905b81548152906001019060200180831161076b57829003601f168201915b5050505050905090565b600080600160006107a1610cb8565b73ffffffffffffffffffffffffffffffffffffffff1673ffffffffffffffffffffffffffffffffffffffff16815260200190815260200160002060008573ffffffffffffffffffffffffffffffffffffffff1673ffffffffffffffffffffffffffffffffffffffff1681526020019081526020016000205490508281101561085e576040517f08c379a000000000000000000000000000000000000000000000000000000000815260040161085590611aa9565b60405180910390fd5b610872610869610cb8565b85858403610cc0565b600191505092915050565b600061089161088a610cb8565b8484610e8b565b6001905092915050565b600681815481106108ab57600080fd5b90600052602060002090600602016000915090508060000154908060010160009054906101000a900473ffffffffffffffffffffffffffffffffffffffff16908060020180546108fa90611882565b80601f016020809104026020016040519081016040528092919081815260200182805461092690611882565b80156109735780601f1061094857610100808354040283529160200191610973565b820191906000526020600020905b81548152906001019060200180831161095657829003601f168201915b5050505050908060030154908060040154908060050160009054906101000a900460ff16905086565b6000600680549050905090565b6000600160008473ffffffffffffffffffffffffffffffffffffffff1673ffffffffffffffffffffffffffffffffffffffff16815260200190815260200160002060008373ffffffffffffffffffffffffffffffffffffffff1673ffffffffffffffffffffffffffffffffffffffff16815260200190815260200160002054905092915050565b600080600680549050905060006040518060c001604052808381526020013373ffffffffffffffffffffffffffffffffffffffff16815260200187815260200186815260200185815260200160006001811115610a9057610a8f611590565b5b815250905060068190806001815401808255809150506001900390600052602060002090600602016000909190919091506000820151816000015560208201518160010160006101000a81548173ffffffffffffffffffffffffffffffffffffffff021916908373ffffffffffffffffffffffffffffffffffffffff1602179055506040820151816002019080519060200190610b2e9291906111dc565b50606082015181600301556080820151816004015560a08201518160050160006101000a81548160ff02191690836001811115610b6e57610b6d611590565b5b021790555050507f63fbb601c5f46806528e8a39b19accc635c3678db83a34bb09c765f99ad6c2978160000151604051610ba89190611467565b60405180910390a18060000151925050509392505050565b610bc8610cb8565b73ffffffffffffffffffffffffffffffffffffffff16610be66106d6565b73ffffffffffffffffffffffffffffffffffffffff1614610c3c576040517f08c379a0000000000000000000000000000000000000000000000000000000008152600401610c3390611a17565b60405180910390fd5b600073ffffffffffffffffffffffffffffffffffffffff168173ffffffffffffffffffffffffffffffffffffffff161415610cac576040517f08c379a0000000000000000000000000000000000000000000000000000000008152600401610ca390611b3b565b60405180910390fd5b610cb58161110c565b50565b600033905090565b600073ffffffffffffffffffffffffffffffffffffffff168373ffffffffffffffffffffffffffffffffffffffff161415610d30576040517f08c379a0000000000000000000000000000000000000000000000000000000008152600401610d2790611bcd565b60405180910390fd5b600073ffffffffffffffffffffffffffffffffffffffff168273ffffffffffffffffffffffffffffffffffffffff161415610da0576040517f08c379a0000000000000000000000000000000000000000000000000000000008152600401610d9790611c5f565b60405180910390fd5b80600160008573ffffffffffffffffffffffffffffffffffffffff1673ffffffffffffffffffffffffffffffffffffffff16815260200190815260200160002060008473ffffffffffffffffffffffffffffffffffffffff1673ffffffffffffffffffffffffffffffffffffffff168152602001908152602001600020819055508173ffffffffffffffffffffffffffffffffffffffff168373ffffffffffffffffffffffffffffffffffffffff167f8c5be1e5ebec7d5bd14f71427d1e84f3dd0314c0f7b2291e5b200ac8c7c3b92583604051610e7e9190611467565b60405180910390a3505050565b600073ffffffffffffffffffffffffffffffffffffffff168373ffffffffffffffffffffffffffffffffffffffff161415610efb576040517f08c379a0000000000000000000000000000000000000000000000000000000008152600401610ef290611cf1565b60405180910390fd5b600073ffffffffffffffffffffffffffffffffffffffff168273ffffffffffffffffffffffffffffffffffffffff161415610f6b576040517f08c379a0000000000000000000000000000000000000000000000000000000008152600401610f6290611d83565b60405180910390fd5b610f768383836111d2565b60008060008573ffffffffffffffffffffffffffffffffffffffff1673ffffffffffffffffffffffffffffffffffffffff16815260200190815260200160002054905081811015610ffc576040517f08c379a0000000000000000000000000000000000000000000000000000000008152600401610ff390611e15565b60405180910390fd5b8181036000808673ffffffffffffffffffffffffffffffffffffffff1673ffffffffffffffffffffffffffffffffffffffff16815260200190815260200160002081905550816000808573ffffffffffffffffffffffffffffffffffffffff1673ffffffffffffffffffffffffffffffffffffffff168152602001908152602001600020600082825461108f9190611975565b925050819055508273ffffffffffffffffffffffffffffffffffffffff168473ffffffffffffffffffffffffffffffffffffffff167fddf252ad1be2c89b69c2b068fc378daa952ba7f163c4a11628f55a4df523b3ef846040516110f39190611467565b60405180910390a36111068484846111d7565b50505050565b6000600560009054906101000a900473ffffffffffffffffffffffffffffffffffffffff16905081600560006101000a81548173ffffffffffffffffffffffffffffffffffffffff021916908373ffffffffffffffffffffffffffffffffffffffff1602179055508173ffffffffffffffffffffffffffffffffffffffff168173ffffffffffffffffffffffffffffffffffffffff167f8be0079c531659141344cd1fd0a4f28419497f9722a3daafe3b4186f6b6457e060405160405180910390a35050565b505050565b505050565b8280546111e890611882565b90600052602060002090601f01602090048101928261120a5760008555611251565b82601f1061122357805160ff1916838001178555611251565b82800160010185558215611251579182015b82811115611250578251825591602001919060010190611235565b5b50905061125e9190611262565b5090565b5b8082111561127b576000816000905550600101611263565b5090565b600081519050919050565b600082825260208201905092915050565b60005b838110156112b957808201518184015260208101905061129e565b838111156112c8576000848401525b50505050565b6000601f19601f8301169050919050565b60006112ea8261127f565b6112f4818561128a565b935061130481856020860161129b565b61130d816112ce565b840191505092915050565b6000602082019050818103600083015261133281846112df565b905092915050565b6000604051905090565b600080fd5b600080fd5b600073ffffffffffffffffffffffffffffffffffffffff82169050919050565b60006113798261134e565b9050919050565b6113898161136e565b811461139457600080fd5b50565b6000813590506113a681611380565b92915050565b6000819050919050565b6113bf816113ac565b81146113ca57600080fd5b50565b6000813590506113dc816113b6565b92915050565b600080604083850312156113f9576113f8611344565b5b600061140785828601611397565b9250506020611418858286016113cd565b9150509250929050565b60008115159050919050565b61143781611422565b82525050565b6000602082019050611452600083018461142e565b92915050565b611461816113ac565b82525050565b600060208201905061147c6000830184611458565b92915050565b60008060006060848603121561149b5761149a611344565b5b60006114a986828701611397565b93505060206114ba86828701611397565b92505060406114cb868287016113cd565b9150509250925092565b600060ff82169050919050565b6114eb816114d5565b82525050565b600060208201905061150660008301846114e2565b92915050565b60006020828403121561152257611521611344565b5b600061153084828501611397565b91505092915050565b6115428161136e565b82525050565b600060208201905061155d6000830184611539565b92915050565b60006020828403121561157957611578611344565b5b6000611587848285016113cd565b91505092915050565b7f4e487b7100000000000000000000000000000000000000000000000000000000600052602160045260246000fd5b600281106115d0576115cf611590565b5b50565b60008190506115e1826115bf565b919050565b60006115f1826115d3565b9050919050565b611601816115e6565b82525050565b600060c08201905061161c6000830189611458565b6116296020830188611539565b818103604083015261163b81876112df565b905061164a6060830186611458565b6116576080830185611458565b61166460a08301846115f8565b979650505050505050565b6000806040838503121561168657611685611344565b5b600061169485828601611397565b92505060206116a585828601611397565b9150509250929050565b600080fd5b600080fd5b7f4e487b7100000000000000000000000000000000000000000000000000000000600052604160045260246000fd5b6116f1826112ce565b810181811067ffffffffffffffff821117156117105761170f6116b9565b5b80604052505050565b600061172361133a565b905061172f82826116e8565b919050565b600067ffffffffffffffff82111561174f5761174e6116b9565b5b611758826112ce565b9050602081019050919050565b82818337600083830152505050565b600061178761178284611734565b611719565b9050828152602081018484840111156117a3576117a26116b4565b5b6117ae848285611765565b509392505050565b600082601f8301126117cb576117ca6116af565b5b81356117db848260208601611774565b91505092915050565b6000806000606084860312156117fd576117fc611344565b5b600084013567ffffffffffffffff81111561181b5761181a611349565b5b611827868287016117b6565b9350506020611838868287016113cd565b9250506040611849868287016113cd565b9150509250925092565b7f4e487b7100000000000000000000000000000000000000000000000000000000600052602260045260246000fd5b6000600282049050600182168061189a57607f821691505b602082108114156118ae576118ad611853565b5b50919050565b7f45524332303a207472616e7366657220616d6f756e742065786365656473206160008201527f6c6c6f77616e6365000000000000000000000000000000000000000000000000602082015250565b600061191060288361128a565b915061191b826118b4565b604082019050919050565b6000602082019050818103600083015261193f81611903565b9050919050565b7f4e487b7100000000000000000000000000000000000000000000000000000000600052601160045260246000fd5b6000611980826113ac565b915061198b836113ac565b9250827fffffffffffffffffffffffffffffffffffffffffffffffffffffffffffffffff038211156119c0576119bf611946565b5b828201905092915050565b7f4f776e61626c653a2063616c6c6572206973206e6f7420746865206f776e6572600082015250565b6000611a0160208361128a565b9150611a0c826119cb565b602082019050919050565b60006020820190508181036000830152611a30816119f4565b9050919050565b7f45524332303a2064656372656173656420616c6c6f77616e63652062656c6f7760008201527f207a65726f000000000000000000000000000000000000000000000000000000602082015250565b6000611a9360258361128a565b9150611a9e82611a37565b604082019050919050565b60006020820190508181036000830152611ac281611a86565b9050919050565b7f4f776e61626c653a206e6577206f776e657220697320746865207a65726f206160008201527f6464726573730000000000000000000000000000000000000000000000000000602082015250565b6000611b2560268361128a565b9150611b3082611ac9565b604082019050919050565b60006020820190508181036000830152611b5481611b18565b9050919050565b7f45524332303a20617070726f76652066726f6d20746865207a65726f2061646460008201527f7265737300000000000000000000000000000000000000000000000000000000602082015250565b6000611bb760248361128a565b9150611bc282611b5b565b604082019050919050565b60006020820190508181036000830152611be681611baa565b9050919050565b7f45524332303a20617070726f766520746f20746865207a65726f20616464726560008201527f7373000000000000000000000000000000000000000000000000000000000000602082015250565b6000611c4960228361128a565b9150611c5482611bed565b604082019050919050565b60006020820190508181036000830152611c7881611c3c565b9050919050565b7f45524332303a207472616e736665722066726f6d20746865207a65726f20616460008201527f6472657373000000000000000000000000000000000000000000000000000000602082015250565b6000611cdb60258361128a565b9150611ce682611c7f565b604082019050919050565b60006020820190508181036000830152611d0a81611cce565b9050919050565b7f45524332303a207472616e7366657220746f20746865207a65726f206164647260008201527f6573730000000000000000000000000000000000000000000000000000000000602082015250565b6000611d6d60238361128a565b9150611d7882611d11565b604082019050919050565b60006020820190508181036000830152611d9c81611d60565b9050919050565b7f45524332303a207472616e7366657220616d6f756e742065786365656473206260008201527f616c616e63650000000000000000000000000000000000000000000000000000602082015250565b6000611dff60268361128a565b9150611e0a82611da3565b604082019050919050565b60006020820190508181036000830152611e2e81611df2565b905091905056fea2646970667358221220bbab88a5ea013a8e765728e3b1ea7a1e786b2046f48886c3b15a31cb2916afdc64736f6c634300080a0033",
  "immutableReferences": {},
  "source": "// SPDX-License-Identifier: MIT\r\npragma solidity ^0.8.0;\r\n\r\nimport \"@openzeppelin/contracts/token/ERC20/ERC20.sol\";\r\nimport \"@openzeppelin/contracts/access/Ownable.sol\";\r\n\r\ncontract SignMeUp is ERC20, Ownable {\r\n\r\n  SignUpEntry[] public entries;\r\n\r\n  /**\r\n   * State enums\r\n   */\r\n  enum State {Active, Closed}\r\n\r\n  /**\r\n   * Events\r\n   */\r\n  event SignMeUpEntryCreated(uint256 id);\r\n\r\n  struct SignUpEntry {\r\n    uint256 id;\r\n    address organizer;\r\n    string title;\r\n    uint spots;\r\n    uint registrationDueDate;\r\n    // address[] registrants;\r\n    // address[] participants;\r\n    State state;\r\n  }\r\n\r\n  constructor() ERC20(\"SignMeUp\", \"SMU\") {\r\n    // Test entries\r\n    createNewSignUpEntry(\"Event 1\", 10, 10000);\r\n    createNewSignUpEntry(\"Event 2\", 12, 100000);\r\n    createNewSignUpEntry(\"Event 3\", 23, 10000000);\r\n  }\r\n\r\n  function getEntriesCount() public view returns(uint256) {\r\n    return entries.length;\r\n  }\r\n\r\n  function createNewSignUpEntry(string memory _title, uint _spots, uint _registrationDueDate)\r\n    public\r\n    returns (uint256) {\r\n\r\n      uint256 nextId = entries.length;\r\n\r\n      SignUpEntry memory entry = SignUpEntry({\r\n        id: nextId,\r\n        organizer: msg.sender,\r\n        title: _title,\r\n        spots: _spots,\r\n        registrationDueDate: _registrationDueDate,\r\n        state: State.Active\r\n      });\r\n\r\n      entries.push(entry);\r\n\r\n      emit SignMeUpEntryCreated(entry.id);\r\n      return entry.id;\r\n  }\r\n\r\n\r\n  // ### Utils ###\r\n  // #############\r\n\r\n  function nonSecureRandom() private view returns (uint256) {\r\n    return uint256(keccak256(\r\n      abi.encodePacked(block.timestamp, block.difficulty)\r\n    ));\r\n  }\r\n  // ### Utils - end ###\r\n}\r\n",
  "sourcePath": "/mnt/c/Dev/workspace/consensys/final/blockchain-developer-bootcamp-final-project/contracts/SignMeUp.sol",
  "compiler": {
    "name": "solc",
    "version": "0.8.10+commit.fc410830.Emscripten.clang"
  },
  "schemaVersion": "3.4.3",
  "updatedAt": "2021-11-11T12:21:04.944Z",
  "networkType": "ethereum",
  "devdoc": {
    "kind": "dev",
    "methods": {
      "allowance(address,address)": {
        "details": "See {IERC20-allowance}."
      },
      "approve(address,uint256)": {
        "details": "See {IERC20-approve}. Requirements: - `spender` cannot be the zero address."
      },
      "balanceOf(address)": {
        "details": "See {IERC20-balanceOf}."
      },
      "decimals()": {
        "details": "Returns the number of decimals used to get its user representation. For example, if `decimals` equals `2`, a balance of `505` tokens should be displayed to a user as `5.05` (`505 / 10 ** 2`). Tokens usually opt for a value of 18, imitating the relationship between Ether and Wei. This is the value {ERC20} uses, unless this function is overridden; NOTE: This information is only used for _display_ purposes: it in no way affects any of the arithmetic of the contract, including {IERC20-balanceOf} and {IERC20-transfer}."
      },
      "decreaseAllowance(address,uint256)": {
        "details": "Atomically decreases the allowance granted to `spender` by the caller. This is an alternative to {approve} that can be used as a mitigation for problems described in {IERC20-approve}. Emits an {Approval} event indicating the updated allowance. Requirements: - `spender` cannot be the zero address. - `spender` must have allowance for the caller of at least `subtractedValue`."
      },
      "increaseAllowance(address,uint256)": {
        "details": "Atomically increases the allowance granted to `spender` by the caller. This is an alternative to {approve} that can be used as a mitigation for problems described in {IERC20-approve}. Emits an {Approval} event indicating the updated allowance. Requirements: - `spender` cannot be the zero address."
      },
      "name()": {
        "details": "Returns the name of the token."
      },
      "owner()": {
        "details": "Returns the address of the current owner."
      },
      "renounceOwnership()": {
        "details": "Leaves the contract without owner. It will not be possible to call `onlyOwner` functions anymore. Can only be called by the current owner. NOTE: Renouncing ownership will leave the contract without an owner, thereby removing any functionality that is only available to the owner."
      },
      "symbol()": {
        "details": "Returns the symbol of the token, usually a shorter version of the name."
      },
      "totalSupply()": {
        "details": "See {IERC20-totalSupply}."
      },
      "transfer(address,uint256)": {
        "details": "See {IERC20-transfer}. Requirements: - `recipient` cannot be the zero address. - the caller must have a balance of at least `amount`."
      },
      "transferFrom(address,address,uint256)": {
        "details": "See {IERC20-transferFrom}. Emits an {Approval} event indicating the updated allowance. This is not required by the EIP. See the note at the beginning of {ERC20}. Requirements: - `sender` and `recipient` cannot be the zero address. - `sender` must have a balance of at least `amount`. - the caller must have allowance for ``sender``'s tokens of at least `amount`."
      },
      "transferOwnership(address)": {
        "details": "Transfers ownership of the contract to a new account (`newOwner`). Can only be called by the current owner."
      }
    },
    "version": 1
  },
  "userdoc": {
    "events": {
      "SignMeUpEntryCreated(uint256)": {
        "notice": "Events"
      }
    },
    "kind": "user",
    "methods": {},
    "version": 1
  }
}