{
  "contractName": "SignMeUp",
  "abi": [
    {
      "inputs": [],
      "stateMutability": "nonpayable",
      "type": "constructor"
    },
    {
      "anonymous": false,
      "inputs": [
        {
          "indexed": true,
          "internalType": "address",
          "name": "owner",
          "type": "address"
        },
        {
          "indexed": true,
          "internalType": "address",
          "name": "spender",
          "type": "address"
        },
        {
          "indexed": false,
          "internalType": "uint256",
          "name": "value",
          "type": "uint256"
        }
      ],
      "name": "Approval",
      "type": "event"
    },
    {
      "anonymous": false,
      "inputs": [
        {
          "indexed": false,
          "internalType": "uint256",
          "name": "id",
          "type": "uint256"
        }
      ],
      "name": "LogEntryCreated",
      "type": "event"
    },
    {
      "anonymous": false,
      "inputs": [
        {
          "indexed": false,
          "internalType": "uint256",
          "name": "id",
          "type": "uint256"
        },
        {
          "indexed": false,
          "internalType": "address",
          "name": "who",
          "type": "address"
        },
        {
          "indexed": false,
          "internalType": "uint256",
          "name": "when",
          "type": "uint256"
        }
      ],
      "name": "LogRegistered",
      "type": "event"
    },
    {
      "anonymous": false,
      "inputs": [
        {
          "indexed": true,
          "internalType": "address",
          "name": "previousOwner",
          "type": "address"
        },
        {
          "indexed": true,
          "internalType": "address",
          "name": "newOwner",
          "type": "address"
        }
      ],
      "name": "OwnershipTransferred",
      "type": "event"
    },
    {
      "anonymous": false,
      "inputs": [
        {
          "indexed": true,
          "internalType": "address",
          "name": "from",
          "type": "address"
        },
        {
          "indexed": true,
          "internalType": "address",
          "name": "to",
          "type": "address"
        },
        {
          "indexed": false,
          "internalType": "uint256",
          "name": "value",
          "type": "uint256"
        }
      ],
      "name": "Transfer",
      "type": "event"
    },
    {
      "inputs": [
        {
          "internalType": "address",
          "name": "owner",
          "type": "address"
        },
        {
          "internalType": "address",
          "name": "spender",
          "type": "address"
        }
      ],
      "name": "allowance",
      "outputs": [
        {
          "internalType": "uint256",
          "name": "",
          "type": "uint256"
        }
      ],
      "stateMutability": "view",
      "type": "function",
      "constant": true
    },
    {
      "inputs": [
        {
          "internalType": "address",
          "name": "spender",
          "type": "address"
        },
        {
          "internalType": "uint256",
          "name": "amount",
          "type": "uint256"
        }
      ],
      "name": "approve",
      "outputs": [
        {
          "internalType": "bool",
          "name": "",
          "type": "bool"
        }
      ],
      "stateMutability": "nonpayable",
      "type": "function"
    },
    {
      "inputs": [
        {
          "internalType": "address",
          "name": "account",
          "type": "address"
        }
      ],
      "name": "balanceOf",
      "outputs": [
        {
          "internalType": "uint256",
          "name": "",
          "type": "uint256"
        }
      ],
      "stateMutability": "view",
      "type": "function",
      "constant": true
    },
    {
      "inputs": [],
      "name": "decimals",
      "outputs": [
        {
          "internalType": "uint8",
          "name": "",
          "type": "uint8"
        }
      ],
      "stateMutability": "view",
      "type": "function",
      "constant": true
    },
    {
      "inputs": [
        {
          "internalType": "address",
          "name": "spender",
          "type": "address"
        },
        {
          "internalType": "uint256",
          "name": "subtractedValue",
          "type": "uint256"
        }
      ],
      "name": "decreaseAllowance",
      "outputs": [
        {
          "internalType": "bool",
          "name": "",
          "type": "bool"
        }
      ],
      "stateMutability": "nonpayable",
      "type": "function"
    },
    {
      "inputs": [
        {
          "internalType": "uint256",
          "name": "",
          "type": "uint256"
        }
      ],
      "name": "entries",
      "outputs": [
        {
          "internalType": "uint256",
          "name": "id",
          "type": "uint256"
        },
        {
          "internalType": "address",
          "name": "organizer",
          "type": "address"
        },
        {
          "internalType": "string",
          "name": "title",
          "type": "string"
        },
        {
          "internalType": "uint256",
          "name": "spots",
          "type": "uint256"
        },
        {
          "internalType": "uint256",
          "name": "registrationDueDate",
          "type": "uint256"
        },
        {
          "internalType": "uint256",
          "name": "eventDate",
          "type": "uint256"
        },
        {
          "internalType": "enum SignMeUp.State",
          "name": "state",
          "type": "uint8"
        }
      ],
      "stateMutability": "view",
      "type": "function",
      "constant": true
    },
    {
      "inputs": [
        {
          "internalType": "uint256",
          "name": "",
          "type": "uint256"
        }
      ],
      "name": "entryOrganizer",
      "outputs": [
        {
          "internalType": "address",
          "name": "",
          "type": "address"
        }
      ],
      "stateMutability": "view",
      "type": "function",
      "constant": true
    },
    {
      "inputs": [],
      "name": "entryPriceWei",
      "outputs": [
        {
          "internalType": "uint256",
          "name": "",
          "type": "uint256"
        }
      ],
      "stateMutability": "view",
      "type": "function",
      "constant": true
    },
    {
      "inputs": [
        {
          "internalType": "address",
          "name": "spender",
          "type": "address"
        },
        {
          "internalType": "uint256",
          "name": "addedValue",
          "type": "uint256"
        }
      ],
      "name": "increaseAllowance",
      "outputs": [
        {
          "internalType": "bool",
          "name": "",
          "type": "bool"
        }
      ],
      "stateMutability": "nonpayable",
      "type": "function"
    },
    {
      "inputs": [],
      "name": "name",
      "outputs": [
        {
          "internalType": "string",
          "name": "",
          "type": "string"
        }
      ],
      "stateMutability": "view",
      "type": "function",
      "constant": true
    },
    {
      "inputs": [],
      "name": "owner",
      "outputs": [
        {
          "internalType": "address",
          "name": "",
          "type": "address"
        }
      ],
      "stateMutability": "view",
      "type": "function",
      "constant": true
    },
    {
      "inputs": [],
      "name": "renounceOwnership",
      "outputs": [],
      "stateMutability": "nonpayable",
      "type": "function"
    },
    {
      "inputs": [],
      "name": "symbol",
      "outputs": [
        {
          "internalType": "string",
          "name": "",
          "type": "string"
        }
      ],
      "stateMutability": "view",
      "type": "function",
      "constant": true
    },
    {
      "inputs": [],
      "name": "totalSupply",
      "outputs": [
        {
          "internalType": "uint256",
          "name": "",
          "type": "uint256"
        }
      ],
      "stateMutability": "view",
      "type": "function",
      "constant": true
    },
    {
      "inputs": [
        {
          "internalType": "address",
          "name": "recipient",
          "type": "address"
        },
        {
          "internalType": "uint256",
          "name": "amount",
          "type": "uint256"
        }
      ],
      "name": "transfer",
      "outputs": [
        {
          "internalType": "bool",
          "name": "",
          "type": "bool"
        }
      ],
      "stateMutability": "nonpayable",
      "type": "function"
    },
    {
      "inputs": [
        {
          "internalType": "address",
          "name": "sender",
          "type": "address"
        },
        {
          "internalType": "address",
          "name": "recipient",
          "type": "address"
        },
        {
          "internalType": "uint256",
          "name": "amount",
          "type": "uint256"
        }
      ],
      "name": "transferFrom",
      "outputs": [
        {
          "internalType": "bool",
          "name": "",
          "type": "bool"
        }
      ],
      "stateMutability": "nonpayable",
      "type": "function"
    },
    {
      "inputs": [
        {
          "internalType": "address",
          "name": "newOwner",
          "type": "address"
        }
      ],
      "name": "transferOwnership",
      "outputs": [],
      "stateMutability": "nonpayable",
      "type": "function"
    },
    {
      "inputs": [],
      "name": "getEntriesCount",
      "outputs": [
        {
          "internalType": "uint256",
          "name": "",
          "type": "uint256"
        }
      ],
      "stateMutability": "view",
      "type": "function",
      "constant": true
    },
    {
      "inputs": [
        {
          "internalType": "string",
          "name": "_title",
          "type": "string"
        },
        {
          "internalType": "uint256",
          "name": "_spots",
          "type": "uint256"
        },
        {
          "internalType": "uint256",
          "name": "_registrationDueDate",
          "type": "uint256"
        },
        {
          "internalType": "uint256",
          "name": "_eventDate",
          "type": "uint256"
        }
      ],
      "name": "createNewSignUpEventEntry",
      "outputs": [
        {
          "internalType": "uint256",
          "name": "",
          "type": "uint256"
        }
      ],
      "stateMutability": "nonpayable",
      "type": "function"
    },
    {
      "inputs": [],
      "name": "getOrganizerEntriesCount",
      "outputs": [
        {
          "internalType": "uint256",
          "name": "",
          "type": "uint256"
        }
      ],
      "stateMutability": "view",
      "type": "function",
      "constant": true
    },
    {
      "inputs": [],
      "name": "getOrganizerEntries",
      "outputs": [
        {
          "components": [
            {
              "internalType": "uint256",
              "name": "id",
              "type": "uint256"
            },
            {
              "internalType": "address",
              "name": "organizer",
              "type": "address"
            },
            {
              "internalType": "string",
              "name": "title",
              "type": "string"
            },
            {
              "internalType": "uint256",
              "name": "spots",
              "type": "uint256"
            },
            {
              "internalType": "uint256",
              "name": "registrationDueDate",
              "type": "uint256"
            },
            {
              "internalType": "uint256",
              "name": "eventDate",
              "type": "uint256"
            },
            {
              "internalType": "enum SignMeUp.State",
              "name": "state",
              "type": "uint8"
            }
          ],
          "internalType": "struct SignMeUp.SignUpEventEntry[]",
          "name": "",
          "type": "tuple[]"
        }
      ],
      "stateMutability": "view",
      "type": "function",
      "constant": true
    },
    {
      "inputs": [
        {
          "internalType": "uint256",
          "name": "_eventId",
          "type": "uint256"
        }
      ],
      "name": "randomlyChooseEventParticipants",
      "outputs": [],
      "stateMutability": "nonpayable",
      "type": "function"
    },
    {
      "inputs": [
        {
          "internalType": "uint256",
          "name": "_eventId",
          "type": "uint256"
        }
      ],
      "name": "registerForEvent",
      "outputs": [
        {
          "internalType": "bool",
          "name": "",
          "type": "bool"
        }
      ],
      "stateMutability": "nonpayable",
      "type": "function"
    },
    {
      "inputs": [],
      "name": "getEntriesUserRegisteredFor",
      "outputs": [
        {
          "internalType": "uint256[]",
          "name": "",
          "type": "uint256[]"
        }
      ],
      "stateMutability": "view",
      "type": "function",
      "constant": true
    },
    {
      "inputs": [],
      "name": "getEntriesUserSelectedFor",
      "outputs": [
        {
          "internalType": "uint256[]",
          "name": "",
          "type": "uint256[]"
        }
      ],
      "stateMutability": "view",
      "type": "function",
      "constant": true
    }
  ],
  "bytecode": "0x60806040523480156200001157600080fd5b506040518060400160405280600881526020017f5369676e4d6555700000000000000000000000000000000000000000000000008152506040518060400160405280600381526020017f534d550000000000000000000000000000000000000000000000000000000000815250816003908051906020019062000096929190620001b3565b508060049080519060200190620000af929190620001b3565b505050620000d2620000c6620000e560201b60201c565b620000ed60201b60201c565b652d79883d2000600681905550620002c8565b600033905090565b6000600560009054906101000a900473ffffffffffffffffffffffffffffffffffffffff16905081600560006101000a81548173ffffffffffffffffffffffffffffffffffffffff021916908373ffffffffffffffffffffffffffffffffffffffff1602179055508173ffffffffffffffffffffffffffffffffffffffff168173ffffffffffffffffffffffffffffffffffffffff167f8be0079c531659141344cd1fd0a4f28419497f9722a3daafe3b4186f6b6457e060405160405180910390a35050565b828054620001c19062000292565b90600052602060002090601f016020900481019282620001e5576000855562000231565b82601f106200020057805160ff191683800117855562000231565b8280016001018555821562000231579182015b828111156200023057825182559160200191906001019062000213565b5b50905062000240919062000244565b5090565b5b808211156200025f57600081600090555060010162000245565b5090565b7f4e487b7100000000000000000000000000000000000000000000000000000000600052602260045260246000fd5b60006002820490506001821680620002ab57607f821691505b60208210811415620002c257620002c162000263565b5b50919050565b612eb780620002d86000396000f3fe608060405234801561001057600080fd5b50600436106101735760003560e01c8063942aa7e1116100de578063ca54ad8511610097578063dd62ed3e11610071578063dd62ed3e14610480578063e2f68330146104b0578063f2fde38b146104ce578063f8cdb652146104ea57610173565b8063ca54ad8514610414578063d09685b014610432578063db8a70381461045057610173565b8063942aa7e11461032657806395d89b41146103445780639c57140214610362578063a457c2d71461037e578063a9059cbb146103ae578063b30906d4146103de57610173565b806339509351116101305780633950935114610250578063406db8431461028057806370a08231146102b0578063715018a6146102e0578063772a6fce146102ea5780638da5cb5b1461030857610173565b806306fdde0314610178578063095ea7b31461019657806318160ddd146101c657806322d9b428146101e457806323b872dd14610202578063313ce56714610232575b600080fd5b61018061051a565b60405161018d9190611fcb565b60405180910390f35b6101b060048036038101906101ab9190612095565b6105ac565b6040516101bd91906120f0565b60405180910390f35b6101ce6105ca565b6040516101db919061211a565b60405180910390f35b6101ec6105d4565b6040516101f9919061211a565b60405180910390f35b61021c60048036038101906102179190612135565b61061b565b60405161022991906120f0565b60405180910390f35b61023a610713565b60405161024791906121a4565b60405180910390f35b61026a60048036038101906102659190612095565b61071c565b60405161027791906120f0565b60405180910390f35b61029a600480360381019061029591906121bf565b6107c8565b6040516102a791906120f0565b60405180910390f35b6102ca60048036038101906102c591906121ec565b610af7565b6040516102d7919061211a565b60405180910390f35b6102e8610b3f565b005b6102f2610bc7565b6040516102ff91906122d7565b60405180910390f35b610310610c5c565b60405161031d9190612308565b60405180910390f35b61032e610c86565b60405161033b91906122d7565b60405180910390f35b61034c610d1b565b6040516103599190611fcb565b60405180910390f35b61037c600480360381019061037791906121bf565b610dad565b005b61039860048036038101906103939190612095565b610fd1565b6040516103a591906120f0565b60405180910390f35b6103c860048036038101906103c39190612095565b6110bc565b6040516103d591906120f0565b60405180910390f35b6103f860048036038101906103f391906121bf565b6110da565b60405161040b979695949392919061239a565b60405180910390f35b61041c6111e1565b60405161042991906125d6565b60405180910390f35b61043a6114c9565b604051610447919061211a565b60405180910390f35b61046a600480360381019061046591906121bf565b6114d6565b6040516104779190612308565b60405180910390f35b61049a600480360381019061049591906125f8565b611509565b6040516104a7919061211a565b60405180910390f35b6104b8611590565b6040516104c5919061211a565b60405180910390f35b6104e860048036038101906104e391906121ec565b611596565b005b61050460048036038101906104ff919061276d565b61168e565b604051610511919061211a565b60405180910390f35b6060600380546105299061281f565b80601f01602080910402602001604051908101604052809291908181526020018280546105559061281f565b80156105a25780601f10610577576101008083540402835291602001916105a2565b820191906000526020600020905b81548152906001019060200180831161058557829003601f168201915b5050505050905090565b60006105c06105b96116e2565b84846116ea565b6001905092915050565b6000600254905090565b6000600c60003373ffffffffffffffffffffffffffffffffffffffff1673ffffffffffffffffffffffffffffffffffffffff16815260200190815260200160002054905090565b60006106288484846118b5565b6000600160008673ffffffffffffffffffffffffffffffffffffffff1673ffffffffffffffffffffffffffffffffffffffff16815260200190815260200160002060006106736116e2565b73ffffffffffffffffffffffffffffffffffffffff1673ffffffffffffffffffffffffffffffffffffffff168152602001908152602001600020549050828110156106f3576040517f08c379a00000000000000000000000000000000000000000000000000000000081526004016106ea906128c3565b60405180910390fd5b610707856106ff6116e2565b8584036116ea565b60019150509392505050565b60006012905090565b60006107be6107296116e2565b8484600160006107376116e2565b73ffffffffffffffffffffffffffffffffffffffff1673ffffffffffffffffffffffffffffffffffffffff16815260200190815260200160002060008873ffffffffffffffffffffffffffffffffffffffff1673ffffffffffffffffffffffffffffffffffffffff168152602001908152602001600020546107b99190612912565b6116ea565b6001905092915050565b6000816000600782815481106107e1576107e0612968565b5b90600052602060002090600702016040518060e0016040529081600082015481526020016001820160009054906101000a900473ffffffffffffffffffffffffffffffffffffffff1673ffffffffffffffffffffffffffffffffffffffff1673ffffffffffffffffffffffffffffffffffffffff16815260200160028201805461086a9061281f565b80601f01602080910402602001604051908101604052809291908181526020018280546108969061281f565b80156108e35780601f106108b8576101008083540402835291602001916108e3565b820191906000526020600020905b8154815290600101906020018083116108c657829003601f168201915b505050505081526020016003820154815260200160048201548152602001600582015481526020016006820160009054906101000a900460ff16600181111561092f5761092e612323565b5b600181111561094157610940612323565b5b8152505090506000600181111561095b5761095a612323565b5b8160c00151600181111561097257610971612323565b5b1480156109825750806080015142105b61098b57600080fd5b83600060086000838152602001908152602001600020905060008160003373ffffffffffffffffffffffffffffffffffffffff1673ffffffffffffffffffffffffffffffffffffffff16815260200190815260200160002054146109ee57600080fd5b6000600860008881526020019081526020016000209050428160003373ffffffffffffffffffffffffffffffffffffffff1673ffffffffffffffffffffffffffffffffffffffff16815260200190815260200160002081905550600960003373ffffffffffffffffffffffffffffffffffffffff1673ffffffffffffffffffffffffffffffffffffffff1681526020019081526020016000208790806001815401808255809150506001900390600052602060002001600090919091909150557f16c02eafd4a170f62c09971fefa1b5aeaaffab6305564bb18a72a6150daa764e873342604051610ae193929190612997565b60405180910390a1600195505050505050919050565b60008060008373ffffffffffffffffffffffffffffffffffffffff1673ffffffffffffffffffffffffffffffffffffffff168152602001908152602001600020549050919050565b610b476116e2565b73ffffffffffffffffffffffffffffffffffffffff16610b65610c5c565b73ffffffffffffffffffffffffffffffffffffffff1614610bbb576040517f08c379a0000000000000000000000000000000000000000000000000000000008152600401610bb290612a1a565b60405180910390fd5b610bc56000611b36565b565b6060600a60003373ffffffffffffffffffffffffffffffffffffffff1673ffffffffffffffffffffffffffffffffffffffff168152602001908152602001600020805480602002602001604051908101604052809291908181526020018280548015610c5257602002820191906000526020600020905b815481526020019060010190808311610c3e575b5050505050905090565b6000600560009054906101000a900473ffffffffffffffffffffffffffffffffffffffff16905090565b6060600960003373ffffffffffffffffffffffffffffffffffffffff1673ffffffffffffffffffffffffffffffffffffffff168152602001908152602001600020805480602002602001604051908101604052809291908181526020018280548015610d1157602002820191906000526020600020905b815481526020019060010190808311610cfd575b5050505050905090565b606060048054610d2a9061281f565b80601f0160208091040260200160405190810160405280929190818152602001828054610d569061281f565b8015610da35780601f10610d7857610100808354040283529160200191610da3565b820191906000526020600020905b815481529060010190602001808311610d8657829003601f168201915b5050505050905090565b803373ffffffffffffffffffffffffffffffffffffffff16600d600083815260200190815260200160002060009054906101000a900473ffffffffffffffffffffffffffffffffffffffff1673ffffffffffffffffffffffffffffffffffffffff1614610e1957600080fd5b81600060078281548110610e3057610e2f612968565b5b90600052602060002090600702016040518060e0016040529081600082015481526020016001820160009054906101000a900473ffffffffffffffffffffffffffffffffffffffff1673ffffffffffffffffffffffffffffffffffffffff1673ffffffffffffffffffffffffffffffffffffffff168152602001600282018054610eb99061281f565b80601f0160208091040260200160405190810160405280929190818152602001828054610ee59061281f565b8015610f325780601f10610f0757610100808354040283529160200191610f32565b820191906000526020600020905b815481529060010190602001808311610f1557829003601f168201915b505050505081526020016003820154815260200160048201548152602001600582015481526020016006820160009054906101000a900460ff166001811115610f7e57610f7d612323565b5b6001811115610f9057610f8f612323565b5b815250509050600180811115610fa957610fa8612323565b5b8160c001516001811115610fc057610fbf612323565b5b1415610fcb57600080fd5b50505050565b60008060016000610fe06116e2565b73ffffffffffffffffffffffffffffffffffffffff1673ffffffffffffffffffffffffffffffffffffffff16815260200190815260200160002060008573ffffffffffffffffffffffffffffffffffffffff1673ffffffffffffffffffffffffffffffffffffffff1681526020019081526020016000205490508281101561109d576040517f08c379a000000000000000000000000000000000000000000000000000000000815260040161109490612aac565b60405180910390fd5b6110b16110a86116e2565b858584036116ea565b600191505092915050565b60006110d06110c96116e2565b84846118b5565b6001905092915050565b600781815481106110ea57600080fd5b90600052602060002090600702016000915090508060000154908060010160009054906101000a900473ffffffffffffffffffffffffffffffffffffffff16908060020180546111399061281f565b80601f01602080910402602001604051908101604052809291908181526020018280546111659061281f565b80156111b25780601f10611187576101008083540402835291602001916111b2565b820191906000526020600020905b81548152906001019060200180831161119557829003601f168201915b5050505050908060030154908060040154908060050154908060060160009054906101000a900460ff16905087565b606060003390506000600c60008373ffffffffffffffffffffffffffffffffffffffff1673ffffffffffffffffffffffffffffffffffffffff1681526020019081526020016000205467ffffffffffffffff81111561124357611242612642565b5b60405190808252806020026020018201604052801561127c57816020015b611269611e2a565b8152602001906001900390816112615790505b5090506000805b6007805490508110156114bf578373ffffffffffffffffffffffffffffffffffffffff16600782815481106112bb576112ba612968565b5b906000526020600020906007020160010160009054906101000a900473ffffffffffffffffffffffffffffffffffffffff1673ffffffffffffffffffffffffffffffffffffffff1614156114ac576007818154811061131d5761131c612968565b5b90600052602060002090600702016040518060e0016040529081600082015481526020016001820160009054906101000a900473ffffffffffffffffffffffffffffffffffffffff1673ffffffffffffffffffffffffffffffffffffffff1673ffffffffffffffffffffffffffffffffffffffff1681526020016002820180546113a69061281f565b80601f01602080910402602001604051908101604052809291908181526020018280546113d29061281f565b801561141f5780601f106113f45761010080835404028352916020019161141f565b820191906000526020600020905b81548152906001019060200180831161140257829003601f168201915b505050505081526020016003820154815260200160048201548152602001600582015481526020016006820160009054906101000a900460ff16600181111561146b5761146a612323565b5b600181111561147d5761147c612323565b5b8152505083838061148d90612acc565b9450815181106114a05761149f612968565b5b60200260200101819052505b80806114b790612acc565b915050611283565b5081935050505090565b6000600780549050905090565b600d6020528060005260406000206000915054906101000a900473ffffffffffffffffffffffffffffffffffffffff1681565b6000600160008473ffffffffffffffffffffffffffffffffffffffff1673ffffffffffffffffffffffffffffffffffffffff16815260200190815260200160002060008373ffffffffffffffffffffffffffffffffffffffff1673ffffffffffffffffffffffffffffffffffffffff16815260200190815260200160002054905092915050565b60065481565b61159e6116e2565b73ffffffffffffffffffffffffffffffffffffffff166115bc610c5c565b73ffffffffffffffffffffffffffffffffffffffff1614611612576040517f08c379a000000000000000000000000000000000000000000000000000000000815260040161160990612a1a565b60405180910390fd5b600073ffffffffffffffffffffffffffffffffffffffff168173ffffffffffffffffffffffffffffffffffffffff161415611682576040517f08c379a000000000000000000000000000000000000000000000000000000000815260040161167990612b87565b60405180910390fd5b61168b81611b36565b50565b60008061169d86868686611bfc565b90507fd15269fdc42e19a3cfa35959665426fe1c8e40dd95b212dba9adcc576342b1cd816040516116ce919061211a565b60405180910390a180915050949350505050565b600033905090565b600073ffffffffffffffffffffffffffffffffffffffff168373ffffffffffffffffffffffffffffffffffffffff16141561175a576040517f08c379a000000000000000000000000000000000000000000000000000000000815260040161175190612c19565b60405180910390fd5b600073ffffffffffffffffffffffffffffffffffffffff168273ffffffffffffffffffffffffffffffffffffffff1614156117ca576040517f08c379a00000000000000000000000000000000000000000000000000000000081526004016117c190612cab565b60405180910390fd5b80600160008573ffffffffffffffffffffffffffffffffffffffff1673ffffffffffffffffffffffffffffffffffffffff16815260200190815260200160002060008473ffffffffffffffffffffffffffffffffffffffff1673ffffffffffffffffffffffffffffffffffffffff168152602001908152602001600020819055508173ffffffffffffffffffffffffffffffffffffffff168373ffffffffffffffffffffffffffffffffffffffff167f8c5be1e5ebec7d5bd14f71427d1e84f3dd0314c0f7b2291e5b200ac8c7c3b925836040516118a8919061211a565b60405180910390a3505050565b600073ffffffffffffffffffffffffffffffffffffffff168373ffffffffffffffffffffffffffffffffffffffff161415611925576040517f08c379a000000000000000000000000000000000000000000000000000000000815260040161191c90612d3d565b60405180910390fd5b600073ffffffffffffffffffffffffffffffffffffffff168273ffffffffffffffffffffffffffffffffffffffff161415611995576040517f08c379a000000000000000000000000000000000000000000000000000000000815260040161198c90612dcf565b60405180910390fd5b6119a0838383611e13565b60008060008573ffffffffffffffffffffffffffffffffffffffff1673ffffffffffffffffffffffffffffffffffffffff16815260200190815260200160002054905081811015611a26576040517f08c379a0000000000000000000000000000000000000000000000000000000008152600401611a1d90612e61565b60405180910390fd5b8181036000808673ffffffffffffffffffffffffffffffffffffffff1673ffffffffffffffffffffffffffffffffffffffff16815260200190815260200160002081905550816000808573ffffffffffffffffffffffffffffffffffffffff1673ffffffffffffffffffffffffffffffffffffffff1681526020019081526020016000206000828254611ab99190612912565b925050819055508273ffffffffffffffffffffffffffffffffffffffff168473ffffffffffffffffffffffffffffffffffffffff167fddf252ad1be2c89b69c2b068fc378daa952ba7f163c4a11628f55a4df523b3ef84604051611b1d919061211a565b60405180910390a3611b30848484611e18565b50505050565b6000600560009054906101000a900473ffffffffffffffffffffffffffffffffffffffff16905081600560006101000a81548173ffffffffffffffffffffffffffffffffffffffff021916908373ffffffffffffffffffffffffffffffffffffffff1602179055508173ffffffffffffffffffffffffffffffffffffffff168173ffffffffffffffffffffffffffffffffffffffff167f8be0079c531659141344cd1fd0a4f28419497f9722a3daafe3b4186f6b6457e060405160405180910390a35050565b600080611c07611e1d565b9050600033905060006040518060e001604052808481526020018373ffffffffffffffffffffffffffffffffffffffff16815260200189815260200188815260200187815260200186815260200160006001811115611c6957611c68612323565b5b815250905081600d600085815260200190815260200160002060006101000a81548173ffffffffffffffffffffffffffffffffffffffff021916908373ffffffffffffffffffffffffffffffffffffffff1602179055506001600c60008473ffffffffffffffffffffffffffffffffffffffff1673ffffffffffffffffffffffffffffffffffffffff1681526020019081526020016000206000828254611d109190612912565b9250508190555060078190806001815401808255809150506001900390600052602060002090600702016000909190919091506000820151816000015560208201518160010160006101000a81548173ffffffffffffffffffffffffffffffffffffffff021916908373ffffffffffffffffffffffffffffffffffffffff1602179055506040820151816002019080519060200190611db0929190611e8f565b50606082015181600301556080820151816004015560a0820151816005015560c08201518160060160006101000a81548160ff02191690836001811115611dfa57611df9612323565b5b0217905550505080600001519350505050949350505050565b505050565b505050565b6000600780549050905090565b6040518060e0016040528060008152602001600073ffffffffffffffffffffffffffffffffffffffff1681526020016060815260200160008152602001600081526020016000815260200160006001811115611e8957611e88612323565b5b81525090565b828054611e9b9061281f565b90600052602060002090601f016020900481019282611ebd5760008555611f04565b82601f10611ed657805160ff1916838001178555611f04565b82800160010185558215611f04579182015b82811115611f03578251825591602001919060010190611ee8565b5b509050611f119190611f15565b5090565b5b80821115611f2e576000816000905550600101611f16565b5090565b600081519050919050565b600082825260208201905092915050565b60005b83811015611f6c578082015181840152602081019050611f51565b83811115611f7b576000848401525b50505050565b6000601f19601f8301169050919050565b6000611f9d82611f32565b611fa78185611f3d565b9350611fb7818560208601611f4e565b611fc081611f81565b840191505092915050565b60006020820190508181036000830152611fe58184611f92565b905092915050565b6000604051905090565b600080fd5b600080fd5b600073ffffffffffffffffffffffffffffffffffffffff82169050919050565b600061202c82612001565b9050919050565b61203c81612021565b811461204757600080fd5b50565b60008135905061205981612033565b92915050565b6000819050919050565b6120728161205f565b811461207d57600080fd5b50565b60008135905061208f81612069565b92915050565b600080604083850312156120ac576120ab611ff7565b5b60006120ba8582860161204a565b92505060206120cb85828601612080565b9150509250929050565b60008115159050919050565b6120ea816120d5565b82525050565b600060208201905061210560008301846120e1565b92915050565b6121148161205f565b82525050565b600060208201905061212f600083018461210b565b92915050565b60008060006060848603121561214e5761214d611ff7565b5b600061215c8682870161204a565b935050602061216d8682870161204a565b925050604061217e86828701612080565b9150509250925092565b600060ff82169050919050565b61219e81612188565b82525050565b60006020820190506121b96000830184612195565b92915050565b6000602082840312156121d5576121d4611ff7565b5b60006121e384828501612080565b91505092915050565b60006020828403121561220257612201611ff7565b5b60006122108482850161204a565b91505092915050565b600081519050919050565b600082825260208201905092915050565b6000819050602082019050919050565b61224e8161205f565b82525050565b60006122608383612245565b60208301905092915050565b6000602082019050919050565b600061228482612219565b61228e8185612224565b935061229983612235565b8060005b838110156122ca5781516122b18882612254565b97506122bc8361226c565b92505060018101905061229d565b5085935050505092915050565b600060208201905081810360008301526122f18184612279565b905092915050565b61230281612021565b82525050565b600060208201905061231d60008301846122f9565b92915050565b7f4e487b7100000000000000000000000000000000000000000000000000000000600052602160045260246000fd5b6002811061236357612362612323565b5b50565b600081905061237482612352565b919050565b600061238482612366565b9050919050565b61239481612379565b82525050565b600060e0820190506123af600083018a61210b565b6123bc60208301896122f9565b81810360408301526123ce8188611f92565b90506123dd606083018761210b565b6123ea608083018661210b565b6123f760a083018561210b565b61240460c083018461238b565b98975050505050505050565b600081519050919050565b600082825260208201905092915050565b6000819050602082019050919050565b61244581612021565b82525050565b600082825260208201905092915050565b600061246782611f32565b612471818561244b565b9350612481818560208601611f4e565b61248a81611f81565b840191505092915050565b61249e81612379565b82525050565b600060e0830160008301516124bc6000860182612245565b5060208301516124cf602086018261243c565b50604083015184820360408601526124e7828261245c565b91505060608301516124fc6060860182612245565b50608083015161250f6080860182612245565b5060a083015161252260a0860182612245565b5060c083015161253560c0860182612495565b508091505092915050565b600061254c83836124a4565b905092915050565b6000602082019050919050565b600061256c82612410565b612576818561241b565b9350836020820285016125888561242c565b8060005b858110156125c457848403895281516125a58582612540565b94506125b083612554565b925060208a0199505060018101905061258c565b50829750879550505050505092915050565b600060208201905081810360008301526125f08184612561565b905092915050565b6000806040838503121561260f5761260e611ff7565b5b600061261d8582860161204a565b925050602061262e8582860161204a565b9150509250929050565b600080fd5b600080fd5b7f4e487b7100000000000000000000000000000000000000000000000000000000600052604160045260246000fd5b61267a82611f81565b810181811067ffffffffffffffff8211171561269957612698612642565b5b80604052505050565b60006126ac611fed565b90506126b88282612671565b919050565b600067ffffffffffffffff8211156126d8576126d7612642565b5b6126e182611f81565b9050602081019050919050565b82818337600083830152505050565b600061271061270b846126bd565b6126a2565b90508281526020810184848401111561272c5761272b61263d565b5b6127378482856126ee565b509392505050565b600082601f83011261275457612753612638565b5b81356127648482602086016126fd565b91505092915050565b6000806000806080858703121561278757612786611ff7565b5b600085013567ffffffffffffffff8111156127a5576127a4611ffc565b5b6127b18782880161273f565b94505060206127c287828801612080565b93505060406127d387828801612080565b92505060606127e487828801612080565b91505092959194509250565b7f4e487b7100000000000000000000000000000000000000000000000000000000600052602260045260246000fd5b6000600282049050600182168061283757607f821691505b6020821081141561284b5761284a6127f0565b5b50919050565b7f45524332303a207472616e7366657220616d6f756e742065786365656473206160008201527f6c6c6f77616e6365000000000000000000000000000000000000000000000000602082015250565b60006128ad602883611f3d565b91506128b882612851565b604082019050919050565b600060208201905081810360008301526128dc816128a0565b9050919050565b7f4e487b7100000000000000000000000000000000000000000000000000000000600052601160045260246000fd5b600061291d8261205f565b91506129288361205f565b9250827fffffffffffffffffffffffffffffffffffffffffffffffffffffffffffffffff0382111561295d5761295c6128e3565b5b828201905092915050565b7f4e487b7100000000000000000000000000000000000000000000000000000000600052603260045260246000fd5b60006060820190506129ac600083018661210b565b6129b960208301856122f9565b6129c6604083018461210b565b949350505050565b7f4f776e61626c653a2063616c6c6572206973206e6f7420746865206f776e6572600082015250565b6000612a04602083611f3d565b9150612a0f826129ce565b602082019050919050565b60006020820190508181036000830152612a33816129f7565b9050919050565b7f45524332303a2064656372656173656420616c6c6f77616e63652062656c6f7760008201527f207a65726f000000000000000000000000000000000000000000000000000000602082015250565b6000612a96602583611f3d565b9150612aa182612a3a565b604082019050919050565b60006020820190508181036000830152612ac581612a89565b9050919050565b6000612ad78261205f565b91507fffffffffffffffffffffffffffffffffffffffffffffffffffffffffffffffff821415612b0a57612b096128e3565b5b600182019050919050565b7f4f776e61626c653a206e6577206f776e657220697320746865207a65726f206160008201527f6464726573730000000000000000000000000000000000000000000000000000602082015250565b6000612b71602683611f3d565b9150612b7c82612b15565b604082019050919050565b60006020820190508181036000830152612ba081612b64565b9050919050565b7f45524332303a20617070726f76652066726f6d20746865207a65726f2061646460008201527f7265737300000000000000000000000000000000000000000000000000000000602082015250565b6000612c03602483611f3d565b9150612c0e82612ba7565b604082019050919050565b60006020820190508181036000830152612c3281612bf6565b9050919050565b7f45524332303a20617070726f766520746f20746865207a65726f20616464726560008201527f7373000000000000000000000000000000000000000000000000000000000000602082015250565b6000612c95602283611f3d565b9150612ca082612c39565b604082019050919050565b60006020820190508181036000830152612cc481612c88565b9050919050565b7f45524332303a207472616e736665722066726f6d20746865207a65726f20616460008201527f6472657373000000000000000000000000000000000000000000000000000000602082015250565b6000612d27602583611f3d565b9150612d3282612ccb565b604082019050919050565b60006020820190508181036000830152612d5681612d1a565b9050919050565b7f45524332303a207472616e7366657220746f20746865207a65726f206164647260008201527f6573730000000000000000000000000000000000000000000000000000000000602082015250565b6000612db9602383611f3d565b9150612dc482612d5d565b604082019050919050565b60006020820190508181036000830152612de881612dac565b9050919050565b7f45524332303a207472616e7366657220616d6f756e742065786365656473206260008201527f616c616e63650000000000000000000000000000000000000000000000000000602082015250565b6000612e4b602683611f3d565b9150612e5682612def565b604082019050919050565b60006020820190508181036000830152612e7a81612e3e565b905091905056fea2646970667358221220b5a2ca641c4d6127eb38b6d45f821ad28b4c0c42131ad8f00ff00314f840092664736f6c634300080a0033",
  "immutableReferences": {},
  "source": "// SPDX-License-Identifier: MIT\r\npragma solidity ^0.8.0;\r\n\r\nimport \"@openzeppelin/contracts/token/ERC20/ERC20.sol\";\r\nimport \"@openzeppelin/contracts/access/Ownable.sol\";\r\n\r\ncontract SignMeUp is ERC20, Ownable {\r\n\r\n  uint256 public entryPriceWei;\r\n\r\n  // All entries\r\n  SignUpEventEntry[] public entries;\r\n\r\n  // Mapping of registered addresses by registration date for given entry\r\n  mapping (uint256 => mapping(address => uint256)) private entryRegistrationTimestamps;\r\n\r\n  // Entries which user registered for\r\n  mapping (address => uint256[]) private registrantEntries;\r\n\r\n  // Entries which user was selected for\r\n  mapping (address => uint256[]) private participantEntries;\r\n\r\n  // Registrants for given SignUpEventEntry\r\n  mapping (uint256 => address[]) private entryParticipants;\r\n\r\n  // Number of entries organized by user\r\n  mapping (address => uint256) private organizerEntriesCount;\r\n\r\n  // Organizer of given SignUpEventEntry\r\n  mapping (uint256 => address) public entryOrganizer;\r\n\r\n  ////// Enums //////\r\n  enum State {Active, Closed}\r\n\r\n  ////// Events //////\r\n  event LogEntryCreated(uint256 id);\r\n  event LogRegistered(uint256 id, address who, uint256 when);\r\n\r\n  ////// Modifiers //////\r\n  modifier isActive(uint256 _eventId) {\r\n    SignUpEventEntry memory eventEntry = entries[_eventId];\r\n    require(eventEntry.state == State.Active && block.timestamp < eventEntry.registrationDueDate);\r\n    _;\r\n  }\r\n\r\n  modifier isNotClosed(uint256 _eventId) {\r\n    SignUpEventEntry memory eventEntry = entries[_eventId];\r\n    require(eventEntry.state != State.Closed);\r\n    _;\r\n  }\r\n\r\n  modifier notYetRegistered(uint256 _eventId) {\r\n    mapping(address => uint256) storage registrationTimestamps = entryRegistrationTimestamps[_eventId];\r\n    require(registrationTimestamps[msg.sender] == 0);\r\n    _;\r\n  }\r\n\r\n  modifier isOrganizer(uint256 _eventId) {\r\n    require(entryOrganizer[_eventId] == msg.sender);\r\n    _;\r\n  }\r\n\r\n  modifier paidEnough() {\r\n    require(msg.value >= entryPriceWei);\r\n    _;\r\n  }\r\n\r\n  ////// Structs //////\r\n  struct SignUpEventEntry {\r\n    uint256 id;\r\n    address organizer;\r\n    string title;\r\n    uint256 spots;\r\n    uint256 registrationDueDate;\r\n    uint256 eventDate;\r\n    State state;\r\n  }\r\n\r\n  struct EntryList {\r\n    bool isPresent;\r\n    uint256 ids;\r\n  }\r\n\r\n  constructor() ERC20(\"SignMeUp\", \"SMU\") {\r\n    entryPriceWei = 50_000 * 1_000_000_000;\r\n    // Test entries\r\n    // newSignUpEventEntryOf(\"Event 1\", 10, 10000, 20000);\r\n    // newSignUpEventEntryOf(\"Event 2\", 12, 100000, 200000);\r\n    // newSignUpEventEntryOf(\"Event 3\", 23, 10000000, 20000000);\r\n  }\r\n\r\n  // fallback() external payable {\r\n  //   revert();\r\n  // }\r\n\r\n  ////// Common functions //////\r\n\r\n  function getEntriesCount() public view returns(uint256) {\r\n    return entries.length;\r\n  }\r\n\r\n// payable\r\n//     paidEnough()\r\n\r\n  ////// Organizer functions\r\n  function createNewSignUpEventEntry(string memory _title, uint _spots, uint _registrationDueDate, uint _eventDate)\r\n    public\r\n    \r\n    returns (uint256) {\r\n\r\n      uint256 id = newSignUpEventEntryOf(_title, _spots, _registrationDueDate, _eventDate);\r\n\r\n      // TODO test it\r\n      // address payable _owner = payable(owner());\r\n      // _owner.transfer(msg.value);\r\n\r\n      emit LogEntryCreated(id);\r\n\r\n      return id;\r\n  }\r\n\r\n  function newSignUpEventEntryOf(string memory _title, uint _spots, uint _registrationDueDate, uint _eventDate)\r\n    private\r\n    returns (uint256) {\r\n\r\n      uint256 newId = nextEntryId();\r\n      address organizer = msg.sender;\r\n\r\n      SignUpEventEntry memory entry = SignUpEventEntry({\r\n        id: newId,\r\n        organizer: organizer,\r\n        title: _title,\r\n        spots: _spots,\r\n        registrationDueDate: _registrationDueDate,\r\n        eventDate: _eventDate,\r\n        state: State.Active\r\n      });\r\n      \r\n      entryOrganizer[newId] = organizer;\r\n      organizerEntriesCount[organizer] += 1;\r\n\r\n      entries.push(entry);\r\n\r\n      return entry.id;\r\n  }\r\n\r\n  function nextEntryId() private view returns(uint256) {\r\n    return entries.length;\r\n  }\r\n\r\n  function getOrganizerEntriesCount() public view returns(uint256) {\r\n    return organizerEntriesCount[msg.sender];\r\n  }\r\n\r\n  function getOrganizerEntries()\r\n    public\r\n    view\r\n    returns(SignUpEventEntry[] memory) {\r\n\r\n    address organizer = msg.sender;\r\n\r\n    SignUpEventEntry[] memory result = new SignUpEventEntry[](organizerEntriesCount[organizer]);\r\n    uint256 targetIndex = 0;\r\n    for (uint256 i = 0; i < entries.length; i++) {\r\n      if (entries[i].organizer == organizer) {\r\n        result[targetIndex++] = entries[i];\r\n      }\r\n    }\r\n\r\n    return result;\r\n  }\r\n\r\n  function randomlyChooseEventParticipants(uint256 _eventId)\r\n    public\r\n    isOrganizer(_eventId)\r\n    isNotClosed(_eventId) {\r\n      // TODO use some 'random' oracle, choose participants from registeres users and change state to Closed\r\n  }\r\n\r\n  ////// Registrant functions //////\r\n  function registerForEvent(uint256 _eventId)\r\n    public\r\n    isActive(_eventId)\r\n    notYetRegistered(_eventId)\r\n    returns(bool) {\r\n\r\n    mapping(address => uint) storage registrationTimestamps = entryRegistrationTimestamps[_eventId];\r\n    registrationTimestamps[msg.sender] = block.timestamp;\r\n    registrantEntries[msg.sender].push(_eventId);\r\n\r\n    emit LogRegistered(_eventId, msg.sender, block.timestamp);\r\n\r\n    return true;\r\n  }\r\n\r\n  function getEntriesUserRegisteredFor() public view returns(uint256[] memory) {\r\n    return registrantEntries[msg.sender];\r\n  }\r\n\r\n  function getEntriesUserSelectedFor() public view returns(uint256[] memory) {\r\n    return participantEntries[msg.sender];\r\n  }\r\n\r\n  // ### Utils ###\r\n  // #############\r\n\r\n  function nonSecureRandom() private view returns (uint256) {\r\n    return uint256(keccak256(\r\n      abi.encodePacked(block.timestamp, block.difficulty)\r\n    ));\r\n  }\r\n  // ### Utils - end ###\r\n}\r\n",
  "sourcePath": "/mnt/c/Dev/workspace/consensys/final/blockchain-developer-bootcamp-final-project/contracts/SignMeUp.sol",
  "compiler": {
    "name": "solc",
    "version": "0.8.10+commit.fc410830.Emscripten.clang"
  },
  "schemaVersion": "3.4.3",
  "updatedAt": "2021-11-14T18:00:07.184Z",
  "networkType": "ethereum",
  "devdoc": {
    "kind": "dev",
    "methods": {
      "allowance(address,address)": {
        "details": "See {IERC20-allowance}."
      },
      "approve(address,uint256)": {
        "details": "See {IERC20-approve}. Requirements: - `spender` cannot be the zero address."
      },
      "balanceOf(address)": {
        "details": "See {IERC20-balanceOf}."
      },
      "decimals()": {
        "details": "Returns the number of decimals used to get its user representation. For example, if `decimals` equals `2`, a balance of `505` tokens should be displayed to a user as `5.05` (`505 / 10 ** 2`). Tokens usually opt for a value of 18, imitating the relationship between Ether and Wei. This is the value {ERC20} uses, unless this function is overridden; NOTE: This information is only used for _display_ purposes: it in no way affects any of the arithmetic of the contract, including {IERC20-balanceOf} and {IERC20-transfer}."
      },
      "decreaseAllowance(address,uint256)": {
        "details": "Atomically decreases the allowance granted to `spender` by the caller. This is an alternative to {approve} that can be used as a mitigation for problems described in {IERC20-approve}. Emits an {Approval} event indicating the updated allowance. Requirements: - `spender` cannot be the zero address. - `spender` must have allowance for the caller of at least `subtractedValue`."
      },
      "increaseAllowance(address,uint256)": {
        "details": "Atomically increases the allowance granted to `spender` by the caller. This is an alternative to {approve} that can be used as a mitigation for problems described in {IERC20-approve}. Emits an {Approval} event indicating the updated allowance. Requirements: - `spender` cannot be the zero address."
      },
      "name()": {
        "details": "Returns the name of the token."
      },
      "owner()": {
        "details": "Returns the address of the current owner."
      },
      "renounceOwnership()": {
        "details": "Leaves the contract without owner. It will not be possible to call `onlyOwner` functions anymore. Can only be called by the current owner. NOTE: Renouncing ownership will leave the contract without an owner, thereby removing any functionality that is only available to the owner."
      },
      "symbol()": {
        "details": "Returns the symbol of the token, usually a shorter version of the name."
      },
      "totalSupply()": {
        "details": "See {IERC20-totalSupply}."
      },
      "transfer(address,uint256)": {
        "details": "See {IERC20-transfer}. Requirements: - `recipient` cannot be the zero address. - the caller must have a balance of at least `amount`."
      },
      "transferFrom(address,address,uint256)": {
        "details": "See {IERC20-transferFrom}. Emits an {Approval} event indicating the updated allowance. This is not required by the EIP. See the note at the beginning of {ERC20}. Requirements: - `sender` and `recipient` cannot be the zero address. - `sender` must have a balance of at least `amount`. - the caller must have allowance for ``sender``'s tokens of at least `amount`."
      },
      "transferOwnership(address)": {
        "details": "Transfers ownership of the contract to a new account (`newOwner`). Can only be called by the current owner."
      }
    },
    "version": 1
  },
  "userdoc": {
    "kind": "user",
    "methods": {},
    "version": 1
  }
}